:020000040800F2
:10000000182600204501000895260008A9170008B9
:1000100091260008770A0008D56700080000000054
:10002000000000000000000000000000812900081E
:10003000490D000800000000972600086D2A0008FE
:100040005F0100085F0100085F0100085F01000810
:100050005F0100085F0100085F0100085F01000800
:100060005F0100085F0100085F0100085F010008F0
:100070005F0100085F0100085F0100085F010008E0
:100080005F0100085F0100085F0100085F010008D0
:100090005F0100085F0100085F0100085F010008C0
:1000A0005F0100085F0100085F0100085F010008B0
:1000B0005F0100085F0100085F0100085F010008A0
:1000C0005F0100085F0100085F0100085F01000890
:1000D0005F010008F56400085F010008F96400088A
:1000E0005F0100085F0100085F0100085F01000870
:1000F0005F0100085F0100085F0100085F01000860
:100100005F0100085F0100085F0100085F0100084F
:100110005F0100085F0100085F0100085F0100083F
:100120005F0100085F0100085F0100085F0100082F
:10013000DFF80CD000F076FB00480047217400087F
:10014000182600200648804706480047FEE7FEE7DD
:10015000FEE7FEE7FEE7FEE7FEE7FEE7FEE7FEE777
:10016000B52A000831010008D2B201E000F8012BE5
:10017000491EFBD270470022F6E710B513460A4627
:1001800004461946FFF7F0FF204610BD30B505467E
:100190002A460B4612F8010B13F8014B08B1A04296
:1001A000F8D01CB1002802D06D1CF1E7284630BD04
:1001B000421C10F8011B0029FBD1801A70472DE961
:1001C000FE4F804681EA0300C00F0C46009021F0EC
:1001D000004123F00045B8EB0200A94105D240469A
:1001E000214690461C460B46024623F00040104331
:1001F00047D0270DC7F30A00C3F30A510290401AF3
:10020000019040286BDAC3F3130040F4801B009880
:10021000924620B10023D2EB030A63EB0B0B01984B
:100220005946C0F14002504600F006FA06460D4617
:1002300050465946019A00F01EFA10EB0800614141
:10024000002487EA115284EAE7731A4340D0009AE7
:1002500062B3019A012A4FEA075215DC001B61EBD9
:1002600002014FF0004202EA0752CDE90042001CB1
:1002700041F5801132462B4600F055FA03B0BDE837
:10028000F08F40462146F9E7001B61EB0201001C9C
:1002900041F5801300185B412018A2F5001747EBC9
:1002A000030140EAD570B6196D4111E06D084FEABF
:1002B000360645EAC0754FEA0752001B61EB0201A2
:1002C000001C41F5801149084FEA300000195141E6
:1002D00032462B4603B0BDE8F04F00F015BA009847
:1002E000012240000023D0EB020263EBE073009890
:1002F00021464FEAE074B8EB000061EB0401E9E746
:1003000083F000435BE781F0004158E72DE9FE4FA1
:1003100081EA030404F0004421F0004100944FF00E
:10032000000B23F0004350EA01045ED052EA0304BC
:100330005BD0C3F30A54C1F30A552C44A4F2F3343E
:100340000194A0FB0254C1F3130141F48011C3F3E3
:10035000130343F4801301FB024400FB034E840AA1
:10036000970A44EA815447EA8357A4FB0768029539
:100370008D0A05FB07854FEA932C04FB0C542705D7
:10038000029D4FEA065847EA1637B5EB08056EEBB3
:10039000070C870E920E47EA811742EA8312A7FBE9
:1003A0000201B6EB0B0164EB00042B0D43EA0C33A6
:1003B0005E1844EB1C50DA465146E7FB0201C5F3D8
:1003C00013044FEA0B3343EA14534FEA0432019CFF
:1003D00043EA0603A4F10C040294009CCDE900B4A6
:1003E00000F0A1F903B0BDE8F08F00200146F9E765
:1003F0002DE9F04D81EA030404F0004B21F00045A3
:1004000014464FF0000A23F0004150EA050220D0C4
:1004100054EA01021DD0C5F30A570246C5F313037F
:10042000C1F31300C1F30A5640F4801543F480135E
:10043000A7EB0608101BD64608F2FD3873EB050043
:1004400002D308F1010801E092185B41B8F1000FF6
:1004500003DA00200146BDE8F08D00204FF4801142
:10046000064684460EE0171B73EB050705D3121BE7
:1004700063EB050306434CEA010C49084FEA3000E0
:1004800092185B4150EA0107EDD152EA030012D005
:1004900082EA040083EA0501084305D0101BAB4142
:1004A00006D20122002306E000224FF0004302E0C2
:1004B0006FF0010253101AEB06004CEB085110EBE1
:1004C0000A0041EB0B01BDE8F04D00F01DB90EB57F
:1004D00040F2334102910021CDE900110A460B465A
:1004E00000F021F903B000BD00F0004220F0004010
:1004F000C10DC0F3160040F400007F2901DA00208E
:100500007047962903DCC1F19601C84001E0963995
:100510008840002AF4D040427047C1F30A5210B517
:10052000C1F3130140F2FF3341F480119A4201DA22
:10053000002010BD40F233439A42A2F2334203DC62
:10054000524200F088F810BD904010BD00F000420B
:1005500030F000400AD0C10D01F56071C0F3160003
:1005600042EA0151C208400711437047002001468A
:10057000704701F0004330B421F0004150EA01021D
:1005800006D00A0DA2F56072C1F31301002A02DC45
:1005900030BC00207047440F44EAC104C100E01899
:1005A00030BC00EBC25000F078B830B50B460146C5
:1005B00000202022012409E021FA02F59D4205D302
:1005C00003FA02F5491B04FA02F52844151EA2F1AC
:1005D0000102F1DC30BD2DE9F05F054600209246B6
:1005E0009B4688460646814640241BE028464146F5
:1005F0004746224600F02FF853465A46C01A91410A
:1006000010D311461846224600F016F82D1A67EB53
:1006100001084F4622460120002100F00DF817EB9B
:1006200000094E41201EA4F10104DFDC484631469A
:100630002A464346BDE8F09F202A04DB203A00FA10
:1006400002F1002070479140C2F1200320FA03F329
:10065000194390407047202A04DB203A21FA02F027
:100660000021704721FA02F3D040C2F120029140EC
:10067000084319467047202A06DBCB17203A41FA77
:1006800002F043EAE07306E041FA02F3D040C2F11F
:10069000200291400843194670470029A8BF7047BF
:1006A000401C490008BF20F00100704710B4B0FAA8
:1006B00080FC00FA0CF050EA010404BF10BC704743
:1006C00049B1CCF1200421FA04F411FA0CF118BF5D
:1006D000012121430843A3EB0C01CB1D4FEA00612C
:1006E0004FEA102042BF002010BC704700EBC350FF
:1006F00010440029A4BF10BC7047401C490008BF2B
:1007000020F0010010BC704710B5141E73F10004F6
:1007100008DA401C41F1000192185B411A4301D1F3
:1007200020F0010010BD2DE9F04D92469B4611B11D
:10073000B1FA81F202E0B0FA80F220329046FFF77F
:100740007BFF04460F4640EA0A0041EA0B0153468C
:100750005A46084313D0114653EA010019D0C8F194
:1007600040025046FFF777FF05460E465046594671
:100770004246FFF761FF084305D0012004E0204610
:100780003946BDE8F08D0020054346EAE0762C436B
:1007900037430A986305E40AA0EB08000022FD0A2B
:1007A00044EA47540A3002D500200146E9E7010532
:1007B00010196941DDE9084500196941BDE8F04DAE
:1007C000A2E7C1F30A52C1F3130140F2FF3341F42F
:1007D00080119A4202DA00200146704740F233430A
:1007E0009A42A2F2334202DC5242FFF734BFFFF7D3
:1007F00023BF000030B5041E71F1000404DB4FF08C
:100800000044404264EB0101141E73F1000405DB57
:100810001C464FF00043524263EB0403994208BF69
:10082000904230BD064C074D06E0E06840F0010301
:1008300094E8070098471034AC42F6D3FFF77CFCED
:10084000100D0308300D030821B1826842F0010247
:10085000826003E0826822F001028260704700003B
:1008600000B587B04FF4004001F0E4FF01214FF4E0
:10087000057002F00BF800208DF81B002220ADF867
:10088000180003208DF81A0006A91A4800F074FD1C
:100890000220ADF8180006A9174800F06DFD0020F1
:1008A0008DF8090004904FF460200390002001901F
:1008B00001208DF8140000208DF8080001A90F48D0
:1008C00000F040F801210D48FFF7BEFF0B4800F093
:1008D000BDF800BF094800F02AF80028FAD10748FF
:1008E00000F0C4F800BF054800F00AF80028FAD16B
:1008F00007B000BD00080140001001400024014085
:10090000014600208A6802F004020AB1012000E0DA
:10091000002070470146C86C80B270470246002034
:1009200013680B400BB1012000E000207047014626
:1009300000208A6802F008020AB1012000E00020CD
:100940007047000030B502460020002350680F4C6D
:1009500020400D790C6844EA0524204350609068DB
:100960000B4C2040D1E902542C434D7944EA450414
:1009700020439060D06A20F470000C7C641EE4B2C6
:10098000234340EA0350D06230BD0000FFFEF0FF79
:10099000FDF7F1FFF0B504460D4600200021092DBA
:1009A00011DDE068A5F10A0606EB4607072606FA00
:1009B00007F18843A5F10A0606EB460603FA06F19D
:1009C0000843E0600CE0206905EB4507072606FABE
:1009D00007F1884305EB450603FA06F10843206159
:1009E000072A0FDA606B561E06EB86071F2606FAEB
:1009F00007F18843561E06EB860605FA06F1084302
:100A0000606322E00D2A0FDA206BD61F06EB860703
:100A10001F2606FA07F18843D61F06EB860605FA5D
:100A200006F10843206310E0E06AA2F10D0606EB30
:100A300086071F2606FA07F18843A2F10D0606EB8A
:100A4000860605FA06F10843E062F0BD816841F0D0
:100A500008018160704721B1826842F4A00282607F
:100A600003E0826822F4A00282607047816841F04E
:100A700004018160704700BFFEE7000030B5C1B0DF
:100A800004460D464FF4807101A8FFF774FB00F097
:100A900057FA02234FF4FA721CA11DA000F01CFAB1
:100AA00028B11CA005F034FF012041B030BD1DA0CD
:100AB00005F02EFF02234FF4FA7214A11DA000F0DE
:100AC0000BFA20B11EA005F023FF0220EDE722A0C3
:100AD00005F01EFF2B46224625A101A805F028FFA0
:100AE000022342F2107209A101A800F0F5F920B129
:100AF00024A005F00DFF0320D7E727A005F008FF8D
:100B00002AA005F005FF0020CFE700004F4B0000B2
:100B100041540000415420B2E2CAD4CAA7B0DC0D4F
:100B20000A000000415420B2E2CAD4B3C9B9A60DEC
:100B30000A00000041542B43574D4F44453D3100BE
:100B400041542B43574D4F444520C9E8D6C3CAA74B
:100B5000B0DC0D0A0000000041542B43574D4F44B8
:100B60004520C9E8D6C3B3C9B9A60D0A00000000E4
:100B700041542B43574A41503D222573222C2225B4
:100B80007322000041542B43574A415020C9E8D6F4
:100B9000C3CAA7B0DC0D0A0041542B43574A415049
:100BA00020C9E8D6C3B3C9B9A60D0A00C1ACBDD3EC
:100BB000C8C8B5E3B3C9B9A60D0A000030B5C1B0C5
:100BC00004460D464FF4807101A8FFF7D4FA0223C2
:100BD00041F2883222A123A000F07EF901280DD134
:100BE00023A005F095FE2AA12CA0FFF747FF28B10E
:100BF0002CA005F08DFE012041B030BD2B462246D1
:100C00002EA101A805F094FE02234FF4FA6214A16C
:100C100001A800F061F9012804D12FA005F078FEA9
:100C20000220E9E702234FF4FA720DA130A000F090
:100C300053F9012804D132A005F06AFE0320DBE756
:100C400002234FF4FA7235A135A000F045F90128CE
:100C500004D136A005F05CFE0420CDE70020CBE7F0
:100C60004F4B000041542B43574A41503F00000076
:100C7000CEB4BCECB2E2B5BDC1ACBDD3C8C8B5E31F
:100C80000D0AD6D8C1ACD6D02E2E2E0D0A000000EB
:100C9000313233343536373900000000616C6F650E
:100CA0004A756E00CEB4BCECB2E2B5BDC8C8B5E3BF
:100CB000A3ACCDCBB3F60D0A0000000041542B438A
:100CC000495053544152543D22544350222C222522
:100CD00073222C2564000000C1ACBDD3B7FECEF159
:100CE000C6F7CAA7B0DCA3ACCDCBB3F60D0A0000A3
:100CF00041542B4349504D4F44453D3100000000C5
:100D0000BFAAC6F4CDB8B4ABC4A3CABDCAA7B0DCF1
:100D1000A3ACCDCBB3F60D0A000000003E000000EE
:100D200041542B43495053454E440000BDF8C8EB95
:100D3000CDB8B4ABC4A3CABDCAA7B0DCA3ACCDCBFD
:100D4000B3F60D0A00000000704770B54FF47A73D7
:100D500000FB03F1002247E000BF00BF00BF00BF5F
:100D600000BF00BF00BF00BF00BF00BF00BF00BF8B
:100D700000BF00BF00BF00BF00BF00BF00BF00BF7B
:100D800000BF00BF00BF00BF00BF00BF00BF00BF6B
:100D900000BF00BF00BF00BF00BF00BF00BF00BF5B
:100DA00000BF00BF00BF00BF00BF00BF00BF00BF4B
:100DB00000BF00BF00BF00BF00BF00BF00BF00BF3B
:100DC00000BF00BF00BF00BF00BF00BF00BF00BF2B
:100DD00000BF00BF00BF00BF00BF00BF00BF00BF1B
:100DE00000BF00BF00BF00BF13460C46491E62F1A2
:100DF00000020026744073401C43ADD170BD47E033
:100E000000BF00BF00BF00BF00BF00BF00BF00BFEA
:100E100000BF00BF00BF00BF00BF00BF00BF00BFDA
:100E200000BF00BF00BF00BF00BF00BF00BF00BFCA
:100E300000BF00BF00BF00BF00BF00BF00BF00BFBA
:100E400000BF00BF00BF00BF00BF00BF00BF00BFAA
:100E500000BF00BF00BF00BF00BF00BF00BF00BF9A
:100E600000BF00BF00BF00BF00BF00BF00BF00BF8A
:100E700000BF00BF00BF00BF00BF00BF00BF00BF7A
:100E800000BF00BF00BF00BF00BF00BF00BF00BF6A
:100E9000011EA0F10100B3D17047000038B504462F
:100EA0000121080201F0F2FC002000904FF40060E4
:100EB000ADF8000003208DF802001CB914208DF855
:100EC000030002E004208DF803006946014800F0A9
:100ED00053FA38BD002001402DE9F04104460D468B
:100EE00017461E462046FFF763F980460020124948
:100EF000A1F808044FF481610F48FFF73CF900BFE7
:100F00003CB11FFA88F1204605F03EFB0BA005F02E
:100F10005DFB5DB13A462946074800F0AAF828B1C2
:100F200000200549A1F80804BDE8F081701EC0B298
:100F3000061EE5D10120F7E7660100200D0A00003A
:100F400010B504A005F042FB4FF4FA70FFF7FDFE68
:100F500010BD00002B2B2B0051B18200A2F1C0422A
:100F6000126842F001038200A2F1C042136009E05E
:100F70008200A2F1C0421268034B1A408300A3F121
:100F8000C0431A6070470000FEFF0F00D0E9011255
:100F90001143C268114302691143426911438269D6
:100FA0001143C2691143026A1143426A1143826AC2
:100FB0001143C26A1143026B114302689200A2F10D
:100FC000C0421160816808290BD101688900A1F134
:100FD000C041096841F0400201688900A1F1C041A7
:100FE0000A60416B0968426B526841EA0211426B28
:100FF000926841EA0221426B928941EA0241426BC6
:10100000128A41EA0251426B127D41EA0261426B4F
:10101000926911430268521C9200A2F1C042116011
:10102000C16AB1F5804F1BD1816B0968826B526830
:1010300041EA0211826B926841EA0221826B128AB4
:1010400041EA0251826B127D41EA0261826B926930
:10105000114302689200A2F1C042C2F8041107E0F5
:101060006FF0704201688900A1F1C041C1F804210C
:10107000704770B505460E46144602E00120FFF7A2
:1010800064FE201EA4F1010405D031462846FFF776
:101090007DF80028F2D031462846FFF777F870BD7A
:1010A0002DE9FF5F0020039000248146FFF7F6FE44
:1010B0004FF40061A04800F0F3F91420FFF745FE5B
:1010C0004FF400619C4800F0EDF90120FFF7E6FEC7
:1010D0000DE009F1010000F0FF090120FFF78FFE8C
:1010E000B9F1640F03DD012004B0BDE8F09F4FF4B7
:1010F0000061914800F0CBF90028EAD04FF00009D8
:101100000BE009F1010000F0FF090120FFF777FE75
:10111000B9F1640F01DD0220E6E74FF40061864873
:1011200000F0B5F90128ECD04FF000090BE009F10F
:10113000010000F0FF090120FFF761FEB9F1640F23
:1011400001DD0320D0E74FF400617B4800F09FF9F8
:101150000028ECD000246FE04FF000090BE009F10B
:10116000010000F0FF090120FFF749FEB9F1640F0B
:1011700001DD0420B8E74FF400616F4800F087F903
:101180000128ECD04FF000090BE009F1010000F05C
:10119000FF090120FFF733FEB9F1640F01DD0520DF
:1011A000A2E74FF40061644800F071F90028ECD028
:1011B0001E20FFF724FE4FF400615F4800F067F93E
:1011C000C0B9E21704EB5272D2105C4B9A5C214614
:1011D000E31704EB5373DB10A4EBC303C3F1070560
:1011E0000123AB409A432046E31704EB5373DB1013
:1011F000524DEA544FF400614F4800F048F901287D
:1012000018D1E21704EB5272D2104C4B9A5C214673
:10121000E31704EB5373DB10A4EBC303C3F107051F
:101220000123AB401A432046E31704EB5373DB1052
:10123000424DEA54601CC4B2282C8DDB3F48007834
:101240003E49497808443D49897808443B49C97872
:101250000844C0B20390394801790398814269D1AA
:1012600036494878FFF733F90022354BCDE90001C4
:10127000FFF7BEF805460E4630490878FFF727F914
:1012800007462A463346FEF79AFF8246FFF771F972
:101290002C4908602949C878FFF719F90746002248
:1012A000274BFFF7A5F805460E4624498878FFF737
:1012B0000EF982462A463346FEF781FFCDE900014A
:1012C000FFF757F92049086008460068FFF73EF924
:1012D00005460E461B480068FFF738F907463A46B0
:1012E0000B461AA0CDE9005605F012FB1348827890
:1012F0001CA11E4805F01CFB00201C4910221346AF
:10130000CDE900210290962228210F2000F0A0FFB5
:101310000A48027816A1154805F00AFB0020134977
:1013200010221346CDE90021029096223C210F2085
:1013300000F08EFF0020D7E600200140380000209A
:1013400000002440300000203400002048756D3A31
:10135000252E3166202054656D3A252E31660D0A02
:1013600000000000CEC2B6C83A256400D0000020BC
:10137000CAAAB6C83A2564002DE9F0410246002504
:101380000026002000230024002791F803C00CF061
:101390000F0591F803C00CF0100CBCF1000F03D046
:1013A00091F802C04CEA050591F800C0BCF1000FAD
:1013B00031D0146800202BE04FF0010C0CFA00F340
:1013C000B1F800C00CEA03069E4220D183004FF022
:1013D0000F0C0CFA03F7BC4305FA03FC4CEA0404B7
:1013E00091F803C0BCF1280F06D14FF0010C0CFAA4
:1013F00000FCC2F814C00AE091F803C0BCF1480F29
:1014000005D14FF0010C0CFA00FCC2F810C0401CD2
:101410000828D1D31460B1F800C0BCF1FF0F34DD4F
:10142000546800202EE000F1080C4FF0010808FA83
:101430000CF3B1F800C00CEA03069E4221D18300F0
:101440004FF00F0C0CFA03F7BC4305FA03FC4CEA0F
:10145000040491F803C0BCF1280F05D100F1080C79
:1014600008FA0CF8C2F8148091F803C0BCF1480FD8
:1014700007D100F1080C4FF0010808FA0CF8C2F887
:101480001080401C0828CED35460BDE8F08102468D
:10149000002093680B400BB1012000E00020704752
:1014A000416170470161704710B502460B461088D4
:1014B000012107E032F81140844202DD034C34F888
:1014C0001100491C9942F5D310BD0000A40500206D
:1014D00010B502460B461088012107E032F8114092
:1014E000844202DA034C34F81100491C9942F5D3C6
:1014F00010BD0000A405002010B501213448FFF7FD
:10150000C6FF012805D133480088401C31490880B6
:101510005CE010213048FFF7BAFF28B92F48008857
:10152000401C2E49088051E020212B48FFF7AFFFD7
:1015300028B92B480088401C2949088046E04021F2
:101540002548FFF7A4FF28B926480088401C2549F4
:1015500008803BE01F48008802280ADD00201D4962
:1015600008801E4908801E4908801E490880012005
:1015700010BD1A48008802280ADD0020154908809D
:101580001649088016490880164908800220EFE7AE
:101590001348008802280ADD00200E4908800F4900
:1015A00008800F4908800F4908800320E0E70D48B4
:1015B000008802280ADD00200649088007490880C3
:1015C00007490880074908800420D1E70020CFE7B9
:1015D0000008014028000020001001402A000020DF
:1015E0002C0000202E00002070B586B0142101A828
:1015F000FEF7C1FD0523012211462848FFF7CAF96D
:10160000002412E001212548FFF725FA00BF02213E
:101610002248FFF783F90028F9D02048FFF77AF92C
:1016200001A921F81400601CC4B20A2CEADB0024D2
:101630001EE0002516E001A830F8151001AA681C6C
:1016400032F8100081420BDD01A830F8156001A9C5
:10165000681C31F8100021F81500681C21F8106092
:10166000681CC5B2C4F10900A842E4DC601CC4B225
:10167000092CDEDB0026012406E001A830F8140066
:10168000304486B2601CC4B2092CF6DB3146F01738
:1016900006EB5070C0F3CF0006B070BD00240140CF
:1016A0000EB50523012219461648FFF773F90121EB
:1016B0001448FFF7D0F900BF02211248FFF72EF9B6
:1016C0000028F9D00F48FFF725F90F490880084690
:1016D00001880EA005F01CF90B4802880EA11048E5
:1016E00005F026F900200E4910221346CDE900210D
:1016F0000290962264210F2000F0AAFD0248008883
:101700000EBD0000002401403E000020B9E2D5D506
:101710003A25640D0A000000B9E2D5D53A256400E7
:10172000020100200EB5052301220B211648FFF708
:1017300031F901211448FFF78EF900BF0221124848
:10174000FFF7ECF80028F9D00F48FFF7E3F80F494E
:101750004880084641880EA005F0DAF80B48428818
:101760000EA1104805F0E4F800200E49102213469F
:10177000CDE900210290962250210F2000F068FD53
:10178000024840880EBD0000002401403E000020B9
:10179000D1CCCEED3A25640D0A000000D1CCCEEDBF
:1017A0003A2564000201002000BFFEE700B587B0C3
:1017B00000200690142101A8FEF7DDFC4FF4004044
:1017C00001F038F801214FF4017001F05FF80020BA
:1017D0008DF81B000220ADF8180003208DF81A00C8
:1017E00006A91748FFF7C8FD00208DF809000490EE
:1017F0004FF4602003900020019001208DF8140028
:1018000000208DF8080001A90E48FFF79BF8012180
:101810000C48FFF719F80B48FFF718F900BF094803
:10182000FFF785F80028FAD10648FFF71FF900BF37
:101830000448FFF765F80028FAD107B000BD0000A2
:10184000000801400024014008B50121142001F0E6
:101850001DF80020009004208DF803007020ADF8E2
:10186000000003208DF8020069460548FFF784FD5B
:101870000120ADF8000069460248FFF77DFD08BD74
:10188000001001400008014070B5044600261748CA
:101890000588408845431548808846F604018842FB
:1018A00016D112488079012812D100200F49887181
:1018B0002A2048812B2088810021084600F0FCFA6C
:1018C00001200A4988712B2048812A20888103E061
:1018D0000021084600F0F0FA00F05EFE002602E06B
:1018E00003480480761CAE42FAD370BD080600207F
:1018F0000008006C10B50446002C73D1794988713A
:10190000F02008804FF4A07048800846808849F293
:101910004131884211D07348808849F2864188421B
:101920000BD07048808846F60401884205D06D4887
:10193000808845F21031884220D12C2069490881E5
:101940002A2048812B2088810846808846F6040199
:1019500088420BD06348808845F21031884205D018
:101960006048808849F28641884206D14FF4A070D1
:101970005C4908804FF4F0704880AEE05948808898
:1019800045F21051884210D14FF43050554908812A
:101990004FF4285048814FF42C5088814FF4F07058
:1019A00008804FF44870488097E04E48808841F6A0
:1019B000631188420DD12C204A4908812B2048818F
:1019C0002A2088814FF4F07008804FF448704880D6
:1019D00083E02220434908812020488121208881FA
:1019E0007BE0FFE701203F4988714FF4A070088039
:1019F000F02048800846808849F2413188420BD067
:101A00003848808849F28641884205D03548808828
:101A100045F21031884207D12C20324908812A2012
:101A200048812B2088813FE02E48808846F60401BB
:101A3000884207D12C202B4908812B2048812A205D
:101A4000888131E02748808845F21051884210D1C2
:101A50004FF43050234908814FF4285048814FF407
:101A60002C5088814FF4487008804FF4F070488003
:101A70001AE01C48808841F6631188420DD12C2061
:101A8000184908812A2048812B2088814FF448700A
:101A900008804FF4F070488006E022201149088148
:101AA00021204881202088810E48808846F6040144
:101AB00088420BD00B48808845F21031884205D00F
:101AC0000848808849F28641884206D14FF4F07078
:101AD000044908804FF4A0704880002000F070F89E
:101AE00010BD00000806002070B505460E461446DD
:101AF0003146284600F0E0F900F04EFD0148048030
:101B000070BD00000008006C2DE9F04F06460F463E
:101B100090469946C346CA463C460CE0354606E028
:101B200021462846099AFFF7DFFF681C85B25D450C
:101B3000F6DB601C84B25445F0DBBDE8F08F00009A
:101B400008B5034800880090BDF8000008BD0000FB
:101B50000008006C10B50446204600F011FD052079
:101B6000FFF74DF9FFF7ECFF10BD00002DE9F0473E
:101B70000446BE2000F004FD052000F0F5FC2046E0
:101B8000FEF7A5FC07464FF066320C4BFEF7BEFB96
:101B90000546FEF7C2FC1FFA80F9484600F0E4FC57
:101BA000012000F0E1FCFF2000F0DEFC002000F04E
:101BB000DBFC002000F0D8FCBDE8F087666604403E
:101BC000F0B5054600240027BA48807901280BD1DA
:101BD000B848808846F60401884205D0B548808818
:101BE00041F66311884208D1B2488079F0B9B14812
:101BF000808841F66311884218D1082D15D2DFE89C
:101C000005F00406080A0C0E101206250DE0072543
:101C10000BE0042509E0052507E0012505E0002586
:101C200003E0032501E0022500BF00BFA148808832
:101C300049F2413188421DD09E48808849F2864150
:101C4000884217D09B48808846F60401884211D00C
:101C50009848808845F2103188420BD0954880889A
:101C600045F21051884205D09248808841F66311B0
:101C700088427DD1082D1CD2DFE805F00406090C4E
:101C80000F12151800BF14E044F0800411E044F076
:101C900040040EE044F0C0040BE044F0200408E0EF
:101CA00044F0600405E044F0A00402E044F0E004E5
:101CB00000BF00BF7F48808845F21051884202D1A2
:101CC0004FF4585700E036277A48808845F21031A3
:101CD00088420DD07748808845F21051884207D05D
:101CE0007448808841F66311884201D044F00804AA
:101CF0007048808846F60401884201D144F002040D
:101D00002146384600F052FC6A48808841F663114B
:101D100088421DD004F0200068B1664800886549FB
:101D20004988884214DA63480688408861490880F7
:101D3000084646800CE05F4800885E494988884232
:101D400006DD5C48068840885A4908800846468077
:101D50005848808845F21051884254D155494889E5
:101D600000F00EFC002000F0FFFB5249498900E022
:101D700078E0491C88B200F003FC002000F0F4FB7E
:101D80004C494989891C88B200F0FAFB4949098805
:101D9000491EC1F30F2000F0E7FB46494989C91CE1
:101DA00088B200F0EDFB43490978491EC8B200F043
:101DB000DBFB4049888900F0E3FB002000F0D4FB06
:101DC0003C498989491C88B200F0DAFB002000F008
:101DD000CBFB38498989891C88B200F0D1FB354991
:101DE0004988491EC1F30F2000F0BEFB31498989A3
:101DF000C91C88B200F0C4FB2E498978491EC8B2BC
:101E000000F0B2FB55E02B49488900F0B9FB0020F7
:101E100000F0AAFB002000F0A7FB26490988491E14
:101E2000C1F30F2000F0A0FB22490978491EC8B277
:101E300000F09AFB1F49888900F0A2FB002000F007
:101E400093FB002000F090FB1A494988491EC1F31A
:101E50000F2000F089FB17498978491EC8B200F0AD
:101E600083FB26E0082D1CD2DFE805F004070A0DED
:101E70000F12151844F0300413E044F0100410E081
:101E800044F020040DE000BF0BE044F0380408E00B
:101E900044F0280405E044F0180402E044F008048B
:101EA00000BF00BF032744F480542146384600F0A9
:101EB0007DFBF0BD0806002030B504460D46814884
:101EC000808849F24131884205D07E48808845F2B9
:101ED0001031884214D17B49488900F051FB20120F
:101EE00000F042FBE0B200F03FFB7649888900F049
:101EF00047FB281200F038FBE8B200F035FBE0E0C9
:101F00007048808849F2864188422ED16D494889BF
:101F100000F036FB201200F027FBE0B200F024FBBB
:101F200068490988491EC1F30F2000F01DFB65496F
:101F30000978491EC8B200F017FB6249888900F091
:101F40001FFB281200F010FBE8B200F00DFB5D490A
:101F50004988491EC1F30F2000F006FB59498978D2
:101F6000491EC8B200F000FBABE05648808846F638
:101F7000040188421DD153488079012804D1514879
:101F80000088401E001B84B24E49488900F0F8FAD0
:101F9000201200F0E9FAE0B200F0E6FA4949888937
:101FA00000F0EEFA281200F0DFFAE8B200F0DCFAF6
:101FB00087E04448808841F66311884247D1414810
:101FC0008079A8B93F480088401E001B84B23D4973
:101FD000488900F0D5FA002000F0C6FA002000F091
:101FE000C3FA201200F0C0FAE0B200F0BDFA16E029
:101FF0003449488900F0C4FA201200F0B5FAE0B282
:1020000000F0B2FA2F490988491EC1F30F2000F0F1
:10201000ABFA2C490978491EC8B200F0A5FA294943
:10202000888900F0ADFA281200F09EFAE8B200F0BC
:102030009BFA24494988491EC1F30F2000F094FA05
:1020400020498978491EC8B200F08EFA39E01D484F
:10205000808845F21051884220D11A49488900F001
:102060008FFA201200F080FA16494989491C88B27B
:1020700000F086FAE0B200F077FA1249888900F0A1
:102080007FFA281200F070FA0E498989491C88B23B
:1020900000F076FAE8B200F067FA12E009488079B9
:1020A000012804D107480088401E001B84B205495E
:1020B0004889214600F07AFA02498889294600F0C9
:1020C00075FA30BD080600202DE9FF4F81B080462B
:1020D0000E46DDE90E74B3462046E31704EB537356
:1020E000DB1021464FEAE47C04EB5C7C4FEAEC0C0D
:1020F000A4EBCC0CBCF1000F02D04FF0010C01E0BE
:102100004FF0000C6344224604EBD27C4FEA6C0C87
:1021100003FB0CF3DBB20093A7F12000C7B200254C
:1021200055E00C2C07D107EB47002B4901EB800051
:1021300010F8059014E0102C05D1284800EB07108A
:1021400010F805900CE0182C07D107EBC7002449C4
:1021500001EB800010F8059002E005B0BDE8F08FBB
:102160004FF0000A2DE009F0800028B131464046CA
:10217000049AFFF7B9FC06E0109820B931464046B2
:10218000039AFFF7B1FC4FEA49604FEA1069701CEF
:1021900086B214484088B04200DCDEE7A6EB0B00B4
:1021A000A0420AD15E4608F101001FFA80F80D48EE
:1021B0000088404500DCD0E706E00AF1010000F0AD
:1021C000FF0ABAF1080FCEDB00BF681CC5B2009849
:1021D0008542A6DB00BFC0E724DB020898DF0208C7
:1021E00088E50208080600202DE9F84F04460F464E
:1021F000154698460A9E4FF00009CA46A34600209D
:10220000009000BF20E04FF0000917E070783178AF
:1022100040EA0120009039462046009AFFF764FC0E
:10222000601C84B20BEB0500A04202DC5C46781C0B
:1022300087B2B61C09F101001FFA80F9A945E5DB58
:102240000AF101001FFA80FAC245DCDBBDE8F88F15
:102250002DE9FF4F84B080468946DDE9117A08F008
:10226000FF0003900698404480B2069007984844C7
:1022700080B2079065E19AF80000A02870DD06980A
:10228000804505DBDDF80C8009EB07001FFA80F9BB
:102290000798814500DB59E10C2F5DD1002558E0FE
:1022A00005EB850000EBC500AA4911F810009AF86B
:1022B000001088424BD105EB850000EBC500A54915
:1022C00001EB400040789AF8011088423FD1002489
:1022D0003AE005EB850000EBC5009E4901EB4000AC
:1022E000801C6100491C415C05EB850000EBC500CA
:1022F000984A02EB4000801C10F8140041EA002BC1
:1023000000261DE00BFA06F000F4004050B109EB86
:10231000040291B208EB060290B28F4A1288FFF7CE
:10232000E3FB0BE0139848B909EB040291B208EB08
:10233000060290B2894A1288FFF7D6FB701CC6B21B
:10234000BE42DFDB601CC4B2BC42C2DB03E0681CDF
:1023500085B2322DA4DBC9E0102F56D1002551E003
:10236000CBE005EB05107E4911F810009AF800103B
:10237000884245D105EB0510794901EB40004078D2
:102380009AF8011088423BD1002436E005EB051095
:10239000734901EB4000801C6100491C415C05EB66
:1023A00005106F4A02EB4000801C10F8140041EA4F
:1023B000002B00261DE00BFA06F000F4004050B19F
:1023C00009EB040291B208EB060290B2624A12884D
:1023D000FFF78AFB0BE0139848B909EB040291B2AE
:1023E00008EB060290B25D4A1288FFF77DFB701C75
:1023F000C6B2BE42DFDB601CC4B2BC42C6DB03E037
:10240000681C85B2322DACDB70E0182F6ED1002530
:1024100069E005EB850000EB4510524911F810000A
:102420009AF8001088425CD105EB850000EB45105E
:102430004C4901EB400040789AF80110884250D195
:1024400000244BE005EB850000EB4510454901EB0E
:102450004000801C04EB4401405C020405EB850055
:1024600000EB45103F4901EB4000801C04EB4401A8
:10247000491C405C42EA002105EB850000EB451059
:10248000384A02EB4000801C04EB4402921C805C42
:1024900041EA000B00261DE00BFA06F000F40000F4
:1024A00050B109EB040291B208EB060290B22A4A3D
:1024B0001288FFF719FB0BE0139848B909EB0402E7
:1024C00091B208EB060290B2244A1288FFF70CFB87
:1024D000701CC6B2BE42DFDB601CC4B2BC42B1DBC2
:1024E00003E0681C85B2322D93DB00BF08EB0700C8
:1024F0001FFA80F80AF1020A23E00698804505DBFE
:10250000DDF80C8009EB07001FFA80F90798814578
:1025100000DB1BE09AF800101398CDE90017029039
:102520000D4803880D48028849464046FFF7CCFD18
:10253000384607EBD07108EB61011FFA81F80AF108
:10254000010A9AF8000000287FF495AE00BF08B099
:10255000BDE8F08FE4F2020864000020660000206D
:10256000F8F702089CFE020801B5BDF800000090D3
:10257000BDF800000149088008BD00000008006C9B
:1025800001B5BDF800000090BDF8000001490880C9
:1025900008BD0000FE07006C02480089024908805F
:1025A0007047000008060020FE07006C024A1080F9
:1025B000921C118070470000FE07006C08B50121D5
:1025C000402000F063F90020009010208DF80300F7
:1025D0003C20ADF8000003208DF8020069460A484F
:1025E000FEF7CAFE04210848FEF75CFF08210648F2
:1025F000FEF758FF10210448FEF754FF202102483F
:10260000FEF750FF08BD00000018014000B585B07E
:102610000121102000F03AF90121C80400F026F948
:102620004FF48060ADF8100003208DF812001820E0
:102630008DF8130004A91448FEF79EFE4FF40060C5
:10264000ADF8100004208DF8130004A90E48FEF721
:1026500093FE4FF4165000900020ADF80C00ADF83A
:1026600004000C20ADF80A000020ADF80600ADF81B
:1026700008006946054804F03DF80121034803F0CD
:10268000D0FF05B000BD000000100140004C00402C
:1026900000BFFEE77047704770B505460C467E20C8
:1026A00003F0A0FF052003F09DFF422003F09AFFF6
:1026B000284603F097FF204603F094FF85F047007B
:1026C00080EA0406304603F08DFFEF2003F08AFF16
:1026D00070BD000010B506210120FFF7DDFF0221CB
:1026E0000120FFF7D9FF04480068FDF7FDFE04460E
:1026F00000F048F810BD00003000002010B50721A0
:102700000120FFF7C9FF164800884FF47A7190FB4B
:10271000F1F4204600F036F815210020FFF7BCFF49
:102720000F480088642190FBF1F00A2190FBF1F240
:1027300001FB120018B900210846FFF7ADFF084859
:1027400000884FF47A7190FBF1F201FB12042046ED
:1027500000F018F803210120FFF79EFF10BD0000D4
:102760003E00002010B508210120FFF795FF044925
:10277000488800F007F804210120FFF78DFF10BD05
:102780003E0000202DE9F0410446002C04DA182117
:102790000020FFF781FF6442142C05DAE1B200202B
:1027A000FFF77AFFBDE8F081642094FBF0F0C7B238
:1027B000642094FBF0F100FB11400A2190FBF1F042
:1027C000C5B20A2094FBF0F100FB1140C6B23FB144
:1027D00039460020FFF760FF14210020FFF75CFF5F
:1027E0003DB129460020FFF757FF0A210020FFF7DF
:1027F00053FF46B11DB900210846FFF74DFF314692
:102800000020FFF749FF00BFCCE7000010B505210D
:102810000120FFF741FF06480068FDF765FE04460A
:10282000FFF7B0FF01210846FFF736FF10BD00009B
:102830003400002001460020034A506820F4404044
:1028400008435060704700000010024029B1064A5A
:1028500052690243044B5A6104E0034A52698243BD
:10286000014B5A61704700000010024029B1064A2E
:10287000D2690243044BDA6104E0034AD26982431D
:10288000014BDA61704700000010024029B1064A8E
:1028900092690243044B9A6104E0034A92698243BD
:1028A000014B9A61704700000010024030B50021D2
:1028B0000022002400232D4D6D6805F00C0121B18C
:1028C000042905D0082923D105E0294D056022E01F
:1028D000274D05601FE0254D6D6805F47012234DEE
:1028E0006D6805F48034022505EB92421CB9214D38
:1028F000554305600BE01D4D6D6805F400351DB1B5
:102900001C4D5543056002E0194D5543056002E03A
:10291000174D056000BF00BF144D6D6805F0F00154
:102920000909154D6B5C0568DD4045600F4D6D680C
:1029300005F4E061090A104D6B5C4568DD40856077
:102940000A4D6D6805F46051C90A0B4D6B5C456812
:10295000DD40C560054D6D6805F44041890B074DAC
:102960006B5CC568B5FBF3F5056130BD0010024036
:1029700000127A0000093D00000000201000002035
:10298000704710B500F002F810BD00000CB5002033
:10299000019000903348006840F48030314908606D
:1029A00000BF3048006800F4003000900198401CDF
:1029B0000190009818B90198B0F5A06FF1D129489D
:1029C000006800F4003010B10120009001E0002008
:1029D00000900098012843D12348006840F010007F
:1029E000214908600846006820F003000860084696
:1029F000006840F0020008601A48406819494860C1
:102A00000846406848600846406840F48060486076
:102A10000846406820F47C1048600846406840F44E
:102A2000E81048600846006840F08070086000BF09
:102A30000C48006800F000700028F9D00948406890
:102A400020F00300074948600846406840F0020053
:102A5000486000BF0348406800F00C000828F9D126
:102A60000CBD000000100240002002400C4800682D
:102A7000401C0B4908600B480068401C094908606D
:102A800009480068401C0849086008480068401C64
:102A90000649086006480068401C05490860704700
:102AA00014000020180000201C000020200000203E
:102AB0002400002010B51348006840F001001149BF
:102AC000086008464068104908400E4948600846BA
:102AD00000680E4908400B4908600846006820F469
:102AE000802008600846406820F4FE0048604FF4EB
:102AF0001F008860FFF745FF4FF000600449086041
:102B000010BD0000001002400000FFF8FFFFF6FEBD
:102B100008ED00E000B59FB000201E9001210802E2
:102B2000FFF794FE01214FF4B470FFF7AFFE0120D0
:102B3000ADF8740010208DF8770003208DF8760032
:102B40001DA9FE48FEF718FC4CF23370ADF8740076
:102B500018208DF8770003208DF876001DA9F8481D
:102B6000FEF70AFC4FF68070ADF8740018208DF85F
:102B7000770003208DF876001DA9F248FEF7FCFBD4
:102B800041F20100ADF8740018208DF877000320A1
:102B90008DF876001DA9EC48FEF7EEFB01200790AA
:102BA000002008900F20099000200A900B900C90B4
:102BB0000D9000900190032002900020039004905B
:102BC0000590069006200E9000200F901090102087
:102BD00011900020129014901390159016904FF4BD
:102BE00080501790002018904FF4804019900020DA
:102BF0001A9007A81B90CDF870D00EA8FEF7C6F962
:102C000001210620FEF7A8F93220FEF79EF80121E7
:102C10000020FFF7CBFC3220FEF797F80020FEF7EC
:102C200099FFCA49888008468088FF280FDB08463C
:102C300080884FF6FF71884209D0C4488088B0F57B
:102C4000134F04D0C1488088B0F5144F7ED1D320F3
:102C5000FFF796FCFEF774FFBC498880FEF770FF13
:102C6000BA498880FEF76CFFB8498880084680889A
:102C70004FF6FF7101EA0020B4498880FEF760FF3B
:102C8000B24989880843B14988800846808849F25A
:102C9000413188425AD0AD48808849F28641884205
:102CA000F8D0BF20FFF76CFCFEF74AFFA7498880E9
:102CB000FEF746FFA5498880FEF742FFA3498880BA
:102CC000FEF73EFFA1498880084680884FF6FF71D5
:102CD00001EA00209D498880FEF732FF9B498988E0
:102CE00008439A4988800846808846F6040188424D
:102CF0007AD0D420FFF744FCFEF722FF9349888066
:102D0000FEF71EFF91498880FEF71AFF8F498880E1
:102D1000084680884FF6FF7101EA00208B498880C1
:102D2000FEF70EFF8949898808438849888008464C
:102D3000808845F21031884256D04FF45A40FFF750
:102D40001FFCFEF7FDFE8149888000E04CE04FF457
:102D50005B40FFF715FCFEF7F3FE7C4988800846D0
:102D600080884FF6FF7101EA0020784988804FF48F
:102D70005C40FFF705FCFEF7E3FE744989880843D1
:102D80007249888008468088B0F5004F02D145F22C
:102D9000105088806D48808845F21051884223D0B9
:102DA000A120FFF7EDFBFEF7CBFE68498880FEF718
:102DB000C7FE66498880084680884FF6FF7101EAA1
:102DC000002062498880FEF7BBFE6049898808437D
:102DD0005E4988800846808845F26171884203D147
:102DE00041F66310594988805848808849F241313A
:102DF000884211D05548808845F2103188420BD066
:102E00005248808845F21051884205D04F4880884A
:102E100041F6631188421DD14D48006820F00F0033
:102E20004FF02041C1F81C010846D0F81C0120F4E5
:102E30007060C1F81C010846D0F81C0140F0030086
:102E4000C1F81C010846D0F81C0140F40070C1F81C
:102E50001C0128E03D48808846F60401884205D0E0
:102E60003A4880884CF2055188421CD138480068A5
:102E700020F00F004FF02041C1F81C010846D0F8A7
:102E80001C0120F47060C1F81C010846D0F81C0138
:102E900040F00A00C1F81C010846D0F81C0140F4BB
:102EA0004060C1F81C012948808849F241318842BC
:102EB0007ED1CF20FFF764FB0020FFF755FBC12038
:102EC000FFF752FB3020FFF74FFBED20FFF758FBD9
:102ED0006420FFF749FB0320FFF746FB1220FFF7B2
:102EE00043FB8120FFF740FBE820FFF749FB8520EB
:102EF000FFF73AFB1020FFF737FB7A20FFF734FB90
:102F0000CB20FFF73DFB3920FFF72EFB2C20FFF7EE
:102F10002BFB0020FFF728FB3420FFF725FB0220C6
:102F2000FFF722FBF720FFF72BFB2020FFF71CFB0E
:102F3000EA20FFF725FB00200CE00000000C014018
:102F40000014014000180140002001400806002044
:102F50001C0100A0FFF708FB0020FFF705FBC020C5
:102F6000FFF70EFB1B20FFF7FFFAC120FFF708FB5E
:102F70000120FFF7F9FAC520FFF702FB3020FFF729
:102F8000F3FA3020FFF7F0FAC720FFF7F9FAB7207D
:102F9000FFF7EAFA3620FFF7F3FA4820FFF7E4FAE2
:102FA0003A20FFF7EDFA5520FFF7DEFAB12000E0F6
:102FB000A5E0FFF7E5FA0020FFF7D6FA1A20FFF7A1
:102FC000D3FAB620FFF7DCFA0A20FFF7CDFAA220E9
:102FD000FFF7CAFAF220FFF7D3FA0020FFF7C4FA8E
:102FE0002620FFF7CDFA0120FFF7BEFAE020FFF719
:102FF000C7FA0F20FFF7B8FA2A20FFF7B5FA282002
:10300000FFF7B2FA0820FFF7AFFA0E20FFF7ACFA8D
:103010000820FFF7A9FA5420FFF7A6FAA920FFF726
:10302000A3FA4320FFF7A0FA0A20FFF79DFA0F202A
:10303000FFF79AFA0020FFF797FA0020FFF794FABB
:103040000020FFF791FA0020FFF78EFAE120FFF74A
:1030500097FA0020FFF788FA1520FFF785FA172066
:10306000FFF782FA0720FFF77FFA1120FFF77CFABB
:103070000620FFF779FA2B20FFF776FA5620FFF7A4
:1030800073FA3C20FFF770FA0520FFF76DFA102065
:10309000FFF76AFA0F20FFF767FA3F20FFF764FA9D
:1030A0003F20FFF761FA0F20FFF75EFA2B20FFF7B2
:1030B00067FA0020FFF758FA0020FFF755FA0120C1
:1030C000FFF752FA3F20FFF74FFA2A20FFF758FA8E
:1030D0000020FFF749FA0020FFF746FA0020FFF72B
:1030E00043FAEF20FFF740FA1120FFF749FA782062
:1030F000FDF72BFE2920FFF743FA03F0E9B9FE485C
:10310000808849F2864188427ED1F220FFF738FA62
:103110001820FFF729FAA320FFF726FA1220FFF75D
:1031200023FA0220FFF720FAB220FFF71DFA12203F
:10313000FFF71AFAFF20FFF717FA1020FFF714FA2B
:103140000020FFF711FAF820FFF71AFA2120FFF705
:103150000BFA0420FFF708FAF920FFF711FA002014
:10316000FFF702FA0820FFF7FFF93620FFF708FA09
:103170000820FFF7F9F93A20FFF702FA0520FFF7D8
:10318000F3F9B420FFF7FCF90120FFF7EDF9B620C1
:10319000FFF7F6F90220FFF7E7F92220FFF7E4F93D
:1031A000C120FFF7EDF94120FFF7DEF9C520FFF759
:1031B000E7F90020FFF7D8F90720FFF7D5F9E0205D
:1031C000FFF7DEF90F20FFF7CFF91F20FFF7CCF94B
:1031D0001C20FFF7C9F90C20FFF7C6F90F20FFF7F5
:1031E000C3F90820FFF7C0F94820FFF7BDF9982080
:1031F000FFF7BAF93720FFF7B7F90A20FFF7B4F95C
:103200001320FFF7B1F900E045E00420FFF7ACF927
:103210001120FFF7A9F90D20FFF7A6F90020FFF70D
:10322000A3F9E120FFF7ACF90F20FFF79DF9322059
:10323000FFF79AF92E20FFF797F90B20FFF794F983
:103240000D20FFF791F90520FFF78EF94720FFF7D2
:103250008BF97520FFF788F93720FFF785F90620ED
:10326000FFF782F91020FFF77FF90320FFF77CF9C1
:103270002420FFF779F92020FFF776F90020FFF7E7
:1032800073F91120FFF77CF97820FDF75EFD292006
:10329000FFF776F931E79848808846F604018842BE
:1032A0007ED11120FFF76CF91420FDF74EFDD020E0
:1032B000FFF766F90720FFF757F94220FFF754F9A7
:1032C0001D20FFF751F9D120FFF75AF90020FFF731
:1032D0004BF91A20FFF748F90920FFF745F9D220EA
:1032E000FFF74EF90120FFF73FF92220FFF73CF9E5
:1032F000C020FFF745F91020FFF736F93B20FFF714
:1033000033F90020FFF730F90220FFF72DF91120E3
:10331000FFF72AF9C520FFF733F90320FFF724F957
:10332000C820FFF72DF90020FFF71EF92520FFF731
:103330001BF92120FFF718F90520FFF715F90020E8
:10334000FFF712F90A20FFF70FF96520FFF70CF9D4
:103350002520FFF709F97720FFF706F95020FFF73E
:1033600003F90F20FFF700F90020FFF7FDF8F82020
:10337000FFF706F90120FFF7F7F8FE20FFF700F945
:103380000020FFF7F1F80220FFF7EEF82020FFF70A
:10339000F7F83620FFF7F4F80820FFF7E5F800E02B
:1033A0002AE03A20FFF7ECF85520FFF7DDF82B2054
:1033B000FFF7E6F80020FFF7D7F80020FFF7D4F872
:1033C0000120FFF7D1F83F20FFF7CEF82A20FFF7C2
:1033D000D7F80020FFF7C8F80020FFF7C5F8012054
:1033E000FFF7C2F8DF20FFF7BFF87820FDF7ADFC4C
:1033F0002920FFF7C5F880E63F48808845F2103164
:10340000884240F07C87ED20FFF7BAF80120FFF7F3
:10341000ABF8FE20FFF7A8F8EE20FFF7B1F8DE20AA
:10342000FFF7A2F82120FFF79FF8F120FFF7A8F897
:103430000120FFF799F8DF20FFF7A2F81020FFF72F
:1034400093F8C420FFF79CF88F20FFF78DF8C62073
:10345000FFF796F80020FFF787F8E220FFF784F8DF
:10346000E220FFF781F8E220FFF77EF8BF20FFF7A8
:1034700087F8AA20FFF778F8B020FFF781F80D2031
:10348000FFF772F80020FFF76FF80D20FFF76CF8D8
:103490000020FFF769F81120FFF766F80020FFF71A
:1034A00063F81920FFF760F80020FFF75DF821208E
:1034B000FFF75AF80020FFF757F82D20FFF754F8D0
:1034C0000020FFF751F83D20FFF74EF80020FFF7EE
:1034D0004BF85D20FFF748F80020FFF745F85D2026
:1034E000FFF742F80020FFF73FF8B120FFF748F858
:1034F0008020FFF739F801E0080600200020FFF7E0
:1035000033F88B20FFF730F80020FFF72DF89620D6
:10351000FFF72AF80020FFF727F8B220FFF730F86E
:103520000020FFF721F80020FFF71EF80220FFF728
:103530001BF80020FFF718F80320FFF715F800200C
:10354000FFF712F8B320FFF71BF80020FFF70CF885
:103550000020FFF709F80020FFF706F80020FFF72A
:1035600003F80020FFF700F80020FEF7FDFF002021
:10357000FEF7FAFF0020FEF7F7FF0020FEF7F4FF4A
:103580000020FEF7F1FF0020FEF7EEFF0020FEF71F
:10359000EBFF0020FEF7E8FF0020FEF7E5FF00202C
:1035A000FEF7E2FF0020FEF7DFFF0020FEF7DCFF62
:1035B0000020FEF7D9FF0020FEF7D6FF0020FEF71F
:1035C000D3FF0020FEF7D0FF0020FEF7CDFF002044
:1035D000FEF7CAFF0020FEF7C7FFB420FEF7D0FFBA
:1035E0008B20FEF7C1FF0020FEF7BEFF9620FEF7FE
:1035F000BBFF0020FEF7B8FFA120FEF7B5FF0020BB
:10360000FEF7B2FFB520FEF7BBFF0220FEF7ACFFCE
:103610000020FEF7A9FF0320FEF7A6FF0020FEF71B
:10362000A3FF0420FEF7A0FF0020FEF79DFFB620B9
:10363000FEF7A6FF0020FEF797FF0020FEF794FF9D
:10364000B720FEF79DFF0020FEF78EFF0020FEF75B
:103650008BFF3F20FEF788FF0020FEF785FF5E20EE
:10366000FEF782FF0020FEF77FFF6420FEF77CFF5D
:103670000020FEF779FF8C20FEF776FF0020FEF792
:1036800073FFAC20FEF770FF0020FEF76DFFDC201B
:10369000FEF76AFF0020FEF767FF7020FEF764FF69
:1036A0000020FEF761FF9020FEF75EFF0020FEF78E
:1036B0005BFFEB20FEF758FF0020FEF755FFDC20F4
:1036C000FEF752FF0020FEF74FFFB820FEF758FF2D
:1036D0000020FEF749FF0020FEF746FF0020FEF71E
:1036E00043FF0020FEF740FF0020FEF73DFF0020D3
:1036F000FEF73AFF0020FEF737FF0020FEF734FF09
:10370000BA20FEF73DFF2420FEF72EFF0020FEF733
:103710002BFF0020FEF728FF0020FEF725FFC12029
:10372000FEF72EFF2020FEF71FFF0020FEF71CFFF4
:103730005420FEF719FF0020FEF716FFFF20FEF7CA
:1037400013FF0020FEF710FFC220FEF719FF0A202A
:10375000FEF70AFF0020FEF707FF0420FEF704FF34
:103760000020FEF701FFC320FEF70AFF3C20FEF712
:10377000FBFE0020FEF7F8FE3A20FEF7F5FE0020E3
:10378000FEF7F2FE3920FEF7EFFE0020FEF7ECFE1A
:103790003720FEF7E9FE0020FEF7E6FE3C20FEF7AC
:1037A000E3FE0020FEF7E0FE3620FEF7DDFE0020FF
:1037B000FEF7DAFE3220FEF7D7FE0020FEF7D4FE39
:1037C0002F20FEF7D1FE0020FEF7CEFE2C20FEF7C4
:1037D000CBFE0020FEF7C8FE2920FEF7C5FE002024
:1037E000FEF7C2FE2620FEF7BFFE0020FEF7BCFE5D
:1037F0002420FEF7B9FE0020FEF7B6FE2420FEF7D7
:10380000B3FE0020FEF7B0FE2320FEF7ADFE002041
:10381000FEF7AAFE3C20FEF7A7FE0020FEF7A4FE5E
:103820003620FEF7A1FE0020FEF79EFE3220FEF7B6
:103830009BFE0020FEF798FE2F20FEF795FE00204D
:10384000FEF792FE2C20FEF78FFE0020FEF78CFE86
:103850002920FEF789FE0020FEF786FE2620FEF7CF
:1038600083FE0020FEF780FE2420FEF77DFE002070
:10387000FEF77AFE2420FEF777FE0020FEF774FEA6
:103880002320FEF771FE0020FEF76EFEC420FEF737
:1038900077FE6220FEF768FE0020FEF765FE052039
:1038A000FEF762FE0020FEF75FFE8420FEF75CFE5E
:1038B0000020FEF759FEF020FEF756FE0020FEF72E
:1038C00053FE1820FEF750FE0020FEF74DFEA42008
:1038D000FEF74AFE0020FEF747FE1820FEF744FEE2
:1038E0000020FEF741FE5020FEF73EFE0020FEF7CE
:1038F0003BFE0C20FEF738FE0020FEF735FE1720B9
:10390000FEF732FE0020FEF72FFE9520FEF72CFE7C
:103910000020FEF729FEF320FEF726FE0020FEF72A
:1039200023FEE620FEF720FE0020FEF71DFEC52048
:10393000FEF726FE3220FEF717FE0020FEF714FEEB
:103940004420FEF711FE0020FEF70EFE6520FEF774
:103950000BFE0020FEF708FE7620FEF705FE002095
:10396000FEF702FE8820FEF7FFFD0020FEF7FCFDBB
:10397000C620FEF705FE2020FEF7F6FD0020FEF72C
:10398000F3FD1720FEF7F0FD0020FEF7EDFD01200E
:10399000FEF7EAFD0020FEF7E7FDC720FEF7F0FD89
:1039A0000020FEF7E1FD0020FEF7DEFD0020FEF71F
:1039B000DBFD0020FEF7D8FDC820FEF7E1FD00206A
:1039C000FEF7D2FD0020FEF7CFFD0020FEF7CCFD74
:1039D0000020FEF7C9FDC920FEF7D2FD0020FEF74A
:1039E000C3FD0020FEF7C0FD0020FEF7BDFD002056
:1039F000FEF7BAFD0020FEF7B7FD0020FEF7B4FD8C
:103A00000020FEF7B1FD0020FEF7AEFD0020FEF71E
:103A1000ABFD0020FEF7A8FD0020FEF7A5FD00206D
:103A2000FEF7A2FD0020FEF79FFD0020FEF79CFDA3
:103A30000020FEF799FD0020FEF796FDE020FEF73E
:103A40009FFD1620FEF790FD0020FEF78DFD1C2047
:103A5000FEF78AFD0020FEF787FD2120FEF784FD9A
:103A60000020FEF781FD3620FEF77EFD0020FEF7E8
:103A70007BFD4620FEF778FD0020FEF775FD522005
:103A8000FEF772FD0020FEF76FFD6420FEF76CFD6F
:103A90000020FEF769FD7A20FEF766FD0020FEF7A4
:103AA00063FD8B20FEF760FD0020FEF75DFD992091
:103AB000FEF75AFD0020FEF757FDA820FEF754FD43
:103AC0000020FEF751FDB920FEF74EFD0020FEF765
:103AD0004BFDC420FEF748FD0020FEF745FDCA203F
:103AE000FEF742FD0020FEF73FFDD220FEF73CFD31
:103AF0000020FEF739FDD920FEF736FD0020FEF745
:103B000033FDE020FEF730FD0020FEF72DFDF32011
:103B1000FEF72AFD0020FEF727FDE120FEF730FD2D
:103B20001620FEF721FD0020FEF71EFD1C20FEF7EB
:103B30001BFD0020FEF718FD2220FEF715FD0020DA
:103B4000FEF712FD3620FEF70FFD0020FEF70CFDFC
:103B50004520FEF709FD0020FEF706FD5220FEF786
:103B600003FD0020FEF700FD6420FEF7FDFC0020B1
:103B7000FEF7FAFC7A20FEF7F7FC0020FEF7F4FCD3
:103B80008B20FEF7F1FC0020FEF7EEFC9920FEF7FB
:103B9000EBFC0020FEF7E8FCA820FEF7E5FC002087
:103BA000FEF7E2FCB920FEF7DFFC0020FEF7DCFCAC
:103BB000C420FEF7D9FC0020FEF7D6FCCA20FEF791
:103BC000D3FC0020FEF7D0FCD220FEF7CDFC002075
:103BD000FEF7CAFCD820FEF7C7FC0020FEF7C4FCA5
:103BE000E020FEF7C1FC0020FEF7BEFCF320FEF74C
:103BF000BBFC0020FEF7B8FCE220FEF7C1FC05206C
:103C0000FEF7B2FC0020FEF7AFFC0B20FEF7ACFC89
:103C10000020FEF7A9FC1B20FEF7A6FC0020FEF703
:103C2000A3FC3420FEF7A0FC0020FEF79DFC4420FE
:103C3000FEF79AFC0020FEF797FC4F20FEF794FC5D
:103C40000020FEF791FC6120FEF78EFC0020FEF7BD
:103C50008BFC7920FEF788FC0020FEF785FC88208D
:103C6000FEF782FC0020FEF77FFC9720FEF77CFC2D
:103C70000020FEF779FCA620FEF776FC0020FEF778
:103C800073FCB720FEF770FC0020FEF76DFCC2202D
:103C9000FEF76AFC0020FEF767FCC720FEF764FC15
:103CA0000020FEF761FCD120FEF75EFC0020FEF74D
:103CB0005BFCD620FEF758FC0020FEF755FCDD200B
:103CC000FEF752FC0020FEF74FFCF320FEF74CFC01
:103CD0000020FEF749FCE320FEF752FC0520FEF72A
:103CE00043FC0020FEF740FC0A20FEF73DFC0020CC
:103CF000FEF73AFC1C20FEF737FC0020FEF734FCF0
:103D00003320FEF731FC0020FEF72EFC4420FEF7A6
:103D10002BFC0020FEF728FC5020FEF725FC00209D
:103D2000FEF722FC6220FEF71FFC0020FEF71CFCC1
:103D30007820FEF719FC0020FEF716FC8820FEF71D
:103D400013FC0020FEF710FC9720FEF70DFC00206E
:103D5000FEF70AFCA620FEF707FC0020FEF704FC95
:103D6000B720FEF701FC0020FEF7FEFBC220FEF7A5
:103D7000FBFB0020FEF7F8FBC720FEF7F5FB002059
:103D8000FEF7F2FBD120FEF7EFFB0020FEF7ECFB85
:103D9000D520FEF7E9FB0020FEF7E6FBDD20FEF76D
:103DA000E3FB0020FEF7E0FBF320FEF7DDFB002045
:103DB000FEF7DAFBE420FEF7E3FB0120FEF7D4FB7D
:103DC0000020FEF7D1FB0120FEF7CEFB0020FEF71E
:103DD000CBFB0220FEF7C8FB0020FEF7C5FB2A2024
:103DE000FEF7C2FB0020FEF7BFFB3C20FEF7BCFB4A
:103DF0000020FEF7B9FB4B20FEF7B6FB0020FEF7D4
:103E0000B3FB5D20FEF7B0FB0020FEF7ADFB742096
:103E1000FEF7AAFB0020FEF7A7FB8420FEF7A4FB19
:103E20000020FEF7A1FB9320FEF79EFB0020FEF78B
:103E30009BFBA220FEF798FB0020FEF795FBB3202A
:103E4000FEF792FB0020FEF78FFBBE20FEF78CFBF7
:103E50000020FEF789FBC420FEF786FB0020FEF75A
:103E600083FBCD20FEF780FB0020FEF77DFBD320F7
:103E7000FEF77AFB0020FEF777FBDD20FEF774FBF0
:103E80000020FEF771FBF320FEF76EFB0020FEF72B
:103E90006BFBE520FEF774FB0020FEF765FB0020BE
:103EA000FEF762FB0020FEF75FFB0020FEF75CFBE5
:103EB0000220FEF759FB0020FEF756FB2920FEF7F3
:103EC00053FB0020FEF750FB3C20FEF74DFB00208B
:103ED000FEF74AFB4B20FEF747FB0020FEF744FBB2
:103EE0005D20FEF741FB0020FEF73EFB7420FEF74D
:103EF0003BFB0020FEF738FB8420FEF735FB00205B
:103F0000FEF732FB9320FEF72FFB0020FEF72CFB81
:103F1000A220FEF729FB0020FEF726FBB320FEF7C8
:103F200023FB0020FEF720FBBE20FEF71DFB002038
:103F3000FEF71AFBC420FEF717FB0020FEF714FB68
:103F4000CD20FEF711FB0020FEF70EFBD320FEF77D
:103F50000BFB0020FEF708FBDC20FEF705FB002032
:103F6000FEF702FBF320FEF7FFFA0020FEF7FCFA53
:103F7000E620FEF705FB1120FEF7F6FA0020FEF71B
:103F8000F3FA3420FEF7F0FA0020FEF7EDFA56209F
:103F9000FEF7EAFA0020FEF7E7FA7620FEF7E4FAE9
:103FA0000020FEF7E1FA7720FEF7DEFA0020FEF7A8
:103FB000DBFA6620FEF7D8FA0020FEF7D5FA882053
:103FC000FEF7D2FA0020FEF7CFFA9920FEF7CCFADE
:103FD0000020FEF7C9FABB20FEF7C6FA0020FEF764
:103FE000C3FA9920FEF7C0FA0020FEF7BDFA66205A
:103FF000FEF7BAFA0020FEF7B7FA5520FEF7B4FA3A
:104000000020FEF7B1FA5520FEF7AEFA0020FEF7C9
:10401000ABFA4520FEF7A8FA0020FEF7A5FA4320E8
:10402000FEF7A2FA0020FEF79FFA4420FEF79CFA62
:104030000020FEF799FAE720FEF7A2FA3220FEF7F9
:1040400093FA0020FEF790FA5520FEF78DFA002033
:10405000FEF78AFA7620FEF787FA0020FEF784FA48
:104060006620FEF781FA0020FEF77EFA6720FEF751
:104070007BFA0020FEF778FA6720FEF775FA002039
:10408000FEF772FA8720FEF76FFA0020FEF76CFA4F
:104090009920FEF769FA0020FEF766FABB20FEF7CA
:1040A00063FA0020FEF760FA9920FEF75DFA00201F
:1040B000FEF75AFA7720FEF757FA0020FEF754FA77
:1040C0004420FEF751FA0020FEF74EFA5620FEF784
:1040D0004BFA0020FEF748FA2320FEF745FA0020AD
:1040E000FEF742FA3320FEF73FFA0020FEF73CFAD3
:1040F0004520FEF739FA0020FEF736FAE820FEF7F1
:104100003FFA0020FEF730FA0020FEF72DFA992042
:10411000FEF72AFA0020FEF727FA8720FEF724FA96
:104120000020FEF721FA8820FEF71EFA0020FEF795
:104130001BFA7720FEF718FA0020FEF715FA662022
:10414000FEF712FA0020FEF70FFA8820FEF70CFAAD
:104150000020FEF709FAAA20FEF706FA0020FEF773
:1041600003FABB20FEF700FA0020FEF7FDF99920C4
:10417000FEF7FAF90020FEF7F7F96620FEF7F4F9EA
:104180000020FEF7F1F95520FEF7EEF90020FEF7CA
:10419000EBF95520FEF7E8F90020FEF7E5F9442099
:1041A000FEF7E2F90020FEF7DFF94420FEF7DCF924
:1041B0000020FEF7D9F95520FEF7D6F90020FEF7CA
:1041C000D3F9E920FEF7DCF9AA20FEF7CDF90020AB
:1041D000FEF7CAF90020FEF7C7F90020FEF7C4F980
:1041E0000020FEF7CDF9AA20FEF7BEF9CF20FEF79A
:1041F000C7F90020FEF7B8F90020FEF7B5F9002056
:10420000FEF7B2F90020FEF7AFF90020FEF7ACF997
:104210000020FEF7A9F90020FEF7A6F90020FEF71E
:10422000A3F90020FEF7A0F90020FEF79DF9002079
:10423000FEF79AF90020FEF797F90020FEF794F9AF
:104240000020FEF791F90020FEF78EF90020FEF71E
:104250008BF90020FEF788F9F020FEF791F9002095
:10426000FEF782F95020FEF77FF90020FEF77CF977
:104270000020FEF779F90020FEF776F9F320FEF72B
:104280007FF90020FEF770F9F920FEF779F9062092
:10429000FEF76AF91020FEF767F92920FEF764F9A6
:1042A0000020FEF761F93A20FEF76AF95520FEF783
:1042B0005BF91120FEF764F96420FCF746FD292024
:1042C000FEF75EF93520FEF75BF90020FEF74CF9AA
:1042D0005120FEF755F9FF20FEF746F95320FEF76F
:1042E0004FF92C20FEF740F95520FEF749F98220BE
:1042F000FEF73AF92C20FEF743F902F0E9B8FE4840
:10430000808845F2105188427ED155214FF470408B
:10431000FEF74CF9AA214FF20100FEF747F95221AE
:104320004FF20200FEF742F908214FF20300FEF7B8
:104330003DF901214FF20400FEF738F90D214FF449
:104340003040FEF733F90D214BF20100FEF72EF954
:104350000D214BF20200FEF729F934214FF43640CB
:10436000FEF724F934214BF20160FEF71FF93421E6
:104370004BF20260FEF71AF90D214FF43140FEF7BF
:1043800015F90D214BF20110FEF710F90D214BF23A
:104390000210FEF70BF934214FF43740FEF706F90F
:1043A00034214BF20170FEF701F934214BF2027017
:1043B000FEF7FCF800214FF43240FEF7F7F8002139
:1043C0004BF20120FEF7F2F800214BF20220FEF73B
:1043D000EDF824214FF43840FEF7E8F824214BF69D
:1043E0000100FEF7E3F824214BF60200FEF7DEF8A9
:1043F00001214FF43F40FEF7D9F80F214FF433402D
:10440000FEF7D4F80F2100E0FEE34BF20130FEF797
:10441000CDF80F214BF20230FEF7C8F834214FF4EB
:104420003940FEF7C3F834214BF60110FEF7BEF811
:1044300034214BF60210FEF7B9F808214FF435404D
:10444000FEF7B4F808214BF20150FEF7AFF808214F
:104450004BF20250FEF7AAF803214FF44240FEF758
:10446000A5F824214FF43A40FEF7A0F824214BF69A
:104470000120FEF79BF824214BF60220FEF796F868
:1044800000214FF43C40FEF791F878214BF60140B3
:10449000FEF78CF800214BF60240FEF787F800216A
:1044A0004FF43D40FEF782F878214BF60150FEF7BD
:1044B0007DF800214BF60250FEF778F800214FF40A
:1044C0003E40FEF773F864214BF60160FEF76EF88C
:1044D00000214FF45140FEF769F833214DF20110ED
:1044E000FEF764F800214DF20210FEF75FF8342168
:1044F0004DF20310FEF75AF800214DF20410FEF7BA
:1045000055F83A214DF20510FEF750F800214DF212
:104510000610FEF74BF84A214DF20710FEF746F859
:1045200000214DF20810FEF741F85C214DF2091010
:10453000FEF73CF800214DF20A10FEF737F8812112
:104540004DF20B10FEF732F800214DF20C10FEF781
:104550002DF8A6214DF20D10FEF728F800214DF29E
:104560000E10FEF723F8E5214DF20F10FEF71EF8AE
:1045700001214DF21010FEF719F813214DF2111020
:10458000FEF714F801214DF21210FEF70FF8542136
:104590004DF21310FEF70AF801214DF21410FEF748
:1045A00005F882214DF21510FEF700F801214DF2B9
:1045B0001610FDF7FBFFCA214DF21710FDF7F6FFAD
:1045C00002214DF21810FDF7F1FF00214DF21910F4
:1045D000FDF7ECFF02214DF21A10FDF7E7FF012174
:1045E0004DF21B10FDF7E2FF02214DF21C10FDF70A
:1045F000DDFF34214DF21D10FDF7D8FF02214DF2F1
:104600001E10FDF7D3FF67214DF21F10FDF7CEFFFF
:1046100002214DF22010FDF7C9FF84214DF2211037
:10462000FDF7C4FF02214DF22210FDF7BFFFA421C8
:104630004DF22310FDF7BAFF02214DF22410FDF7D1
:10464000B5FFB7214DF22510FDF7B0FF02214DF265
:104650002610FDF7ABFFCF214DF22710FDF7A6FF87
:1046600002214DF22810FDF7A1FFDE214DF22910A5
:10467000FDF79CFF02214DF22A10FDF797FFF22172
:104680004DF22B10FDF792FF02214DF22C10FDF799
:104690008DFFFE214DF22D10FDF788FF03214DF215
:1046A0002E10FDF783FF10214DF22F10FDF77EFF36
:1046B00003214DF23010FDF779FF33214DF2311017
:1046C000FDF774FF03214DF23210FDF76FFF6D21EE
:1046D0004DF23310FDF76AFF00214FF45240FDF711
:1046E00065FF33214DF20120FDF760FF00214DF2FF
:1046F0000220FDF75BFF01E00806002034214DF2A7
:104700000320FDF753FF00214DF20420FDF74EFF7B
:104710003A214DF20520FDF749FF00214DF2062018
:10472000FDF744FF4A214DF20720FDF73FFF00212E
:104730004DF20820FDF73AFF5C214DF20920FDF70C
:1047400035FF00214DF20A20FDF730FF81214DF2A7
:104750000B20FDF72BFF00214DF20C20FDF726FF6B
:10476000A6214DF20D20FDF721FF00214DF20E2074
:10477000FDF71CFFE5214DF20F20FDF717FF01218A
:104780004DF21020FDF712FF13214DF21120FDF71D
:104790000DFF01214DF21220FDF708FF54214DF2CB
:1047A0001320FDF703FF01214DF21420FDF7FEFE5B
:1047B00082214DF21520FDF7F9FE01214DF2162060
:1047C000FDF7F4FECA214DF21720FDF7EFFE02219E
:1047D0004DF21820FDF7EAFE00214DF21920FDF7F9
:1047E000E5FE02214DF21A20FDF7E0FE01214DF217
:1047F0001B20FDF7DBFE02214DF21C20FDF7D6FE4B
:1048000034214DF21D20FDF7D1FE02214DF21E2074
:10481000FDF7CCFE67214DF21F20FDF7C7FE0221F8
:104820004DF22020FDF7C2FE84214DF22120FDF73C
:10483000BDFE02214DF22220FDF7B8FEA4214DF26B
:104840002320FDF7B3FE02214DF22420FDF7AEFE3A
:10485000B7214DF22520FDF7A9FE02214DF22620B9
:10486000FDF7A4FECF214DF22720FDF79FFE022188
:104870004DF22820FDF79AFEDE214DF22920FDF7AA
:1048800095FE02214DF22A20FDF790FEF2214DF215
:104890002B20FDF78BFE02214DF22C20FDF786FE2A
:1048A000FE214DF22D20FDF781FE03214DF22E2039
:1048B000FDF77CFE10214DF22F20FDF777FE03213E
:1048C0004DF23020FDF772FE33214DF23120FDF71D
:1048D0006DFE03214DF23220FDF768FE6D214DF291
:1048E0003320FDF763FE00214FF45340FDF75EFED9
:1048F00033214DF20130FDF759FE00214DF2023017
:10490000FDF754FE34214DF20330FDF74FFE002138
:104910004DF20430FDF74AFE3A214DF20530FDF725
:1049200045FE00214DF20630FDF740FE4A214DF2D2
:104930000730FDF73BFE00214DF20830FDF736FE53
:104940005C214DF20930FDF731FE00214DF20A30B5
:10495000FDF72CFE81214DF20B30FDF727FE0021E3
:104960004DF20C30FDF722FEA6214DF20D30FDF781
:104970001DFE00214DF20E30FDF718FEE5214DF22F
:104980000F30FDF713FE01214DF21030FDF70EFE42
:1049900013214DF21130FDF709FE01214DF21230C5
:1049A000FDF704FE54214DF21330FDF7FFFD012108
:1049B0004DF21430FDF7FAFD82214DF21530FDF76E
:1049C000F5FD01214DF21630FDF7F0FDCA214DF243
:1049D0001730FDF7EBFD02214DF21830FDF7E6FD33
:1049E00000214DF21930FDF7E1FD02214DF21A30A0
:1049F000FDF7DCFD01214DF21B30FDF7D7FD022153
:104A00004DF21C30FDF7D2FD34214DF21D30FDF783
:104A1000CDFD02214DF21E30FDF7C8FD67214DF29C
:104A20001F30FDF7C3FD02214DF22030FDF7BEFD22
:104A300084214DF22130FDF7B9FD02214DF22230E3
:104A4000FDF7B4FDA4214DF22330FDF7AFFD0221A7
:104A50004DF22430FDF7AAFDB7214DF22530FDF7C8
:104A6000A5FD02214DF22630FDF7A0FDCF214DF22C
:104A70002730FDF79BFD02214DF22830FDF796FD12
:104A8000DE214DF22930FDF791FD02214DF22A3051
:104A9000FDF78CFDF2214DF22B30FDF787FD022151
:104AA0004DF22C30FDF782FDFE214DF22D30FDF749
:104AB0007DFD03214DF22E30FDF778FD10214DF2E2
:104AC0002F30FDF773FD03214DF23030FDF76EFD01
:104AD00033214DF23130FDF769FD03214DF23230C3
:104AE000FDF764FD6D214DF23330FDF75FFD0021D0
:104AF0004FF45440FDF75AFD33214DF20140FDF7CC
:104B000055FD00214DF20240FDF750FD34214DF2DC
:104B10000340FDF74BFD00214DF20440FDF746FD3B
:104B20003A214DF20540FDF741FD00214DF20640CE
:104B3000FDF73CFD4A214DF20740FDF737FD00210E
:104B40004DF20840FDF732FD5C214DF20940FDF7C2
:104B50002DFD00214DF20A40FDF728FD81214DF287
:104B60000B40FDF723FD00214DF20C40FDF71EFD2B
:104B7000A6214DF20D40FDF719FD00214DF20E402A
:104B8000FDF714FDE5214DF20F40FDF70FFD01216A
:104B90004DF21040FDF70AFD13214DF21140FDF7D3
:104BA00005FD01214DF21240FDF700FD54214DF2AB
:104BB0001340FDF7FBFC01214DF21440FDF7F6FC1C
:104BC00082214DF21540FDF7F1FC01214DF2164016
:104BD000FDF7ECFCCA214DF21740FDF7E7FC02217E
:104BE0004DF21840FDF7E2FC00214DF21940FDF7AF
:104BF000DDFC02214DF21A40FDF7D8FC01214DF2F7
:104C00001B40FDF7D3FC00E004E302214DF21C4001
:104C1000FDF7CCFC34214DF21D40FDF7C7FC02210D
:104C20004DF21E40FDF7C2FC67214DF21F40FDF71B
:104C3000BDFC02214DF22040FDF7B8FC84214DF26D
:104C40002140FDF7B3FC02214DF22240FDF7AEFCFE
:104C5000A4214DF22340FDF7A9FC02214DF224408E
:104C6000FDF7A4FCB7214DF22540FDF79FFC022182
:104C70004DF22640FDF79AFCCF214DF22740FDF77B
:104C800095FC02214DF22840FDF790FCDE214DF20B
:104C90002940FDF78BFC02214DF22A40FDF786FCEE
:104CA000F2214DF22B40FDF781FC02214DF22C4008
:104CB000FDF77CFCFE214DF22D40FDF777FC032132
:104CC0004DF22E40FDF772FC10214DF22F40FDF702
:104CD0006DFC03214DF23040FDF768FC33214DF2AD
:104CE0003140FDF763FC03214DF23240FDF75EFCDD
:104CF0006D214DF23340FDF759FC00214FF4554032
:104D0000FDF754FC33214DF20150FDF74FFC00211B
:104D10004DF20250FDF74AFC34214DF20350FDF7ED
:104D200045FC00214DF20450FDF740FC3A214DF2C4
:104D30000550FDF73BFC00214DF20650FDF736FC17
:104D40004A214DF20750FDF731FC00214DF2085089
:104D5000FDF72CFC5C214DF20950FDF727FC0021EA
:104D60004DF20A50FDF722FC81214DF20B50FDF768
:104D70001DFC00214DF20C50FDF718FCA6214DF250
:104D80000D50FDF713FC00214DF20E50FDF70EFC07
:104D9000E5214DF20F50FDF709FC01214DF21050B5
:104DA000FDF704FC13214DF21150FDF7FFFB01212B
:104DB0004DF21250FDF7FAFB54214DF21350FDF75E
:104DC000F5FB01214DF21450FDF7F0FB82214DF26D
:104DD0001550FDF7EBFB01214DF21650FDF7E6FBF8
:104DE000CA214DF21750FDF7E1FB02214DF2185098
:104DF000FDF7DCFB00214DF21950FDF7D7FB022136
:104E00004DF21A50FDF7D2FB01214DF21B50FDF778
:104E1000CDFB02214DF21C50FDF7C8FB34214DF2B1
:104E20001D50FDF7C3FB02214DF21E50FDF7BEFBE6
:104E300067214DF21F50FDF7B9FB02214DF22050C2
:104E4000FDF7B4FB84214DF22150FDF7AFFB0221A9
:104E50004DF22250FDF7AAFBA4214DF22350FDF79D
:104E6000A5FB02214DF22450FDF7A0FBB7214DF226
:104E70002550FDF79BFB02214DF22650FDF796FBD6
:104E8000CF214DF22750FDF791FB02214DF2285022
:104E9000FDF78CFBDE214DF22950FDF787FB022147
:104EA0004DF22A50FDF782FBF2214DF22B50FDF717
:104EB0007DFB02214DF22C50FDF778FBFE214DF2D7
:104EC0002D50FDF773FB03214DF22E50FDF76EFBC5
:104ED00010214DF22F50FDF769FB03214DF23050A8
:104EE000FDF764FB33214DF23150FDF75FFB0321E9
:104EF0004DF23250FDF75AFB6D214DF23350FDF764
:104F000055FB00214FF45640FDF750FB33214DF285
:104F10000160FDF74BFB00214DF20260FDF746FBFF
:104F200034214DF20360FDF741FB00214DF2046096
:104F3000FDF73CFB3A214DF20560FDF737FB002100
:104F40004DF20660FDF732FB4A214DF20760FDF796
:104F50002DFB00214DF20860FDF728FB5C214DF28E
:104F60000960FDF723FB00214DF20A60FDF71EFBEF
:104F700081214DF20B60FDF719FB00214DF20C6011
:104F8000FDF714FBA6214DF20D60FDF70FFB00218C
:104F90004DF20E60FDF70AFBE5214DF20F60FDF7C3
:104FA00005FB01214DF21060FDF700FB13214DF2CE
:104FB0001160FDF7FBFA01214DF21260FDF7F6FAE0
:104FC00054214DF21360FDF7F1FA01214DF2146006
:104FD000FDF7ECFA82214DF21560FDF7E7FA0121A9
:104FE0004DF21660FDF7E2FACA214DF21760FDF7A7
:104FF000DDFA02214DF21860FDF7D8FA00214DF2DA
:105000001960FDF7D3FA02214DF21A60FDF7CEFACE
:1050100001214DF21B60FDF7C9FA02214DF21C601F
:10502000FDF7C4FA34214DF21D60FDF7BFFA0221ED
:105030004DF21E60FDF7BAFA67214DF21F60FDF7D1
:10504000B5FA02214DF22060FDF7B0FA84214DF24D
:105050002160FDF7ABFA02214DF22260FDF7A6FABE
:10506000A4214DF22360FDF7A1FA02214DF2246044
:10507000FDF79CFAB7214DF22560FDF797FA022162
:105080004DF22660FDF792FACF214DF22760FDF731
:105090008DFA02214DF22860FDF788FADE214DF2EB
:1050A0002960FDF783FA02214DF22A60FDF77EFAAE
:1050B000F2214DF22B60FDF779FA02214DF22C60BE
:1050C000FDF774FAFE214DF22D60FDF76FFA032112
:1050D0004DF22E60FDF76AFA10214DF22F60FDF7B8
:1050E00065FA03214DF23060FDF760FA33214DF28D
:1050F0003160FDF75BFA03214DF23260FDF756FA9D
:105100006D214DF23360FDF751FA55214FF4704097
:10511000FDF74CFAAA214FF20100FDF747FA5221A0
:105120004FF20200FDF742FA08214FF20300FDF7AB
:105130003DFA00214FF20400FDF738FACC214FF47C
:105140003140FDF733FA00214BF20110FDF72EFA42
:1051500005214FF43640FDF729FA70214FF437400E
:10516000FDF724FA70214BF20170FDF71FFA0121BF
:105170004FF43840FDF71AFA03214BF60100FDF712
:1051800015FA03214BF60200FDF710FA03214BF646
:105190000300FDF70BFA02214FF43C40FDF706FA3D
:1051A00000214BF60140FDF701FA00214BF60240C9
:1051B000FDF7FCF9D0214FF44940FDF7F7F9022142
:1051C0004CF60110FDF7F2F950214CF60210FDF7F4
:1051D000EDF950214CF60310FDF7E8F950214CF69B
:1051E0000410FDF7E3F900214FF45450FDF7DEF908
:1051F00055214FF46850FDF7D9F94FF48850FDF769
:10520000BFF97820FBF7FBFD4FF42450FDF7B8F908
:1052100001F05EB9FE48808849F2253188427DD18F
:1052200047F6F001E520FDF7C1F94FF48071012048
:10523000FDF7BCF94FF4E0610220FDF7B7F941F248
:1052400030010320FDF7B2F900210420FDF7AEF98B
:1052500040F202210820FDF7A9F900210920FDF7FD
:10526000A5F900210A20FDF7A1F900210C20FDF786
:105270009DF900210D20FDF799F900210F20FDF780
:1052800095F900211020FDF791F907211120FDF774
:105290008DF900211220FDF789F900211320FDF777
:1052A00085F900210720FDF781F941F29061102076
:1052B000FDF77CF940F227211120FDF777F99D21B8
:1052C0001220FDF773F94FF4C8511320FDF76EF962
:1052D00025212920FDF76AF90D212B20FDF766F91C
:1052E00007213020FDF762F940F203313120FDF74C
:1052F0005DF903213220FDF759F940F206213520EE
:10530000FDF754F908213620FDF750F940F2064127
:105310003720FDF74BF94FF4417100E058E0382099
:10532000FDF744F907213920FDF740F940F2026109
:105330003C20FDF73BF908213D20FDF737F900211E
:105340005020FDF733F9EF215120FDF72FF900210F
:105350005220FDF72BF940F23F115320FDF726F9BB
:105360004FF427416020FDF721F901216120FDF76D
:105370001DF900216A20FDF719F900218020FDF7B1
:1053800015F900218120FDF711F900218220FDF798
:105390000DF900218320FDF709F900218420FDF794
:1053A00005F900218520FDF701F910219020FDF776
:1053B000FDF84FF4C0619220FDF7F8F840F2331188
:1053C0000720FDF7F3F822210020FDF7EFF81FE793
:1053D0008F48808849F2283188427DD141F28F017F
:1053E000EC20FDF7E3F841F23421EF20FDF7DEF881
:1053F0004FF480710120FDF7D9F84FF4E0610220ED
:10540000FDF7D4F841F230010320FDF7CFF8002179
:105410000420FDF7CBF840F202210820FDF7C6F882
:1054200000210920FDF7C2F800210A20FDF7BEF88F
:1054300001210C20FDF7BAF800210D20FDF7B6F888
:1054400000210F20FDF7B2F800211020FDF7AEF883
:1054500007211120FDF7AAF800211220FDF7A6F878
:1054600000211320FDF7A2F801210720FDF79EF887
:105470003220FBF76AFC41F290411020FDF796F8CC
:1054800040F227211120FDF791F83220FBF75DFC57
:105490008A211220FDF78AF83220FBF756FC4FF4E0
:1054A000D0511320FDF782F806212920FDF77EF860
:1054B0000D212B20FDF77AF83220FBF746FC002166
:1054C0002020FDF773F800212120FDF76FF832202E
:1054D000FBF73BFC002100E075E03020FDF766F8AB
:1054E00040F204613120FDF761F840F205313220CD
:1054F000FDF75CF800213520FDF758F840F609412A
:105500003620FDF753F84FF401713720FDF74EF8C0
:1055100040F201313820FDF749F840F20771392097
:10552000FDF744F800213C20FDF740F840F60A2141
:105530003D20FDF73BF83220FBF707FC002150200F
:10554000FDF734F8EF215120FDF730F8002152200B
:10555000FDF72CF840F23F115320FDF727F84FF4E8
:1055600027416020FDF722F801216120FDF71EF898
:1055700000216A20FDF71AF800218020FDF716F8B7
:1055800000218120FDF712F800218220FDF70EF89E
:1055900000218320FDF70AF800218420FDF706F89A
:1055A00000218520FDF702F810219020FCF7FEFF76
:1055B0004FF4C0619220FCF7F9FF40F2331107204D
:1055C000FCF7F4FF24E61248808849F22031884233
:1055D0007ED100210846FCF7E9FF4FF480710120DD
:1055E000FCF7E4FF4FF4E0610220FCF7DFFF41F23B
:1055F00030010320FCF7DAFF00210420FCF7D6FF7E
:1056000040F202210820FCF7D1FF0021092001E02F
:1056100008060020FCF7CAFF00210A20FCF7C6FF9D
:1056200001210C20FCF7C2FF00210D20FCF7BEFF7A
:1056300000210F20FCF7BAFF3220FBF786FB40F277
:1056400001110720FCF7B2FF3220FBF77EFB4FF47D
:1056500086511020FCF7AAFF07211120FCF7A6FFB6
:105660004FF488711220FCF7A1FF4FF43061132032
:10567000FCF79CFF00212920FCF798FF44F2100161
:105680002B20FCF793FF00215020FCF78FFFEF2128
:105690005120FCF78BFF00215220FCF787FF40F2DE
:1056A0003F115320FCF782FF4FF41C516020FCF7A0
:1056B0007DFF01216120FCF779FF00216A20FCF7C2
:1056C00075FF00218020FCF771FF0021812000E0A0
:1056D00030E0FCF76BFF00218220FCF767FF002120
:1056E0008320FCF763FF00218420FCF75FFF00218B
:1056F0008520FCF75BFF10219020FCF757FF00216D
:105700009220FCF753FF01219320FCF74FFF4FF449
:1057100088719520FCF74AFF00219720FCF746FF8F
:1057200000219820FCF742FF40F273110720FCF79C
:105730003DFF6DE5FE48808849F2313188427DD1D8
:1057400041F21401E720FCF731FF4FF48071012092
:10575000FCF72CFF4FF400710220FCF727FF41F209
:1057600038010320FCF722FF40F202210820FCF759
:105770001DFF00210920FCF719FF00210A20FCF77A
:1057800015FF00210C20FCF711FF00210D20FCF774
:105790000DFF00210F20FCF709FF00211020FCF76E
:1057A00005FF07211120FCF701FF00211220FCF763
:1057B000FDFE00211320FCF7F9FEC820FBF7C5FA17
:1057C00041F290611020FCF7F1FE40F227211120F8
:1057D000FCF7ECFE3220FBF7B8FA0C211220FCF7A4
:1057E000E5FE3220FBF7B1FA4FF400611320FCF71D
:1057F000DDFE11212920FCF7D9FE0B212B20FCF71F
:10580000D5FE3220FBF7A1FA00212020FCF7CEFEC6
:1058100040F23F112120FCF7C9FE00213020FCF7A7
:10582000C5FE4FF483713120FCF7C0FE0021322009
:10583000FCF7BCFE4FF40171352000E064E0FCF79A
:10584000B5FE41F20A613620FCF7B0FE40F2077166
:105850003720FCF7ABFE4FF483713820FCF7A6FE2F
:1058600040F207713920FCF7A1FE40F202413C20D2
:10587000FCF79CFE40F60F413D20FCF797FE00210F
:105880005020FCF793FEEF215120FCF78FFE002102
:105890005220FCF78BFE40F23F115320FCF786FEAE
:1058A0004FF41C516020FCF781FE01216120FCF7C0
:1058B0007DFE00216A20FCF779FE00218020FCF7A4
:1058C00075FE00218120FCF771FE00218220FCF78B
:1058D0006DFE00218320FCF769FE00218420FCF787
:1058E00065FE00218520FCF761FE10219020FCF769
:1058F0005DFE4FF4C0619220FCF758FE40F2331178
:105900000720FCF753FE83E48948808845F208416C
:1059100088427DD14FF480710120FCF747FE4FF49F
:10592000E0610220FCF742FE41F230010320FCF767
:105930003DFE00210420FCF739FE40F2072108203B
:10594000FCF734FE00210920FCF730FE00210A207C
:10595000FCF72CFE00210C20FCF728FE00210D2076
:10596000FCF724FE00210F20FCF720FE1420FBF79B
:10597000ECF941F2B0611020FCF718FE0121112072
:10598000FCF714FE01211720FCF710FE4FF49C7168
:105990001220FCF70BFE4FF400611320FCF706FE0B
:1059A00009212920FCF702FE09212A20FCF7FEFD2F
:1059B0000021A420FCF7FAFD00215020FCF7F6FDA1
:1059C000EF215120FCF7F2FD00215220FCF7EEFD03
:1059D00040F23F115320FCF7E9FD4FF41C516020C9
:1059E000FCF7E4FD01216120FCF7E0FD00216A20C5
:1059F000FCF7DCFD00218020FCF7D8FD0021812090
:105A0000FCF7D4FD00218220FCF7D0FD002100E04E
:105A100024E08320FCF7CAFD00218420FCF7C6FDAA
:105A200000218520FCF7C2FD13219020FCF7BEFD6C
:105A300000219220FCF7BAFD03219320FCF7B6FD6C
:105A40004FF488719520FCF7B1FD40F273110720E7
:105A5000FCF7ACFD3220FBF778F9B8E434488088D5
:105A600041F2055188427DD100210720FCF79EFDBF
:105A70003220FBF76AF94FF48E711220FCF796FD85
:105A80000121A420FCF792FD0F210820FCF78EFDD8
:105A900008210A20FCF78AFD08210D20FCF786FD6D
:105AA00040F207713020FCF781FD07213120FCF71F
:105AB0007DFD40F203613220FCF778FD4FF4E06198
:105AC0003320FCF773FD40F202213420FCF76EFD19
:105AD00002213520FCF76AFD41F60F713620FCF7F4
