:020000040800F2
:10000000282000204501000849040008B103000829
:10001000450400088D0100080D08000800000000DC
:100020000000000000000000000000004105000882
:1000300091010008000000004B0400082D06000894
:100040005F0100085F0100085F0100085F01000810
:100050005F0100085F0100085F0100085F01000800
:100060005F0100085F0100085F0100085F010008F0
:100070005F0100085F0100085F0100085F010008E0
:100080005F0100085F0100085F0100085F010008D0
:100090005F0100085F0100085F0100085F010008C0
:1000A0005F0100085F0100085F0100085F010008B0
:1000B0005F0100085F0100085F0100085F010008A0
:1000C0005F0100085F0100085F0100085F01000890
:1000D0005F010008AD0600085F0100085F0100082D
:1000E0005F0100085F0100085F0100085F01000870
:1000F0005F0100085F0100085F0100085F01000860
:100100005F0100085F0100085F0100085F0100084F
:100110005F0100085F0100085F0100085F0100083F
:100120005F0100085F0100085F0100085F0100082F
:10013000DFF80CD000F018F8004800477D090008EF
:10014000282000200648804706480047FEE7FEE7D3
:10015000FEE7FEE7FEE7FEE7FEE7FEE7FEE7FEE777
:100160004D06000831010008064C074D06E0E06826
:1001700040F0010394E8070098471034AC42F6D3EE
:10018000FFF7DAFFA40A0008C40A000800BFFEE770
:1001900070472DE9F041024600250026002000238B
:1001A0000024002791F803C00CF00F0591F803C05C
:1001B0000CF0100CBCF1000F03D091F802C04CEA17
:1001C000050591F800C0BCF1000F31D01468002083
:1001D0002BE04FF0010C0CFA00F3B1F800C00CEA70
:1001E00003069E4220D183004FF00F0C0CFA03F758
:1001F000BC4305FA03FC4CEA040491F803C0BCF1CB
:10020000280F06D14FF0010C0CFA00FCC2F814C004
:100210000AE091F803C0BCF1480F05D14FF0010C82
:100220000CFA00FCC2F810C0401C0828D1D314609E
:10023000B1F800C0BCF1FF0F34DD546800202EE09F
:1002400000F1080C4FF0010808FA0CF3B1F800C0F7
:100250000CEA03069E4221D183004FF00F0C0CFAEA
:1002600003F7BC4305FA03FC4CEA040491F803C00D
:10027000BCF1280F05D100F1080C08FA0CF8C2F8FF
:10028000148091F803C0BCF1480F07D100F1080CAD
:100290004FF0010808FA0CF8C2F81080401C08283A
:1002A000CED35460BDE8F0810246002093680B4035
:1002B0000BB1012000E00020704701617047000091
:1002C00010B501213448FFF7EFFF012805D133486D
:1002D0000088401C314908805CE010213048FFF75D
:1002E000E3FF28B92F480088401C2E49088051E0C0
:1002F00020212B48FFF7D8FF28B92B480088401C45
:100300002949088046E040212548FFF7CDFF28B95C
:1003100026480088401C254908803BE01F4800888B
:1003200002280ADD00201D4908801E4908801E4958
:1003300008801E490880012010BD1A480088022844
:100340000ADD0020154908801649088016490880F2
:10035000164908800220EFE71348008802280ADDCA
:1003600000200E4908800F4908800F4908800F4976
:1003700008800320E0E70D48008802280ADD0020FD
:10038000064908800749088007490880074908800E
:100390000420D1E70020CFE7000801401C00002026
:1003A000001001401E00002020000020220000203C
:1003B00000BFFEE708B50121142000F047F8002037
:1003C000009004208DF803007020ADF80000032099
:1003D0008DF8020069460548FFF7DBFE0120ADF805
:1003E000000069460248FFF7D4FE08BD0010014036
:1003F0000008014008B50121402000F027F8002046
:10040000009010208DF803003C20ADF80000032080
:100410008DF8020069460A48FFF7BBFE0421084830
:10042000FFF74BFF08210648FFF747FF102104485C
:10043000FFF743FF20210248FFF73FFF08BD000000
:100440000018014000BFFEE77047704729B1064A17
:1004500092690243044B9A6104E0034A9269824321
:10046000014B9A61704700000010024030B5002136
:100470000022002400232D4D6D6805F00C0121B1F0
:10048000042905D0082923D105E0294D056022E083
:10049000274D05601FE0254D6D6805F47012234D52
:1004A0006D6805F48034022505EB92421CB9214D9C
:1004B000554305600BE01D4D6D6805F400351DB119
:1004C0001C4D5543056002E0194D5543056002E09F
:1004D000174D056000BF00BF144D6D6805F0F001B9
:1004E0000909154D6B5C0568DD4045600F4D6D6871
:1004F00005F4E061090A104D6B5C4568DD408560DC
:100500000A4D6D6805F46051C90A0B4D6B5C456876
:10051000DD40C560054D6D6805F44041890B074D10
:100520006B5CC568B5FBF3F5056130BD001002409A
:1005300000127A0000093D00000000201000002099
:10054000704710B500F002F810BD00000CB5002097
:10055000019000903348006840F4803031490860D1
:1005600000BF3048006800F4003000900198401C43
:100570000190009818B90198B0F5A06FF1D1294801
:10058000006800F4003010B10120009001E000206C
:1005900000900098012843D12348006840F01000E3
:1005A000214908600846006820F0030008600846FA
:1005B000006840F0020008601A4840681949486025
:1005C0000846406848600846406840F480604860DB
:1005D0000846406820F47C1048600846406840F4B3
:1005E000E81048600846006840F08070086000BF6E
:1005F0000C48006800F000700028F9D009484068F5
:1006000020F00300074948600846406840F00200B7
:10061000486000BF0348406800F00C000828F9D18A
:100620000CBD000000100240002002400548006898
:10063000401C0449086004480068401C02490860E6
:1006400070470000140000201800002010B5134867
:10065000006840F0010011490860084640681049F0
:1006600008400E494860084600680E4908400B499A
:1006700008600846006820F480200860084640684A
:1006800020F4FE0048604FF41F008860FFF759FF18
:100690004FF000600449086010BD000000100240E7
:1006A0000000FFF8FFFFF6FE08ED00E0704721B103
:1006B000828942F40052828104E082894DF6FF7300
:1006C0001A408281704702460020B1F5007F00D1B8
:1006D00000BF13880B400BB1012000E000207047E1
:1006E000F0B50346002400260025002040F66A17D6
:1006F000B94200D100BF1846C1F3421401F01F06F1
:10070000012707FA06F5012C01D10C3004E0022C78
:1007100001D1103000E014301AB107682F43076090
:1007200002E00768AF430760F0BD00002DE9F04725
:1007300086B005460E460024A24600BFA14600270B
:10074000B08900B100BF2F462C8A4CF6FF700440E0
:10075000F08804432C82AC894EF6F3100440B08834
:1007600031890843718908430443AC81AC8A4FF650
:10077000FF400440B0890443AC8201A8FFF776FE35
:100780001F48874202D1DDF810A001E0DDF80CA07F
:10079000A88900F4004040B10AEBCA0000EB0A103F
:1007A00031684900B0FBF1F807E00AEBCA0000EB42
:1007B0000A1031688900B0FBF1F86420B8FBF0F052
:1007C00004012009642101FB1089A88900F400407C
:1007D00040B1322000EBC900B0FBF1F000F007009F
:1007E000044308E0322000EB09106421B0FBF1F073
:1007F00000F00F0004432C8106B0BDE8F087000034
:1008000000380140C1F308028280704700BFFEE754
:1008100010B586B001210420FFF718FE01218803DE
:10082000FFF714FE0020059018208DF817004FF4F4
:100830000070ADF8140003208DF8160005A92B48B0
:10084000FFF7A7FC4FF48060ADF8140004208DF88A
:10085000170005A92548FFF79CFC00200190029095
:10086000039004904FF4E13001900020ADF81000A7
:100870000C20ADF80E000020ADF80C00ADF80A0019
:10088000ADF8080001A91A48FFF750FF01211848E8
:10089000FFF70DFF012240F225511548FFF720FF19
:1008A00025200021002804DB0A07130E114A1354E7
:1008B00006E00A07140E104A00F00F031B1FD45461
:1008C00000BF252000280DDB00BF00BF00F01F0285
:1008D000012191404209920002F1E022C2F8001188
:1008E00000BF00BF00BF06B010BD000000080140FF
:1008F0000038014000E400E018ED00E010B50446C7
:1009000000BF40210448FFF7DEFE0028F9D0214651
:100910000148FFF777FF10BD00380140014A024946
:1009200000F013B86D0900082400002002E008C898
:10093000121F08C1002AFAD170477047002001E059
:1009400001C1121F002AFBD170472DE9F041164664
:100950000F460446002503E03946B047641C6D1C71
:1009600020780028F8D12846BDE8F08170B504460B
:100970000D46E0B2FFF7C2FF204670BD4FF4E151D3
:10098000481EB0F1807F00D31BE0481E4FF0E022EC
:10099000506150170F22002804DB13071D0E2E4B49
:1009A0001D5406E013071E0E2C4B00F00F052D1FE3
:1009B0005E5500BF00204FF0E022906107201061DB
:1009C00000BFFFF717FDFFF7F5FCFFF721FF24A09D
:1009D000FFF7A4FF00243DE02F4800680A282BD928
:1009E000FFF76EFC0446012C06D0022C0BD0032C22
:1009F00010D0042C1CD114E02848006880F01000AE
:100A00002649086014E02548006880F00800234962
:100A100008600DE02148006880F010001F49086060
:100A200006E01E48006880F020001C49086000BFF6
:100A300000BF00201849086019480068B0F5FA7F27
:100A400008D31648006880F00400144908600020AC
:100A500013490860C0E7000000E400E018ED00E082
:100A600020C2ACBBDBBEFC0D0A20BAD3C4CFB9A4F4
:100A7000D1A7D4BA0D0A20CEEFC1AACDF8B9A4B33C
:100A8000CC0D0A20CEEFC1AACDF832323228D7A839
:100A9000C9FDB1BE29000000180000200C1801405B
:100AA00014000020C40A00080000002028000000F4
:100AB0002C090008EC0A0008280000200020000093
:100AC0003C090008000000000102030401020304C5
:100AD00006070809020406080000000000000000E4
:0C0AE0000000000000000000000000000A
:0400000508000131BD
:00000001FF
