:020000040800F2
:10000000F020002045010008ED2000089D120008A6
:10001000E9200008EF090008615F00080000000007
:10002000000000000000000000000000792200082D
:10003000F309000800000000EF2000086523000815
:100040005F0100085F0100085F0100085F01000810
:100050005F0100085F0100085F0100085F01000800
:100060005F0100085F0100085F0100085F010008F0
:100070005F0100085F0100085F0100085F010008E0
:100080005F0100085F0100085F0100085F010008D0
:100090005F0100085F0100085F0100085F010008C0
:1000A0005F0100085F0100085F0100085F010008B0
:1000B0005F0100085F0100085F0100085F010008A0
:1000C0005F0100085F0100085F0100085F01000890
:1000D0005F010008E15D00085F0100085F010008A2
:1000E0005F0100085F0100085F0100085F01000870
:1000F0005F0100085F0100085F0100085F01000860
:100100005F0100085F0100085F0100085F0100084F
:100110005F0100085F0100085F0100085F0100083F
:100120005F0100085F0100085F0100085F0100082F
:10013000DFF80CD000F032FB00480047A56900084A
:10014000F02000200648804706480047FEE7FEE70B
:10015000FEE7FEE7FEE7FEE7FEE7FEE7FEE7FEE777
:10016000A1230008310100082DE9FE4F804681EAF5
:100170000300C00F0C46009021F0004123F0004521
:10018000B8EB0200A94105D24046214690461C46E4
:100190000B46024623F00040104347D0270DC7F31B
:1001A0000A00C3F30A510290401A019040286BDA0A
:1001B000C3F3130040F4801B0098924620B1002343
:1001C000D2EB030A63EB0B0B01985946C0F14002D6
:1001D000504600F0EDF906460D4650465946019A44
:1001E00000F005FA10EB08006141002487EA115283
:1001F00084EAE7731A4340D0009A62B3019A012A55
:100200004FEA075215DC001B61EB02014FF0004280
:1002100002EA0752CDE90042001C41F58011324646
:100220002B4600F03CFA03B0BDE8F08F4046214673
:10023000F9E7001B61EB0201001C41F58013001877
:100240005B412018A2F5001747EB030140EAD57087
:10025000B6196D4111E06D084FEA360645EAC075E2
:100260004FEA0752001B61EB0201001C41F58011AF
:1002700049084FEA30000019514132462B4603B07D
:10028000BDE8F04F00F0FCB90098012240000023C7
:10029000D0EB020263EBE073009821464FEAE07472
:1002A000B8EB000061EB0401E9E783F000435BE792
:1002B00081F0004158E72DE9FE4F81EA030404F084
:1002C000004421F0004100944FF0000B23F0004364
:1002D00050EA01045ED052EA03045BD0C3F30A542F
:1002E000C1F30A552C44A4F2F3340194A0FB025448
:1002F000C1F3130141F48011C3F3130343F48013DA
:1003000001FB024400FB034E840A970A44EA81542D
:1003100047EA8357A4FB076802958D0A05FB07850A
:100320004FEA932C04FB0C542705029D4FEA065814
:1003300047EA1637B5EB08056EEB070C870E920EF1
:1003400047EA811742EA8312A7FB0201B6EB0B01D1
:1003500064EB00042B0D43EA0C335E1844EB1C5095
:10036000DA465146E7FB0201C5F313044FEA0B33AB
:1003700043EA14534FEA0432019C43EA0603A4F112
:100380000C040294009CCDE900B400F088F903B09D
:10039000BDE8F08F00200146F9E72DE9F04D81EA34
:1003A000030404F0004B21F0004514464FF0000A0E
:1003B00023F0004150EA050220D054EA01021DD08A
:1003C000C5F30A570246C5F31303C1F31300C1F383
:1003D0000A5640F4801543F48013A7EB0608101B5F
:1003E000D64608F2FD3873EB050002D308F1010888
:1003F00001E092185B41B8F1000F03DA00200146DA
:10040000BDE8F08D00204FF48011064684460EE0D2
:10041000171B73EB050705D3121B63EB050306439C
:100420004CEA010C49084FEA300092185B4150EA4F
:100430000107EDD152EA030012D082EA040083EAF8
:100440000501084305D0101BAB4106D20122002351
:1004500006E000224FF0004302E06FF0010253106B
:100460001AEB06004CEB085110EB0A0041EB0B01B4
:10047000BDE8F04D00F004B90EB540F233410291F1
:100480000021CDE900110A460B4600F008F903B03F
:1004900000BDC1F30A5210B5C1F3130140F2FF339E
:1004A00041F480119A4201DA002010BD40F233433A
:1004B0009A42A2F2334203DC524200F088F810BDA7
:1004C000904010BD00F0004230F000400AD0C10D55
:1004D00001F56071C0F3160042EA0151C2084007FD
:1004E0001143704700200146704701F0004330B4CB
:1004F00021F0004150EA010206D00A0DA2F5607217
:10050000C1F31301002A02DC30BC00207047440F05
:1005100044EAC104C100E01830BC00EBC25000F056
:1005200078B830B50B46014600202022012409E0AE
:1005300021FA02F59D4205D303FA02F5491B04FA9C
:1005400002F52844151EA2F10102F1DC30BD2DE9AF
:10055000F05F0546002092469B4688460646814647
:1005600040241BE0284641464746224600F02FF82B
:1005700053465A46C01A914110D311461846224696
:1005800000F016F82D1A67EB01084F4622460120AD
:10059000002100F00DF817EB00094E41201EA4F1D8
:1005A0000104DFDC484631462A464346BDE8F09F59
:1005B000202A04DB203A00FA02F100207047914023
:1005C000C2F1200320FA03F3194390407047202A18
:1005D00004DB203A21FA02F00021704721FA02F3ED
:1005E000D040C2F120029140084319467047202AAA
:1005F00006DBCB17203A41FA02F043EAE07306E04B
:1006000041FA02F3D040C2F120029140084319465A
:1006100070470029A8BF7047401C490008BF20F060
:100620000100704710B4B0FA80FC00FA0CF050EAF8
:10063000010404BF10BC704749B1CCF1200421FA79
:1006400004F411FA0CF118BF012121430843A3EB74
:100650000C01CB1D4FEA00614FEA102042BF002081
:1006600010BC704700EBC35010440029A4BF10BC5D
:100670007047401C490008BF20F0010010BC7047C3
:1006800010B5141E73F1000408DA401C41F100019A
:1006900092185B411A4301D120F0010010BD2DE9F1
:1006A000F04D92469B4611B1B1FA81F202E0B0FAE8
:1006B00080F220329046FFF77BFF04460F4640EA67
:1006C0000A0041EA0B0153465A46084313D011462B
:1006D00053EA010019D0C8F140025046FFF777FFF6
:1006E00005460E46504659464246FFF761FF08430D
:1006F00005D0012004E020463946BDE8F08D0020F9
:10070000054346EAE0762C4337430A986305E40A3A
:10071000A0EB08000022FD0A44EA47540A3002D543
:1007200000200146E9E7010510196941DDE90845A6
:1007300000196941BDE8F04DA2E7C1F30A52C1F3C7
:10074000130140F2FF3341F480119A4202DA002093
:100750000146704740F233439A42A2F2334202DC30
:100760005242FFF734BFFFF723BF000030B5041E2D
:1007700071F1000404DB4FF00044404264EB0101DE
:10078000141E73F1000405DB1C464FF00043524277
:1007900063EB0403994208BF904230BD064C074DFD
:1007A00006E0E06840F0010394E807009847103441
:1007B000AC42F6D3FFF7C0FC58FD020878FD0208F2
:1007C00021B1826842F00102826003E0826822F077
:1007D000010282607047000000B587B04FF400400E
:1007E00001F0A4FC01214FF4057001F0CBFC0020C6
:1007F0008DF81B002220ADF8180003208DF81A0098
:1008000006A91A4800F0B6FB0220ADF8180006A9A8
:10081000174800F0AFFB00208DF8090004904FF45A
:10082000602003900020019001208DF8140000202A
:100830008DF8080001A90F4800F040F801210D488B
:10084000FFF7BEFF0B4800F0BDF800BF094800F0FD
:100850002AF80028FAD1074800F0C4F800BF05487C
:1008600000F00AF80028FAD107B000BD00080140E6
:100870000010014000240140014600208A6802F077
:1008800004020AB1012000E0002070470146C86C54
:1008900080B270470246002013680B400BB1012064
:1008A00000E000207047014600208A6802F008023C
:1008B0000AB1012000E000207047000030B5024678
:1008C0000020002350680F4C20400D790C6844EA4A
:1008D00005242043506090680B4C2040D1E902541D
:1008E0002C434D7944EA450420439060D06A20F4BB
:1008F00070000C7C641EE4B2234340EA0350D062D3
:1009000030BD0000FFFEF0FFFDF7F1FFF0B504463B
:100910000D4600200021092D11DDE068A5F10A0631
:1009200006EB4607072606FA07F18843A5F10A06F3
:1009300006EB460603FA06F10843E0600CE0206986
:1009400005EB4507072606FA07F1884305EB450640
:1009500003FA06F108432061072A0FDA606B561E7E
:1009600006EB86071F2606FA07F18843561E06EB9C
:10097000860605FA06F10843606322E00D2A0FDAC5
:10098000206BD61F06EB86071F2606FA07F1884361
:10099000D61F06EB860605FA06F10843206310E031
:1009A000E06AA2F10D0606EB86071F2606FA07F19C
:1009B0008843A2F10D0606EB860605FA06F1084308
:1009C000E062F0BD816841F008018160704721B1AB
:1009D000826842F4A002826003E0826822F4A002EE
:1009E00082607047816841F004018160704700BFF8
:1009F000FEE7704770B54FF47A7300FB03F10022F5
:100A000047E000BF00BF00BF00BF00BF00BF00BF86
:100A100000BF00BF00BF00BF00BF00BF00BF00BFDE
:100A200000BF00BF00BF00BF00BF00BF00BF00BFCE
:100A300000BF00BF00BF00BF00BF00BF00BF00BFBE
:100A400000BF00BF00BF00BF00BF00BF00BF00BFAE
:100A500000BF00BF00BF00BF00BF00BF00BF00BF9E
:100A600000BF00BF00BF00BF00BF00BF00BF00BF8E
:100A700000BF00BF00BF00BF00BF00BF00BF00BF7E
:100A800000BF00BF00BF00BF00BF00BF00BF00BF6E
:100A900000BF13460C46491E62F100020026744056
:100AA00073401C43ADD170BD47E000BF00BF00BF25
:100AB00000BF00BF00BF00BF00BF00BF00BF00BF3E
:100AC00000BF00BF00BF00BF00BF00BF00BF00BF2E
:100AD00000BF00BF00BF00BF00BF00BF00BF00BF1E
:100AE00000BF00BF00BF00BF00BF00BF00BF00BF0E
:100AF00000BF00BF00BF00BF00BF00BF00BF00BFFE
:100B000000BF00BF00BF00BF00BF00BF00BF00BFED
:100B100000BF00BF00BF00BF00BF00BF00BF00BFDD
:100B200000BF00BF00BF00BF00BF00BF00BF00BFCD
:100B300000BF00BF00BF00BF00BF011EA0F1010049
:100B4000B3D1704738B504460121080201F01AFB01
:100B5000002000904FF40060ADF8000003208DF8F5
:100B600002001CB914208DF8030002E004208DF867
:100B700003006946014800F0FDF938BD002001403E
:100B800051B18200A2F1C042126842F0010382001A
:100B9000A2F1C042136009E08200A2F1C0421268D3
:100BA000034B1A408300A3F1C0431A607047000052
:100BB000FEFF0F00D0E901121143C2681143026920
:100BC00011434269114382691143C2691143026AA8
:100BD0001143426A1143826A1143C26A1143026B94
:100BE000114302689200A2F1C04211608168082995
:100BF0000BD101688900A1F1C041096841F04002B0
:100C000001688900A1F1C0410A60416B0968426B2B
:100C1000526841EA0211426B926841EA0221426B3A
:100C2000928941EA0241426B128A41EA0251426BC7
:100C3000127D41EA0261426B926911430268521CC3
:100C40009200A2F1C0421160C16AB1F5804F1BD180
:100C5000816B0968826B526841EA0211826B92686B
:100C600041EA0221826B128A41EA0251826B127DB3
:100C700041EA0261826B9269114302689200A2F11B
:100C8000C042C2F8041107E06FF0704201688900A9
:100C9000A1F1C041C1F80421704700002DE9FF5FB8
:100CA0000020039000248146FFF74CFF4FF40061C1
:100CB000A04800F0F3F91420FFF79CFE4FF4006108
:100CC0009C4800F0EDF90120FFF73CFF0DE009F131
:100CD000010000F0FF090120FFF7E6FEB9F1640F03
:100CE00003DD012004B0BDE8F09F4FF4006191489E
:100CF00000F0CBF90028EAD04FF000090BE009F131
:100D0000010000F0FF090120FFF7CEFEB9F1640FEA
:100D100001DD0220E6E74FF40061864800F0B5F9F6
:100D20000128ECD04FF000090BE009F1010000F0C0
:100D3000FF090120FFF7B8FEB9F1640F01DD0320C0
:100D4000D0E74FF400617B4800F09FF90028ECD019
:100D500000246FE04FF000090BE009F1010000F002
:100D6000FF090120FFF7A0FEB9F1640F01DD0420A7
:100D7000B8E74FF400616F4800F087F90128ECD024
:100D80004FF000090BE009F1010000F0FF0901201C
:100D9000FFF78AFEB9F1640F01DD0520A2E74FF4E9
:100DA0000061644800F071F90028ECD01E20FFF7C4
:100DB0007BFE4FF400615F4800F067F9C0B9E217AD
:100DC00004EB5272D2105C4B9A5C2146E31704EBA1
:100DD0005373DB10A4EBC303C3F107050123AB403E
:100DE0009A432046E31704EB5373DB10524DEA5449
:100DF0004FF400614F4800F048F9012818D1E2177C
:100E000004EB5272D2104C4B9A5C2146E31704EB70
:100E10005373DB10A4EBC303C3F107050123AB40FD
:100E20001A432046E31704EB5373DB10424DEA5498
:100E3000601CC4B2282C8DDB3F4800783E494978BD
:100E400008443D49897808443B49C9780844C0B200
:100E50000390394801790398814269D1364948782D
:100E6000FFF70AFB0022354BCDE90001FFF795FAA9
:100E700005460E4630490878FFF7FEFA07462A462F
:100E80003346FFF771F98246FFF72FFB2C490860C4
:100E90002949C878FFF7F0FA07460022274BFFF7E9
:100EA0007CFA05460E4624498878FFF7E5FA824623
:100EB0002A463346FFF758F9CDE90001FFF715FB45
:100EC0002049086008460068FFF7FCFA05460E4610
:100ED0001B480068FFF7F6FA07463A460B461AA089
:100EE000CDE9005605F0C4F8134802781CA11E484D
:100EF00005F0CEF800201C4910221346CDE9002150
:100F00000290962214210F2000F0CEFE0A4882782B
:100F100016A1154805F0BCF800201349102213460D
:100F2000CDE900210290962228210F2000F0BCFE7E
:100F30000020D7E6002001403400002000002440BB
:100F40002C0000203000002048756D3A252E3166B7
:100F5000202054656D3A252E31660D0A00000000F0
:100F6000CAAAB6C83A25640048000020CEC2B6C856
:100F70003A2564002DE9F0410246002500260020B4
:100F800000230024002791F803C00CF00F0591F80E
:100F900003C00CF0100CBCF1000F03D091F802C09C
:100FA0004CEA050591F800C0BCF1000F31D014687F
:100FB00000202BE04FF0010C0CFA00F3B1F800C058
:100FC0000CEA03069E4220D183004FF00F0C0CFA6E
:100FD00003F7BC4305FA03FC4CEA040491F803C090
:100FE000BCF1280F06D14FF0010C0CFA00FCC2F83E
:100FF00014C00AE091F803C0BCF1480F05D14FF0CE
:10100000010C0CFA00FCC2F810C0401C0828D1D317
:101010001460B1F800C0BCF1FF0F34DD546800204B
:101020002EE000F1080C4FF0010808FA0CF3B1F8BB
:1010300000C00CEA03069E4221D183004FF00F0C42
:101040000CFA03F7BC4305FA03FC4CEA040491F8DC
:1010500003C0BCF1280F05D100F1080C08FA0CF808
:10106000C2F8148091F803C0BCF1480F07D100F119
:10107000080C4FF0010808FA0CF8C2F81080401C68
:101080000828CED35460BDE8F08102460020936862
:101090000B400BB1012000E0002070474161704718
:1010A0000161704710B501213448FFF7EEFF0128B8
:1010B00005D133480088401C314908805CE010218C
:1010C0003048FFF7E2FF28B92F480088401C2E491E
:1010D000088051E020212B48FFF7D7FF28B92B4883
:1010E0000088401C2949088046E040212548FFF738
:1010F000CCFF28B926480088401C254908803BE0E1
:101100001F48008802280ADD00201D4908801E496A
:1011100008801E4908801E490880012010BD1A4819
:10112000008802280ADD0020154908801649088039
:1011300016490880164908800220EFE71348008806
:1011400002280ADD00200E4908800F4908800F4957
:1011500008800F4908800320E0E70D480088022836
:101160000ADD0020064908800749088007490880F1
:10117000074908800420D1E70020CFE7000801409C
:10118000240000200010014026000020280000203C
:101190002A0000200EB50523012219461648FFF744
:1011A000B5FB01211448FFF712FC00BF02211248D1
:1011B000FFF770FB0028F9D00F48FFF767FB0F49D6
:1011C0000880084601880EA004F052FF0B480288F0
:1011D0000EA1104804F05CFF00200E4910221346B7
:1011E000CDE900210290962250210F2000F05CFDF5
:1011F000024800880EBD0000002401403A00002093
:10120000B9E2D5D53A25640D0A000000B9E2D5D57A
:101210003A2564007A0000200EB5052301220B2137
:101220001648FFF773FB01211448FFF7D0FB00BFFE
:1012300002211248FFF72EFB0028F9D00F48FFF7D4
:1012400025FB0F494880084641880EA004F010FF96
:101250000B4842880EA1104804F01AFF00200E49E6
:1012600010221346CDE90021029096223C210F2046
:1012700000F01AFD024840880EBD00000024014025
:101280003A000020D1CCCEED3A25640D0A000000D2
:10129000D1CCCEED3A2564007A00002000BFFEE7F5
:1012A00008B50121142000F06DFF002000900420FB
:1012B0008DF803007020ADF8000003208DF80200C7
:1012C00069460548FFF756FE0120ADF80000694663
:1012D0000248FFF74FFE08BD001001400008014022
:1012E00070B50446002617480588408845431548D0
:1012F000808846F60401884216D112488079012878
:1013000012D100200F4988712A2048812B20888122
:101310000021084600F0FCFA01200A4988712B20C0
:1013200048812A20888103E00021084600F0F0FA75
:1013300000F05EFE002602E003480480761CAE4208
:10134000FAD370BDDE0000200008006C10B5044622
:10135000002C73D179498871F02008804FF4A07077
:1013600048800846808849F24131884211D073484C
:10137000808849F2864188420BD07048808846F6C2
:101380000401884205D06D48808845F210318842BA
:1013900020D12C20694908812A2048812B2088816E
:1013A0000846808846F6040188420BD0634880884E
:1013B00045F21031884205D06048808849F2864164
:1013C000884206D14FF4A0705C4908804FF4F07059
:1013D0004880AEE05948808845F21051884210D1CB
:1013E0004FF43050554908814FF4285048814FF44C
:1013F0002C5088814FF4F07008804FF4487048807A
:1014000097E04E48808841F6631188420DD12C2028
:101410004A4908812B2048812A2088814FF4F070A6
:1014200008804FF44870488083E0222043490881B7
:1014300020204881212088817BE0FFE701203F496F
:1014400088714FF4A0700880F0204880084680889A
:1014500049F2413188420BD03848808849F28641B0
:10146000884205D03548808845F21031884207D13E
:101470002C20324908812A2048812B2088813FE096
:101480002E48808846F60401884207D12C202B493B
:1014900008812B2048812A20888131E027488088D4
:1014A00045F21051884210D14FF430502349088141
:1014B0004FF4285048814FF42C5088814FF44870E5
:1014C00008804FF4F07048801AE01C48808841F68C
:1014D000631188420DD12C20184908812A204881A7
:1014E0002B2088814FF4487008804FF4F0704880BA
:1014F00006E022201149088121204881202088818E
:101500000E48808846F6040188420BD00B4880883C
:1015100045F21031884205D00848808849F286415A
:10152000884206D14FF4F070044908804FF4A0704F
:101530004880002000F070F810BD0000DE000020A0
:1015400070B505460E4614463146284600F0E0F9CF
:1015500000F04EFD0148048070BD00000008006CE2
:101560002DE9F04F06460F4690469946C346CA46B7
:101570003C460CE0354606E021462846099AFFF72E
:10158000DFFF681C85B25D45F6DB601C84B2544504
:10159000F0DBBDE8F08F000008B50348008800903C
:1015A000BDF8000008BD00000008006C10B504463E
:1015B000204600F011FD0520FFF776FAFFF7ECFF5B
:1015C00010BD00002DE9F0470446BE2000F004FDE8
:1015D000052000F0F5FC2046FEF74EFF07464FF0D1
:1015E00066320C4BFEF767FE0546FEF752FF1FFA08
:1015F00080F9484600F0E4FC012000F0E1FCFF2007
:1016000000F0DEFC002000F0DBFC002000F0D8FC45
:10161000BDE8F08766660440F0B505460024002763
:10162000BA48807901280BD1B848808846F6040171
:10163000884205D0B548808841F66311884208D1B8
:10164000B2488079F0B9B148808841F66311884288
:1016500018D1082D15D2DFE805F00406080A0C0E93
:10166000101206250DE007250BE0042509E00525ED
:1016700007E0012505E0002503E0032501E0022540
:1016800000BF00BFA148808849F2413188421DD087
:101690009E48808849F28641884217D09B488088BE
:1016A00046F60401884211D09848808845F21031EE
:1016B00088420BD09548808845F21051884205D069
:1016C0009248808841F6631188427DD1082D1CD252
:1016D000DFE805F00406090C0F12151800BF14E02E
:1016E00044F0800411E044F040040EE044F0C004F3
:1016F0000BE044F0200408E044F0600405E044F00E
:10170000A00402E044F0E00400BF00BF7F488088EE
:1017100045F21051884202D14FF4585700E0362765
:101720007A48808845F2103188420DD07748808809
:1017300045F21051884207D07448808841F6631101
:10174000884201D044F008047048808846F60401BD
:10175000884201D144F002042146384600F052FC90
:101760006A48808841F6631188421DD004F0200049
:1017700068B16648008865494988884214DA634838
:101780000688408861490880084646800CE05F482A
:1017900000885E494988884206DD5C4806884088A2
:1017A0005A490880084646805848808845F21051BA
:1017B000884254D15549488900F00EFC002000F0C1
:1017C000FFFB5249498900E078E0491C88B200F0EB
:1017D00003FC002000F0F4FB4C494989891C88B2C5
:1017E00000F0FAFB49490988491EC1F30F2000F0B7
:1017F000E7FB46494989C91C88B200F0EDFB434923
:101800000978491EC8B200F0DBFB4049888900F026
:10181000E3FB002000F0D4FB3C498989491C88B2D5
:1018200000F0DAFB002000F0CBFB38498989891CE5
:1018300088B200F0D1FB35494988491EC1F30F2019
:1018400000F0BEFB31498989C91C88B200F0C4FB95
:101850002E498978491EC8B200F0B2FB55E02B49E9
:10186000488900F0B9FB002000F0AAFB002000F03E
:10187000A7FB26490988491EC1F30F2000F0A0FBF1
:1018800022490978491EC8B200F09AFB1F4988898D
:1018900000F0A2FB002000F093FB002000F090FB82
:1018A0001A494988491EC1F30F2000F089FB1749E6
:1018B0008978491EC8B200F083FB26E0082D1CD2AF
:1018C000DFE805F004070A0D0F12151844F0300484
:1018D00013E044F0100410E044F020040DE000BFD9
:1018E0000BE044F0380408E044F0280405E044F03C
:1018F000180402E044F0080400BF00BF032744F4CA
:1019000080542146384600F07DFBF0BDDE0000200B
:1019100030B504460D468148808849F241318842FD
:1019200005D07E48808845F21031884214D17B4929
:10193000488900F051FB201200F042FBE0B200F0B9
:101940003FFB7649888900F047FB281200F038FBFE
:10195000E8B200F035FBE0E07048808849F286414B
:1019600088422ED16D49488900F036FB201200F0E4
:1019700027FBE0B200F024FB68490988491EC1F347
:101980000F2000F01DFB65490978491EC8B200F020
:1019900017FB6249888900F01FFB281200F010FB3A
:1019A000E8B200F00DFB5D494988491EC1F30F20E4
:1019B00000F006FB59498978491EC8B200F000FBC7
:1019C000ABE05648808846F6040188421DD1534852
:1019D0008079012804D151480088401E001B84B240
:1019E0004E49488900F0F8FA201200F0E9FAE0B216
:1019F00000F0E6FA4949888900F0EEFA281200F072
:101A0000DFFAE8B200F0DCFA87E04448808841F66B
:101A10006311884247D141488079A8B93F4800887E
:101A2000401E001B84B23D49488900F0D5FA0020D1
:101A300000F0C6FA002000F0C3FA201200F0C0FA4D
:101A4000E0B200F0BDFA16E03449488900F0C4FA6B
:101A5000201200F0B5FAE0B200F0B2FA2F4909887E
:101A6000491EC1F30F2000F0ABFA2C490978491E3A
:101A7000C8B200F0A5FA2949888900F0ADFA281209
:101A800000F09EFAE8B200F09BFA24494988491E0A
:101A9000C1F30F2000F094FA20498978491EC8B29A
:101AA00000F08EFA39E01D48808845F210518842D6
:101AB00020D11A49488900F08FFA201200F080FAEC
:101AC00016494989491C88B200F086FAE0B200F054
:101AD00077FA1249888900F07FFA281200F070FA2C
:101AE0000E498989491C88B200F076FAE8B200F004
:101AF00067FA12E009488079012804D10748008874
:101B0000401E001B84B205494889214600F07AFA3C
:101B100002498889294600F075FA30BDDE000020B0
:101B20002DE9FF4F81B080460E46DDE90E74B346C5
:101B30002046E31704EB5373DB1021464FEAE47CA5
:101B400004EB5C7C4FEAEC0CA4EBCC0CBCF1000F7A
:101B500002D04FF0010C01E04FF0000C634422462C
:101B600004EBD27C4FEA6C0C03FB0CF3DBB200936A
:101B7000A7F12000C7B2002555E00C2C07D107EBD8
:101B800047002B4901EB800010F8059014E0102C61
:101B900005D1284800EB071010F805900CE0182C30
:101BA00007D107EBC700244901EB800010F805902E
:101BB00002E005B0BDE8F08F4FF0000A2DE009F01B
:101BC000800028B131464046049AFFF7B9FC06E090
:101BD000109820B931464046039AFFF7B1FC4FEA0E
:101BE00049604FEA1069701C86B214484088B042C0
:101BF00000DCDEE7A6EB0B00A0420AD15E4608F14E
:101C000001001FFA80F80D480088404500DCD0E74D
:101C100006E00AF1010000F0FF0ABAF1080FCEDB7E
:101C200000BF681CC5B200988542A6DB00BFC0E7B4
:101C30006CCB0208E0CF0208D0D50208DE000020FD
:101C40002DE9F84F04460F46154698460A9E4FF078
:101C50000009CA46A3460020009000BF20E04FF0D4
:101C6000000917E07078317840EA01200090394689
:101C70002046009AFFF764FC601C84B20BEB050061
:101C8000A04202DC5C46781C87B2B61C09F1010058
:101C90001FFA80F9A945E5DB0AF101001FFA80FA75
:101CA000C245DCDBBDE8F88F2DE9FF4F84B08046EC
:101CB0008946DDE9117A08F0FF0003900698404458
:101CC00080B206900798484480B2079065E19AF880
:101CD0000000A02870DD0698804505DBDDF80C804B
:101CE00009EB07001FFA80F90798814500DB59E1ED
:101CF0000C2F5DD1002558E005EB850000EBC500F9
:101D0000AA4911F810009AF8001088424BD105EB4F
:101D1000850000EBC500A54901EB400040789AF82A
:101D2000011088423FD100243AE005EB850000EB2A
:101D3000C5009E4901EB4000801C6100491C415CCC
:101D400005EB850000EBC500984A02EB4000801CC3
:101D500010F8140041EA002B00261DE00BFA06F0F3
:101D600000F4004050B109EB040291B208EB060206
:101D700090B28F4A1288FFF7E3FB0BE0139848B943
:101D800009EB040291B208EB060290B2894A12886C
:101D9000FFF7D6FB701CC6B2BE42DFDB601CC4B2CC
:101DA000BC42C2DB03E0681C85B2322DA4DBC9E073
:101DB000102F56D1002551E0CBE005EB05107E49F0
:101DC00011F810009AF80010884245D105EB051073
:101DD000794901EB400040789AF8011088423BD1E4
:101DE000002436E005EB0510734901EB4000801C30
:101DF0006100491C415C05EB05106F4A02EB400095
:101E0000801C10F8140041EA002B00261DE00BFA9C
:101E100006F000F4004050B109EB040291B208EB67
:101E2000060290B2624A1288FFF78AFB0BE0139811
:101E300048B909EB040291B208EB060290B25D4A80
:101E40001288FFF77DFB701CC6B2BE42DFDB601C50
:101E5000C4B2BC42C6DB03E0681C85B2322DACDBE9
:101E600070E0182F6ED1002569E005EB850000EBCE
:101E70004510524911F810009AF8001088425CD1C0
:101E800005EB850000EB45104C4901EB4000407824
:101E90009AF80110884250D100244BE005EB8500F0
:101EA00000EB4510454901EB4000801C04EB440168
:101EB000405C020405EB850000EB45103F4901EB57
:101EC0004000801C04EB4401491C405C42EA0021B4
:101ED00005EB850000EB4510384A02EB4000801C02
:101EE00004EB4402921C805C41EA000B00261DE0DA
:101EF0000BFA06F000F4000050B109EB040291B2B5
:101F000008EB060290B22A4A1288FFF719FB0BE091
:101F1000139848B909EB040291B208EB060290B29B
:101F2000244A1288FFF70CFB701CC6B2BE42DFDBEE
:101F3000601CC4B2BC42B1DB03E0681C85B2322D28
:101F400093DB00BF08EB07001FFA80F80AF1020AD2
:101F500023E00698804505DBDDF80C8009EB0700DF
:101F60001FFA80F90798814500DB1BE09AF8001002
:101F70001398CDE9001702900D4803880D48028898
:101F800049464046FFF7CCFD384607EBD07108EBD9
:101F900061011FFA81F80AF1010A9AF8000000288D
:101FA0007FF495AE00BF08B0BDE8F08F2CE30208C7
:101FB0003E0000204000002040E80208E4EE020855
:101FC00001B5BDF800000090BDF80000014908808F
:101FD00008BD00000008006C01B5BDF800000090CD
:101FE000BDF800000149088008BD0000FE07006C34
:101FF000024800890249088070470000DE00002086
:10200000FE07006C024A1080921C1180704700008D
:10201000FE07006C08B50121402000F0B3F8002055
:10202000009010208DF803003C20ADF80000032044
:102030008DF8020069460A48FEF79CFF0421084813
:10204000FFF72EF808210648FFF72AF81021044868
:10205000FFF726F820210248FFF722F808BD00000C
:102060000018014000B585B00121102000F08AF869
:102070000121C80400F076F84FF48060ADF810003C
:1020800003208DF8120018208DF8130004A91448BD
:10209000FEF770FF4FF40060ADF8100004208DF8DB
:1020A000130004A90E48FEF765FF4FF41650009088
:1020B0000020ADF80C00ADF804000C20ADF80A00CB
:1020C0000020ADF80600ADF808006946054803F0A9
:1020D000D7FE0121034803F095FE05B000BD0000C6
:1020E00000100140004C004000BFFEE77047704701
:1020F00070B505460C467E2003F074FE052003F003
:1021000071FE422003F06EFE284603F06BFE20466F
:1021100003F068FE85F0470080EA0406304603F0CD
:1021200061FEEF2003F05EFE70BD0000014600205E
:10213000034A506820F44040084350607047000054
:102140000010024029B1064A52690243044B5A6109
:1021500004E0034A52698243014B5A617047000010
:102160000010024029B1064AD2690243044BDA61E9
:1021700004E0034AD2698243014BDA6170470000F0
:102180000010024029B1064A92690243044B9A6149
:1021900004E0034A92698243014B9A617047000050
:1021A0000010024030B500210022002400232D4DF4
:1021B0006D6805F00C0121B1042905D0082923D14F
:1021C00005E0294D056022E0274D05601FE0254D03
:1021D0006D6805F47012234D6D6805F48034022596
:1021E00005EB92421CB9214D554305600BE01D4D96
:1021F0006D6805F400351DB11C4D5543056002E0C6
:10220000194D5543056002E0174D056000BF00BF42
:10221000144D6D6805F0F0010909154D6B5C0568FA
:10222000DD4045600F4D6D6805F4E061090A104D11
:102230006B5C4568DD4085600A4D6D6805F4605152
:10224000C90A0B4D6B5C4568DD40C560054D6D6886
:1022500005F44041890B074D6B5CC568B5FBF3F590
:10226000056130BD0010024000127A0000093D00F7
:102270000000002010000020704710B500F002F8A8
:1022800010BD00000CB5002001900090334800689C
:1022900040F480303149086000BF3048006800F4E5
:1022A000003000900198401C0190009818B90198E6
:1022B000B0F5A06FF1D12948006800F4003010B1EA
:1022C0000120009001E0002000900098012843D1F7
:1022D0002348006840F01000214908600846006863
:1022E00020F0030008600846006840F00200086023
:1022F0001A484068194948600846406848600846DE
:10230000406840F4806048600846406820F47C10D3
:1023100048600846406840F4E81048600846006895
:1023200040F08070086000BF0C48006800F000704A
:102330000028F9D00948406820F0030007494860A8
:102340000846406840F00200486000BF034840680B
:1023500000F00C000828F9D10CBD0000001002406C
:10236000002002400A480068401C094908600948EA
:102370000068401C0749086007480068401C06497F
:10238000086006480068401C044908607047000067
:1023900014000020180000201C0000202000002055
:1023A00010B51348006840F0010011490860084664
:1023B0004068104908400E494860084600680E49C8
:1023C00008400B4908600846006820F48020086037
:1023D0000846406820F4FE0048604FF41F00886003
:1023E000FFF74BFF4FF000600449086010BD00008C
:1023F000001002400000FFF8FFFFF6FE08ED00E0CD
:1024000000B59FB000201E9001210802FFF79AFE40
:1024100001214FF4B470FFF7B5FE0120ADF8740050
:1024200010208DF8770003208DF876001DA9FE4856
:10243000FEF7A0FD4CF23370ADF8740018208DF853
:10244000770003208DF876001DA9F848FEF792FD6D
:102450004FF68070ADF8740018208DF877000320D7
:102460008DF876001DA9F248FEF784FD41F20100C7
:10247000ADF8740018208DF8770003208DF87600F1
:102480001DA9EC48FEF776FD01200790002008907A
:102490000F20099000200A900B900C900D90009056
:1024A0000190032002900020039004900590069074
:1024B00006200E9000200F90109010201190002008
:1024C000129014901390159016904FF4805017901E
:1024D000002018904FF48040199000201A9007A80F
:1024E0001B90CDF870D00EA8FEF764FB01210620EA
:1024F000FEF746FB3220FEF77DFA01210020FFF7B0
:1025000081FD3220FEF776FA0020FFF74FF8CA4926
:10251000888008468088FF280FDB084680884FF6B1
:10252000FF71884209D0C4488088B0F5134F04D0A9
:10253000C1488088B0F5144F7ED1D320FFF74CFD01
:10254000FFF72AF8BC498880FFF726F8BA49888047
:10255000FFF722F8B8498880084680884FF6FF7157
:1025600001EA0020B4498880FFF716F8B24989884B
:102570000843B14988800846808849F24131884241
:102580005AD0AD48808849F286418842F8D0BF20B1
:10259000FFF722FDFFF700F8A7498880FEF7FCFF50
:1025A000A5498880FEF7F8FFA3498880FEF7F4FF6D
:1025B000A1498880084680884FF6FF7101EA002013
:1025C0009D498880FEF7E8FF9B49898808439A491E
:1025D00088800846808846F6040188427AD0D42054
:1025E000FFF7FAFCFEF7D8FF93498880FEF7D4FF87
:1025F00091498880FEF7D0FF8F49888008468088FF
:102600004FF6FF7101EA00208B498880FEF7C4FF76
:10261000894989880843884988800846808845F226
:102620001031884256D04FF45A40FFF7D5FCFEF7E0
:10263000B3FF8149888000E04CE04FF45B40FFF736
:10264000CBFCFEF7A9FF7C498880084680884FF6BE
:10265000FF7101EA0020784988804FF45C40FFF761
:10266000BBFCFEF799FF744989880843724988804A
:1026700008468088B0F5004F02D145F2105088809E
:102680006D48808845F21051884223D0A120FFF781
:10269000A3FCFEF781FF68498880FEF77DFF66494D
:1026A0008880084680884FF6FF7101EA0020624961
:1026B0008880FEF771FF6049898808435E498880F9
:1026C0000846808845F26171884203D141F6631063
:1026D000594988805848808849F24131884211D050
:1026E0005548808845F2103188420BD05248808886
:1026F00045F21051884205D04F48808841F6631159
:1027000088421DD14D48006820F00F004FF0204155
:10271000C1F81C010846D0F81C0120F47060C1F813
:102720001C010846D0F81C0140F00300C1F81C0150
:102730000846D0F81C0140F40070C1F81C0128E0E4
:102740003D48808846F60401884205D03A48808892
:102750004CF2055188421CD13848006820F00F0027
:102760004FF02041C1F81C010846D0F81C0120F4AC
:102770007060C1F81C010846D0F81C0140F00A0046
:10278000C1F81C010846D0F81C0140F44060C1F8B3
:102790001C012948808849F2413188427ED1CF20EE
:1027A000FFF71AFC0020FFF70BFCC120FFF708FC25
:1027B0003020FFF705FCED20FFF70EFC6420FFF74B
:1027C000FFFB0320FFF7FCFB1220FFF7F9FB812042
:1027D000FFF7F6FBE820FFF7FFFB8520FFF7F0FB94
:1027E0001020FFF7EDFB7A20FFF7EAFBCB20FFF785
:1027F000F3FB3920FFF7E4FB2C20FFF7E1FB00207F
:10280000FFF7DEFB3420FFF7DBFB0220FFF7D8FBEE
:10281000F720FFF7E1FB2020FFF7D2FBEA20FFF7CC
:10282000DBFB00200CE00000000C01400014014024
:102830000018014000200140DE0000201C0100A023
:10284000FFF7BEFB0020FFF7BBFBC020FFF7C4FB78
:102850001B20FFF7B5FBC120FFF7BEFB0120FFF7F0
:10286000AFFBC520FFF7B8FB3020FFF7A9FB3020F6
:10287000FFF7A6FBC720FFF7AFFBB720FFF7A0FBD2
:102880003620FFF7A9FB4820FFF79AFB3A20FFF715
:10289000A3FB5520FFF794FBB12000E0A5E0FFF774
:1028A0009BFB0020FFF78CFB1A20FFF789FBB6206B
:1028B000FFF792FB0A20FFF783FBA220FFF780FBC4
:1028C000F220FFF789FB0020FFF77AFB2620FFF7B5
:1028D00083FB0120FFF774FBE020FFF77DFB0F2057
:1028E000FFF76EFB2A20FFF76BFB2820FFF768FB42
:1028F0000820FFF765FB0E20FFF762FB0820FFF7BB
:102900005FFB5420FFF75CFBA920FFF759FB432036
:10291000FFF756FB0A20FFF753FB0F20FFF750FB92
:102920000020FFF74DFB0020FFF74AFB0020FFF7D8
:1029300047FB0020FFF744FBE120FFF74DFB0020A1
:10294000FFF73EFB1520FFF73BFB1720FFF738FB97
:102950000720FFF735FB1120FFF732FB0620FFF7BA
:102960002FFB2B20FFF72CFB5620FFF729FB3C20E9
:10297000FFF726FB0520FFF723FB1020FFF720FBC6
:102980000F20FFF71DFB3F20FFF71AFB3F20FFF74B
:1029900017FB0F20FFF714FB2B20FFF71DFB002078
:1029A000FFF70EFB0020FFF70BFB0120FFF708FBF2
:1029B0003F20FFF705FB2A20FFF70EFB0020FFF763
:1029C000FFFA0020FFF7FCFA0020FFF7F9FAEF20EA
:1029D000FFF7F6FA1120FFF7FFFA7820FEF70AF862
:1029E0002920FFF7F9FA03F0E9B9FE48808849F297
:1029F000864188427ED1F220FFF7EEFA1820FFF7D9
:102A0000DFFAA320FFF7DCFA1220FFF7D9FA022041
:102A1000FFF7D6FAB220FFF7D3FA1220FFF7D0FA69
:102A2000FF20FFF7CDFA1020FFF7CAFA0020FFF7CA
:102A3000C7FAF820FFF7D0FA2120FFF7C1FA0420E7
:102A4000FFF7BEFAF920FFF7C7FA0020FFF7B8FA40
:102A50000820FFF7B5FA3620FFF7BEFA0820FFF787
:102A6000AFFA3A20FFF7B8FA0520FFF7A9FAB42029
:102A7000FFF7B2FA0120FFF7A3FAB620FFF7ACFA8E
:102A80000220FFF79DFA2220FFF79AFAC120FFF7F4
:102A9000A3FA4120FFF794FAC520FFF79DFA002022
:102AA000FFF78EFA0720FFF78BFAE020FFF794FA82
:102AB0000F20FFF785FA1F20FFF782FA1C20FFF78F
:102AC0007FFA0C20FFF77CFA0F20FFF779FA082035
:102AD000FFF776FA4820FFF773FA9820FFF770FAAD
:102AE0003720FFF76DFA0A20FFF76AFA1320FFF785
:102AF00067FA00E045E00420FFF762FA1120FFF7D3
:102B00005FFA0D20FFF75CFA0020FFF759FAE12089
:102B1000FFF762FA0F20FFF753FA3220FFF750FA5F
:102B20002E20FFF74DFA0B20FFF74AFA0D20FFF792
:102B300047FA0520FFF744FA4720FFF741FA7520CE
:102B4000FFF73EFA3720FFF73BFA0620FFF738FA87
:102B50001020FFF735FA0320FFF732FA2420FFF7A1
:102B60002FFA2020FFF72CFA0020FFF729FA112076
:102B7000FFF732FA7820FDF73DFF2920FFF72CFA06
:102B800031E79848808846F6040188427ED11120BA
:102B9000FFF722FA1420FDF72DFFD020FFF71CFAD3
:102BA0000720FFF70DFA4220FFF70AFA1D20FFF772
:102BB00007FAD120FFF710FA0020FFF701FA1A20D8
:102BC000FFF7FEF90920FFF7FBF9D220FFF704FA1F
:102BD0000120FFF7F5F92220FFF7F2F9C020FFF7F7
:102BE000FBF91020FFF7ECF93B20FFF7E9F9002093
:102BF000FFF7E6F90220FFF7E3F91120FFF7E0F90C
:102C0000C520FFF7E9F90320FFF7DAF9C820FFF73D
:102C1000E3F90020FFF7D4F92520FFF7D1F92120AF
:102C2000FFF7CEF90520FFF7CBF90020FFF7C8F931
:102C30000A20FFF7C5F96520FFF7C2F92520FFF745
:102C4000BFF97720FFF7BCF95020FFF7B9F90F2043
:102C5000FFF7B6F90020FFF7B3F9F820FFF7BCF94A
:102C60000120FFF7ADF9FE20FFF7B6F90020FFF7CE
:102C7000A7F90220FFF7A4F92020FFF7ADF93620CD
:102C8000FFF7AAF90820FFF79BF900E02AE03A20B5
:102C9000FFF7A2F95520FFF793F92B20FFF79CF9D6
:102CA0000020FFF78DF90020FFF78AF90120FFF7D8
:102CB00087F93F20FFF784F92A20FFF78DF90020DC
:102CC000FFF77EF90020FFF77BF90120FFF778F985
:102CD000DF20FFF775F97820FDF78CFE2920FFF73C
:102CE0007BF980E63F48808845F21031884240F009
:102CF0007C87ED20FFF770F90120FFF761F9FE20D6
:102D0000FFF75EF9EE20FFF767F9DE20FFF758F9CD
:102D10002120FFF755F9F120FFF75EF90120FFF7B9
:102D20004FF9DF20FFF758F91020FFF749F9C420C9
:102D3000FFF752F98F20FFF743F9C620FFF74CF950
:102D40000020FFF73DF9E220FFF73AF9E220FFF714
:102D500037F9E220FFF734F9BF20FFF73DF9AA2049
:102D6000FFF72EF9B020FFF737F90D20FFF728F90C
:102D70000020FFF725F90D20FFF722F90020FFF7CB
:102D80001FF91120FFF71CF90020FFF719F919208E
:102D9000FFF716F90020FFF713F92120FFF710F9CC
:102DA0000020FFF70DF92D20FFF70AF90020FFF7AB
:102DB00007F93D20FFF704F90020FFF701F95D2036
:102DC000FFF7FEF80020FFF7FBF85D20FFF7F8F8AB
:102DD0000020FFF7F5F8B120FFF7FEF88020FFF79D
:102DE000EFF801E0DE0000200020FFF7E9F88B207B
:102DF000FFF7E6F80020FFF7E3F89620FFF7E0F88A
:102E00000020FFF7DDF8B220FFF7E6F80020FFF71B
:102E1000D7F80020FFF7D4F80220FFF7D1F8002000
:102E2000FFF7CEF80320FFF7CBF80020FFF7C8F834
:102E3000B320FFF7D1F80020FFF7C2F80020FFF71A
:102E4000BFF80020FFF7BCF80020FFF7B9F800201A
:102E5000FFF7B6F80020FFF7B3F80020FFF7B0F84F
:102E60000020FFF7ADF80020FFF7AAF80020FFF7D9
:102E7000A7F80020FFF7A4F80020FFF7A1F8002032
:102E8000FFF79EF80020FFF79BF80020FFF798F867
:102E90000020FFF795F80020FFF792F80020FFF7D9
:102EA0008FF80020FFF78CF80020FFF789F800204A
:102EB000FFF786F80020FFF783F80020FFF780F87F
:102EC0000020FFF77DF8B420FFF786F88B20FFF78E
:102ED00077F80020FFF774F89620FFF771F80020CC
:102EE000FFF76EF8A120FFF76BF80020FFF768F8F6
:102EF000B520FFF771F80220FFF762F80020FFF716
:102F00005FF80320FFF75CF80020FFF759F8042072
:102F1000FFF756F80020FFF753F8B620FFF75CF8EC
:102F20000020FFF74DF80020FFF74AF8B720FFF721
:102F300053F80020FFF744F80020FFF741F83F2046
:102F4000FFF73EF80020FFF73BF85E20FFF738F868
:102F50000020FFF735F86420FFF732F80020FFF774
:102F60002FF88C20FFF72CF80020FFF729F8AC2071
:102F7000FFF726F80020FFF723F8DC20FFF720F802
:102F80000020FFF71DF87020FFF71AF80020FFF768
:102F900017F89020FFF714F80020FFF711F8EB2046
:102FA000FFF70EF80020FFF70BF8DC20FFF708F81A
:102FB0000020FFF705F8B820FFF70EF80020FEF715
:102FC000FFFF0020FEF7FCFF0020FEF7F9FF0020C6
:102FD000FEF7F6FF0020FEF7F3FF0020FEF7F0FFFC
:102FE0000020FEF7EDFF0020FEF7EAFFBA20FEF713
:102FF000F3FF2420FEF7E4FF0020FEF7E1FF0020AE
:10300000FEF7DEFF0020FEF7DBFFC120FEF7E4FF46
:103010002020FEF7D5FF0020FEF7D2FF5420FEF758
:10302000CFFF0020FEF7CCFFFF20FEF7C9FF0020F6
:10303000FEF7C6FFC220FEF7CFFF0A20FEF7C0FF53
:103040000020FEF7BDFF0420FEF7BAFF0020FEF7C8
:10305000B7FFC320FEF7C0FF3C20FEF7B1FF002002
:10306000FEF7AEFF3A20FEF7ABFF0020FEF7A8FF09
:103070003920FEF7A5FF0020FEF7A2FF3720FEF75C
:103080009FFF0020FEF79CFF3C20FEF799FF0020E9
:10309000FEF796FF3620FEF793FF0020FEF790FF25
:1030A0003220FEF78DFF0020FEF78AFF2F20FEF76B
:1030B00087FF0020FEF784FF2C20FEF781FF002011
:1030C000FEF77EFF2920FEF77BFF0020FEF778FF4A
:1030D0002620FEF775FF0020FEF772FF2420FEF782
:1030E0006FFF0020FEF76CFF2420FEF769FF002031
:1030F000FEF766FF2320FEF763FF0020FEF760FF68
:103100003C20FEF75DFF0020FEF75AFF3620FEF759
:1031100057FF0020FEF754FF3220FEF751FF00203A
:10312000FEF74EFF2F20FEF74BFF0020FEF748FF73
:103130002C20FEF745FF0020FEF742FF2920FEF776
:103140003FFF0020FEF73CFF2620FEF739FF00205E
:10315000FEF736FF2420FEF733FF0020FEF730FF96
:103160002420FEF72DFF0020FEF72AFF2320FEF784
:1031700027FF0020FEF724FFC420FEF72DFF62206A
:10318000FEF71EFF0020FEF71BFF0520FEF718FFCD
:103190000020FEF715FF8420FEF712FF0020FEF747
:1031A0000FFFF020FEF70CFF0020FEF709FF1820AC
:1031B000FEF706FF0020FEF703FFA420FEF700FF46
:1031C0000020FEF7FDFE1820FEF7FAFE0020FEF7B5
:1031D000F7FE5020FEF7F4FE0020FEF7F1FE0C2073
:1031E000FEF7EEFE0020FEF7EBFE1720FEF7E8FEEE
:1031F0000020FEF7E5FE9520FEF7E2FE0020FEF738
:10320000DFFEF320FEF7DCFE0020FEF7D9FEE6200D
:10321000FEF7D6FE0020FEF7D3FEC520FEF7DCFE4B
:103220003220FEF7CDFE0020FEF7CAFE4420FEF756
:10323000C7FE0020FEF7C4FE6520FEF7C1FE002099
:10324000FEF7BEFE7620FEF7BBFE0020FEF7B8FEBE
:103250008820FEF7B5FE0020FEF7B2FEC620FEF77E
:10326000BBFE2020FEF7ACFE0020FEF7A9FE1720D3
:10327000FEF7A6FE0020FEF7A3FE0120FEF7A0FE4B
:103280000020FEF79DFEC720FEF7A6FE0020FEF7F9
:1032900097FE0020FEF794FE0020FEF791FE00202E
:1032A000FEF78EFEC820FEF797FE0020FEF788FE90
:1032B0000020FEF785FE0020FEF782FE0020FEF7CC
:1032C0007FFEC920FEF788FE0020FEF779FE002071
:1032D000FEF776FE0020FEF773FE0020FEF770FE7C
:1032E0000020FEF76DFE0020FEF76AFE0020FEF7CC
:1032F00067FE0020FEF764FE0020FEF761FE00205E
:10330000FEF75EFE0020FEF75BFE0020FEF758FE93
:103310000020FEF755FE0020FEF752FE0020FEF7CB
:103320004FFE0020FEF74CFEE020FEF755FE162073
:10333000FEF746FE0020FEF743FE1C20FEF740FE8F
:103340000020FEF73DFE2120FEF73AFE0020FEF7AA
:1033500037FE3620FEF734FE0020FEF731FE462011
:10336000FEF72EFE0020FEF72BFE5220FEF728FE71
:103370000020FEF725FE6420FEF722FE0020FEF767
:103380001FFE7A20FEF71CFE0020FEF719FE8B20A0
:10339000FEF716FE0020FEF713FE9920FEF710FE42
:1033A0000020FEF70DFEA820FEF70AFE0020FEF723
:1033B00007FEB920FEF704FE0020FEF701FEC42040
:1033C000FEF7FEFD0020FEF7FBFDCA20FEF7F8FD2C
:1033D0000020FEF7F5FDD220FEF7F2FD0020FEF7FB
:1033E000EFFDD920FEF7ECFD0020FEF7E9FDE0201F
:1033F000FEF7E6FD0020FEF7E3FDF320FEF7E0FD1B
:103400000020FEF7DDFDE120FEF7E6FD1620FEF7C9
:10341000D7FD0020FEF7D4FD1C20FEF7D1FD0020D3
:10342000FEF7CEFD2220FEF7CBFD0020FEF7C8FD03
:103430003620FEF7C5FD0020FEF7C2FD4520FEF751
:10344000BFFD0020FEF7BCFD5220FEF7B9FD0020B5
:10345000FEF7B6FD6420FEF7B3FD0020FEF7B0FDD9
:103460007A20FEF7ADFD0020FEF7AAFD8B20FEF7C7
:10347000A7FD0020FEF7A4FD9920FEF7A1FD002086
:10348000FEF79EFDA820FEF79BFD0020FEF798FDAD
:10349000B920FEF795FD0020FEF792FDC420FEF74F
:1034A0008FFD0020FEF78CFDCA20FEF789FD00206D
:1034B000FEF786FDD220FEF783FD0020FEF780FD9B
:1034C000D820FEF77DFD0020FEF77AFDE020FEF714
:1034D00077FD0020FEF774FDF320FEF771FD00205C
:1034E000FEF76EFDE220FEF777FD0520FEF768FD92
:1034F0000020FEF765FD0B20FEF762FD0020FEF7C1
:103500005FFD1B20FEF75CFD0020FEF759FD342017
:10351000FEF756FD0020FEF753FD4420FEF750FD58
:103520000020FEF74DFD4F20FEF74AFD0020FEF77C
:1035300047FD6120FEF744FD0020FEF741FD7920A4
:10354000FEF73EFD0020FEF73BFD8820FEF738FD2C
:103550000020FEF735FD9720FEF732FD0020FEF734
:103560002FFDA620FEF72CFD0020FEF729FDB72039
:10357000FEF726FD0020FEF723FDC220FEF720FD0A
:103580000020FEF71DFDC720FEF71AFD0020FEF704
:1035900017FDD120FEF714FD0020FEF711FDD62007
:1035A000FEF70EFD0020FEF70BFDDD20FEF708FD07
:1035B0000020FEF705FDF320FEF702FD0020FEF7D8
:1035C000FFFCE320FEF708FD0520FEF7F9FC0020D4
:1035D000FEF7F6FC0A20FEF7F3FC0020FEF7F0FCF5
:1035E0001C20FEF7EDFC0020FEF7EAFC3320FEF77E
:1035F000E7FC0020FEF7E4FC4420FEF7E1FC00209D
:10360000FEF7DEFC5020FEF7DBFC0020FEF7D8FCC6
:103610006220FEF7D5FC0020FEF7D2FC7820FEF7F2
:10362000CFFC0020FEF7CCFC8820FEF7C9FC002070
:10363000FEF7C6FC9720FEF7C3FC0020FEF7C0FC97
:10364000A620FEF7BDFC0020FEF7BAFCB720FEF76F
:10365000B7FC0020FEF7B4FCC220FEF7B1FC00204E
:10366000FEF7AEFCC720FEF7ABFC0020FEF7A8FC7F
:10367000D120FEF7A5FC0020FEF7A2FCD520FEF726
:103680009FFC0020FEF79CFCDD20FEF799FC00204B
:10369000FEF796FCF320FEF793FC0020FEF790FC6B
:1036A000E420FEF799FC0120FEF78AFC0020FEF7DB
:1036B00087FC0120FEF784FC0020FEF781FC02203D
:1036C000FEF77EFC0020FEF77BFC2A20FEF778FC4C
:1036D0000020FEF775FC3C20FEF772FC0020FEF790
:1036E0006FFC4B20FEF76CFC0020FEF769FC5D20B0
:1036F000FEF766FC0020FEF763FC7420FEF760FC1A
:103700000020FEF75DFC8420FEF75AFC0020FEF747
:1037100057FC9320FEF754FC0020FEF751FCA2203A
:10372000FEF74EFC0020FEF74BFCB320FEF748FCF2
:103730000020FEF745FCBE20FEF742FC0020FEF70D
:103740003FFCC420FEF73CFC0020FEF739FCCD20F6
:10375000FEF736FC0020FEF733FCD320FEF730FCEA
:103760000020FEF72DFCDD20FEF72AFC0020FEF7EE
:1037700027FCF320FEF724FC0020FEF721FCE520C7
:10378000FEF72AFC0020FEF71BFC0020FEF718FCC9
:103790000020FEF715FC0020FEF712FC0220FEF7C9
:1037A0000FFC0020FEF70CFC2920FEF709FC00208E
:1037B000FEF706FC3C20FEF703FC0020FEF700FCB1
:1037C0004B20FEF7FDFB0020FEF7FAFB5D20FEF725
:1037D000F7FB0020FEF7F4FB7420FEF7F1FB00205E
:1037E000FEF7EEFB8420FEF7EBFB0020FEF7E8FB84
:1037F0009320FEF7E5FB0020FEF7E2FBA220FEF798
:10380000DFFB0020FEF7DCFBB320FEF7D9FB002036
:10381000FEF7D6FBBE20FEF7D3FB0020FEF7D0FB61
:10382000C420FEF7CDFB0020FEF7CAFBCD20FEF73B
:10383000C7FB0020FEF7C4FBD320FEF7C1FB00202E
:10384000FEF7BEFBDC20FEF7BBFB0020FEF7B8FB5B
:10385000F320FEF7B5FB0020FEF7B2FBE620FEF7F3
:10386000BBFB1120FEF7ACFB0020FEF7A9FB3420C8
:10387000FEF7A6FB0020FEF7A3FB5620FEF7A0FBF9
:103880000020FEF79DFB7620FEF79AFB0020FEF756
:1038900097FB7720FEF794FB0020FEF791FB662054
:1038A000FEF78EFB0020FEF78BFB8820FEF788FBDF
:1038B0000020FEF785FB9920FEF782FB0020FEF733
:1038C0007FFBBB20FEF77CFB0020FEF779FB9920F5
:1038D000FEF776FB0020FEF773FB6620FEF770FB19
:1038E0000020FEF76DFB5520FEF76AFB0020FEF777
:1038F00067FB5520FEF764FB0020FEF761FB4520C7
:10390000FEF75EFB0020FEF75BFB4320FEF758FB53
:103910000020FEF755FB4420FEF752FB0020FEF787
:103920004FFBE720FEF758FB3220FEF749FB002053
:10393000FEF746FB5520FEF743FB0020FEF740FB59
:103940007620FEF73DFB0020FEF73AFB6620FEF7EF
:1039500037FB0020FEF734FB6720FEF731FB002029
:10396000FEF72EFB6720FEF72BFB0020FEF728FB5F
:103970008720FEF725FB0020FEF722FB9920FEF7AB
:103980001FFB0020FEF71CFBBB20FEF719FB0020ED
:10399000FEF716FB9920FEF713FB0020FEF710FB45
:1039A0007720FEF70DFB0020FEF70AFB4420FEF710
:1039B00007FB0020FEF704FB5620FEF701FB00206A
:1039C000FEF7FEFA2320FEF7FBFA0020FEF7F8FAD6
:1039D0003320FEF7F5FA0020FEF7F2FA4520FEF755
:1039E000EFFA0020FEF7ECFAE820FEF7F5FA0020E7
:1039F000FEF7E6FA0020FEF7E3FA9920FEF7E0FA78
:103A00000020FEF7DDFA8720FEF7DAFA0020FEF745
:103A1000D7FA8820FEF7D4FA0020FEF7D1FA7720F3
:103A2000FEF7CEFA0020FEF7CBFA6620FEF7C8FAC2
:103A30000020FEF7C5FA8820FEF7C2FA0020FEF744
:103A4000BFFAAA20FEF7BCFA0020FEF7B9FABB20A5
:103A5000FEF7B6FA0020FEF7B3FA9920FEF7B0FAA7
:103A60000020FEF7ADFA6620FEF7AAFA0020FEF766
:103A7000A7FA5520FEF7A4FA0020FEF7A1FA552078
:103A8000FEF79EFA0020FEF79BFA4420FEF798FA14
:103A90000020FEF795FA4420FEF792FA0020FEF788
:103AA0008FFA5520FEF78CFA0020FEF789FAE920FC
:103AB000FEF792FAAA20FEF783FA0020FEF780FABA
:103AC0000020FEF77DFA0020FEF77AFA0020FEF7CC
:103AD00083FAAA20FEF774FACF20FEF77DFA0020C1
:103AE000FEF76EFA0020FEF76BFA0020FEF768FA88
:103AF0000020FEF765FA0020FEF762FA0020FEF7CC
:103B00005FFA0020FEF75CFA0020FEF759FA002069
:103B1000FEF756FA0020FEF753FA0020FEF750FA9F
:103B20000020FEF74DFA0020FEF74AFA0020FEF7CB
:103B300047FA0020FEF744FA0020FEF741FA002081
:103B4000FEF73EFAF020FEF747FA0020FEF738FABB
:103B50005020FEF735FA0020FEF732FA0020FEF77B
:103B60002FFA0020FEF72CFAF320FEF735FA00209A
:103B7000FEF726FAF920FEF72FFA0620FEF720FAC4
:103B80001020FEF71DFA2920FEF71AFA0020FEF792
:103B900017FA3A20FEF720FA5520FEF711FA112005
:103BA000FEF71AFA6420FCF725FF2920FEF714FA25
:103BB0003520FEF711FA0020FEF702FA5120FEF739
:103BC0000BFAFF20FEF7FCF95320FEF705FA2C2034
:103BD000FEF7F6F95520FEF7FFF98220FEF7F0F91F
:103BE0002C20FEF7F9F902F0E9B8FE48808845F28A
:103BF000105188427ED155214FF47040FEF702FAF1
:103C0000AA214FF20100FEF7FDF952214FF2020006
:103C1000FEF7F8F908214FF20300FEF7F3F901214E
:103C20004FF20400FEF7EEF90D214FF43040FEF79D
:103C3000E9F90D214BF20100FEF7E4F90D214BF2F9
:103C40000200FEF7DFF934214FF43640FEF7DAF9CF
:103C500034214BF20160FEF7D5F934214BF20260BA
:103C6000FEF7D0F90D214FF43140FEF7CBF90D21CD
:103C70004BF20110FEF7C6F90D214BF20210FEF7D0
:103C8000C1F934214FF43740FEF7BCF934214BF22F
:103C90000170FEF7B7F934214BF20270FEF7B2F96A
:103CA00000214FF43240FEF7ADF900214BF2012024
:103CB000FEF7A8F900214BF20220FEF7A3F9242118
:103CC0004FF43840FEF79EF924214BF60100FEF731
:103CD00099F924214BF60200FEF794F901214FF4E3
:103CE0003F40FEF78FF90F214FF43340FEF78AF97A
:103CF0000F2100E0FEE34BF20130FEF783F90F21C4
:103D00004BF20230FEF77EF934214FF43940FEF7D2
:103D100079F934214BF60110FEF774F934214BF692
:103D20000210FEF76FF908214FF43540FEF76AF9EB
:103D300008214BF20150FEF765F908214BF20250C1
:103D4000FEF760F903214FF44240FEF75BF92421AE
:103D50004FF43A40FEF756F924214BF60120FEF7C6
:103D600051F924214BF60220FEF74CF900214FF4C3
:103D70003C40FEF747F978214BF60140FEF742F947
:103D800000214BF60240FEF73DF900214FF43D4083
:103D9000FEF738F978214BF60150FEF733F9002190
:103DA0004BF60250FEF72EF900214FF43E40FEF78D
:103DB00029F964214BF60160FEF724F900214FF444
:103DC0005140FEF71FF933214DF20110FEF71AF9A9
:103DD00000214DF20210FEF715F934214DF20310C7
:103DE000FEF710F900214DF20410FEF70BF93A210D
:103DF0004DF20510FEF706F900214DF20610FEF710
:103E000001F94A214DF20710FEF7FCF800214DF2AE
:103E10000810FEF7F7F85C214DF20910FEF7F2F8F2
:103E200000214DF20A10FEF7EDF881214DF20B1042
:103E3000FEF7E8F800214DF20C10FEF7E3F8A6219A
:103E40004DF20D10FEF7DEF800214DF20E10FEF7D8
:103E5000D9F8E5214DF20F10FEF7D4F801214DF20B
:103E60001010FEF7CFF813214DF21110FEF7CAF82B
:103E700001214DF21210FEF7C5F854214DF2131036
:103E8000FEF7C0F801214DF21410FEF7BBF88221B5
:103E90004DF21510FEF7B6F801214DF21610FEF79F
:103EA000B1F8CA214DF21710FEF7ACF802214DF21D
:103EB0001810FEF7A7F800214DF21910FEF7A2F82E
:103EC00002214DF21A10FEF79DF801214DF21B1050
:103ED000FEF798F802214DF21C10FEF793F83421FA
:103EE0004DF21D10FEF78EF802214DF21E10FEF766
:103EF00089F867214DF21F10FEF784F802214DF278
:103F00002010FEF77FF884214DF22110FEF77AF899
:103F100002214DF22210FEF775F8A4214DF2231074
:103F2000FEF770F802214DF22410FEF76BF8B7216E
:103F30004DF22510FEF766F802214DF22610FEF72D
:103F400061F8CF214DF22710FEF75CF802214DF207
:103F50002810FEF757F8DE214DF22910FEF752F82F
:103F600002214DF22A10FEF74DF8F2214DF22B10EE
:103F7000FEF748F802214DF22C10FEF743F8FE211F
:103F80004DF22D10FEF73EF803214DF22E10FEF7F4
:103F900039F810214DF22F10FEF734F803214DF2BD
:103FA0003010FEF72FF833214DF23110FEF72AF8CA
:103FB00003214DF23210FEF725F86D214DF233103A
:103FC000FEF720F800214FF45240FEF71BF8332192
:103FD0004DF20120FEF716F800214DF20220FEF707
:103FE00011F801E0DE00002034214DF20320FEF73D
:103FF00009F800214DF20420FEF704F83A214DF2B1
:104000000520FDF7FFFF00214DF20620FDF7FAFF26
:104010004A214DF20720FDF7F5FF00214DF208205F
:10402000FDF7F0FF5C214DF20920FDF7EBFF0021C9
:104030004DF20A20FDF7E6FF81214DF20B20FDF73E
:10404000E1FF00214DF20C20FDF7DCFFA6214DF22F
:104050000D20FDF7D7FF00214DF20E20FDF7D2FF16
:10406000E5214DF20F20FDF7CDFF01214DF210208B
:10407000FDF7C8FF13214DF21120FDF7C3FF012109
:104080004DF21220FDF7BEFF54214DF21320FDF733
:10409000B9FF01214DF21420FDF7B4FF82214DF24A
:1040A0001520FDF7AFFF01214DF21620FDF7AAFF05
:1040B000CA214DF21720FDF7A5FF02214DF218206D
:1040C000FDF7A0FF00214DF21920FDF79BFF022113
:1040D0004DF21A20FDF796FF01214DF21B20FDF74E
:1040E00091FF02214DF21C20FDF78CFF34214DF28F
:1040F0001D20FDF787FF02214DF21E20FDF782FFF4
:1041000067214DF21F20FDF77DFF02214DF2202097
:10411000FDF778FF84214DF22120FDF773FF022186
:104120004DF22220FDF76EFFA4214DF22320FDF772
:1041300069FF02214DF22420FDF764FFB7214DF203
:104140002520FDF75FFF02214DF22620FDF75AFFE3
:10415000CF214DF22720FDF755FF02214DF22820F7
:10416000FDF750FFDE214DF22920FDF74BFF022124
:104170004DF22A20FDF746FFF2214DF22B20FDF7EC
:1041800041FF02214DF22C20FDF73CFFFE214DF2B4
:104190002D20FDF737FF03214DF22E20FDF732FFD2
:1041A00010214DF22F20FDF72DFF03214DF230207D
:1041B000FDF728FF33214DF23120FDF723FF0321C6
:1041C0004DF23220FDF71EFF6D214DF23320FDF739
:1041D00019FF00214FF45340FDF714FF33214DF236
:1041E0000130FDF70FFF00214DF20230FDF70AFF0D
:1041F00034214DF20330FDF705FF00214DF204306C
:10420000FDF700FF3A214DF20530FDF7FBFE0021DE
:104210004DF20630FDF7F6FE4A214DF20730FDF76C
:10422000F1FE00214DF20830FDF7ECFE5C214DF26D
:104230000930FDF7E7FE00214DF20A30FDF7E2FEFE
:1042400081214DF20B30FDF7DDFE00214DF20C30E7
:10425000FDF7D8FEA6214DF20D30FDF7D3FE00216B
:104260004DF20E30FDF7CEFEE5214DF20F30FDF799
:10427000C9FE01214DF21030FDF7C4FE13214DF2AD
:104280001130FDF7BFFE01214DF21230FDF7BAFEED
:1042900054214DF21330FDF7B5FE01214DF21430DB
:1042A000FDF7B0FE82214DF21530FDF7ABFE012186
:1042B0004DF21630FDF7A6FECA214DF21730FDF77C
:1042C000A1FE02214DF21830FDF79CFE00214DF2B7
:1042D0001930FDF797FE02214DF21A30FDF792FEDC
:1042E00001214DF21B30FDF78DFE02214DF21C30F5
:1042F000FDF788FE34214DF21D30FDF783FE0221CB
:104300004DF21E30FDF77EFE67214DF21F30FDF7A6
:1043100079FE02214DF22030FDF774FE84214DF22A
:104320002130FDF76FFE02214DF22230FDF76AFECB
:10433000A4214DF22330FDF765FE02214DF2243019
:10434000FDF760FEB7214DF22530FDF75BFE02213F
:104350004DF22630FDF756FECF214DF22730FDF706
:1043600051FE02214DF22830FDF74CFEDE214DF2C8
:104370002930FDF747FE02214DF22A30FDF742FEBB
:10438000F2214DF22B30FDF73DFE02214DF22C3093
:10439000FDF738FEFE214DF22D30FDF733FE0321EF
:1043A0004DF22E30FDF72EFE10214DF22F30FDF78D
:1043B00029FE03214DF23030FDF724FE33214DF26A
:1043C0003130FDF71FFE03214DF23230FDF71AFEAA
:1043D0006D214DF23330FDF715FE00214FF45440AE
:1043E000FDF710FE33214DF20140FDF70BFE0021D9
:1043F0004DF20240FDF706FE34214DF20340FDF779
:1044000001FE00214DF20440FDF7FCFD3A214DF282
:104410000540FDF7F7FD00214DF20640FDF7F2FDE6
:104420004A214DF20740FDF7EDFD00214DF2084015
:10443000FDF7E8FD5C214DF20940FDF7E3FD0021A9
:104440004DF20A40FDF7DEFD81214DF20B40FDF7F4
:10445000D9FD00214DF20C40FDF7D4FDA6214DF20F
:104460000D40FDF7CFFD00214DF20E40FDF7CAFDD6
:10447000E5214DF20F40FDF7C5FD01214DF2104041
:10448000FDF7C0FD13214DF21140FDF7BBFD0121E9
:104490004DF21240FDF7B6FD54214DF21340FDF7E9
:1044A000B1FD01214DF21440FDF7ACFD82214DF22A
:1044B0001540FDF7A7FD01214DF21640FDF7A2FDC5
:1044C000CA214DF21740FDF79DFD02214DF2184023
:1044D000FDF798FD00214DF21940FDF793FD0221F3
:1044E0004DF21A40FDF78EFD01214DF21B40FDF704
:1044F00089FD00E004E302214DF21C40FDF782FD3E
:1045000034214DF21D40FDF77DFD02214DF21E408C
:10451000FDF778FD67214DF21F40FDF773FD022185
:104520004DF22040FDF76EFD84214DF22140FDF754
:1045300069FD02214DF22240FDF764FDA4214DF2F8
:104540002340FDF75FFD02214DF22440FDF75AFDA7
:10455000B7214DF22540FDF755FD02214DF22640D1
:10456000FDF750FDCF214DF22740FDF74BFD022115
:104570004DF22840FDF746FDDE214DF22940FDF7C2
:1045800041FD02214DF22A40FDF73CFDF2214DF2A2
:104590002B40FDF737FD02214DF22C40FDF732FD97
:1045A000FE214DF22D40FDF72DFD03214DF22E4051
:1045B000FDF728FD10214DF22F40FDF723FD0321CB
:1045C0004DF23040FDF71EFD33214DF23140FDF735
:1045D00019FD03214DF23240FDF714FD6D214DF21E
:1045E0003340FDF70FFD00214FF45540FDF70AFD64
:1045F00033214DF20150FDF705FD00214DF202502F
:10460000FDF700FD34214DF20350FDF7FBFC0021C6
:104610004DF20450FDF7F6FC3A214DF20550FDF73E
:10462000F1FC00214DF20650FDF7ECFC4A214DF261
:104630000750FDF7E7FC00214DF20850FDF7E2FCC2
:104640005C214DF20950FDF7DDFC00214DF20A50CE
:10465000FDF7D8FC81214DF20B50FDF7D3FC002172
:104660004DF20C50FDF7CEFCA6214DF20D50FDF79A
:10467000C9FC00214DF20E50FDF7C4FCE5214DF2BE
:104680000F50FDF7BFFC01214DF21050FDF7BAFCB1
:1046900013214DF21150FDF7B5FC01214DF21250DE
:1046A000FDF7B0FC54214DF21350FDF7ABFC012196
:1046B0004DF21450FDF7A6FC82214DF21550FDF786
:1046C000A1FC01214DF21650FDF79CFCCA214DF2D0
:1046D0001750FDF797FC02214DF21850FDF792FCA0
:1046E00000214DF21950FDF78DFC02214DF21A50B8
:1046F000FDF788FC01214DF21B50FDF783FC0221E0
:104700004DF21C50FDF77EFC34214DF21D50FDF79B
:1047100079FC02214DF21E50FDF774FC67214DF229
:104720001F50FDF76FFC02214DF22050FDF76AFC8F
:1047300084214DF22150FDF765FC02214DF22250FB
:10474000FDF760FCA4214DF22350FDF75BFC022134
:104750004DF22450FDF756FCB7214DF22550FDF7E0
:1047600051FC02214DF22650FDF74CFCCF214DF2B9
:104770002750FDF747FC02214DF22850FDF742FC7F
:10478000DE214DF22950FDF73DFC02214DF22A5069
:10479000FDF738FCF2214DF22B50FDF733FC0221DE
:1047A0004DF22C50FDF72EFCFE214DF22D50FDF761
:1047B00029FC03214DF22E50FDF724FC10214DF26F
:1047C0002F50FDF71FFC03214DF23050FDF71AFC6E
:1047D00033214DF23150FDF715FC03214DF23250DB
:1047E000FDF710FC6D214DF23350FDF70BFC00215D
:1047F0004FF45640FDF706FC33214DF20160FDF702
:1048000001FC00214DF20260FDF7FCFB34214DF26A
:104810000360FDF7F7FB00214DF20460FDF7F2FBAA
:104820003A214DF20560FDF7EDFB00214DF20660E7
:10483000FDF7E8FB4A214DF20760FDF7E3FB00219D
:104840004DF20860FDF7DEFB5C214DF20960FDF7DB
:10485000D9FB00214DF20A60FDF7D4FB81214DF216
:104860000B60FDF7CFFB00214DF20C60FDF7CAFB9A
:10487000A6214DF20D60FDF7C5FB00214DF20E6043
:10488000FDF7C0FBE5214DF20F60FDF7BBFB0121F9
:104890004DF21060FDF7B6FB13214DF21160FDF7EC
:1048A000B1FB01214DF21260FDF7ACFB54214DF23A
:1048B0001360FDF7A7FB01214DF21460FDF7A2FB89
:1048C00082214DF21560FDF79DFB01214DF216602E
:1048D000FDF798FBCA214DF21760FDF793FB02210B
:1048E0004DF21860FDF78EFB00214DF21960FDF7C7
:1048F00089FB02214DF21A60FDF784FB01214DF284
:104900001B60FDF77FFB02214DF21C60FDF77AFB77
:1049100034214DF21D60FDF775FB02214DF21E6042
:10492000FDF770FB67214DF21F60FDF76BFB022165
:104930004DF22060FDF766FB84214DF22160FDF70A
:1049400061FB02214DF22260FDF75CFBA4214DF2D8
:104950002360FDF757FB02214DF22460FDF752FB67
:10496000B7214DF22560FDF74DFB02214DF2266087
:10497000FDF748FBCF214DF22760FDF743FB0221F5
:104980004DF22860FDF73EFBDE214DF22960FDF778
:1049900039FB02214DF22A60FDF734FBF2214DF282
:1049A0002B60FDF72FFB02214DF22C60FDF72AFB57
:1049B000FE214DF22D60FDF725FB03214DF22E6007
:1049C000FDF720FB10214DF22F60FDF71BFB0321AB
:1049D0004DF23060FDF716FB33214DF23160FDF7EB
:1049E00011FB03214DF23260FDF70CFB6D214DF2FE
:1049F0003360FDF707FB55214FF47040FDF702FBD4
:104A0000AA214FF20100FDF7FDFA52214FF20200F8
:104A1000FDF7F8FA08214FF20300FDF7F3FA002141
:104A20004FF20400FDF7EEFACC214FF43140FDF7D0
:104A3000E9FA00214BF20110FDF7E4FA05214FF4E9
:104A40003640FDF7DFFA70214FF43740FDF7DAFA10
:104A500070214BF20170FDF7D5FA01214FF4384077
:104A6000FDF7D0FA03214BF60100FDF7CBFA032145
:104A70004BF60200FDF7C6FA03214BF60300FDF7E3
:104A8000C1FA02214FF43C40FDF7BCFA00214BF67D
:104A90000140FDF7B7FA00214BF60240FDF7B2FAEC
:104AA000D0214FF44940FDF7ADFA02214CF6011038
:104AB000FDF7A8FA50214CF60210FDF7A3FA502199
:104AC0004CF60310FDF79EFA50214CF60410FDF74A
:104AD00099FA00214FF45450FDF794FA55214FF400
:104AE0006850FDF78FFA4FF48850FDF775FA78207B
:104AF000FBF7DAFF4FF42450FDF76EFA01F05EB9D0
:104B0000FE48808849F2253188427DD147F6F00180
:104B1000E520FDF777FA4FF480710120FDF772FA76
:104B20004FF4E0610220FDF76DFA41F230010320FD
:104B3000FDF768FA00210420FDF764FA40F2022133
:104B40000820FDF75FFA00210920FDF75BFA00213C
:104B50000A20FDF757FA00210C20FDF753FA002137
:104B60000D20FDF74FFA00210F20FDF74BFA002131
:104B70001020FDF747FA07211120FDF743FA002125
:104B80001220FDF73FFA00211320FDF73BFA002128
:104B90000720FDF737FA41F290611020FDF732FA55
:104BA00040F227211120FDF72DFA9D211220FDF75B
:104BB00029FA4FF4C8511320FDF724FA25212920A2
:104BC000FDF720FA0D212B20FDF71CFA07213020DC
:104BD000FDF718FA40F203313120FDF713FA0321F3
:104BE0003220FDF70FFA40F206213520FDF70AFAD0
:104BF00008213620FDF706FA40F206413720FDF77E
:104C000001FA4FF4417100E058E03820FDF7FAF95D
:104C100007213920FDF7F6F940F202613C20FDF74B
:104C2000F1F908213D20FDF7EDF900215020FDF7B5
:104C3000E9F9EF215120FDF7E5F900215220FDF7B8
:104C4000E1F940F23F115320FDF7DCF94FF4274121
:104C50006020FDF7D7F901216120FDF7D3F900218C
:104C60006A20FDF7CFF900218020FDF7CBF9002164
:104C70008120FDF7C7F900218220FDF7C3F900214B
:104C80008320FDF7BFF900218420FDF7BBF9002147
:104C90008520FDF7B7F910219020FDF7B3F94FF407
:104CA000C0619220FDF7AEF940F233110720FDF705
:104CB000A9F922210020FDF7A5F91FE78F48808878
:104CC00049F2283188427DD141F28F01EC20FDF775
:104CD00099F941F23421EF20FDF794F94FF48071F6
:104CE0000120FDF78FF94FF4E0610220FDF78AF90A
:104CF00041F230010320FDF785F900210420FDF782
:104D000081F940F202210820FDF77CF900210920F9
:104D1000FDF778F900210A20FDF774F901210C2034
:104D2000FDF770F900210D20FDF76CF900210F202F
:104D3000FDF768F900211020FDF764F90721112023
:104D4000FDF760F900211220FDF75CF90021132026
:104D5000FDF758F901210720FDF754F93220FBF740
:104D600049FE41F290411020FDF74CF940F2272115
:104D70001120FDF747F93220FBF73CFE8A21122073
:104D8000FDF740F93220FBF735FE4FF4D0511320E8
:104D9000FDF738F906212920FDF734F90D212B20E4
:104DA000FDF730F93220FBF725FE00212020FDF72A
:104DB00029F900212120FDF725F93220FBF71AFE01
:104DC000002100E075E03020FDF71CF940F204619D
:104DD0003120FDF717F940F205313220FDF712F9C5
:104DE00000213520FDF70EF940F609413620FDF788
:104DF00009F94FF401713720FDF704F940F2013150
:104E00003820FDF7FFF840F207713920FDF7FAF876
:104E100000213C20FDF7F6F840F60A213D20FDF781
:104E2000F1F83220FBF7E6FD00215020FDF7EAF80B
:104E3000EF215120FDF7E6F800215220FDF7E2F8BE
:104E400040F23F115320FDF7DDF84FF42741602079
:104E5000FDF7D8F801216120FDF7D4F800216A2080
:104E6000FDF7D0F800218020FDF7CCF8002181204B
:104E7000FDF7C8F800218220FDF7C4F80021832047
:104E8000FDF7C0F800218420FDF7BCF80021852043
:104E9000FDF7B8F810219020FDF7B4F84FF4C06189
:104EA0009220FDF7AFF840F233110720FDF7AAF882
:104EB00024E61248808849F2203188427ED10021C0
:104EC0000846FDF79FF84FF480710120FDF79AF82E
:104ED0004FF4E0610220FDF795F841F23001032024
:104EE000FDF790F800210420FDF78CF840F2022134
:104EF0000820FDF787F80021092001E0DE000020EE
:104F0000FDF780F800210A20FDF77CF801210C2034
:104F1000FDF778F800210D20FDF774F800210F202F
:104F2000FDF770F83220FBF765FD40F20111072014
:104F3000FDF768F83220FBF75DFD4FF48651102035
:104F4000FDF760F807211120FDF75CF84FF4887138
:104F50001220FDF757F84FF430611320FDF752F897
:104F600000212920FDF74EF844F210012B20FDF717
:104F700049F800215020FDF745F8EF215120FDF7B9
:104F800041F800215220FDF73DF840F23F11532037
:104F9000FDF738F84FF41C516020FDF733F801217C
:104FA0006120FDF72FF800216A20FDF72BF8002182
:104FB0008020FDF727F80021812000E030E0FDF798
:104FC00021F800218220FDF71DF800218320FDF744
:104FD00019F800218420FDF715F800218520FDF740
:104FE00011F810219020FDF70DF800219220FDF717
:104FF00009F801219320FDF705F84FF488719520F9
:10500000FDF700F800219720FCF7FCFF0021982015
:10501000FCF7F8FF40F273110720FCF7F3FF6DE592
:10502000FE48808849F2313188427DD141F2140135
:10503000E720FCF7E7FF4FF480710120FCF7E2FF67
:105040004FF400710220FCF7DDFF41F2380103202C
:10505000FCF7D8FF40F202210820FCF7D3FF002123
:105060000920FCF7CFFF00210A20FCF7CBFF00212D
:105070000C20FCF7C7FF00210D20FCF7C3FF002127
:105080000F20FCF7BFFF00211020FCF7BBFF07211A
:105090001120FCF7B7FF00211220FCF7B3FF00211D
:1050A0001320FCF7AFFFC820FBF7A4FC41F290618E
:1050B0001020FCF7A7FF40F227211120FCF7A2FFE8
:1050C0003220FBF797FC0C211220FCF79BFF3220CB
:1050D000FBF790FC4FF400611320FCF793FF1121C4
:1050E0002920FCF78FFF0B212B20FCF78BFF3220B0
:1050F000FBF780FC00212020FCF784FF40F23F11E9
:105100002120FCF77FFF00213020FCF77BFF4FF4CC
:1051100083713120FCF776FF00213220FCF772FF0B
:105120004FF40171352000E064E0FCF76BFF41F2C1
:105130000A613620FCF766FF40F207713720FCF762
:1051400061FF4FF483713820FCF75CFF40F2077178
:105150003920FCF757FF40F202413C20FCF752FF98
:1051600040F60F413D20FCF74DFF00215020FCF799
:1051700049FFEF215120FCF745FF00215220FCF7A9
:1051800041FF40F23F115320FCF73CFF4FF41C510C
:105190006020FCF737FF01216120FCF733FF00217D
:1051A0006A20FCF72FFF00218020FCF72BFF002155
:1051B0008120FCF727FF00218220FCF723FF00213C
:1051C0008320FCF71FFF00218420FCF71BFF002138
:1051D0008520FCF717FF10219020FCF713FF4FF4F8
:1051E000C0619220FCF70EFF40F233110720FCF75C
:1051F00009FF83E48948808845F2084188427DD1CF
:105200004FF480710120FCF7FDFE4FF4E0610220B5
:10521000FCF7F8FE41F230010320FCF7F3FE002119
:105220000420FCF7EFFE40F207210820FCF7EAFE1D
:1052300000210920FCF7E6FE00210A20FCF7E2FE2F
:1052400000210C20FCF7DEFE00210D20FCF7DAFE29
:1052500000210F20FCF7D6FE1420FBF7CBFB41F218
:10526000B0611020FCF7CEFE01211120FCF7CAFE30
:1052700001211720FCF7C6FE4FF49C711220FCF7A9
:10528000C1FE4FF400611320FCF7BCFE0921292068
:10529000FCF7B8FE09212A20FCF7B4FE0021A42067
:1052A000FCF7B0FE00215020FCF7ACFEEF215120AE
:1052B000FCF7A8FE00215220FCF7A4FE40F23F11AB
:1052C0005320FCF79FFE4FF41C516020FCF79AFE20
:1052D00001216120FCF796FE00216A20FCF792FE76
:1052E00000218020FCF78EFE00218120FCF78AFE41
:1052F00000218220FCF786FE002100E024E08320CC
:10530000FCF780FE00218420FCF77CFE0021852034
:10531000FCF778FE13219020FCF774FE0021922008
:10532000FCF770FE03219320FCF76CFE4FF48871AC
:105330009520FCF767FE40F273110720FCF762FE30
:105340003220FBF757FBB8E43448808841F205511E
:1053500088427DD100210720FCF754FE3220FBF764
:1053600049FB4FF48E711220FCF74CFE0121A42062
:10537000FCF748FE0F210820FCF744FE08210A2014
:10538000FCF740FE08210D20FCF73CFE40F20771BF
:105390003020FCF737FE07213120FCF733FE40F2C6
:1053A00003613220FCF72EFE4FF4E0613320FCF75E
:1053B00029FE40F202213420FCF724FE0221352090
:1053C000FCF720FE41F60F713620FCF71BFE40F281
:1053D00007713720FCF716FE00213820FCF712FE7B
:1053E00000213920FCF70EFE40F207713A20FCF74D
:1053F00009FE00213B20FCF705FE07213C20FCF7BD
:1054000001FE00213D20FCF7FDFD3220FBF7F2FA02
:1054100001210720FCF7F6FD012101E0DE0000205C
:105420001720FCF7EFFD3220FBF7E4FA4FF4BD51F3
:105430001020FCF7E7FD40F217211120FCF7E2FDF8
:105440004FF48F711220FCF7DDFD4FF4706100E026
:1054500098E01320FCF7D6FD00212A20FCF7D2FDAE
:105460000A212920FCF7CEFD4FF49F711220FCF792
:10547000C9FD00215020FCF7C5FDEF215120FCF7AC
:10548000C1FD00215220FCF7BDFD40F23F11532029
:10549000FCF7B8FD4FF41C516020FCF7B3FD01216F
:1054A0006120FCF7AFFD00216A20FCF7ABFD002175
:1054B0008020FCF7A7FD00218120FCF7A3FD00213F
:1054C0008220FCF79FFD00218320FCF79BFD00213B
:1054D0008420FCF797FD00218520FCF793FD132124
:1054E0009020FCF78FFD4FF440719220FCF78AFD6D
:1054F00005219320FCF786FD00219520FCF782FD15
:1055000000219720FCF77EFD00219820FCF77AFD12
:105510004FF480710120FCF775FD4FF4E06102202B
:10552000FCF770FD41F238010320FCF76BFD002110
:105530000420FCF767FD00210C20FCF763FD00212F
:105540000F20FCF75FFD00212020FCF75BFD002110
:105550002120FCF757FD21210720FCF753FD1420E3
:10556000FBF748FA61210720FCF74CFD1420FBF7FC
:1055700041FA40F273110720FCF744FD1420FBF7B9
:1055800039FA95E4FE4880884BF2055188427CD177
:1055900000210846FCF736FD00210846FCF732FDE5
:1055A00000210846FCF72EFD00210846FCF72AFDE5
:1055B0000121A420FCF726FD1420FBF71BFA4FF471
:1055C0001C516020FCF71EFD40F202210820FCF770
:1055D00019FD4FF405713020FCF714FD43F21571ED
:1055E0003120FCF70FFD40F204613220FCF70AFD88
:1055F00040F616613320FCF705FD42F211213420FC
:10560000FCF700FD4FF4A8513520FCF7FBFC48F2F5
:1056100007513620FCF7F6FC41F207413720FCF732
:10562000F1FC41F203413820FCF7ECFC2021392049
:10563000FCF7E8FC1A219020FCF7E4FC0021102084
:10564000FCF7E0FC07211120FCF7DCFC0021122014
:10565000FCF7D8FC00211320FCF7D4FC1420FBF746
:10566000C9F94FF4E6611020FCF7CCFC40F2371189
:105670001120FCF7C7FC1420FBF7BCF94FF4DC71D8
:105680001220FCF7BFFC142000E085E0FBF7B2F924
:105690004FF470611320FCF7B5FC80212A20FCF741
:1056A000B1FC48212920FCF7ADFC1420FBF7A2F93E
:1056B0004FF480710120FCF7A5FC4FF4E06102205B
:1056C000FCF7A0FC41F238010320FCF79BFC40F200
:1056D00002210820FCF796FC00210A20FCF792FC2E
:1056E00000210C20FCF78EFC00210D20FCF78AFC29
:1056F00030210E20FCF786FC00215020FCF782FCB4
:10570000EF215120FCF77EFC00215220FCF77AFCAF
:1057100040F23F115320FCF775FC4FF41C51602000
:10572000FCF770FC01216120FCF76CFC00216A2071
:10573000FCF768FC11219020FCF764FC4FF4C06179
:105740009220FCF75FFC40F202419320FCF75AFCE8
:1057500002219420FCF756FC1420FBF74BF90121A1
:105760000720FCF74FFC1420FBF744F961210720C8
:10577000FCF748FC40F273110720FCF743FC0021C2
:105780002020FCF73FFC00212120FCF73BFC2221DC
:105790000020FCF737FC11E3794880884CF2055172
:1057A00088427CD100210846FCF72CFC00210846E9
:1057B000FCF728FC1420FBF71DF900210846FCF734
:1057C00021FC00210846FCF71DFC00210846FCF7DF
:1057D00019FC00210846FCF715FC0121A420FCF768
:1057E00011FC1420FBF706F94FF41C516020FCF764
:1057F00009FC40F606010820FCF704FC40F20371A6
:105800003020FCF7FFFB01213120FCF7FBFB0421DA
:105810003220FCF7F7FB4FF481713320FCF7F2FBE9
:105820004FF440713420FCF7EDFB40F203113520BA
:10583000FCF7E8FB1F213620FCF7E4FB40F2037184
:105840003720FCF7DFFB01213820FCF7DBFB0421CC
:105850003920FCF7D7FB15219020FCF7D3FB4FF440
:1058600082611020FCF7CEFB40F247211120FCF7AB
:10587000C9FB4FF4DE711220FCF7C4FB4FF46061EA
:105880001320FCF7BFFB7820FBF7B4F84FF48071CE
:105890000120FCF7B7FB4FF40071022000E052E05A
:1058A000FCF7B0FB41F230010320FCF7ABFB082111
:1058B0000A20FCF7A7FB00210C20FCF7A3FB20210A
:1058C0000E20FCF79FFB00210F20FCF79BFB002123
:1058D0002020FCF797FB00212120FCF793FB3D21C2
:1058E0002A20FCF78FFB1420FBF784F82D212920B8
:1058F000FCF788FB00215020FCF784FB4DF2EF0100
:105900005120FCF77FFB00215220FCF77BFB40F28B
:105910003F115320FCF776FB00216120FCF772FB5E
:1059200000216A20FCF76EFB4FF440719220FCF7D7
:1059300069FB05219320FCF765FB4FF4807107207C
:10594000FCF760FB3AE20E48808844F2315188420D
:105950007ED101210020FCF755FB0A20FBF74AF815
:1059600041F228611020FCF74DFB0E211220FCF7BC
:1059700049FB40F639211320FCF744FB0A2001E0E3
:10598000DE000020FBF736F840211120FCF73AFB3F
:1059900050211520FCF736FB0A20FBF72BF81E21BF
:1059A0001220FCF72FFB0A20FBF724F84FF4B1512B
:1059B0001020FCF727FB42F639211320FCF722FBCD
:1059C0000A20FBF717F84FF480710120FCF71AFB4F
:1059D0004FF440710220FCF715FB41F2380103201F
:1059E000FCF710FB40F202210820FCF70BFB08211A
:1059F0000A20FCF707FB00213020FCF703FB40F2F4
:105A000002413120FCF7FEFA4FF483713220FCF79B
:105A1000F9FA40F203513320FCF7F4FA4FF48271A3
:105A20003420FCF7EFFA40F201313520FCF7EAFAB6
:105A300040F207713620FCF7E5FA40F205313720D5
:105A4000FCF7E0FA4FF402713820FCF7DBFA00E0D3
:105A50003EE040F60B713920FCF7D4FA02214120D8
:105A6000FCF7D0FA4FF41C516020FCF7CBFA01216F
:105A70006120FCF7C7FA4FF404719020FCF7C2FADA
:105A80004FF485719220FCF7BDFA04219320FCF7B6
:105A9000B9FA4FF48071A020FCF7B4FA0121072075
:105AA000FCF7B0FA21210720FCF7ACFA23210720EC
:105AB000FCF7A8FA33210720FCF7A4FA40F23311CF
:105AC0000720FCF79FFA0021A020FCF79BFA75E164
:105AD000C148808844F2355188427CD1302115205C
