:020000040800F2
:10000000102000204501000849040008B103000841
:10001000450400088D010008D90500080000000013
:100020000000000000000000000000006D04000857
:1000300091010008000000004B0400085905000869
:100040005F0100085F0100085F0100085F01000810
:100050005F0100085F0100085F0100085F01000800
:100060005F0100085F0100085F0100085F010008F0
:100070005F0100085F0100085F0100085F010008E0
:100080005F0100085F0100085F0100085F010008D0
:100090005F0100085F0100085F0100085F010008C0
:1000A0005F0100085F0100085F0100085F010008B0
:1000B0005F0100085F0100085F0100085F010008A0
:1000C0005F0100085F0100085F0100085F01000890
:1000D0005F0100085F0100085F0100085F01000880
:1000E0005F0100085F0100085F0100085F01000870
:1000F0005F0100085F0100085F0100085F01000860
:100100005F0100085F0100085F0100085F0100084F
:100110005F0100085F0100085F0100085F0100083F
:100120005F0100085F0100085F0100085F0100082F
:10013000DFF80CD000F018F800480047FD05000873
:10014000102000200648804706480047FEE7FEE7EB
:10015000FEE7FEE7FEE7FEE7FEE7FEE7FEE7FEE777
:100160007905000831010008064C074D06E0E068FB
:1001700040F0010394E8070098471034AC42F6D3EE
:10018000FFF7DAFFE00600080007000800BFFEE7FF
:1001900070472DE9F041024600250026002000238B
:1001A0000024002791F803C00CF00F0591F803C05C
:1001B0000CF0100CBCF1000F03D091F802C04CEA17
:1001C000050591F800C0BCF1000F31D01468002083
:1001D0002BE04FF0010C0CFA00F3B1F800C00CEA70
:1001E00003069E4220D183004FF00F0C0CFA03F758
:1001F000BC4305FA03FC4CEA040491F803C0BCF1CB
:10020000280F06D14FF0010C0CFA00FCC2F814C004
:100210000AE091F803C0BCF1480F05D14FF0010C82
:100220000CFA00FCC2F810C0401C0828D1D314609E
:10023000B1F800C0BCF1FF0F34DD546800202EE09F
:1002400000F1080C4FF0010808FA0CF3B1F800C0F7
:100250000CEA03069E4221D183004FF00F0C0CFAEA
:1002600003F7BC4305FA03FC4CEA040491F803C00D
:10027000BCF1280F05D100F1080C08FA0CF8C2F8FF
:10028000148091F803C0BCF1480F07D100F1080CAD
:100290004FF0010808FA0CF8C2F81080401C08283A
:1002A000CED35460BDE8F0810246002093680B4035
:1002B0000BB1012000E00020704701617047000091
:1002C00010B501213448FFF7EFFF012805D133486D
:1002D0000088401C314908805CE010213048FFF75D
:1002E000E3FF28B92F480088401C2E49088051E0C0
:1002F00020212B48FFF7D8FF28B92B480088401C45
:100300002949088046E040212548FFF7CDFF28B95C
:1003100026480088401C254908803BE01F4800888B
:1003200002280ADD00201D4908801E4908801E4958
:1003300008801E490880012010BD1A480088022844
:100340000ADD0020154908801649088016490880F2
:10035000164908800220EFE71348008802280ADDCA
:1003600000200E4908800F4908800F4908800F4976
:1003700008800320E0E70D48008802280ADD0020FD
:10038000064908800749088007490880074908800E
:100390000420D1E70020CFE700080140080000203A
:1003A000001001400A0000200C0000200E00002078
:1003B00000BFFEE708B50121142000F047F8002037
:1003C000009004208DF803007020ADF80000032099
:1003D0008DF8020069460548FFF7DBFE0120ADF805
:1003E000000069460248FFF7D4FE08BD0010014036
:1003F0000008014008B50121402000F027F8002046
:10040000009010208DF803003C20ADF80000032080
:100410008DF8020069460A48FFF7BBFE0421084830
:10042000FFF74BFF08210648FFF747FF102104485C
:10043000FFF743FF20210248FFF73FFF08BD000000
:100440000018014000BFFEE77047704729B1064A17
:1004500092690243044B9A6104E0034A9269824321
:10046000014B9A617047000000100240704710B5C0
:1004700000F002F810BD00000CB5002001900090C3
:100480003348006840F480303149086000BF30488C
:10049000006800F4003000900198401C0190009822
:1004A00018B90198B0F5A06FF1D12948006800F49F
:1004B000003010B10120009001E000200090009871
:1004C000012843D12348006840F01000214908600A
:1004D0000846006820F0030008600846006840F005
:1004E000020008601A484068194948600846406898
:1004F00048600846406840F48060486008464068AC
:1005000020F47C1048600846406840F4E8104860D9
:100510000846006840F08070086000BF0C48006822
:1005200000F000700028F9D00948406820F003006E
:10053000074948600846406840F00200486000BF34
:100540000348406800F00C000828F9D10CBD0000F9
:10055000001002400020024005480068401C044989
:10056000086004480068401C0249086070470000A9
:10057000000000200400002010B51348006840F07F
:1005800001001149086008464068104908400E49BA
:100590004860084600680E4908400B490860084654
:1005A000006820F4802008600846406820F4FE00BF
:1005B00048604FF41F008860FFF759FF4FF000605C
:1005C0000449086010BD0000001002400000FFF860
:1005D000FFFFF6FE08ED00E000BFFEE702E008C8FE
:1005E000121F08C1002AFAD170477047002001E0AD
:1005F00001C1121F002AFBD1704700004FF4E151E6
:10060000481EB0F1807F00D31BE0481E4FF0E0226F
:10061000506150170F22002804DB13071D0E2B4BCF
:100620001D5406E013071E0E294B00F00F052D1F69
:100630005E5500BF00204FF0E0229061072010615E
:1006400000BFFFF7D7FEFFF7B5FE00243DE02148CD
:1006500000680A282BD9FFF733FE0446012C06D088
:10066000022C0BD0032C10D0042C1CD114E01A48FF
:10067000006880F010001849086014E0164800680F
:1006800080F00800144908600DE01348006880F00D
:1006900010001149086006E00F48006880F0200053
:1006A0000D49086000BF00BF00200A4908600B48E0
:1006B0000068B0F5FA6F08D30748006880F00400BE
:1006C00005490860002005490860C0E700E400E033
:1006D00018ED00E0040000200C180140000000208C
:1006E000000700080000002010000000DC050008E2
:1006F000100700081000002000200000EC05000892
:1007000000000000000000000000000000000000E9
:0400000508000131BD
:00000001FF
