:020000040800F2
:10000000F0200020450100084D2000088112000862
:1000100049200008EF090008455E000800000000C4
:100020000000000000000000000000007D2100082A
:10003000F3090008000000004F20000869220008B2
:100040005F0100085F0100085F0100085F01000810
:100050005F0100085F0100085F0100085F01000800
:100060005F0100085F0100085F0100085F010008F0
:100070005F0100085F0100085F0100085F010008E0
:100080005F0100085F0100085F0100085F010008D0
:100090005F0100085F0100085F0100085F010008C0
:1000A0005F0100085F0100085F0100085F010008B0
:1000B0005F0100085F0100085F0100085F010008A0
:1000C0005F0100085F0100085F0100085F01000890
:1000D0005F010008E55C00085F0100085F0100089F
:1000E0005F0100085F0100085F0100085F01000870
:1000F0005F0100085F0100085F0100085F01000860
:100100005F0100085F0100085F0100085F0100084F
:100110005F0100085F0100085F0100085F0100083F
:100120005F0100085F0100085F0100085F0100082F
:10013000DFF80CD000F032FB004800478968000867
:10014000F02000200648804706480047FEE7FEE70B
:10015000FEE7FEE7FEE7FEE7FEE7FEE7FEE7FEE777
:10016000A5220008310100082DE9FE4F804681EAF2
:100170000300C00F0C46009021F0004123F0004521
:10018000B8EB0200A94105D24046214690461C46E4
:100190000B46024623F00040104347D0270DC7F31B
:1001A0000A00C3F30A510290401A019040286BDA0A
:1001B000C3F3130040F4801B0098924620B1002343
:1001C000D2EB030A63EB0B0B01985946C0F14002D6
:1001D000504600F0EDF906460D4650465946019A44
:1001E00000F005FA10EB08006141002487EA115283
:1001F00084EAE7731A4340D0009A62B3019A012A55
:100200004FEA075215DC001B61EB02014FF0004280
:1002100002EA0752CDE90042001C41F58011324646
:100220002B4600F03CFA03B0BDE8F08F4046214673
:10023000F9E7001B61EB0201001C41F58013001877
:100240005B412018A2F5001747EB030140EAD57087
:10025000B6196D4111E06D084FEA360645EAC075E2
:100260004FEA0752001B61EB0201001C41F58011AF
:1002700049084FEA30000019514132462B4603B07D
:10028000BDE8F04F00F0FCB90098012240000023C7
:10029000D0EB020263EBE073009821464FEAE07472
:1002A000B8EB000061EB0401E9E783F000435BE792
:1002B00081F0004158E72DE9FE4F81EA030404F084
:1002C000004421F0004100944FF0000B23F0004364
:1002D00050EA01045ED052EA03045BD0C3F30A542F
:1002E000C1F30A552C44A4F2F3340194A0FB025448
:1002F000C1F3130141F48011C3F3130343F48013DA
:1003000001FB024400FB034E840A970A44EA81542D
:1003100047EA8357A4FB076802958D0A05FB07850A
:100320004FEA932C04FB0C542705029D4FEA065814
:1003300047EA1637B5EB08056EEB070C870E920EF1
:1003400047EA811742EA8312A7FB0201B6EB0B01D1
:1003500064EB00042B0D43EA0C335E1844EB1C5095
:10036000DA465146E7FB0201C5F313044FEA0B33AB
:1003700043EA14534FEA0432019C43EA0603A4F112
:100380000C040294009CCDE900B400F088F903B09D
:10039000BDE8F08F00200146F9E72DE9F04D81EA34
:1003A000030404F0004B21F0004514464FF0000A0E
:1003B00023F0004150EA050220D054EA01021DD08A
:1003C000C5F30A570246C5F31303C1F31300C1F383
:1003D0000A5640F4801543F48013A7EB0608101B5F
:1003E000D64608F2FD3873EB050002D308F1010888
:1003F00001E092185B41B8F1000F03DA00200146DA
:10040000BDE8F08D00204FF48011064684460EE0D2
:10041000171B73EB050705D3121B63EB050306439C
:100420004CEA010C49084FEA300092185B4150EA4F
:100430000107EDD152EA030012D082EA040083EAF8
:100440000501084305D0101BAB4106D20122002351
:1004500006E000224FF0004302E06FF0010253106B
:100460001AEB06004CEB085110EB0A0041EB0B01B4
:10047000BDE8F04D00F004B90EB540F233410291F1
:100480000021CDE900110A460B4600F008F903B03F
:1004900000BDC1F30A5210B5C1F3130140F2FF339E
:1004A00041F480119A4201DA002010BD40F233433A
:1004B0009A42A2F2334203DC524200F088F810BDA7
:1004C000904010BD00F0004230F000400AD0C10D55
:1004D00001F56071C0F3160042EA0151C2084007FD
:1004E0001143704700200146704701F0004330B4CB
:1004F00021F0004150EA010206D00A0DA2F5607217
:10050000C1F31301002A02DC30BC00207047440F05
:1005100044EAC104C100E01830BC00EBC25000F056
:1005200078B830B50B46014600202022012409E0AE
:1005300021FA02F59D4205D303FA02F5491B04FA9C
:1005400002F52844151EA2F10102F1DC30BD2DE9AF
:10055000F05F0546002092469B4688460646814647
:1005600040241BE0284641464746224600F02FF82B
:1005700053465A46C01A914110D311461846224696
:1005800000F016F82D1A67EB01084F4622460120AD
:10059000002100F00DF817EB00094E41201EA4F1D8
:1005A0000104DFDC484631462A464346BDE8F09F59
:1005B000202A04DB203A00FA02F100207047914023
:1005C000C2F1200320FA03F3194390407047202A18
:1005D00004DB203A21FA02F00021704721FA02F3ED
:1005E000D040C2F120029140084319467047202AAA
:1005F00006DBCB17203A41FA02F043EAE07306E04B
:1006000041FA02F3D040C2F120029140084319465A
:1006100070470029A8BF7047401C490008BF20F060
:100620000100704710B4B0FA80FC00FA0CF050EAF8
:10063000010404BF10BC704749B1CCF1200421FA79
:1006400004F411FA0CF118BF012121430843A3EB74
:100650000C01CB1D4FEA00614FEA102042BF002081
:1006600010BC704700EBC35010440029A4BF10BC5D
:100670007047401C490008BF20F0010010BC7047C3
:1006800010B5141E73F1000408DA401C41F100019A
:1006900092185B411A4301D120F0010010BD2DE9F1
:1006A000F04D92469B4611B1B1FA81F202E0B0FAE8
:1006B00080F220329046FFF77BFF04460F4640EA67
:1006C0000A0041EA0B0153465A46084313D011462B
:1006D00053EA010019D0C8F140025046FFF777FFF6
:1006E00005460E46504659464246FFF761FF08430D
:1006F00005D0012004E020463946BDE8F08D0020F9
:10070000054346EAE0762C4337430A986305E40A3A
:10071000A0EB08000022FD0A44EA47540A3002D543
:1007200000200146E9E7010510196941DDE90845A6
:1007300000196941BDE8F04DA2E7C1F30A52C1F3C7
:10074000130140F2FF3341F480119A4202DA002093
:100750000146704740F233439A42A2F2334202DC30
:100760005242FFF734BFFFF723BF000030B5041E2D
:1007700071F1000404DB4FF00044404264EB0101DE
:10078000141E73F1000405DB1C464FF00043524277
:1007900063EB0403994208BF904230BD064C074DFD
:1007A00006E0E06840F0010394E807009847103441
:1007B000AC42F6D3FFF7C0FC78F4020898F40208C4
:1007C00021B1826842F00102826003E0826822F077
:1007D000010282607047000000B587B04FF400400E
:1007E00001F036FC01214FF4057001F04DFC0020B2
:1007F0008DF81B002220ADF8180003208DF81A0098
:1008000006A91A4800F0A8FB0220ADF8180006A9B6
:10081000174800F0A1FB00208DF8090004904FF468
:10082000602003900020019001208DF8140000202A
:100830008DF8080001A90F4800F040F801210D488B
:10084000FFF7BEFF0B4800F0BDF800BF094800F0FD
:100850002AF80028FAD1074800F0C4F800BF05487C
:1008600000F00AF80028FAD107B000BD00080140E6
:100870000010014000240140014600208A6802F077
:1008800004020AB1012000E0002070470146C86C54
:1008900080B270470246002013680B400BB1012064
:1008A00000E000207047014600208A6802F008023C
:1008B0000AB1012000E000207047000030B5024678
:1008C0000020002350680F4C20400D790C6844EA4A
:1008D00005242043506090680B4C2040D1E902541D
:1008E0002C434D7944EA450420439060D06A20F4BB
:1008F00070000C7C641EE4B2234340EA0350D062D3
:1009000030BD0000FFFEF0FFFDF7F1FFF0B504463B
:100910000D4600200021092D11DDE068A5F10A0631
:1009200006EB4607072606FA07F18843A5F10A06F3
:1009300006EB460603FA06F10843E0600CE0206986
:1009400005EB4507072606FA07F1884305EB450640
:1009500003FA06F108432061072A0FDA606B561E7E
:1009600006EB86071F2606FA07F18843561E06EB9C
:10097000860605FA06F10843606322E00D2A0FDAC5
:10098000206BD61F06EB86071F2606FA07F1884361
:10099000D61F06EB860605FA06F10843206310E031
:1009A000E06AA2F10D0606EB86071F2606FA07F19C
:1009B0008843A2F10D0606EB860605FA06F1084308
:1009C000E062F0BD816841F008018160704721B1AB
:1009D000826842F4A002826003E0826822F4A002EE
:1009E00082607047816841F004018160704700BFF8
:1009F000FEE7704770B54FF47A7300FB03F10022F5
:100A000047E000BF00BF00BF00BF00BF00BF00BF86
:100A100000BF00BF00BF00BF00BF00BF00BF00BFDE
:100A200000BF00BF00BF00BF00BF00BF00BF00BFCE
:100A300000BF00BF00BF00BF00BF00BF00BF00BFBE
:100A400000BF00BF00BF00BF00BF00BF00BF00BFAE
:100A500000BF00BF00BF00BF00BF00BF00BF00BF9E
:100A600000BF00BF00BF00BF00BF00BF00BF00BF8E
:100A700000BF00BF00BF00BF00BF00BF00BF00BF7E
:100A800000BF00BF00BF00BF00BF00BF00BF00BF6E
:100A900000BF13460C46491E62F100020026744056
:100AA00073401C43ADD170BD47E000BF00BF00BF25
:100AB00000BF00BF00BF00BF00BF00BF00BF00BF3E
:100AC00000BF00BF00BF00BF00BF00BF00BF00BF2E
:100AD00000BF00BF00BF00BF00BF00BF00BF00BF1E
:100AE00000BF00BF00BF00BF00BF00BF00BF00BF0E
:100AF00000BF00BF00BF00BF00BF00BF00BF00BFFE
:100B000000BF00BF00BF00BF00BF00BF00BF00BFED
:100B100000BF00BF00BF00BF00BF00BF00BF00BFDD
:100B200000BF00BF00BF00BF00BF00BF00BF00BFCD
:100B300000BF00BF00BF00BF00BF011EA0F1010049
:100B4000B3D1704738B504460121080201F09CFA80
:100B5000002000904FF40060ADF8000003208DF8F5
:100B600002001CB914208DF8030002E004208DF867
:100B700003006946014800F0EFF938BD002001404C
:100B800051B18200A2F1C042126842F0010382001A
:100B9000A2F1C042136009E08200A2F1C0421268D3
:100BA000034B1A408300A3F1C0431A607047000052
:100BB000FEFF0F00D0E901121143C2681143026920
:100BC00011434269114382691143C2691143026AA8
:100BD0001143426A1143826A1143C26A1143026B94
:100BE000114302689200A2F1C04211608168082995
:100BF0000BD101688900A1F1C041096841F04002B0
:100C000001688900A1F1C0410A60416B0968426B2B
:100C1000526841EA0211426B926841EA0221426B3A
:100C2000928941EA0241426B128A41EA0251426BC7
:100C3000127D41EA0261426B926911430268521CC3
:100C40009200A2F1C0421160C16AB1F5804F1BD180
:100C5000816B0968826B526841EA0211826B92686B
:100C600041EA0221826B128A41EA0251826B127DB3
:100C700041EA0261826B9269114302689200A2F11B
:100C8000C042C2F8041107E06FF0704201688900A9
:100C9000A1F1C041C1F80421704700002DE9FF5FB8
:100CA0000020039000248146FFF74CFF4FF40061C1
:100CB000984800F0E5F91420FFF79CFE4FF400611E
:100CC000944800F0DFF90120FFF73CFF0DE009F147
:100CD000010000F0FF090120FFF7E6FEB9F1640F03
:100CE00003DD012004B0BDE8F09F4FF400618948A6
:100CF00000F0BDF90028EAD04FF000090BE009F13F
:100D0000010000F0FF090120FFF7CEFEB9F1640FEA
:100D100001DD0220E6E74FF400617E4800F0A7F90C
:100D20000128ECD04FF000090BE009F1010000F0C0
:100D3000FF090120FFF7B8FEB9F1640F01DD0320C0
:100D4000D0E74FF40061734800F091F90028ECD02F
:100D500000246FE04FF000090BE009F1010000F002
:100D6000FF090120FFF7A0FEB9F1640F01DD0420A7
:100D7000B8E74FF40061674800F079F90128ECD03A
:100D80004FF000090BE009F1010000F0FF0901201C
:100D9000FFF78AFEB9F1640F01DD0520A2E74FF4E9
:100DA00000615C4800F063F90028ECD01E20FFF7DA
:100DB0007BFE4FF40061574800F059F9C0B9E217C3
:100DC00004EB5272D210544B9A5C2146E31704EBA9
:100DD0005373DB10A4EBC303C3F107050123AB403E
:100DE0009A432046E31704EB5373DB104A4DEA5451
:100DF0004FF40061474800F03AF9012818D1E21792
:100E000004EB5272D210444B9A5C2146E31704EB78
:100E10005373DB10A4EBC303C3F107050123AB40FD
:100E20001A432046E31704EB5373DB103A4DEA54A0
:100E3000601CC4B2282C8DDB3748007836494978CD
:100E400008443549897808443349C9780844C0B210
:100E50000390314801790398814258D12E4948784E
:100E6000FFF70AFB00222D4BCDE90001FFF795FAB1
:100E700005460E4628490878FFF7FEFA07462A4637
:100E80003346FFF771F98246FFF72FFB24490860CC
:100E90002149C878FFF7F0FA074600221F4BFFF7F9
:100EA0007CFA05460E461C498878FFF7E5FA82462B
:100EB0002A463346FFF758F9CDE90001FFF715FB45
:100EC0001849086008460068FFF7FCFA05460E4618
:100ED00013480068FFF7F6FA07463A460B4612A099
:100EE000CDE9005605F036F80B488378027814A156
:100EF000184805F03FF80020164910221346CDE9A6
:100F000000210290962214210A2000F0BFFE00204A
:100F1000E8E60000002001403400002000002440EA
:100F20002C0000203000002048756D3A252E3166D7
:100F3000202054656D3A252E31660D0A0000000010
:100F4000CEC2B6C83A25642020CAAAB6C83A2564DB
:100F500000000000480000202DE9F0410246002575
:100F60000026002000230024002791F803C00CF085
:100F70000F0591F803C00CF0100CBCF1000F03D06A
:100F800091F802C04CEA050591F800C0BCF1000FD1
:100F900031D0146800202BE04FF0010C0CFA00F364
:100FA000B1F800C00CEA03069E4220D183004FF046
:100FB0000F0C0CFA03F7BC4305FA03FC4CEA0404DB
:100FC00091F803C0BCF1280F06D14FF0010C0CFAC8
:100FD00000FCC2F814C00AE091F803C0BCF1480F4D
:100FE00005D14FF0010C0CFA00FCC2F810C0401CF7
:100FF0000828D1D31460B1F800C0BCF1FF0F34DD74
:10100000546800202EE000F1080C4FF0010808FAA7
:101010000CF3B1F800C00CEA03069E4221D1830014
:101020004FF00F0C0CFA03F7BC4305FA03FC4CEA33
:10103000040491F803C0BCF1280F05D100F1080C9D
:1010400008FA0CF8C2F8148091F803C0BCF1480FFC
:1010500007D100F1080C4FF0010808FA0CF8C2F8AB
:101060001080401C0828CED35460BDE8F0810246B1
:10107000002093680B400BB1012000E00020704776
:10108000416170470161704710B501213448FFF795
:10109000EEFF012805D133480088401C3149088003
:1010A0005CE010213048FFF7E2FF28B92F480088A4
:1010B000401C2E49088051E020212B48FFF7D7FF24
:1010C00028B92B480088401C2949088046E0402167
:1010D0002548FFF7CCFF28B926480088401C254941
:1010E00008803BE01F48008802280ADD00201D49D7
:1010F00008801E4908801E4908801E49088001207A
:1011000010BD1A48008802280ADD00201549088011
:101110001649088016490880164908800220EFE722
:101120001348008802280ADD00200E4908800F4974
:1011300008800F4908800F4908800320E0E70D4828
:10114000008802280ADD0020064908800749088037
:1011500007490880074908800420D1E70020CFE72D
:10116000000801402400002000100140260000205B
:10117000280000202A0000200EB505230122194670
:101180001648FFF7C3FB01211448FFF720FC00BFFE
:1011900002211248FFF77EFB0028F9D00F48FFF725
:1011A00075FB0F490880084601880EA004F0D2FEA6
:1011B0000B4802880EA1104804F0DCFE00200E4906
:1011C00010221346CDE90021029096223C210A20EC
:1011D00000F05CFD024800880EBD000000240140C4
:1011E0003A000020B9E2D5D53A25640D0A00000086
:1011F000B9E2D5D53A2564007A0000200EB5052362
:1012000001220B211648FFF781FB01211448FFF74B
:10121000DEFB00BF02211248FFF73CFB0028F9D09B
:101220000F48FFF733FB0F494880084641880EA05E
:1012300004F090FE0B4842880EA1104804F09AFE7C
:1012400000200E4910221346CDE90021029096227B
:1012500028210A2000F01AFD024840880EBD000037
:10126000002401403A000020D1CCCEED3A25640D97
:101270000A000000D1CCCEED3A2564007A000020AF
:1012800000BFFEE708B50121142000F0FDFE00209C
:10129000009004208DF803007020ADF800000320BA
:1012A0008DF8020069460548FFF756FE0120ADF8AB
:1012B000000069460248FFF74FFE08BD00100140DC
:1012C0000008014070B5044600261748058840888C
:1012D00045431548808846F60401884216D11248D5
:1012E0008079012812D100200F4988712A20488175
:1012F0002B2088810021084600F0FCFA01200A49D1
:1013000088712B2048812A20888103E0002108462B
:1013100000F0F0FA00F05EFE002602E003480480D0
:10132000761CAE42FAD370BDDE0000200008006CCF
:1013300010B50446002C73D179498871F0200880DB
:101340004FF4A07048800846808849F241318842B5
:1013500011D07348808849F2864188420BD070488A
:10136000808846F60401884205D06D48808845F2A1
:101370001031884220D12C20694908812A204881D7
:101380002B2088810846808846F6040188420BD0CD
:101390006348808845F21031884205D060488088D3
:1013A00049F28641884206D14FF4A0705C4908801A
:1013B0004FF4F0704880AEE05948808845F21051F3
:1013C000884210D14FF43050554908814FF42850CD
:1013D00048814FF42C5088814FF4F07008804FF40E
:1013E0004870488097E04E48808841F663118842F3
:1013F0000DD12C204A4908812B2048812A20888140
:101400004FF4F07008804FF44870488083E0222049
:101410004349088120204881212088817BE0FFE723
:1014200001203F4988714FF4A0700880F020488067
:101430000846808849F2413188420BD0384880887C
:1014400049F28641884205D03548808845F21031FE
:10145000884207D12C20324908812A2048812B203C
:1014600088813FE02E48808846F60401884207D1F3
:101470002C202B4908812B2048812A20888131E0AB
:101480002748808845F21051884210D14FF43050DF
:10149000234908814FF4285048814FF42C5088810B
:1014A0004FF4487008804FF4F07048801AE01C48F0
:1014B000808841F6631188420DD12C20184908819B
:1014C0002A2048812B2088814FF4487008804FF4EF
:1014D000F070488006E022201149088121204881CF
:1014E000202088810E48808846F6040188420BD06F
:1014F0000B48808845F21031884205D00848808822
:1015000049F28641884206D14FF4F07004490880C0
:101510004FF4A0704880002000F070F810BD00006B
:10152000DE00002070B505460E46144631462846BA
:1015300000F0E0F900F04EFD0148048070BD0000AD
:101540000008006C2DE9F04F06460F46904699467C
:10155000C346CA463C460CE0354606E021462846CE
:10156000099AFFF7DFFF681C85B25D45F6DB601C5A
:1015700084B25445F0DBBDE8F08F000008B50348A5
:1015800000880090BDF8000008BD00000008006C55
:1015900010B50446204600F011FD0520FFF784FA3F
:1015A000FFF7ECFF10BD00002DE9F0470446BE2018
:1015B00000F004FD052000F0F5FC2046FEF75CFF7E
:1015C00007464FF066320C4BFEF775FE0546FEF7F8
:1015D00060FF1FFA80F9484600F0E4FC012000F0AB
:1015E000E1FCFF2000F0DEFC002000F0DBFC00202E
:1015F00000F0D8FCBDE8F08766660440F0B505460B
:1016000000240027BA48807901280BD1B848808887
:1016100046F60401884205D0B548808841F663113A
:10162000884208D1B2488079F0B9B148808841F643
:101630006311884218D1082D15D2DFE805F00406A1
:10164000080A0C0E101206250DE007250BE00425F4
:1016500009E0052507E0012505E0002503E0032555
:1016600001E0022500BF00BFA148808849F2413156
:1016700088421DD09E48808849F28641884217D012
:101680009B48808846F60401884211D0984880889B
:1016900045F2103188420BD09548808845F21051B0
:1016A000884205D09248808841F6631188427DD1F6
:1016B000082D1CD2DFE805F00406090C0F121518DE
:1016C00000BF14E044F0800411E044F040040EE058
:1016D00044F0C0040BE044F0200408E044F060044F
:1016E00005E044F0A00402E044F0E00400BF00BFC5
:1016F0007F48808845F21051884202D14FF45857F4
:1017000000E036277A48808845F2103188420DD0B3
:101710007748808845F21051884207D07448808805
:1017200041F66311884201D044F008047048808873
:1017300046F60401884201D144F0020421463846AD
:1017400000F052FC6A48808841F6631188421DD03F
:1017500004F0200068B166480088654949888842DD
:1017600014DA634806884088614908800846468044
:101770000CE05F4800885E494988884206DD5C4885
:10178000068840885A49088008464680584880881C
:1017900045F21051884254D15549488900F00EFC59
:1017A000002000F0FFFB5249498900E078E0491C25
:1017B00088B200F003FC002000F0F4FB4C4949899A
:1017C000891C88B200F0FAFB49490988491EC1F317
:1017D0000F2000F0E7FB46494989C91C88B200F098
:1017E000EDFB43490978491EC8B200F0DBFB4049D4
:1017F000888900F0E3FB002000F0D4FB3C49898994
:10180000491C88B200F0DAFB002000F0CBFB38491D
:101810008989891C88B200F0D1FB35494988491E65
:10182000C1F30F2000F0BEFB31498989C91C88B281
:1018300000F0C4FB2E498978491EC8B200F0B2FB03
:1018400055E02B49488900F0B9FB002000F0AAFBC5
:10185000002000F0A7FB26490988491EC1F30F208C
:1018600000F0A0FB22490978491EC8B200F09AFB9B
:101870001F49888900F0A2FB002000F093FB0020A4
:1018800000F090FB1A494988491EC1F30F2000F06F
:1018900089FB17498978491EC8B200F083FB26E00E
:1018A000082D1CD2DFE805F004070A0D0F121518E9
:1018B00044F0300413E044F0100410E044F020043D
:1018C0000DE000BF0BE044F0380408E044F02804C9
:1018D00005E044F0180402E044F0080400BF00BF33
:1018E000032744F480542146384600F07DFBF0BDC8
:1018F000DE00002030B504460D468148808849F25C
:101900004131884205D07E48808845F210318842B6
:1019100014D17B49488900F051FB201200F042FBB2
:10192000E0B200F03FFB7649888900F047FB2812BF
:1019300000F038FBE8B200F035FBE0E0704880884A
:1019400049F2864188422ED16D49488900F036FB24
:10195000201200F027FBE0B200F024FB6849098860
:10196000491EC1F30F2000F01DFB65490978491E8F
:10197000C8B200F017FB6249888900F01FFB2812EB
:1019800000F010FBE8B200F00DFB5D494988491EEC
:10199000C1F30F2000F006FB59498978491EC8B2EF
:1019A00000F000FBABE05648808846F60401884210
:1019B0001DD153488079012804D151480088401E28
:1019C000001B84B24E49488900F0F8FA201200F05A
:1019D000E9FAE0B200F0E6FA4949888900F0EEFA47
:1019E000281200F0DFFAE8B200F0DCFA87E04448A1
:1019F000808841F66311884247D141488079A8B96F
:101A00003F480088401E001B84B23D49488900F0D1
:101A1000D5FA002000F0C6FA002000F0C3FA201228
:101A200000F0C0FAE0B200F0BDFA16E0344948898F
:101A300000F0C4FA201200F0B5FAE0B200F0B2FAF9
:101A40002F490988491EC1F30F2000F0ABFA2C4939
:101A50000978491EC8B200F0A5FA2949888900F022
:101A6000ADFA281200F09EFAE8B200F09BFA244981
:101A70004988491EC1F30F2000F094FA2049897863
:101A8000491EC8B200F08EFA39E01D48808845F240
:101A90001051884220D11A49488900F08FFA20124B
:101AA00000F080FA16494989491C88B200F086FA8C
:101AB000E0B200F077FA1249888900F07FFA281224
:101AC00000F070FA0E498989491C88B200F076FA54
:101AD000E8B200F067FA12E009488079012804D1E1
:101AE00007480088401E001B84B2054948892146EA
:101AF00000F07AFA02498889294600F075FA30BD6B
:101B0000DE0000202DE9FF4F81B080460E46DDE962
:101B10000E74B3462046E31704EB5373DB102146E3
:101B20004FEAE47C04EB5C7C4FEAEC0CA4EBCC0CBD
:101B3000BCF1000F02D04FF0010C01E04FF0000C9F
:101B40006344224604EBD27C4FEA6C0C03FB0CF39B
:101B5000DBB20093A7F12000C7B2002555E00C2CA2
:101B600007D107EB47002B4901EB800010F80590E7
:101B700014E0102C05D1284800EB071010F8059050
:101B80000CE0182C07D107EBC700244901EB8000BB
:101B900010F8059002E005B0BDE8F08F4FF0000AA4
:101BA0002DE009F0800028B131464046049AFFF745
:101BB000B9FC06E0109820B931464046039AFFF779
:101BC000B1FC4FEA49604FEA1069701C86B21448B4
:101BD0004088B04200DCDEE7A6EB0B00A0420AD151
:101BE0005E4608F101001FFA80F80D480088404564
:101BF00000DCD0E706E00AF1010000F0FF0ABAF1CC
:101C0000080FCEDB00BF681CC5B200988542A6DB7A
:101C100000BFC0E78CC2020800C70208F0CC02086F
:101C2000DE0000202DE9F84F04460F461546984681
:101C30000A9E4FF00009CA46A3460020009000BF4C
:101C400020E04FF0000917E07078317840EA012079
:101C5000009039462046009AFFF764FC601C84B26D
:101C60000BEB0500A04202DC5C46781C87B2B61C78
:101C700009F101001FFA80F9A945E5DB0AF101002D
:101C80001FFA80FAC245DCDBBDE8F88F2DE9FF4F73
:101C900084B080468946DDE9117A08F0FF000390A0
:101CA0000698404480B206900798484480B2079056
:101CB00065E19AF80000A02870DD0698804505DBF4
:101CC000DDF80C8009EB07001FFA80F907988145C1
:101CD00000DB59E10C2F5DD1002558E005EB8500B4
:101CE00000EBC500AA4911F810009AF800108842CC
:101CF0004BD105EB850000EBC500A54901EB400089
:101D000040789AF8011088423FD100243AE005EB70
:101D1000850000EBC5009E4901EB4000801C61007E
:101D2000491C415C05EB850000EBC500984A02EBBD
:101D30004000801C10F8140041EA002B00261DE032
:101D40000BFA06F000F4004050B109EB040291B226
:101D500008EB060290B28F4A1288FFF7E3FB0BE014
:101D6000139848B909EB040291B208EB060290B24D
:101D7000894A1288FFF7D6FB701CC6B2BE42DFDB71
:101D8000601CC4B2BC42C2DB03E0681C85B2322DC9
:101D9000A4DBC9E0102F56D1002551E0CBE005EBC4
:101DA00005107E4911F810009AF80010884245D1BC
:101DB00005EB0510794901EB400040789AF80110D5
:101DC00088423BD1002436E005EB0510734901EB56
:101DD0004000801C6100491C415C05EB05106F4A06
:101DE00002EB4000801C10F8140041EA002B002692
:101DF0001DE00BFA06F000F4004050B109EB0402BC
:101E000091B208EB060290B2624A1288FFF78AFB91
:101E10000BE0139848B909EB040291B208EB0602F3
:101E200090B25D4A1288FFF77DFB701CC6B2BE42BD
:101E3000DFDB601CC4B2BC42C6DB03E0681C85B2B9
:101E4000322DACDB70E0182F6ED1002569E005EB78
:101E5000850000EB4510524911F810009AF8001067
:101E600088425CD105EB850000EB45104C4901EB45
:101E7000400040789AF80110884250D100244BE08D
:101E800005EB850000EB4510454901EB4000801C47
:101E900004EB4401405C020405EB850000EB4510B7
:101EA0003F4901EB4000801C04EB4401491C405CAD
:101EB00042EA002105EB850000EB4510384A02EBB1
:101EC0004000801C04EB4402921C805C41EA000B41
:101ED00000261DE00BFA06F000F4000050B109EBFB
:101EE000040291B208EB060290B22A4A1288FFF768
:101EF00019FB0BE0139848B909EB040291B208EB07
:101F0000060290B2244A1288FFF70CFB701CC6B27E
:101F1000BE42DFDB601CC4B2BC42B1DB03E0681C24
:101F200085B2322D93DB00BF08EB07001FFA80F863
:101F30000AF1020A23E00698804505DBDDF80C80F3
:101F400009EB07001FFA80F90798814500DB1BE0C9
:101F50009AF800101398CDE9001702900D480388F5
:101F60000D48028849464046FFF7CCFD384607EB4E
:101F7000D07108EB61011FFA81F80AF1010A9AF8A1
:101F8000000000287FF495AE00BF08B0BDE8F08FD8
:101F90004CDA02083E0000204000002060DF02080A
:101FA00004E6020801B5BDF800000090BDF800008D
:101FB0000149088008BD00000008006C01B5BDF8AB
:101FC00000000090BDF800000149088008BD000035
:101FD000FE07006C02480089024908807047000033
:101FE000DE000020FE07006C024A1080921C118067
:101FF00070470000FE07006C08B50121402000F08A
:1020000043F80020009010208DF803003C20ADF82C
:10201000000003208DF8020069460A48FEF79CFF85
:1020200004210848FFF72EF808210648FFF72AF890
:1020300010210448FFF726F820210248FFF722F874
:1020400008BD00000018014000BFFEE77047704760
:1020500001460020034A506820F440400843506085
:10206000704700000010024029B1064A526902433D
:10207000044B5A6104E0034A52698243014B5A619E
:10208000704700000010024029B1064A92690243DD
:10209000044B9A6104E0034A92698243014B9A61BE
:1020A000704700000010024030B5002100220024DB
:1020B00000232D4D6D6805F00C0121B1042905D0D8
:1020C000082923D105E0294D056022E0274D056050
:1020D0001FE0254D6D6805F47012234D6D6805F401
:1020E0008034022505EB92421CB9214D5543056011
:1020F0000BE01D4D6D6805F400351DB11C4D5543B9
:10210000056002E0194D5543056002E0174D05607A
:1021100000BF00BF144D6D6805F0F0010909154DB1
:102120006B5C0568DD4045600F4D6D6805F4E0614E
:10213000090A104D6B5C4568DD4085600A4D6D688D
:1021400005F46051C90A0B4D6B5C4568DD40C56004
:10215000054D6D6805F44041890B074D6B5CC56802
:10216000B5FBF3F5056130BD0010024000127A00A6
:1021700000093D000000002010000020704710B54D
:1021800000F002F810BD00000CB500200190009096
:102190003348006840F480303149086000BF30485F
:1021A000006800F4003000900198401C01900098F5
:1021B00018B90198B0F5A06FF1D12948006800F472
:1021C000003010B10120009001E000200090009844
:1021D000012843D12348006840F0100021490860DD
:1021E0000846006820F0030008600846006840F0D8
:1021F000020008601A48406819494860084640686B
:1022000048600846406840F480604860084640687E
:1022100020F47C1048600846406840F4E8104860AC
:102220000846006840F08070086000BF0C480068F5
:1022300000F000700028F9D00948406820F0030041
:10224000074948600846406840F00200486000BF07
:102250000348406800F00C000828F9D10CBD0000CC
:1022600000100240002002400A480068401C094952
:10227000086009480068401C074908600748006872
:10228000401C0649086006480068401C0449086074
:102290007047000014000020180000201C000020DF
:1022A0002000002010B51348006840F001001149DB
:1022B000086008464068104908400E4948600846D2
:1022C00000680E4908400B4908600846006820F481
:1022D000802008600846406820F4FE0048604FF403
:1022E0001F008860FFF74BFF4FF000600449086053
:1022F00010BD0000001002400000FFF8FFFFF6FED6
:1023000008ED00E000B59FB000201E9001210802FA
:10231000FFF7AAFE01214FF4B470FFF7B5FE0120CC
:10232000ADF8740010208DF8770003208DF876004A
:102330001DA9FE48FEF710FE4CF23370ADF8740094
:1023400018208DF8770003208DF876001DA9F84835
:10235000FEF702FE4FF68070ADF8740018208DF87D
:10236000770003208DF876001DA9F248FEF7F4FDF2
:1023700041F20100ADF8740018208DF877000320B9
:102380008DF876001DA9EC48FEF7E6FD01200790C8
:10239000002008900F20099000200A900B900C90CC
:1023A0000D90009001900320029000200390049073
:1023B0000590069006200E9000200F90109010209F
:1023C00011900020129014901390159016904FF4D5
:1023D00080501790002018904FF4804019900020F2
:1023E0001A9007A81B90CDF870D00EA8FEF7E2FB5C
:1023F00001210620FEF7C4FB3220FEF7FBFA012183
:102400000020FFF7F1FD3220FEF7F4FA0020FFF77D
:10241000BFF8CA49888008468088FF280FDB084635
:1024200080884FF6FF71884209D0C4488088B0F593
:10243000134F04D0C1488088B0F5144F7ED1D3200B
:10244000FFF7BCFDFFF79AF8BC498880FFF796F8C4
:10245000BA498880FFF792F8B84988800846808892
:102460004FF6FF7101EA0020B4498880FFF786F833
:10247000B24989880843B14988800846808849F272
:10248000413188425AD0AD48808849F2864188421D
:10249000F8D0BF20FFF792FDFFF770F8A7498880BA
:1024A000FFF76CF8A5498880FFF768F8A349888092
:1024B000FFF764F8A1498880084680884FF6FF71CD
:1024C00001EA00209D498880FFF758F89B498988D8
:1024D00008439A4988800846808846F60401884265
:1024E0007AD0D420FFF76AFDFFF748F89349888037
:1024F000FFF744F891498880FFF740F88F498880BA
:10250000084680884FF6FF7101EA00208B498880D9
:10251000FFF734F889498988084388498880084644
:10252000808845F21031884256D04FF45A40FFF768
:1025300045FDFFF723F88149888000E04CE04FF427
:102540005B40FFF73BFDFFF719F87C4988800846A0
:1025500080884FF6FF7101EA0020784988804FF4A7
:102560005C40FFF72BFDFFF709F8744989880843A1
:102570007249888008468088B0F5004F02D145F244
:10258000105088806D48808845F21051884223D0D1
:10259000A120FFF713FDFEF7F1FF68498880FEF7E1
:1025A000EDFF66498880084680884FF6FF7101EA92
:1025B000002062498880FEF7E1FF6049898808436E
:1025C0005E4988800846808845F26171884203D15F
:1025D00041F66310594988805848808849F2413152
:1025E000884211D05548808845F2103188420BD07E
:1025F0005248808845F21051884205D04F48808863
:1026000041F6631188421DD14D48006820F00F004B
:102610004FF02041C1F81C010846D0F81C0120F4FD
:102620007060C1F81C010846D0F81C0140F003009E
:10263000C1F81C010846D0F81C0140F40070C1F834
:102640001C0128E03D48808846F60401884205D0F8
:102650003A4880884CF2055188421CD138480068BD
:1026600020F00F004FF02041C1F81C010846D0F8BF
:102670001C0120F47060C1F81C010846D0F81C0150
:1026800040F00A00C1F81C010846D0F81C0140F4D3
:102690004060C1F81C012948808849F241318842D4
:1026A0007ED1CF20FFF78AFC0020FFF77BFCC12002
:1026B000FFF778FC3020FFF775FCED20FFF77EFC7C
:1026C0006420FFF76FFC0320FFF76CFC1220FFF77C
:1026D00069FC8120FFF766FCE820FFF76FFC85208E
:1026E000FFF760FC1020FFF75DFC7A20FFF75AFC33
:1026F000CB20FFF763FC3920FFF754FC2C20FFF7B9
:1027000051FC0020FFF74EFC3420FFF74BFC022069
:10271000FFF748FCF720FFF751FC2020FFF742FCB1
:10272000EA20FFF74BFC00200CE00000000C014009
:10273000001401400018014000200140DE0000208C
:102740001C0100A0FFF72EFC0020FFF72BFCC0208F
:10275000FFF734FC1B20FFF725FCC120FFF72EFC00
:102760000120FFF71FFCC520FFF728FC3020FFF7F2
:1027700019FC3020FFF716FCC720FFF71FFCB7201D
:10278000FFF710FC3620FFF719FC4820FFF70AFC82
:102790003A20FFF713FC5520FFF704FCB12000E0BE
:1027A000A5E0FFF70BFC0020FFF7FCFB1A20FFF76A
:1027B000F9FBB620FFF702FC0A20FFF7F3FBA2208B
:1027C000FFF7F0FBF220FFF7F9FB0020FFF7EAFB31
:1027D0002620FFF7F3FB0120FFF7E4FBE020FFF7E3
:1027E000EDFB0F20FFF7DEFB2A20FFF7DBFB2820A5
:1027F000FFF7D8FB0820FFF7D5FB0E20FFF7D2FB31
:102800000820FFF7CFFB5420FFF7CCFBA920FFF7F0
:10281000C9FB4320FFF7C6FB0A20FFF7C3FB0F20CD
:10282000FFF7C0FB0020FFF7BDFB0020FFF7BAFB5E
:102830000020FFF7B7FB0020FFF7B4FBE120FFF714
:10284000BDFB0020FFF7AEFB1520FFF7ABFB172009
:10285000FFF7A8FB0720FFF7A5FB1120FFF7A2FB5E
:102860000620FFF79FFB2B20FFF79CFB5620FFF76E
:1028700099FB3C20FFF796FB0520FFF793FB102008
:10288000FFF790FB0F20FFF78DFB3F20FFF78AFB40
:102890003F20FFF787FB0F20FFF784FB2B20FFF77C
:1028A0008DFB0020FFF77EFB0020FFF77BFB012064
:1028B000FFF778FB3F20FFF775FB2A20FFF77EFB31
:1028C0000020FFF76FFB0020FFF76CFB0020FFF7F5
:1028D00069FBEF20FFF766FB1120FFF76FFB782005
:1028E000FEF788F82920FFF769FB03F0E9B9FE48F5
:1028F000808849F2864188427ED1F220FFF75EFB54
:102900001820FFF74FFBA320FFF74CFB1220FFF727
:1029100049FB0220FFF746FBB220FFF743FB1220E2
:10292000FFF740FBFF20FFF73DFB1020FFF73AFBCE
:102930000020FFF737FBF820FFF740FB2120FFF7CF
:1029400031FB0420FFF72EFBF920FFF737FB0020B7
:10295000FFF728FB0820FFF725FB3620FFF72EFBAB
:102960000820FFF71FFB3A20FFF728FB0520FFF7A1
:1029700019FBB420FFF722FB0120FFF713FBB62061
:10298000FFF71CFB0220FFF70DFB2220FFF70AFBDD
:10299000C120FFF713FB4120FFF704FBC520FFF721
:1029A0000DFB0020FFF7FEFA0720FFF7FBFAE020FF
:1029B000FFF704FB0F20FFF7F5FA1F20FFF7F2FAED
:1029C0001C20FFF7EFFA0C20FFF7ECFA0F20FFF7BF
:1029D000E9FA0820FFF7E6FA4820FFF7E3FA982023
:1029E000FFF7E0FA3720FFF7DDFA0A20FFF7DAFAFF
:1029F0001320FFF7D7FA00E045E00420FFF7D2FAF2
:102A00001120FFF7CFFA0D20FFF7CCFA0020FFF7D7
:102A1000C9FAE120FFF7D2FA0F20FFF7C3FA3220FC
:102A2000FFF7C0FA2E20FFF7BDFA0B20FFF7BAFA26
:102A30000D20FFF7B7FA0520FFF7B4FA4720FFF79C
:102A4000B1FA7520FFF7AEFA3720FFF7ABFA062090
:102A5000FFF7A8FA1020FFF7A5FA0320FFF7A2FA64
:102A60002420FFF79FFA2020FFF79CFA0020FFF7B1
:102A700099FA1120FFF7A2FA7820FDF7BBFF292071
:102A8000FFF79CFA31E79848808846F604018842AF
:102A90007ED11120FFF792FA1420FDF7ABFFD02072
:102AA000FFF78CFA0720FFF77DFA4220FFF77AFA4A
:102AB0001D20FFF777FAD120FFF780FA0020FFF7FB
:102AC00071FA1A20FFF76EFA0920FFF76BFAD2208D
:102AD000FFF774FA0120FFF765FA2220FFF762FA88
:102AE000C020FFF76BFA1020FFF75CFA3B20FFF7DE
:102AF00059FA0020FFF756FA0220FFF753FA112087
:102B0000FFF750FAC520FFF759FA0320FFF74AFAFA
:102B1000C820FFF753FA0020FFF744FA2520FFF7FB
:102B200041FA2120FFF73EFA0520FFF73BFA00208B
:102B3000FFF738FA0A20FFF735FA6520FFF732FA77
:102B40002520FFF72FFA7720FFF72CFA5020FFF708
:102B500029FA0F20FFF726FA0020FFF723FAF820C2
:102B6000FFF72CFA0120FFF71DFAFE20FFF726FAE7
:102B70000020FFF717FA0220FFF714FA2020FFF7D2
:102B80001DFA3620FFF71AFA0820FFF70BFA00E0CB
:102B90002AE03A20FFF712FA5520FFF703FA2B201C
:102BA000FFF70CFA0020FFF7FDF90020FFF7FAF914
:102BB0000120FFF7F7F93F20FFF7F4F92A20FFF78C
:102BC000FDF90020FFF7EEF90020FFF7EBF90120F7
:102BD000FFF7E8F9DF20FFF7E5F97820FDF70AFFB6
:102BE0002920FFF7EBF980E63F48808845F2103155
:102BF000884240F07C87ED20FFF7E0F90120FFF7E5
:102C0000D1F9FE20FFF7CEF9EE20FFF7D7F9DE204D
:102C1000FFF7C8F92120FFF7C5F9F120FFF7CEF93A
:102C20000120FFF7BFF9DF20FFF7C8F91020FFF7F9
:102C3000B9F9C420FFF7C2F98F20FFF7B3F9C62016
:102C4000FFF7BCF90020FFF7ADF9E220FFF7AAF982
:102C5000E220FFF7A7F9E220FFF7A4F9BF20FFF772
:102C6000ADF9AA20FFF79EF9B020FFF7A7F90D20D4
:102C7000FFF798F90020FFF795F90D20FFF792F97B
:102C80000020FFF78FF91120FFF78CF90020FFF7E4
:102C900089F91920FFF786F90020FFF783F9212031
:102CA000FFF780F90020FFF77DF92D20FFF77AF973
:102CB0000020FFF777F93D20FFF774F90020FFF7B8
:102CC00071F95D20FFF76EF90020FFF76BF95D20C9
:102CD000FFF768F90020FFF765F9B120FFF76EF9FB
:102CE0008020FFF75FF901E0DE0000200020FFF701
:102CF00059F98B20FFF756F90020FFF753F996207A
:102D0000FFF750F90020FFF74DF9B220FFF756F911
:102D10000020FFF747F90020FFF744F90220FFF7F2
:102D200041F90020FFF73EF90320FFF73BF90020AF
:102D3000FFF738F9B320FFF741F90020FFF732F928
:102D40000020FFF72FF90020FFF72CF90020FFF7F4
:102D500029F90020FFF726F90020FFF723F90020CA
:102D6000FFF720F90020FFF71DF90020FFF71AF9FF
:102D70000020FFF717F90020FFF714F90020FFF7F4
:102D800011F90020FFF70EF90020FFF70BF90020E2
:102D9000FFF708F90020FFF705F90020FFF702F917
:102DA0000020FFF7FFF80020FFF7FCF80020FFF7F6
:102DB000F9F80020FFF7F6F80020FFF7F3F80020FD
:102DC000FFF7F0F80020FFF7EDF8B420FFF7F6F872
:102DD0008B20FFF7E7F80020FFF7E4F89620FFF7D5
:102DE000E1F80020FFF7DEF8A120FFF7DBF8002074
:102DF000FFF7D8F8B520FFF7E1F80220FFF7D2F887
:102E00000020FFF7CFF80320FFF7CCF80020FFF7F2
:102E1000C9F80420FFF7C6F80020FFF7C3F8B62072
:102E2000FFF7CCF80020FFF7BDF80020FFF7BAF855
:102E3000B720FFF7C3F80020FFF7B4F80020FFF732
:102E4000B1F83F20FFF7AEF80020FFF7ABF85E20A7
:102E5000FFF7A8F80020FFF7A5F86420FFF7A2F815
:102E60000020FFF79FF88C20FFF79CF80020FFF769
:102E700099F8AC20FFF796F80020FFF793F8DC20D4
:102E8000FFF790F80020FFF78DF87020FFF78AF821
:102E90000020FFF787F89020FFF784F80020FFF765
:102EA00081F8EB20FFF77EF80020FFF77BF8DC20AD
:102EB000FFF778F80020FFF775F8B820FFF77EF8E5
:102EC0000020FFF76FF80020FFF76CF80020FFF7F5
:102ED00069F80020FFF766F80020FFF763F800208C
:102EE000FFF760F80020FFF75DF80020FFF75AF8C1
:102EF000BA20FFF763F82420FFF754F80020FFF70B
:102F000051F80020FFF74EF80020FFF74BF8C120E2
:102F1000FFF754F82020FFF745F80020FFF742F8AC
:102F20005420FFF73FF80020FFF73CF8FF20FFF7A1
:102F300039F80020FFF736F8C220FFF73FF80A20E3
:102F4000FFF730F80020FFF72DF80420FFF72AF8EC
:102F50000020FFF727F8C320FFF730F83C20FFF7E9
:102F600021F80020FFF71EF83A20FFF71BF8002099
:102F7000FFF718F83920FFF715F80020FFF712F8CF
:102F80003720FFF70FF80020FFF70CF83C20FFF781
:102F900009F80020FFF706F83620FFF703F80020B5
:102FA000FFF700F83220FEF7FDFF0020FEF7FAFFE2
:102FB0002F20FEF7F7FF0020FEF7F4FF2C20FEF78E
:102FC000F1FF0020FEF7EEFF2920FEF7EBFF0020C7
:102FD000FEF7E8FF2620FEF7E5FF0020FEF7E2FF00
:102FE0002420FEF7DFFF0020FEF7DCFF2420FEF7A1
:102FF000D9FF0020FEF7D6FF2320FEF7D3FF0020E5
:10300000FEF7D0FF3C20FEF7CDFF0020FEF7CAFF01
:103010003620FEF7C7FF0020FEF7C4FF3220FEF780
:10302000C1FF0020FEF7BEFF2F20FEF7BBFF0020F0
:10303000FEF7B8FF2C20FEF7B5FF0020FEF7B2FF29
:103040002920FEF7AFFF0020FEF7ACFF2620FEF799
:10305000A9FF0020FEF7A6FF2420FEF7A3FF002013
:10306000FEF7A0FF2420FEF79DFF0020FEF79AFF49
:103070002320FEF797FF0020FEF794FFC420FEF701
:103080009DFF6220FEF78EFF0020FEF78BFF0520DC
:10309000FEF788FF0020FEF785FF8420FEF782FF01
:1030A0000020FEF77FFFF020FEF77CFF0020FEF7F8
:1030B00079FF1820FEF776FF0020FEF773FFA420AB
:1030C000FEF770FF0020FEF76DFF1820FEF76AFF85
:1030D0000020FEF767FF5020FEF764FF0020FEF798
:1030E00061FF0C20FEF75EFF0020FEF75BFF17205C
:1030F000FEF758FF0020FEF755FF9520FEF752FF20
:103100000020FEF74FFFF320FEF74CFF0020FEF7F4
:1031100049FFE620FEF746FF0020FEF743FFC520EB
:10312000FEF74CFF3220FEF73DFF0020FEF73AFF8E
:103130004420FEF737FF0020FEF734FF6520FEF73E
:1031400031FF0020FEF72EFF7620FEF72BFF002038
:10315000FEF728FF8820FEF725FF0020FEF722FF5C
:10316000C620FEF72BFF2020FEF71CFF0020FEF7F5
:1031700019FF1720FEF716FF0020FEF713FF0120AE
:10318000FEF710FF0020FEF70DFFC720FEF716FF29
:103190000020FEF707FF0020FEF704FF0020FEF7E7
:1031A00001FF0020FEF7FEFEC820FEF707FF00200B
:1031B000FEF7F8FE0020FEF7F5FE0020FEF7F2FE17
:1031C0000020FEF7EFFEC920FEF7F8FE0020FEF714
:1031D000E9FE0020FEF7E6FE0020FEF7E3FE0020F9
:1031E000FEF7E0FE0020FEF7DDFE0020FEF7DAFE2F
:1031F0000020FEF7D7FE0020FEF7D4FE0020FEF7E9
:10320000D1FE0020FEF7CEFE0020FEF7CBFE002010
:10321000FEF7C8FE0020FEF7C5FE0020FEF7C2FE46
:103220000020FEF7BFFE0020FEF7BCFEE020FEF708
:10323000C5FE1620FEF7B6FE0020FEF7B3FE1C20EA
:10324000FEF7B0FE0020FEF7ADFE2120FEF7AAFE3D
:103250000020FEF7A7FE3620FEF7A4FE0020FEF7B2
:10326000A1FE4620FEF79EFE0020FEF79BFE5220A8
:10327000FEF798FE0020FEF795FE6420FEF792FE12
:103280000020FEF78FFE7A20FEF78CFE0020FEF76E
:1032900089FE8B20FEF786FE0020FEF783FE992034
:1032A000FEF780FE0020FEF77DFEA820FEF77AFEE6
:1032B0000020FEF777FEB920FEF774FE0020FEF72F
:1032C00071FEC420FEF76EFE0020FEF76BFECA20E2
:1032D000FEF768FE0020FEF765FED220FEF762FED4
:1032E0000020FEF75FFED920FEF75CFE0020FEF70F
:1032F00059FEE020FEF756FE0020FEF753FEF320B5
:10330000FEF750FE0020FEF74DFEE120FEF756FED0
:103310001620FEF747FE0020FEF744FE1C20FEF7B5
:1033200041FE0020FEF73EFE2220FEF73BFE00207D
:10333000FEF738FE3620FEF735FE0020FEF732FE9F
:103340004520FEF72FFE0020FEF72CFE5220FEF750
:1033500029FE0020FEF726FE6420FEF723FE002053
:10336000FEF720FE7A20FEF71DFE0020FEF71AFE73
:103370008B20FEF717FE0020FEF714FE9920FEF7C3
:1033800011FE0020FEF70EFEA820FEF70BFE002027
:10339000FEF708FEB920FEF705FE0020FEF702FE4C
:1033A000C420FEF7FFFD0020FEF7FCFDCA20FEF75B
:1033B000F9FD0020FEF7F6FDD220FEF7F3FD002018
:1033C000FEF7F0FDD820FEF7EDFD0020FEF7EAFD48
:1033D000E020FEF7E7FD0020FEF7E4FDF320FEF716
:1033E000E1FD0020FEF7DEFDE220FEF7E7FD05200F
:1033F000FEF7D8FD0020FEF7D5FD0B20FEF7D2FD2D
:103400000020FEF7CFFD1B20FEF7CCFD0020FEF7CD
:10341000C9FD3420FEF7C6FD0020FEF7C3FD4420A1
:10342000FEF7C0FD0020FEF7BDFD4F20FEF7BAFD00
:103430000020FEF7B7FD6120FEF7B4FD0020FEF787
:10344000B1FD7920FEF7AEFD0020FEF7ABFD882030
:10345000FEF7A8FD0020FEF7A5FD9720FEF7A2FDD0
:103460000020FEF79FFDA620FEF79CFD0020FEF742
:1034700099FDB720FEF796FD0020FEF793FDC220D0
:10348000FEF790FD0020FEF78DFDC720FEF78AFDB8
:103490000020FEF787FDD120FEF784FD0020FEF717
:1034A00081FDD620FEF77EFD0020FEF77BFDDD20AE
:1034B000FEF778FD0020FEF775FDF320FEF772FDA4
:1034C0000020FEF76FFDE320FEF778FD0520FEF7F4
:1034D00069FD0020FEF766FD0A20FEF763FD00206F
:1034E000FEF760FD1C20FEF75DFD0020FEF75AFD93
:1034F0003320FEF757FD0020FEF754FD4420FEF771
:1035000051FD0020FEF74EFD5020FEF74BFD002040
:10351000FEF748FD6220FEF745FD0020FEF742FD64
:103520007820FEF73FFD0020FEF73CFD8820FEF7E7
:1035300039FD0020FEF736FD9720FEF733FD002011
:10354000FEF730FDA620FEF72DFD0020FEF72AFD38
:10355000B720FEF727FD0020FEF724FDC220FEF76E
:1035600021FD0020FEF71EFDC720FEF71BFD0020F9
:10357000FEF718FDD120FEF715FD0020FEF712FD25
:10358000D520FEF70FFD0020FEF70CFDDD20FEF735
:1035900009FD0020FEF706FDF320FEF703FD0020E5
:1035A000FEF700FDE420FEF709FD0120FEF7FAFC1E
:1035B0000020FEF7F7FC0120FEF7F4FC0020FEF7E8
:1035C000F1FC0220FEF7EEFC0020FEF7EBFC2A20C7
:1035D000FEF7E8FC0020FEF7E5FC3C20FEF7E2FCED
:1035E0000020FEF7DFFC4B20FEF7DCFC0020FEF79E
:1035F000D9FC5D20FEF7D6FC0020FEF7D3FC74203A
:10360000FEF7D0FC0020FEF7CDFC8420FEF7CAFCBC
:103610000020FEF7C7FC9320FEF7C4FC0020FEF755
:10362000C1FCA220FEF7BEFC0020FEF7BBFCB320CD
:10363000FEF7B8FC0020FEF7B5FCBE20FEF7B2FC9A
:103640000020FEF7AFFCC420FEF7ACFC0020FEF724
:10365000A9FCCD20FEF7A6FC0020FEF7A3FCD3209A
:10366000FEF7A0FC0020FEF79DFCDD20FEF79AFC93
:103670000020FEF797FCF320FEF794FC0020FEF7F5
:1036800091FCE520FEF79AFC0020FEF78BFC002061
:10369000FEF788FC0020FEF785FC0020FEF782FC88
:1036A0000220FEF77FFC0020FEF77CFC2920FEF7BD
:1036B00079FC0020FEF776FC3C20FEF773FC00202E
:1036C000FEF770FC4B20FEF76DFC0020FEF76AFC55
:1036D0005D20FEF767FC0020FEF764FC7420FEF717
:1036E00061FC0020FEF75EFC8420FEF75BFC0020FE
:1036F000FEF758FC9320FEF755FC0020FEF752FC25
:10370000A220FEF74FFC0020FEF74CFCB320FEF792
:1037100049FC0020FEF746FCBE20FEF743FC0020DB
:10372000FEF740FCC420FEF73DFC0020FEF73AFC0B
:10373000CD20FEF737FC0020FEF734FCD320FEF747
:1037400031FC0020FEF72EFCDC20FEF72BFC0020D5
:10375000FEF728FCF320FEF725FC0020FEF722FCF4
:10376000E620FEF72BFC1120FEF71CFC0020FEF7E4
:1037700019FC3420FEF716FC0020FEF713FC56203F
:10378000FEF710FC0020FEF70DFC7620FEF70AFC89
:103790000020FEF707FC7720FEF704FC0020FEF770
:1037A00001FC6620FEF7FEFB0020FEF7FBFB8820F5
:1037B000FEF7F8FB0020FEF7F5FB9920FEF7F2FB81
:1037C0000020FEF7EFFBBB20FEF7ECFB0020FEF72E
:1037D000E9FB9920FEF7E6FB0020FEF7E3FB6620FD
:1037E000FEF7E0FB0020FEF7DDFB5520FEF7DAFBDD
:1037F0000020FEF7D7FB5520FEF7D4FB0020FEF794
:10380000D1FB4520FEF7CEFB0020FEF7CBFB43208B
:10381000FEF7C8FB0020FEF7C5FB4420FEF7C2FB05
:103820000020FEF7BFFBE720FEF7C8FB3220FEF7C3
:10383000B9FB0020FEF7B6FB5520FEF7B3FB0020D6
:10384000FEF7B0FB7620FEF7ADFB0020FEF7AAFBEB
:103850006620FEF7A7FB0020FEF7A4FB6720FEF71B
:10386000A1FB0020FEF79EFB6720FEF79BFB0020DC
:10387000FEF798FB8720FEF795FB0020FEF792FBF2
:103880009920FEF78FFB0020FEF78CFBBB20FEF794
:1038900089FB0020FEF786FB9920FEF783FB0020C2
:1038A000FEF780FB7720FEF77DFB0020FEF77AFB1A
:1038B0004420FEF777FB0020FEF774FB5620FEF74E
:1038C00071FB0020FEF76EFB2320FEF76BFB002050
:1038D000FEF768FB3320FEF765FB0020FEF762FB76
:1038E0004520FEF75FFB0020FEF75CFBE820FEF7BB
:1038F00065FB0020FEF756FB0020FEF753FB9920E6
:10390000FEF750FB0020FEF74DFB8720FEF74AFB39
:103910000020FEF747FB8820FEF744FB0020FEF75F
:1039200041FB7720FEF73EFB0020FEF73BFB6620C5
:10393000FEF738FB0020FEF735FB8820FEF732FB50
:103940000020FEF72FFBAA20FEF72CFB0020FEF73D
:1039500029FBBB20FEF726FB0020FEF723FB992066
:10396000FEF720FB0020FEF71DFB6620FEF71AFB8A
:103970000020FEF717FB5520FEF714FB0020FEF792
:1039800011FB5520FEF70EFB0020FEF70BFB442039
:10399000FEF708FB0020FEF705FB4420FEF702FBC4
:1039A0000020FEF7FFFA5520FEF7FCFA0020FEF794
:1039B000F9FAE920FEF702FBAA20FEF7F3FA00204D
:1039C000FEF7F0FA0020FEF7EDFA0020FEF7EAFA23
:1039D0000020FEF7F3FAAA20FEF7E4FACF20FEF764
:1039E000EDFA0020FEF7DEFA0020FEF7DBFA0020F9
:1039F000FEF7D8FA0020FEF7D5FA0020FEF7D2FA3B
:103A00000020FEF7CFFA0020FEF7CCFA0020FEF7E8
:103A1000C9FA0020FEF7C6FA0020FEF7C3FA00201C
:103A2000FEF7C0FA0020FEF7BDFA0020FEF7BAFA52
:103A30000020FEF7B7FA0020FEF7B4FA0020FEF7E8
:103A4000B1FA0020FEF7AEFAF020FEF7B7FA002038
:103A5000FEF7A8FA5020FEF7A5FA0020FEF7A2FA1A
:103A60000020FEF79FFA0020FEF79CFAF320FEF7F5
:103A7000A5FA0020FEF796FAF920FEF79FFA062035
:103A8000FEF790FA1020FEF78DFA2920FEF78AFA49
:103A90000020FEF787FA3A20FEF790FA5520FEF74D
:103AA00081FA1120FEF78AFA6420FCF7A3FF29208F
:103AB000FEF784FA3520FEF781FA0020FEF772FA4D
:103AC0005120FEF77BFAFF20FEF76CFA5320FEF739
:103AD00075FA2C20FEF766FA5520FEF76FFA822061
:103AE000FEF760FA2C20FEF769FA02F0E9B8FE480A
:103AF000808845F2105188427ED155214FF47040A4
:103B0000FEF772FAAA214FF20100FEF76DFA522178
:103B10004FF20200FEF768FA08214FF20300FEF7A9
:103B200063FA01214FF20400FEF75EFA0D214FF413
:103B30003040FEF759FA0D214BF20100FEF754FA1E
:103B40000D214BF20200FEF74FFA34214FF43640BC
:103B5000FEF74AFA34214BF20160FEF745FA3421B0
:103B60004BF20260FEF740FA0D214FF43140FEF7B0
:103B70003BFA0D214BF20110FEF736FA0D214BF204
:103B80000210FEF731FA34214FF43740FEF72CFAD9
:103B900034214BF20170FEF727FA34214BF2027008
:103BA000FEF722FA00214FF43240FEF71DFA002101
:103BB0004BF20120FEF718FA00214BF20220FEF72B
:103BC00013FA24214FF43840FEF70EFA24214BF665
:103BD0000100FEF709FA24214BF60200FEF704FA71
:103BE00001214FF43F40FEF7FFF90F214FF433401E
:103BF000FEF7FAF90F2100E0FEE34BF20130FEF789
:103C0000F3F90F214BF20230FEF7EEF934214FF4B5
:103C10003940FEF7E9F934214BF60110FEF7E4F9DB
:103C200034214BF60210FEF7DFF908214FF435403E
:103C3000FEF7DAF908214BF20150FEF7D5F9082119
:103C40004BF20250FEF7D0F903214FF44240FEF749
:103C5000CBF924214FF43A40FEF7C6F924214BF664
:103C60000120FEF7C1F924214BF60220FEF7BCF932
:103C700000214FF43C40FEF7B7F978214BF60140A4
:103C8000FEF7B2F900214BF60240FEF7ADF9002134
:103C90004FF43D40FEF7A8F978214BF60150FEF7AE
:103CA000A3F900214BF60250FEF79EF900214FF4D4
:103CB0003E40FEF799F964214BF60160FEF794F956
:103CC00000214FF45140FEF78FF933214DF20110DE
:103CD000FEF78AF900214DF20210FEF785F9342132
:103CE0004DF20310FEF780F900214DF20410FEF7AB
:103CF0007BF93A214DF20510FEF776F900214DF2DD
:103D00000610FEF771F94A214DF20710FEF76CF923
:103D100000214DF20810FEF767F95C214DF2091001
:103D2000FEF762F900214DF20A10FEF75DF98121DC
:103D30004DF20B10FEF758F900214DF20C10FEF772
:103D400053F9A6214DF20D10FEF74EF900214DF268
:103D50000E10FEF749F9E5214DF20F10FEF744F978
:103D600001214DF21010FEF73FF913214DF2111011
:103D7000FEF73AF901214DF21210FEF735F9542100
:103D80004DF21310FEF730F901214DF21410FEF739
:103D90002BF982214DF21510FEF726F901214DF283
:103DA0001610FEF721F9CA214DF21710FEF71CF983
:103DB00002214DF21810FEF717F900214DF21910EB
:103DC000FEF712F902214DF21A10FEF70DF901214A
:103DD0004DF21B10FEF708F902214DF21C10FEF700
:103DE00003F934214DF21D10FEF7FEF802214DF2C9
:103DF0001E10FEF7F9F867214DF21F10FEF7F4F8D8
:103E000002214DF22010FEF7EFF884214DF221102F
:103E1000FEF7EAF802214DF22210FEF7E5F8A421A0
:103E20004DF22310FEF7E0F802214DF22410FEF7C8
:103E3000DBF8B7214DF22510FEF7D6F802214DF23E
:103E40002610FEF7D1F8CF214DF22710FEF7CCF85F
:103E500002214DF22810FEF7C7F8DE214DF229109D
:103E6000FEF7C2F802214DF22A10FEF7BDF8F2214A
:103E70004DF22B10FEF7B8F802214DF22C10FEF790
:103E8000B3F8FE214DF22D10FEF7AEF803214DF2EE
:103E90002E10FEF7A9F810214DF22F10FEF7A4F80E
:103EA00003214DF23010FEF79FF833214DF231100F
:103EB000FEF79AF803214DF23210FEF795F86D21C6
:103EC0004DF23310FEF790F800214FF45240FEF708
:103ED0008BF833214DF20120FEF786F800214DF2D8
:103EE0000220FEF781F801E0DE00002034214DF2CF
:103EF0000320FEF779F800214DF20420FEF774F854
:103F00003A214DF20520FEF76FF800214DF2062010
:103F1000FEF76AF84A214DF20720FEF765F8002106
:103F20004DF20820FEF760F85C214DF20920FEF703
:103F30005BF800214DF20A20FEF756F881214DF280
:103F40000B20FEF751F800214DF20C20FEF74CF843
:103F5000A6214DF20D20FEF747F800214DF20E206C
:103F6000FEF742F8E5214DF20F20FEF73DF8012162
:103F70004DF21020FEF738F813214DF21120FEF714
:103F800033F801214DF21220FEF72EF854214DF2A4
:103F90001320FEF729F801214DF21420FEF724F832
:103FA00082214DF21520FEF71FF801214DF2162057
:103FB000FEF71AF8CA214DF21720FEF715F8022174
:103FC0004DF21820FEF710F800214DF21920FEF7EF
:103FD0000BF802214DF21A20FEF706F801214DF2EE
:103FE0001B20FEF701F802214DF21C20FDF7FCFF1B
:103FF00034214DF21D20FDF7F7FF02214DF21E2066
:10400000FDF7F2FF67214DF21F20FDF7EDFF0221C2
:104010004DF22020FDF7E8FF84214DF22120FDF72D
:10402000E3FF02214DF22220FDF7DEFFA4214DF235
:104030002320FDF7D9FF02214DF22420FDF7D4FF04
:10404000B7214DF22520FDF7CFFF02214DF22620AA
:10405000FDF7CAFFCF214DF22720FDF7C5FF022152
:104060004DF22820FDF7C0FFDE214DF22920FDF79B
:10407000BBFF02214DF22A20FDF7B6FFF2214DF2DF
:104080002B20FDF7B1FF02214DF22C20FDF7ACFFF4
:10409000FE214DF22D20FDF7A7FF03214DF22E202A
:1040A000FDF7A2FF10214DF22F20FDF79DFF032108
:1040B0004DF23020FDF798FF33214DF23120FDF70E
:1040C00093FF03214DF23220FDF78EFF6D214DF25B
:1040D0003320FDF789FF00214FF45340FDF784FFA3
:1040E00033214DF20130FDF77FFF00214DF2023008
:1040F000FDF77AFF34214DF20330FDF775FF002103
:104100004DF20430FDF770FF3A214DF20530FDF716
:104110006BFF00214DF20630FDF766FF4A214DF29C
:104120000730FDF761FF00214DF20830FDF75CFF1D
:104130005C214DF20930FDF757FF00214DF20A30A6
:10414000FDF752FF81214DF20B30FDF74DFF0021AD
:104150004DF20C30FDF748FFA6214DF20D30FDF772
:1041600043FF00214DF20E30FDF73EFFE5214DF2F9
:104170000F30FDF739FF01214DF21030FDF734FF0C
:1041800013214DF21130FDF72FFF01214DF21230B6
:10419000FDF72AFF54214DF21330FDF725FF0121D1
:1041A0004DF21430FDF720FF82214DF21530FDF75E
:1041B0001BFF01214DF21630FDF716FFCA214DF20B
:1041C0001730FDF711FF02214DF21830FDF70CFFFB
:1041D00000214DF21930FDF707FF02214DF21A3090
:1041E000FDF702FF01214DF21B30FDF7FDFE02211C
:1041F0004DF21C30FDF7F8FE34214DF21D30FDF775
:10420000F3FE02214DF21E30FDF7EEFE67214DF266
:104210001F30FDF7E9FE02214DF22030FDF7E4FEEC
:1042200084214DF22130FDF7DFFE02214DF22230D4
:10423000FDF7DAFEA4214DF22330FDF7D5FE022171
:104240004DF22430FDF7D0FEB7214DF22530FDF7B9
:10425000CBFE02214DF22630FDF7C6FECF214DF2F6
:104260002730FDF7C1FE02214DF22830FDF7BCFEDC
:10427000DE214DF22930FDF7B7FE02214DF22A3042
:10428000FDF7B2FEF2214DF22B30FDF7ADFE02211B
:104290004DF22C30FDF7A8FEFE214DF22D30FDF73A
:1042A000A3FE03214DF22E30FDF79EFE10214DF2AC
:1042B0002F30FDF799FE03214DF23030FDF794FECB
:1042C00033214DF23130FDF78FFE03214DF23230B4
:1042D000FDF78AFE6D214DF23330FDF785FE00219A
:1042E0004FF45440FDF780FE33214DF20140FDF7BD
:1042F0007BFE00214DF20240FDF776FE34214DF2A7
:104300000340FDF771FE00214DF20440FDF76CFE05
:104310003A214DF20540FDF767FE00214DF20640BF
:10432000FDF762FE4A214DF20740FDF75DFE0021D8
:104330004DF20840FDF758FE5C214DF20940FDF7B3
:1043400053FE00214DF20A40FDF74EFE81214DF251
:104350000B40FDF749FE00214DF20C40FDF744FEF5
:10436000A6214DF20D40FDF73FFE00214DF20E401B
:10437000FDF73AFEE5214DF20F40FDF735FE012134
:104380004DF21040FDF730FE13214DF21140FDF7C4
:104390002BFE01214DF21240FDF726FE54214DF275
:1043A0001340FDF721FE01214DF21440FDF71CFEE4
:1043B00082214DF21540FDF717FE01214DF2164006
:1043C000FDF712FECA214DF21740FDF70DFE022146
:1043D0004DF21840FDF708FE00214DF21940FDF79F
:1043E00003FE02214DF21A40FDF7FEFD01214DF2C0
:1043F0001B40FDF7F9FD00E004E302214DF21C40F3
:10440000FDF7F2FD34214DF21D40FDF7EDFD0221D7
:104410004DF21E40FDF7E8FD67214DF21F40FDF70C
:10442000E3FD02214DF22040FDF7DEFD84214DF237
:104430002140FDF7D9FD02214DF22240FDF7D4FDC8
:10444000A4214DF22340FDF7CFFD02214DF224407F
:10445000FDF7CAFDB7214DF22540FDF7C5FD02214C
:104460004DF22640FDF7C0FDCF214DF22740FDF76C
:10447000BBFD02214DF22840FDF7B6FDDE214DF2D5
:104480002940FDF7B1FD02214DF22A40FDF7ACFDB8
:10449000F2214DF22B40FDF7A7FD02214DF22C40F9
:1044A000FDF7A2FDFE214DF22D40FDF79DFD0321FC
:1044B0004DF22E40FDF798FD10214DF22F40FDF7F3
:1044C00093FD03214DF23040FDF78EFD33214DF277
:1044D0003140FDF789FD03214DF23240FDF784FDA7
:1044E0006D214DF23340FDF77FFD00214FF4554023
:1044F000FDF77AFD33214DF20150FDF775FD0021E6
:104500004DF20250FDF770FD34214DF20350FDF7DE
:104510006BFD00214DF20450FDF766FD3A214DF28E
:104520000550FDF761FD00214DF20650FDF75CFDE1
:104530004A214DF20750FDF757FD00214DF208507A
:10454000FDF752FD5C214DF20950FDF74DFD0021B4
:104550004DF20A50FDF748FD81214DF20B50FDF759
:1045600043FD00214DF20C50FDF73EFDA6214DF21A
:104570000D50FDF739FD00214DF20E50FDF734FDD1
:10458000E5214DF20F50FDF72FFD01214DF21050A6
:10459000FDF72AFD13214DF21150FDF725FD0121F4
:1045A0004DF21250FDF720FD54214DF21350FDF74E
:1045B0001BFD01214DF21450FDF716FD82214DF235
:1045C0001550FDF711FD01214DF21650FDF70CFDC0
:1045D000CA214DF21750FDF707FD02214DF2185088
:1045E000FDF702FD00214DF21950FDF7FDFC0221FF
:1045F0004DF21A50FDF7F8FC01214DF21B50FDF76A
:10460000F3FC02214DF21C50FDF7EEFC34214DF27B
:104610001D50FDF7E9FC02214DF21E50FDF7E4FCB0
:1046200067214DF21F50FDF7DFFC02214DF22050B3
:10463000FDF7DAFC84214DF22150FDF7D5FC022173
:104640004DF22250FDF7D0FCA4214DF22350FDF78E
:10465000CBFC02214DF22450FDF7C6FCB7214DF2F0
:104660002550FDF7C1FC02214DF22650FDF7BCFCA0
:10467000CF214DF22750FDF7B7FC02214DF2285013
:10468000FDF7B2FCDE214DF22950FDF7ADFC022111
:104690004DF22A50FDF7A8FCF2214DF22B50FDF708
:1046A000A3FC02214DF22C50FDF79EFCFE214DF2A1
:1046B0002D50FDF799FC03214DF22E50FDF794FC8F
:1046C00010214DF22F50FDF78FFC03214DF2305099
:1046D000FDF78AFC33214DF23150FDF785FC0321B3
:1046E0004DF23250FDF780FC6D214DF23350FDF755
:1046F0007BFC00214FF45640FDF776FC33214DF250
:104700000160FDF771FC00214DF20260FDF76CFCC9
:1047100034214DF20360FDF767FC00214DF2046087
:10472000FDF762FC3A214DF20560FDF75DFC0021CA
:104730004DF20660FDF758FC4A214DF20760FDF787
:1047400053FC00214DF20860FDF74EFC5C214DF258
:104750000960FDF749FC00214DF20A60FDF744FCB9
:1047600081214DF20B60FDF73FFC00214DF20C6002
:10477000FDF73AFCA6214DF20D60FDF735FC002156
:104780004DF20E60FDF730FCE5214DF20F60FDF7B4
:104790002BFC01214DF21060FDF726FC13214DF298
:1047A0001160FDF721FC01214DF21260FDF71CFCA8
:1047B00054214DF21360FDF717FC01214DF21460F6
:1047C000FDF712FC82214DF21560FDF70DFC012171
:1047D0004DF21660FDF708FCCA214DF21760FDF797
:1047E00003FC02214DF21860FDF7FEFB00214DF2A3
:1047F0001960FDF7F9FB02214DF21A60FDF7F4FB99
:1048000001214DF21B60FDF7EFFB02214DF21C6010
:10481000FDF7EAFB34214DF21D60FDF7E5FB0221B7
:104820004DF21E60FDF7E0FB67214DF21F60FDF7C2
:10483000DBFB02214DF22060FDF7D6FB84214DF217
:104840002160FDF7D1FB02214DF22260FDF7CCFB88
:10485000A4214DF22360FDF7C7FB02214DF2246035
:10486000FDF7C2FBB7214DF22560FDF7BDFB02212C
:104870004DF22660FDF7B8FBCF214DF22760FDF722
:10488000B3FB02214DF22860FDF7AEFBDE214DF2B5
:104890002960FDF7A9FB02214DF22A60FDF7A4FB78
:1048A000F2214DF22B60FDF79FFB02214DF22C60AF
:1048B000FDF79AFBFE214DF22D60FDF795FB0321DC
:1048C0004DF22E60FDF790FB10214DF22F60FDF7A9
:1048D0008BFB03214DF23060FDF786FB33214DF257
:1048E0003160FDF781FB03214DF23260FDF77CFB67
:1048F0006D214DF23360FDF777FB55214FF4704089
:10490000FDF772FBAA214FF20100FDF76DFB52216A
:104910004FF20200FDF768FB08214FF20300FDF79C
:1049200063FB00214FF20400FDF75EFBCC214FF446
:104930003140FDF759FB00214BF20110FDF754FB0C
:1049400005214FF43640FDF74FFB70214FF43740FF
:10495000FDF74AFB70214BF20170FDF745FB012189
:104960004FF43840FDF740FB03214BF60100FDF703
:104970003BFB03214BF60200FDF736FB03214BF610
:104980000300FDF731FB02214FF43C40FDF72CFB07
:1049900000214BF60140FDF727FB00214BF60240BA
:1049A000FDF722FBD0214FF44940FDF71DFB02210A
:1049B0004CF60110FDF718FB50214CF60210FDF7E4
:1049C00013FB50214CF60310FDF70EFB50214CF663
:1049D0000410FDF709FB00214FF45450FDF704FBD0
:1049E00055214FF46850FDF7FFFA4FF48850FDF75A
:1049F000E5FA7820FCF758F84FF42450FDF7DEFA7A
:104A000001F05EB9FE48808849F2253188427DD1A7
:104A100047F6F001E520FDF7E7FA4FF48071012039
:104A2000FDF7E2FA4FF4E0610220FDF7DDFA41F212
:104A300030010320FDF7D8FA00210420FDF7D4FA55
:104A400040F202210820FDF7CFFA00210920FDF7EE
:104A5000CBFA00210A20FDF7C7FA00210C20FDF750
:104A6000C3FA00210D20FDF7BFFA00210F20FDF74A
:104A7000BBFA00211020FDF7B7FA07211120FDF73E
:104A8000B3FA00211220FDF7AFFA00211320FDF741
:104A9000ABFA00210720FDF7A7FA41F29061102040
:104AA000FDF7A2FA40F227211120FDF79DFA9D2182
:104AB0001220FDF799FA4FF4C8511320FDF794FA2C
:104AC00025212920FDF790FA0D212B20FDF78CFAE6
:104AD00007213020FDF788FA40F203313120FDF73D
:104AE00083FA03213220FDF77FFA40F206213520B8
:104AF000FDF77AFA08213620FDF776FA40F20641F2
:104B00003720FDF771FA4FF4417100E058E038208A
:104B1000FDF76AFA07213920FDF766FA40F20261D3
:104B20003C20FDF761FA08213D20FDF75DFA0021E8
:104B30005020FDF759FAEF215120FDF755FA0021D9
:104B40005220FDF751FA40F23F115320FDF74CFA85
:104B50004FF427416020FDF747FA01216120FDF75E
:104B600043FA00216A20FDF73FFA00218020FDF77B
:104B70003BFA00218120FDF737FA00218220FDF762
:104B800033FA00218320FDF72FFA00218420FDF75E
:104B90002BFA00218520FDF727FA10219020FDF740
:104BA00023FA4FF4C0619220FDF71EFA40F2331150
:104BB0000720FDF719FA22210020FDF715FA1FE75B
:104BC0008F48808849F2283188427DD141F28F0197
:104BD000EC20FDF709FA41F23421EF20FDF704FA49
:104BE0004FF480710120FDF7FFF94FF4E0610220DE
:104BF000FDF7FAF941F230010320FDF7F5F9002144
:104C00000420FDF7F1F940F202210820FDF7ECF94C
:104C100000210920FDF7E8F900210A20FDF7E4F959
:104C200001210C20FDF7E0F900210D20FDF7DCF952
:104C300000210F20FDF7D8F900211020FDF7D4F94D
:104C400007211120FDF7D0F900211220FDF7CCF942
:104C500000211320FDF7C8F901210720FDF7C4F951
:104C60003220FBF7C7FE41F290411020FDF7BCF95E
:104C700040F227211120FDF7B7F93220FBF7BAFEE9
:104C80008A211220FDF7B0F93220FBF7B3FE4FF472
:104C9000D0511320FDF7A8F906212920FDF7A4F92A
:104CA0000D212B20FDF7A0F93220FBF7A3FE0021F8
:104CB0002020FDF799F900212120FDF795F93220F8
:104CC000FBF798FE002100E075E03020FDF78CF93D
:104CD00040F204613120FDF787F940F205313220BE
:104CE000FDF782F900213520FDF77EF940F60941F4
:104CF0003620FDF779F94FF401713720FDF774F98B
:104D000040F201313820FDF76FF940F20771392088
:104D1000FDF76AF900213C20FDF766F940F60A210B
:104D20003D20FDF761F93220FBF764FE00215020A1
:104D3000FDF75AF9EF215120FDF756F900215220D5
:104D4000FDF752F940F23F115320FDF74DF94FF4B2
:104D500027416020FDF748F901216120FDF744F962
:104D600000216A20FDF740F900218020FDF73CF981
:104D700000218120FDF738F900218220FDF734F968
:104D800000218320FDF730F900218420FDF72CF964
:104D900000218520FDF728F910219020FDF724F946
:104DA0004FF4C0619220FDF71FF940F23311072044
:104DB000FDF71AF924E61248808849F2203188422A
:104DC0007ED100210846FDF70FF94FF480710120D4
:104DD000FDF70AF94FF4E0610220FDF705F941F211
:104DE00030010320FDF700F900210420FDF7FCF855
:104DF00040F202210820FDF7F7F80021092001E028
:104E0000DE000020FDF7F0F800210A20FDF7ECF8A5
:104E100001210C20FDF7E8F800210D20FDF7E4F852
:104E200000210F20FDF7E0F83220FBF7E3FD40F210
:104E300001110720FDF7D8F83220FBF7DBFD4FF416
:104E400086511020FDF7D0F807211120FDF7CCF88E
:104E50004FF488711220FDF7C7F84FF4306113202A
:104E6000FDF7C2F800212920FDF7BEF844F2100139
:104E70002B20FDF7B9F800215020FDF7B5F8EF2100
:104E80005120FDF7B1F800215220FDF7ADF840F2B6
:104E90003F115320FDF7A8F84FF41C516020FDF797
:104EA000A3F801216120FDF79FF800216A20FDF79A
:104EB0009BF800218020FDF797F80021812000E079
:104EC00030E0FDF791F800218220FDF78DF80021F8
:104ED0008320FDF789F800218420FDF785F8002163
:104EE0008520FDF781F810219020FDF77DF8002145
:104EF0009220FDF779F801219320FDF775F84FF422
:104F000088719520FDF770F800219720FDF76CF867
:104F100000219820FDF768F840F273110720FDF793
:104F200063F86DE5FE48808849F2313188427DD1D1
:104F300041F21401E720FDF757F84FF4807101208A
:104F4000FDF752F84FF400710220FDF74DF841F2E1
:104F500038010320FDF748F840F202210820FDF750
:104F600043F800210920FDF73FF800210A20FDF752
:104F70003BF800210C20FDF737F800210D20FDF74C
:104F800033F800210F20FDF72FF800211020FDF746
:104F90002BF807211120FDF727F800211220FDF73B
:104FA00023F800211320FDF71FF8C820FBF722FD8E
:104FB00041F290611020FDF717F840F227211120EF
:104FC000FDF712F83220FBF715FD0C211220FDF73A
:104FD0000BF83220FBF70EFD4FF400611320FDF7B4
:104FE00003F811212920FCF7FFFF0B212B20FCF7F0
:104FF000FBFF3220FBF7FEFC00212020FCF7F4FF32
:1050000040F23F112120FCF7EFFF00213020FCF798
:10501000EBFF4FF483713120FCF7E6FF00213220D3
:10502000FCF7E2FF4FF40171352000E064E0FCF78B
:10503000DBFF41F20A613620FCF7D6FF40F2077130
:105040003720FCF7D1FF4FF483713820FCF7CCFFF9
:1050500040F207713920FCF7C7FF40F202413C20C3
:10506000FCF7C2FF40F60F413D20FCF7BDFF0021D9
:105070005020FCF7B9FFEF215120FCF7B5FF0021CC
:105080005220FCF7B1FF40F23F115320FCF7ACFF78
:105090004FF41C516020FCF7A7FF01216120FCF7B1
:1050A000A3FF00216A20FCF79FFF00218020FCF76E
:1050B0009BFF00218120FCF797FF00218220FCF755
:1050C00093FF00218320FCF78FFF00218420FCF751
:1050D0008BFF00218520FCF787FF10219020FCF733
:1050E00083FF4FF4C0619220FCF77EFF40F2331142
:1050F0000720FCF779FF83E48948808845F208415E
:1051000088427DD14FF480710120FCF76DFF4FF490
:10511000E0610220FCF768FF41F230010320FCF758
:1051200063FF00210420FCF75FFF40F20721082005
:10513000FCF75AFF00210920FCF756FF00210A2046
:10514000FCF752FF00210C20FCF74EFF00210D2040
:10515000FCF74AFF00210F20FCF746FF1420FBF765
:1051600049FC41F2B0611020FCF73EFF0121112003
:10517000FCF73AFF01211720FCF736FF4FF49C7132
:105180001220FCF731FF4FF400611320FCF72CFFD5
:1051900009212920FCF728FF09212A20FCF724FFF8
:1051A0000021A420FCF720FF00215020FCF71CFF69
:1051B000EF215120FCF718FF00215220FCF714FFCB
:1051C00040F23F115320FCF70FFF4FF41C516020B9
:1051D000FCF70AFF01216120FCF706FF00216A208D
:1051E000FCF702FF00218020FCF7FEFE0021812059
:1051F000FCF7FAFE00218220FCF7F6FE002100E019
:1052000024E08320FCF7F0FE00218420FCF7ECFE74
:1052100000218520FCF7E8FE13219020FCF7E4FE36
:1052200000219220FCF7E0FE03219320FCF7DCFE36
:105230004FF488719520FCF7D7FE40F273110720D8
:10524000FCF7D2FE3220FBF7D5FBB8E43448808867
:1052500041F2055188427DD100210720FCF7C4FEB0
:105260003220FBF7C7FB4FF48E711220FCF7BCFE17
:105270000121A420FCF7B8FE0F210820FCF7B4FEA2
:1052800008210A20FCF7B0FE08210D20FCF7ACFE37
:1052900040F207713020FCF7A7FE07213120FCF710
:1052A000A3FE40F203613220FCF79EFE4FF4E06162
:1052B0003320FCF799FE40F202213420FCF794FEE3
:1052C00002213520FCF790FE41F60F713620FCF7E5
:1052D0008BFE40F207713720FCF786FE0021382054
:1052E000FCF782FE00213920FCF77EFE40F20771B8
:1052F0003A20FCF779FE00213B20FCF775FE0721E0
:105300003C20FCF771FE00213D20FCF76DFE3220B1
:10531000FBF770FB01210720FCF766FE012101E08D
:10532000DE0000201720FCF75FFE3220FBF762FB57
:105330004FF4BD511020FCF757FE40F21721112009
:10534000FCF752FE4FF48F711220FCF74DFE4FF424
:10535000706100E098E01320FCF746FE00212A204F
:10536000FCF742FE0A212920FCF73EFE4FF49F7114
:105370001220FCF739FE00215020FCF735FEEF210A
:105380005120FCF731FE00215220FCF72DFE40F2A7
:105390003F115320FCF728FE4FF41C516020FCF70E
:1053A00023FE01216120FCF71FFE00216A20FCF78B
:1053B0001BFE00218020FCF717FE00218120FCF756
:1053C00013FE00218220FCF70FFE00218320FCF752
:1053D0000BFE00218420FCF707FE00218520FCF74E
:1053E00003FE13219020FCF7FFFD4FF44071922043
:1053F000FCF7FAFD05219320FCF7F6FD002195202E
:10540000FCF7F2FD00219720FCF7EEFD002198202B
:10541000FCF7EAFD4FF480710120FCF7E5FD4FF445
:10542000E0610220FCF7E0FD41F238010320FCF7C7
:10543000DBFD00210420FCF7D7FD00210C20FCF748
:10544000D3FD00210F20FCF7CFFD00212020FCF729
:10545000CBFD00212120FCF7C7FD21210720FCF70F
:10546000C3FD1420FBF7C6FA61210720FCF7BCFD41
:105470001420FBF7BFFA40F273110720FCF7B4FDCC
:105480001420FBF7B7FA95E4FE4880884BF20551EB
:1054900088427CD100210846FCF7A6FD0021084681
:1054A000FCF7A2FD00210846FCF79EFD00210846FE
:1054B000FCF79AFD0121A420FCF796FD1420FBF7D0
:1054C00099FA4FF41C516020FCF78EFD40F2022146
:1054D0000820FCF789FD4FF405713020FCF784FDAE
:1054E00043F215713120FCF77FFD40F20461322058
:1054F000FCF77AFD40F616613320FCF775FD42F2A9
:1055000011213420FCF770FD4FF4A8513520FCF731
:105510006BFD48F207513620FCF766FD41F207416A
:105520003720FCF761FD41F203413820FCF75CFDB8
:1055300020213920FCF758FD1A219020FCF754FD5A
:1055400000211020FCF750FD07211120FCF74CFD35
:1055500000211220FCF748FD00211320FCF744FD38
:105560001420FBF747FA4FF4E6611020FCF73CFDEE
:1055700040F237111120FCF737FD1420FBF73AFAFF
:105580004FF4DC711220FCF72FFD142000E085E0C1
:10559000FBF730FA4FF470611320FCF725FD8021F2
:1055A0002A20FCF721FD48212920FCF71DFD1420AD
:1055B000FBF720FA4FF480710120FCF715FD4FF442
:1055C000E0610220FCF710FD41F238010320FCF7F6
:1055D0000BFD40F202210820FCF706FD00210A2005
:1055E000FCF702FD00210C20FCF7FEFC00210D2041
:1055F000FCF7FAFC30210E20FCF7F6FC00215020CD
:10560000FCF7F2FCEF215120FCF7EEFC00215220C8
:10561000FCF7EAFC40F23F115320FCF7E5FC4FF4A5
:105620001C516020FCF7E0FC01216120FCF7DCFC50
:1056300000216A20FCF7D8FC11219020FCF7D4FC53
:105640004FF4C0619220FCF7CFFC40F2024193205E
:10565000FCF7CAFC02219420FCF7C6FC1420FBF7DF
:10566000C9F901210720FCF7BFFC1420FBF7C2F9A0
:1056700061210720FCF7B8FC40F273110720FCF70A
:10568000B3FC00212020FCF7AFFC00212120FCF717
:10569000ABFC22210020FCF7A7FC11E379488088AD
:1056A0004CF2055188427CD100210846FCF79CFC55
:1056B00000210846FCF798FC1420FBF79BF9002119
:1056C0000846FCF791FC00210846FCF78DFC002100
:1056D0000846FCF789FC00210846FCF785FC0121FF
:1056E000A420FCF781FC1420FBF784F94FF41C5133
:1056F0006020FCF779FC40F606010820FCF774FCFA
:1057000040F203713020FCF76FFC01213120FCF7DF
:105710006BFC04213220FCF767FC4FF481713320CD
:10572000FCF762FC4FF440713420FCF75DFC40F262
:1057300003113520FCF758FC1F213620FCF754FCE0
:1057400040F203713720FCF74FFC01213820FCF7B1
:105750004BFC04213920FCF747FC15219020FCF775
:1057600043FC4FF482611020FCF73EFC40F24721DD
:105770001120FCF739FC4FF4DE711220FCF734FCE9
:105780004FF460611320FCF72FFC7820FBF732F90F
:105790004FF480710120FCF727FC4FF400710220C8
:1057A00000E052E0FCF720FC41F230010320FCF75E
:1057B0001BFC08210A20FCF717FC00210C20FCF739
:1057C00013FC20210E20FCF70FFC00210F20FCF71A
:1057D0000BFC00212020FCF707FC00212120FCF716
:1057E00003FC3D212A20FCF7FFFB1420FBF702F904
:1057F0002D212920FCF7F8FB00215020FCF7F4FBB9
:105800004DF2EF015120FCF7EFFB00215220FCF795
:10581000EBFB40F23F115320FCF7E6FB0021612037
:10582000FCF7E2FB00216A20FCF7DEFB4FF440713D
:105830009220FCF7D9FB05219320FCF7D5FB4FF410
:1058400080710720FCF7D0FB3AE20E48808844F2D2
:10585000315188427ED101210020FCF7C5FB0A208E
:10586000FBF7C8F841F228611020FCF7BDFB0E21C0
:105870001220FCF7B9FB40F639211320FCF7B4FBEA
:105880000A2001E0DE000020FBF7B4F840211120DF
:10589000FCF7AAFB50211520FCF7A6FB0A20FBF71A
:1058A000A9F81E211220FCF79FFB0A20FBF7A2F8A3
:1058B0004FF4B1511020FCF797FB42F63921132029
:1058C000FCF792FB0A20FBF795F84FF4807101205A
:1058D000FCF78AFB4FF440710220FCF785FB41F294
:1058E00038010320FCF780FB40F202210820FCF77E
:1058F0007BFB08210A20FCF777FB00213020FCF716
:1059000073FB40F202413120FCF76EFB4FF48371D0
:105910003220FCF769FB40F203513320FCF764FBB3
:105920004FF482713420FCF75FFB40F201313520E7
:10593000FCF75AFB40F207713620FCF755FB40F2AA
:1059400005313720FCF750FB4FF402713820FCF78B
:105950004BFB00E03EE040F60B713920FCF744FBC6
:1059600002214120FCF740FB4FF41C516020FCF762
:105970003BFB01216120FCF737FB4FF404719020C1
:10598000FCF732FB4FF485719220FCF72DFB0421CC
:105990009320FCF729FB4FF48071A020FCF724FB37
:1059A00001210720FCF720FB21210720FCF71CFB2D
:1059B00023210720FCF718FB33210720FCF714FBF9
:1059C00040F233110720FCF70FFB0021A020FCF769
:1059D0000BFB75E1C148808844F2355188427CD187
:1059E00030211520FCF700FB10219A20FCF7FCFA6F
:1059F00020211120FCF7F8FA43F228411020FCF78F
:105A0000F3FA02211220FCF7EFFA41F238011320D9
:105A1000FCF7EAFA2820FAF7EDFF12210846FCF716
:105A2000E3FA2820FAF7E6FF43F220411020FCF7C2
:105A3000DBFA43F238011320FCF7D6FA4620FAF7D6
:105A4000D9FF00213020FCF7CFFA40F2024131208B
:105A5000FCF7CAFA40F207313220FCF7C5FA4FF4DE
:105A600041713320FCF7C0FA04213420FCF7BCFA62
:105A700040F201413520FCF7B7FA40F207713620B9
:105A8000FCF7B2FA40F205313720FCF7ADFA4FF4DB
:105A9000C2613820FCF7A8FA4FF4C2613920FCF744
:105AA000A3FA4FF480710120FCF79EFA4FF4407185
:105AB0000220FCF799FA41F230010320FCF794FA36
:105AC00040F608010820FCF78FFA08210A20FCF7AD
:105AD0008BFA4FF41C51602000E033E0FCF784FAAD
