:020000040800F2
:10000000D04600204501000829340008D925000801
:1000100025340008E31000082576000800000000E1
:10002000000000000000000000000000DD370008B4
:10003000711C0008000000002B340008C9380008BB
:100040005F0100085F0100085F0100085F01000810
:100050005F0100085F0100085F0100085F01000800
:100060005F0100085F0100085F0100085F010008F0
:100070005F0100085F0100085F0100085F010008E0
:100080005F0100085F0100085F0100085F010008D0
:100090005F0100085F0100085F0100085F010008C0
:1000A0005F0100085F0100085F0100085F010008B0
:1000B0005F0100085F0100085F0100085F010008A0
:1000C0005F0100085F0100085F0100085F01000890
:1000D0005F010008457300085F01000849730008CC
:1000E0005F0100085F0100085F0100085F01000870
:1000F0005F0100085F0100085F0100085F01000860
:100100005F0100085F0100085F0100085F0100084F
:100110005F0100085F0100085F0100085F0100083F
:100120005F0100085F0100085F0100085F0100082F
:10013000DFF80CD000F042FE00480047558400086C
:10014000D04600200648804706480047FEE7FEE705
:10015000FEE7FEE7FEE7FEE7FEE7FEE7FEE7FEE777
:100160000539000831010008A0F14101192900D822
:100170002030704740EA01039B0703D009E008C91B
:10018000121F08C0042AFAD203E011F8013B00F85C
:10019000013B521EF9D27047D2B201E000F8012BA8
:1001A000491EFBD270470022F6E710B513460A46F7
:1001B00004461946FFF7F0FF204610BD30B505464E
:1001C0002A460B4612F8010B13F8014B08B1A04266
:1001D000F8D01CB1002802D06D1CF1E7284630BDD4
:1001E000421C10F8011B0029FBD1801A704710B582
:1001F000002200E0521C835C8C5CA34201D1002BE6
:10020000F8D1D8B2E1B2401A10BD034611F8012B63
:1002100000F8012B002AF9D11846704730B5054681
:100220000020034600E05B1C934205D2EC5CC85CF6
:10023000201A01D1002CF6D130BD00002DE9FF4F6E
:10024000087883B09946FF2805D0491C2D2804D092
:100250000024002008E000200BE00124F9E700EB77
:10026000800003EB4000491C0B78FF2BF7D104B151
:10027000404200230293147819461D462D2C01D0CC
:100280002B2C04D1521C2D2C13D000240294AA46EE
:100290001478FF2C0FD00A25A3FB057801FB0581FC
:1002A0004FF0000C03FB0C11521CE3194AEB010147
:1002B000EEE70124EAE7814453EA010002D019F590
:1002C000C87F06DA03980021C0E9001107B0BDE835
:1002D000F08F0025AE4E2F46DFF8B882184600F0AA
:1002E00049FDCDE90001B9F1000002DAC9F10004CD
:1002F00000E004460023A74A1AEB030B42EB045A22
:1003000012E0E00707D02A4633463846414600F05F
:10031000F9F9074688462A4633461046194600F042
:10032000F1F905460E466410002CEAD1DDE9000122
:10033000B9F1000F5A46534606DA00F055FA3A462C
:10034000434600F051FA05E000F0DCF93A46434636
:1003500000F0D8F9029A0AB181F00041039AC2E98B
:100360000001B3E72DE9FF4F1F468DB0D7E90146E5
:100370004FF0FF382E2045464FF000090B90B96929
:100380006D1C0E988847396A824688470028F6D146
:10039000BAF1FF3F0AD024F4D064002E11DDBAF187
:1003A0002B0F08D0BAF12D0F0BD102E0404611B04F
:1003B0008DE744F48064B9696D1C0E9888478246C5
:1003C000761E6946600501D52D2000E02B208DF8B2
:1003D000000001F1010B0DF1200809E0B9696D1C65
:1003E0000E98884782460F9844F40074761E056084
:1003F000002E02DDBAF1300FF0D00B998A453ED1C4
:1004000044F0800406E00F99681CA9F1010944F446
:1004100000740860B9696D1C761E0E988847824684
:100420003028F0D02BE00B998A4505D1200603D463
:1004300044F08004761E18E0504607F0E1FA08B355
:100440000DF11301761E44F400748B4508D2AAF115
:1004500030000BF8010B200607D5A9F1010003E0DD
:10046000200602D409F101008146A00502D50F99AA
:10047000681C0860B9696D1C0E9888478246002E7A
:10048000D1DC53E0002E51DDBAF1650F02D0BAF194
:10049000450F4BD1A00549D5B9696D1C24F44074B2
:1004A000761E0E9888478246002E0CDD2B2804D03D
:1004B000BAF12D0F07D144F48074B9696D1C0E9800
:1004C00088478246761EE00501D52D2100E02B21CC
:1004D00008F8011BCDF82C8021E00DF12901761ED2
:1004E00044F4007488450CD2AAF1300010F0FF00EB
:1004F00088F8000002D10B99884509D908F1010854
:1005000006E0E00501D5244801E042F20F70814683
:10051000B9696D1C0E98884782460F980560002EB9
:1005200004DD504607F06CFA0028D6D1F9690E9820
:100530008847FF208BF8000088F800000020069014
:1005400007904B466A4608A906A8FFF777FEA00564
:1005500002D46FF001002AE714F0240F0AD0E0075C
:1005600014D1DDE906123868031D3B600068C0E95C
:1005700000120BE0DDE9060100F02EFA0146E0076B
:1005800004D13868021D3A600068016028460EE711
:10059000000014400000F03FF1D8FFFF70B50646A0
:1005A00007F002F9046805460A220021304600F0EF
:1005B00015FB2C6070BD2DE9FE4F804681EA0300DB
:1005C000C00F0C46009021F0004123F00045B8EB2D
:1005D0000200A94105D24046214690461C460B46E2
:1005E000024623F00040104347D0270DC7F30A000E
:1005F000C3F30A510290401A019040286BDAC3F30A
:10060000130040F4801B0098924620B10023D2EBE7
:10061000030A63EB0B0B01985946C0F140025046A8
:1006200000F03DFA06460D4650465946019A00F044
:1006300055FA10EB08006141002487EA115284EA60
:10064000E7731A4340D0009A62B3019A012A4FEA35
:10065000075215DC001B61EB02014FF0004202EA79
:100660000752CDE90042001C41F5801132462B466D
:1006700000F032FB03B0BDE8F08F40462146F9E7B9
:10068000001B61EB0201001C41F5801300185B4167
:100690002018A2F5001747EB030140EAD570B61900
:1006A0006D4111E06D084FEA360645EAC0754FEA24
:1006B0000752001B61EB0201001C41F58011490843
:1006C0004FEA30000019514132462B4603B0BDE8D5
:1006D000F04F00F0F2BA0098012240000023D0EB66
:1006E000020263EBE073009821464FEAE074B8EB36
:1006F000000061EB0401E9E783F000435BE781F070
:10070000004158E72DE9FE4F81EA030404F000445C
:1007100021F0004100944FF0000B23F0004350EA19
:1007200001045ED052EA03045BD0C3F30A54C1F360
:100730000A552C44A4F2F3340194A0FB0254C1F3F3
:10074000130141F48011C3F3130343F4801301FB3D
:10075000024400FB034E840A970A44EA815447EAA4
:100760008357A4FB076802958D0A05FB07854FEAAE
:10077000932C04FB0C542705029D4FEA065847EAC8
:100780001637B5EB08056EEB070C870E920E47EA9D
:10079000811742EA8312A7FB0201B6EB0B0164EB5F
:1007A00000042B0D43EA0C335E1844EB1C50DA4670
:1007B0005146E7FB0201C5F313044FEA0B3343EA4A
:1007C00014534FEA0432019C43EA0603A4F10C04DB
:1007D0000294009CCDE900B400F07EFA03B0BDE8BD
:1007E000F08F00200146F9E72DE9F04D81EA03047E
:1007F00004F0004B21F0004514464FF0000A23F0AE
:10080000004150EA050220D054EA01021DD0C5F390
:100810000A570246C5F31303C1F31300C1F30A5686
:1008200040F4801543F48013A7EB0608101BD6464E
:1008300008F2FD3873EB050002D308F1010801E06E
:1008400092185B41B8F1000F03DA00200146BDE8C1
:10085000F08D00204FF48011064684460EE0171BF1
:1008600073EB050705D3121B63EB050306434CEA44
:10087000010C49084FEA300092185B4150EA010729
:10088000EDD152EA030012D082EA040083EA0501A6
:10089000084305D0101BAB4106D20122002306E01D
:1008A00000224FF0004302E06FF0010253101AEBF8
:1008B00006004CEB085110EB0A0041EB0B01BDE8C0
:1008C000F04D00F0FAB90EB540F23341029100212B
:1008D000CDE900110A460B4600F0FEF903B000BD59
:1008E00070B5C1F30A5201F000450024C1F31301B1
:1008F00040F2FF3341F480119A4201DA002070BDCA
:1009000040F233439A42A2F2334203DC524200F0F7
:10091000D5F800E090402C43F1D0404270BDC1F3C7
:100920000A5210B5C1F3130140F2FF3341F48011B4
:100930009A4201DA002010BD40F233439A42A2F2FB
:10094000334203DC524200F0B9F810BD904010BDB4
:1009500000F0004230F000400AD0C10D01F5607196
:10096000C0F3160042EA0151C20840071143704724
:10097000002001467047000030B5041E71F10004EC
:1009800004DB4FF00044404264EB0101141E73F19C
:10099000000405DB1C464FF00043524263EB0403A6
:1009A0008B4208BF824230BD30B5041E71F1000495
:1009B00004DB4FF00044404264EB0101141E73F16C
:1009C000000405DB1C464FF00043524263EB040376
:1009D000994208BF904230BD01F0004330B421F08D
:1009E000004150EA010206D00A0DA2F56072C1F37F
:1009F0001301002A02DC30BC00207047440F44EA97
:100A0000C104C100E01830BC00EBC25000F01EB9B8
:100A100030B50B46014600202022012409E021FACE
:100A200002F59D4205D303FA02F5491B04FA02F5CB
:100A30002844151EA2F10102F1DC30BD2DE9F05F62
:100A40000546002092469B4688460646814640243D
:100A50001BE0284641464746224600F02FF8534601
:100A60005A46C01A914110D311461846224600F04A
:100A700016F82D1A67EB01084F4622460120002187
:100A800000F00DF817EB00094E41201EA4F10104FF
:100A9000DFDC484631462A464346BDE8F09F202A1F
:100AA00004DB203A00FA02F1002070479140C2F1C5
:100AB000200320FA03F3194390407047202A04DBF7
:100AC000203A21FA02F00021704721FA02F3D040C7
:100AD000C2F120029140084319467047202A06DBE4
:100AE000CB17203A41FA02F043EAE07306E041FAFC
:100AF00002F3D040C2F120029140084319467047EA
:100B0000426842B1016811F8013B23B1521EC0E9AD
:100B10000012184670470121C160881E7047426864
:100B20005AB1C368016843B983688B4205D0491E36
:100B3000521CC0E90012002070474FF0FF30704790
:100B40000FB4002300B589B00CA900910B996FF088
:100B50000042CB601E4B06931E4B07930423CDE946
:100B600001321D4A089202466B460020FFF7FAFB4D
:100B700009B05DF814FB70B586B006464FF0FF3043
:100B80000091CDE90101002015460C460490324643
:100B9000694604A8FFF7D4FF02460498211825B13E
:100BA00008B1084600E020462860049800280DD0CF
:100BB000002A02DD0098884208D0081B0094CDE985
:100BC00001043246694604A8FFF7BAFF06B070BDBB
:100BD000010B00081F0B0008E90D00082DE9F04784
:100BE00091460F4680460446002614F8015B2DB15D
:100BF00000F0F6F80068405DC007F6D12B2D02D05A
:100C00002D2D18D0641E4A463946204600F0F5F8CE
:100C100027B13968A14201D1C7F8008071054FF0B2
:100C200002040BD54042002803DD06F0BDFD046040
:100C3000A007BDE8F08746F48066E4E70028F8DA0C
:100C400006F0B2FD04606FF00040F2E70029A8BF93
:100C50007047401C490008BF20F00100704710B4E5
:100C6000B0FA80FC00FA0CF050EA010404BF10BC9A
:100C7000704749B1CCF1200421FA04F411FA0CF1C7
:100C800018BF012121430843A3EB0C01CB1D4FEA00
:100C900000614FEA102042BF002010BC704700EBFB
:100CA000C35010440029A4BF10BC7047401C490029
:100CB00008BF20F0010010BC704710B5141E73F17E
:100CC000000408DA401C41F1000192185B411A430C
:100CD00001D120F0010010BD2DE9F04D92469B4658
:100CE00011B1B1FA81F202E0B0FA80F220329046FE
:100CF000FFF7D5FE04460F4640EA0A0041EA0B0121
:100D000053465A46084313D0114653EA010019D0FE
:100D1000C8F140025046FFF7D1FE05460E46504648
:100D200059464246FFF7BBFE084305D0012004E0C8
:100D300020463946BDE8F08D0020054346EAE076BE
:100D40002C4337430A986305E40AA0EB080000220D
:100D5000FD0A44EA47540A3002D500200146E9E77B
:100D6000010510196941DDE9084500196941BDE82F
:100D7000F04DA2E70EB540F2334202920022CDE9D7
:100D800000221346FFF7A8FF03B000BDC1F30A52CB
:100D9000C1F3130140F2FF3341F480119A4202DAA9
:100DA00000200146704740F233439A42A2F2334298
:100DB00002DC5242FFF782BEFFF771BE064C074DC0
:100DC00006E0E06840F0010394E80700984710341B
:100DD000AC42F6D3FFF7B0F9587C0508787C0508DB
:100DE00000487047E87B050810B50446FFF7F8FF98
:100DF0000068005D00F0010010BD2DE9F05F824643
:100E00000078002715468B460AF10104B9463028C0
:100E100001D09DB113E014F8010B0127782803D00D
:100E2000582801D045B10AE00DB1102D07D1002797
:100E3000102514F8010B02E0082500E00A25002621
:100E4000B0460EE005FB080005FB06F1012701EBAB
:100E500010461FFA80F8B6F5803F00D3B94614F863
:100E6000010B294600F018F80028EBDABBF1000F5F
:100E700005D00FB1641E00E05446CBF80040B9F134
:100E8000000F06D006F090FC02210160C81EBDE8EC
:100E9000F09F48EA0640FAE73A2800D2303820F0BE
:100EA0002002412A01D3A2F13700884201D34FF03A
:100EB000FF30704721B1826842F00102826003E096
:100EC000826822F0010282607047000000B587B09E
:100ED0004FF4004002F0DCFB01214FF4057002F0FA
:100EE00003FC00208DF81B002220ADF81800032021
:100EF0008DF81A0006A91A4801F0D2F90220ADF8BF
:100F0000180006A9174801F0CBF900208DF8090058
:100F100004904FF4602003900020019001208DF890
:100F2000140000208DF8080001A90F4800F040F8D7
:100F300001210D48FFF7BEFF0B4800F0BDF800BFD0
:100F4000094800F02AF80028FAD1074800F0C4F850
:100F500000BF054800F00AF80028FAD107B000BD2C
:100F6000000801400010014000240140014600201B
:100F70008A6802F004020AB1012000E000207047F4
:100F80000146C86C80B270470246002013680B40CF
:100F90000BB1012000E000207047014600208A6864
:100FA00002F008020AB1012000E0002070470000B2
:100FB00030B502460020002350680F4C20400D79C8
:100FC0000C6844EA05242043506090680B4C204094
:100FD000D1E902542C434D7944EA45042043906002
:100FE000D06A20F470000C7C641EE4B2234340EA13
:100FF0000350D06230BD0000FFFEF0FFFDF7F1FFAF
:10100000F0B504460D4600200021092D11DDE068F1
:10101000A5F10A0606EB4607072606FA07F18843FC
:10102000A5F10A0606EB460603FA06F10843E0605E
:101030000CE0206905EB4507072606FA07F188430F
:1010400005EB450603FA06F108432061072A0FDA8B
:10105000606B561E06EB86071F2606FA07F18843CB
:10106000561E06EB860605FA06F10843606322E089
:101070000D2A0FDA206BD61F06EB86071F2606FA0D
:1010800007F18843D61F06EB860605FA06F10843EA
:10109000206310E0E06AA2F10D0606EB86071F262A
:1010A00006FA07F18843A2F10D0606EB860605FA5B
:1010B00006F10843E062F0BD816841F008018160FB
:1010C000704721B1826842F4A002826003E0826826
:1010D00022F4A00282607047816841F004018160BF
:1010E000704700BFFEE7000030B5C1B004460D46B2
:1010F0004FF4807101A8FFF756F800F0B5FE022307
:101100004FF4FA721CA11DA000F07AFE28B11CA0B9
:1011100006F026FB012041B030BD1DA006F020FBEB
:1011200002234FF4FA7214A11DA000F069FE20B151
:101130001EA006F015FB0220EDE722A006F010FB32
:101140002B46224625A101A806F01AFB022342F2F3
:10115000107209A101A800F053FE20B124A006F0EE
:10116000FFFA0320D7E727A006F0FAFA2AA006F034
:10117000F7FA0020CFE700004F4B00004154000079
:10118000415420B2E2CAD4CAA7B0DC0D0A00000064
:10119000415420B2E2CAD4B3C9B9A60D0A00000076
:1011A00041542B43574D4F44453D310041542B434F
:1011B000574D4F444520C9E8D6C3CAA7B0DC0D0A35
:1011C0000000000041542B43574D4F444520C9E8CF
:1011D000D6C3B3C9B9A60D0A0000000041542B4381
:1011E000574A41503D222573222C222573220000AC
:1011F00041542B43574A415020C9E8D6C3CAA7B02F
:10120000DC0D0A0041542B43574A415020C9E8D60F
:10121000C3B3C9B9A60D0A00C1ACBDD3C8C8B5E3F4
:10122000B3C9B9A60D0A00002DE9F34FADF54B7D0A
:101230004FF480718BA8FEF7B6FF022341F288328B
:10124000DEA1DFA000F0DCFD01280FD1DFA006F059
:1012500087FAE6A1E8A0FFF747FF38B1E8A006F05B
:101260007FFA01200DF54D7DBDE8F08FEAA18BA836
:10127000CC9BCB9A06F084FA02234FF4FA62CFA1FA
:101280008BA800F0BDFD012804D1EAA006F068FAA1
:101290000220E7E702234FF4FA72C8A1EBA000F0A6
:1012A000AFFD012804D1EDA006F05AFA0320D9E7DA
:1012B00002234FF4FA72F0A1F0A000F0A1FD012882
:1012C00004D1F1A006F04CFA0420CBE74FF40071F2
:1012D0000BA8FEF768FFF34BF3A2F8490BA806F042
:1012E0004FFA40F20C41F648FEF75DFF0BA806F0FE
:1012F00095F800BFF24890F80A040128FAD1F049A5
:10130000F0A006F02DFAEE4806F090FF0A900A9839
:1013100020B9F0A006F024FA0520A3E7F0A10A986E
:1013200006F06EFF0990099838B9EFA006F018FA98
:101330000A9806F02DFF062094E70021099806F090
:1013400053FF0890089838B9ECA006F009FA0A98FB
:1013500006F01EFF072085E7ECA1089806F050FF75
:101360000790079838B9ECA006F0FAF90A9806F049
:101370000FFF082076E7EDA1079806F041FF0690E1
:10138000069838B9EBA006F0EBF90A9806F000FFD2
:10139000092067E7EBA1089806F032FF0590059851
:1013A00038B9EAA006F0DCF90A9806F0F1FE0A2046
:1013B00058E70021059806F017FF0490049838B903
:1013C000E6A006F0CDF90A9806F0E2FE0B2049E708
:1013D000E5A1049806F014FF05463DB9E4A006F027
:1013E000BFF90A9806F0D4FE0C203BE7E4A104986C
:1013F00006F006FF06463EB9E4A006F0B1F90A98E9
:1014000006F0C6FE0D202DE7E5A1049806F0F8FED3
:1014100007463FB9E5A006F0A3F90A9806F0B8FE22
:101420000E201FE7E6A1049806F0EAFE8046B8F118
:10143000000F07D1E5A006F093F90A9806F0A8FE80
:101440000F200FE7E7A1049806F0DAFE8146B9F114
:10145000000F07D1D5A006F083F90A9806F098FE90
:101460001020FFE6E2A1049806F0CAFE8246BAF117
:10147000000F07D1E0A006F073F90A9806F088FE85
:101480001120EFE6E0A1049806F0BAFE8346BBF116
:10149000000F07D1DDA006F063F90A9806F078FE88
:1014A0001220DFE6DDA1049806F0AAFE0190019863
:1014B00038B9DDA006F054F90A9806F069FE132049
:1014C000D0E6DE482969FEF7A0FE06980169DB48F0
:1014D0001430FEF79AFED94832303169FEF795FE96
:1014E000D6485A303969FEF790FED4484630D8F8CD
:1014F0001010FEF78AFED1486430D9F81010FEF7BC
:1015000084FECE486E30DAF81010FEF77EFECB482F
:101510007830DBF81010FEF778FE01980169C748B3
:101520008230FEF772FE0121059806F05DFE039001
:10153000039838B9C2A006F013F90A9806F028FEFD
:1015400014208FE688A1039806F05AFE05463DB99F
:1015500087A006F005F90A9806F01AFE152081E624
:1015600087A1039806F04CFE06463EB987A006F018
:10157000F7F80A9806F00CFE162073E688A1039887
:1015800006F03EFE07463FB988A006F0E9F80A9843
:1015900006F0FEFD172065E689A1039806F030FEEF
:1015A0008046B8F1000F07D188A006F0D9F80A9854
:1015B00006F0EEFD182055E648E100004F4B000014
:1015C00041542B43574A41503F000000CEB4BCEC7D
:1015D000B2E2B5BDC1ACBDD3C8C8B5E30D0AD6D81B
:1015E000C1ACD6D02E2E2E0D0A000000313233347D
:1015F0003536373900000000616C6F654A756E0042
:10160000CEB4BCECB2E2B5BDC8C8B5E3A3ACCDCB9B
:10161000B3F60D0A0000000041542B4349505354C7
:101620004152543D22544350222C222573222C2512
:1016300064000000C1ACBDD3B7FECEF1C6F7CAA7A7
:10164000B0DCA3ACCDCBB3F60D0A000041542B4364
:1016500049504D4F44453D3100000000BFAAC6F43B
:10166000CDB8B4ABC4A3CABDCAA7B0DCA3ACCDCBC4
:10167000B3F60D0A000000003E00000041542B4369
:10168000495053454E440000BDF8C8EBCDB8B4AB4B
:10169000C4A3CABDCAA7B0DCA3ACCDCBB3F60D0AB8
:1016A000000000003E000020535F71653058517803
:1016B0006B502D58597859364B000000EC7B0508CB
:1016C000120100200D0A2A2A2A2A25732A2A2A2AE8
:1016D0002A0D0A00726F6F74206661696C65640080
:1016E000726573756C7473006D795F726573756C78
:1016F00074206661696C6564000000006D795F7A32
:1017000065726F206661696C656400006C6F63616F
:1017100074696F6E000000006D795F6C6F636174B7
:10172000696F6E206661696C656400006E616D654D
:10173000000000006D795F6E616D65206661696C07
:10174000656400006461696C790000006D795F6414
:1017500061696C79206661696C6564006D795F30E0
:10176000206661696C656400646174650000000056
:101770006D795F64617461206661696C6564000005
:10178000746578745F646179000000006D795F743E
:101790006578745F646179206661696C65640000D6
:1017A000636F64655F646179000000006D795F6359
:1017B0006F64655F646179206661696C65640000CF
:1017C000746578745F6E6967687400006D795F7422
:1017D0006578745F6E69676874206661696C6564BA
:1017E00000000000636F64655F6E696768740000E5
:1017F00068696768000000006D795F686967682044
:101800006661696C656400006C6F77006D795F6C70
:101810006F77206661696C656400000068756D69AA
:1018200064697479000000006D795F68756D6964A2
:10183000697479206661696C656400001E0500208A
:101840006D795F31206661696C656400AFF26C018F
:10185000039806F0D5FC8146B9F1000F08D1AFF22C
:10186000B40005F07DFF0A9806F092FC1920F9E417
:10187000AFF28401039806F0C3FC8246BAF1000F70
:1018800008D1AFF28C0005F06BFF0A9806F080FCDF
:101890001A20E7E4AFF29001039806F0B1FC83460A
:1018A000BBF1000F08D1AFF29C0005F059FF0A9878
:1018B00006F06EFC1B20D5E4AFF2A001039806F001
:1018C0009FFC0190019840B9AFF2A40005F048FFD9
:1018D0000A9806F05DFC1C20C4E4BD482969FEF7A7
:1018E00094FC06980169BA481430FEF78EFCB8489B
:1018F00032303169FEF789FCB5485A303969FEF754
:1019000084FCB3484630D8F81010FEF77EFCB0488F
:101910006430D9F81010FEF778FCAD486E30DAF874
:101920001010FEF772FCAA487830DBF81010FEF7B2
:101930006CFC01980169A6488230FEF766FC022122
:10194000059806F051FC0290029838B9A1A005F064
:1019500007FF0A9806F01CFC1D2083E4AFF2F81183
:10196000029806F04DFC054645B9AFF2FC1005F0B3
:10197000F7FE0A9806F00CFC1E2073E4AFF200217B
:10198000029806F03DFC064646B9AFF2002005F08D
:10199000E7FE0A9806F0FCFB1F2063E4AFF200218B
:1019A000029806F02DFC074647B9AFF2002005F07B
:1019B000D7FE0A9806F0ECFB202053E4AFF200219A
:1019C000029806F01DFC8046B8F1000F08D1AFF276
:1019D000042005F0C5FE0A9806F0DAFB212041E458
:1019E000AFF20021029806F00BFC8146B9F1000F1E
:1019F00008D1AFF2482005F0B3FE0A9806F0C8FB04
:101A000022202FE4AFF21821029806F0F9FB82465B
:101A1000BAF1000F08D1AFF2202005F0A1FE0A981C
:101A200006F0B6FB23201DE4AFF22421029806F055
:101A3000E7FB8346BBF1000F08D1AFF2302005F081
:101A40008FFE0A9806F0A4FB24200BE4AFF23421A9
:101A5000029806F0D5FB0190019840B9AFF238200A
:101A600005F07EFE0A9806F093FB252011E4584805
:101A70008C302969FEF7C9FB069801695448A030EB
:101A8000FEF7C3FB5248BE303169FEF7BEFB50483B
:101A9000E6303969FEF7B9FB4D48D230D8F810105E
:101AA000FEF7B3FB4A48F030D9F81010FEF7ADFB53
:101AB0004748FA30DAF81010FEF7A7FB4848DBF881
:101AC0001010FEF7A2FB0198016945480A30FEF7A5
:101AD0009CFB002474E0C4EBC40000EB80003C4A93
:101AE0008C3A02EB80013FA005F03AFEC4EBC40043
:101AF00000EB8000364A8C3A02EB800000F11401C2
:101B00003BA005F02DFEC4EBC40000EB8000304A82
:101B10008C3A02EB800000F1320138A005F020FE83
:101B2000C4EBC40000EB8000294A8C3A02EB800031
:101B300000F15A0136A005F013FEC4EBC40000EB1F
:101B40008000234A8C3A02EB800000F1460134A069
:101B500005F006FEC4EBC40000EB80001C4A8C3A82
:101B600002EB800000F1640132A005F0F9FDC4EB46
:101B7000C40000EB8000164A8C3A02EB800000F1B2
:101B80006E0131A005F0ECFDC4EBC40000EB800059
:101B90000F4A8C3A02EB800000F178012DA005F08D
:101BA000DFFDC4EBC40000EB8000094A8C3A02EB75
:101BB000800000F182012AA005F0D2FD601CC4B2B1
:101BC000032C88DB0A9806F0E3FA00200DE40000FD
:101BD000AA0500206D795F32206661696C6564003A
:101BE000AE0600205B646174613A25735D0D0A00E6
:101BF0005B6E616D653A25735D0D0A005B7765610B
:101C0000746865726461793A25735D0D0A0000009D
:101C10005B636F64656461793A25735D0D0A00004A
:101C20005B776561746865726E696768743A25737D
:101C30005D0D0A005B636F64656E696768743A25C1
:101C4000735D0D0A000000005B686967683A2573E0
:101C50005D0D0A005B6C6F77743A25735D0D0A00A9
:101C60005B68756D69646974793A25735D0D0A0066
:101C7000704770B54FF47A7300FB03F1002247E020
:101C800000BF00BF00BF00BF00BF00BF00BF00BF5C
:101C900000BF00BF00BF00BF00BF00BF00BF00BF4C
:101CA00000BF00BF00BF00BF00BF00BF00BF00BF3C
:101CB00000BF00BF00BF00BF00BF00BF00BF00BF2C
:101CC00000BF00BF00BF00BF00BF00BF00BF00BF1C
:101CD00000BF00BF00BF00BF00BF00BF00BF00BF0C
:101CE00000BF00BF00BF00BF00BF00BF00BF00BFFC
:101CF00000BF00BF00BF00BF00BF00BF00BF00BFEC
:101D000000BF00BF00BF00BF00BF00BF00BF00BFDB
:101D100013460C46491E62F10002002674407340CF
:101D20001C43ADD170BD47E000BF00BF00BF00BF86
:101D300000BF00BF00BF00BF00BF00BF00BF00BFAB
:101D400000BF00BF00BF00BF00BF00BF00BF00BF9B
:101D500000BF00BF00BF00BF00BF00BF00BF00BF8B
:101D600000BF00BF00BF00BF00BF00BF00BF00BF7B
:101D700000BF00BF00BF00BF00BF00BF00BF00BF6B
:101D800000BF00BF00BF00BF00BF00BF00BF00BF5B
:101D900000BF00BF00BF00BF00BF00BF00BF00BF4B
:101DA00000BF00BF00BF00BF00BF00BF00BF00BF3B
:101DB00000BF00BF00BF00BF011EA0F10100B3D1F2
:101DC0007047000038B504460121080201F08CFC80
:101DD000002000904FF40060ADF8000003208DF863
:101DE00002001CB914208DF8030002E004208DF8D5
:101DF00003006946014800F053FA38BD0020014055
:101E00002DE9F04104460D4617461E462046FEF7D2
:101E1000E7F9804600201249A1F808044FF48161D7
:101E20000F48FEF7C0F900BF3CB11FFA88F1204609
:101E300005F0D2FA0BA005F0F1FA5DB13A46294659
:101E4000074800F0AAF828B100200549A1F80804C5
:101E5000BDE8F081701EC0B2061EE5D10120F7E793
:101E6000120100200D0A000010B504A005F0D6FAFA
:101E70004FF4FA70FFF7FDFE10BD00002B2B2B0076
:101E800051B18200A2F1C042126842F00103820007
:101E9000A2F1C042136009E08200A2F1C0421268C0
:101EA000034B1A408300A3F1C0431A60704700003F
:101EB000FEFF0F00D0E901121143C268114302690D
:101EC00011434269114382691143C2691143026A95
:101ED0001143426A1143826A1143C26A1143026B81
:101EE000114302689200A2F1C04211608168082982
:101EF0000BD101688900A1F1C041096841F040029D
:101F000001688900A1F1C0410A60416B0968426B18
:101F1000526841EA0211426B926841EA0221426B27
:101F2000928941EA0241426B128A41EA0251426BB4
:101F3000127D41EA0261426B926911430268521CB0
:101F40009200A2F1C0421160C16AB1F5804F1BD16D
:101F5000816B0968826B526841EA0211826B926858
:101F600041EA0221826B128A41EA0251826B127DA0
:101F700041EA0261826B9269114302689200A2F108
:101F8000C042C2F8041107E06FF070420168890096
:101F9000A1F1C041C1F80421704770B505460E4655
:101FA000144602E00120FFF764FE201EA4F10104A4
:101FB00005D031462846FEF701F90028F2D0314617
:101FC0002846FEF7FBF870BD2DE9FF5F0020039067
:101FD00000248146FFF7F6FE4FF40061A04800F0B0
:101FE000F3F91420FFF745FE4FF400619C4800F020
:101FF000EDF90120FFF7E6FE0DE009F1010000F028
:10200000FF090120FFF78FFEB9F1640F03DD012006
:1020100004B0BDE8F09F4FF40061914800F0CBF9A7
:102020000028EAD04FF000090BE009F1010000F0B0
:10203000FF090120FFF777FEB9F1640F01DD0220EF
:10204000E6E74FF40061864800F0B5F90128ECD0CE
:102050004FF000090BE009F1010000F0FF09012039
:10206000FFF761FEB9F1640F01DD0320D0E74FF403
:1020700000617B4800F09FF90028ECD000246FE05D
:102080004FF000090BE009F1010000F0FF09012009
:10209000FFF749FEB9F1640F01DD0420B8E74FF402
:1020A00000616F4800F087F90128ECD04FF000097B
:1020B0000BE009F1010000F0FF090120FFF733FEFA
:1020C000B9F1640F01DD0520A2E74FF40061644817
:1020D00000F071F90028ECD01E20FFF724FE4FF429
:1020E00000615F4800F067F9C0B9E21704EB527273
:1020F000D2105C4B9A5C2146E31704EB5373DB1060
:10210000A4EBC303C3F107050123AB409A43204668
:10211000E31704EB5373DB10524DEA544FF40061A4
:102120004F4800F048F9012818D1E21704EB527229
:10213000D2104C4B9A5C2146E31704EB5373DB102F
:10214000A4EBC303C3F107050123AB401A432046A8
:10215000E31704EB5373DB10424DEA54601CC4B226
:10216000282C8DDB3F4800783E49497808443D499A
:10217000897808443B49C9780844C0B2039039487B
:1021800001790398814269D136494878FEF79BFB73
:102190000022354BCDE90001FEF726FB05460E4631
:1021A00030490878FEF78FFB07462A463346FEF78C
:1021B00002FA8246FEF710FC2C4908602949C878CB
:1021C000FEF781FB07460022274BFEF70DFB054675
:1021D0000E4624498878FEF776FB82462A46334627
:1021E000FEF7E9F9CDE90001FEF7F6FB20490860AA
:1021F00008460068FEF7ACFB05460E461B48006823
:10220000FEF7A6FB07463A460B461AA0CDE9005654
:1022100005F0A6FA134802781CA11E4805F0B0FA92
:1022200000201C4910221346CDE90021029096227D
:1022300028215F2000F0D6FE0A48827816A11548B2
:1022400005F09EFA0020134910221346CDE9002123
:10225000029096223C215F2000F0C4FE0020D7E6C9
:102260000020014034000020000024402C00002009
:102270003000002048756D3A252E316620205465C7
:102280006D3A252E31660D0A00000000CAAAB6C8B4
:102290003A2564007C000020CEC2B6C83A2564000E
:1022A0002DE9F041024600250026002000230024ED
:1022B000002791F803C00CF00F0591F803C00CF053
:1022C000100CBCF1000F03D091F802C04CEA0505D8
:1022D00091F800C0BCF1000F31D0146800202BE051
:1022E0004FF0010C0CFA00F3B1F800C00CEA030641
:1022F0009E4220D183004FF00F0C0CFA03F7BC4331
:1023000005FA03FC4CEA040491F803C0BCF1280F61
:1023100006D14FF0010C0CFA00FCC2F814C00AE020
:1023200091F803C0BCF1480F05D14FF0010C0CFA35
:1023300000FCC2F810C0401C0828D1D31460B1F8CA
:1023400000C0BCF1FF0F34DD546800202EE000F126
:10235000080C4FF0010808FA0CF3B1F800C00CEAC1
:1023600003069E4221D183004FF00F0C0CFA03F7B5
:10237000BC4305FA03FC4CEA040491F803C0BCF129
:10238000280F05D100F1080C08FA0CF8C2F81480E7
:1023900091F803C0BCF1480F07D100F1080C4FF0D1
:1023A000010808FA0CF8C2F81080401C0828CED3A7
:1023B0005460BDE8F0810246002093680B400BB1E9
:1023C000012000E0002070474161704701617047C3
:1023D00010B501213448FFF7EEFF012805D133483D
:1023E0000088401C314908805CE010213048FFF72C
:1023F000E2FF28B92F480088401C2E49088051E090
:1024000020212B48FFF7D7FF28B92B480088401C14
:102410002949088046E040212548FFF7CCFF28B92C
:1024200026480088401C254908803BE01F4800885A
:1024300002280ADD00201D4908801E4908801E4927
:1024400008801E490880012010BD1A480088022813
:102450000ADD0020154908801649088016490880C1
:10246000164908800220EFE71348008802280ADD99
:1024700000200E4908800F4908800F4908800F4945
:1024800008800320E0E70D48008802280ADD0020CC
:1024900006490880074908800749088007490880DD
:1024A0000420D1E70020CFE70008014024000020ED
:1024B0000010014026000020280000202A000020F3
:1024C0000EB50523012219461648FEF799FD012194
:1024D0001448FEF7F6FD00BF02211248FEF754FD36
:1024E0000028F9D00F48FEF74BFD0F490880084639
:1024F00001880EA005F034F90B4802880FA112489C
:1025000005F03EF90020104910221346CDE90021C4
:102510000290962264215F2000F064FD024800884A
:102520000EBD0000002401403A000020B9E2D5D5DC
:10253000C7BFB6C83A25640D0A000000B9E2D5D578
:10254000C7BFB6C83A256400AE0000200EB505230B
:1025500001220B211648FEF753FD01211448FEF716
:10256000B0FD00BF02211248FEF70EFD0028F9D091
:102570000F48FEF705FD0F494880084641880EA028
:1025800005F0EEF80B4842880FA1124805F0F8F864
:102590000020104910221346CDE900210290962216
:1025A00050215F2000F01EFD024840880EBD000053
:1025B000002401403A000020D1CCCEEDC5A8B6C819
:1025C0003A25640D0A000000D1CCCEEDC5A8B6C8EE
:1025D0003A256400AE00002000BFFEE708B50121E7
:1025E000142001F081F80020009004208DF80300F1
:1025F0007020ADF8000003208DF802006946054800
:10260000FFF74EFE0120ADF8000069460248FFF7D3
:1026100047FE08BD001001400008014070B50446A7
:10262000002617480588408845431548808846F6A7
:102630000401884216D112488079012812D1002065
:102640000F4988712A2048812B2088810021084663
:1026500000F0FCFA01200A4988712B2048812A20C9
:10266000888103E00021084600F0F0FA00F05EFEE9
:10267000002602E003480480761CAE42FAD370BD07
:10268000C20600200008006C10B50446002C73D16F
:1026900079498871F02008804FF4A070488008467E
:1026A000808849F24131884211D07348808849F2CC
:1026B000864188420BD07048808846F604018842E3
:1026C00005D06D48808845F21031884220D12C20F9
:1026D000694908812A2048812B2088810846808802
:1026E00046F6040188420BD06348808845F21031D9
:1026F000884205D06048808849F28641884206D1E8
:102700004FF4A0705C4908804FF4F0704880AEE050
:102710005948808845F21051884210D14FF430500A
:10272000554908814FF4285048814FF42C50888136
:102730004FF4F07008804FF44870488097E04E489E
:10274000808841F6631188420DD12C204A490881C6
:102750002B2048812A2088814FF4F07008804FF4A4
:102760004870488083E02220434908812020488126
:10277000212088817BE0FFE701203F4988714FF4E9
:10278000A0700880F02048800846808849F24131D6
:1027900088420BD03848808849F28641884205D06B
:1027A0003548808845F21031884207D12C203249C3
:1027B00008812A2048812B2088813FE02E4880888C
:1027C00046F60401884207D12C202B4908812B2092
:1027D00048812A20888131E02748808845F21051BD
:1027E000884210D14FF43050234908814FF42850CB
:1027F00048814FF42C5088814FF4487008804FF482
:10280000F07048801AE01C48808841F663118842C5
:102810000DD12C20184908812A2048812B2088813D
:102820004FF4487008804FF4F070488006E0222092
:102830001149088121204881202088810E48808804
:1028400046F6040188420BD00B48808845F21031CF
:10285000884205D00848808849F28641884206D1DE
:102860004FF4F070044908804FF4A07048800020B5
:1028700000F070F810BD0000C206002070B50546DB
:102880000E4614463146284600F0E0F900F04EFDB1
:102890000148048070BD00000008006C2DE9F04F75
:1028A00006460F4690469946C346CA463C460CE04B
:1028B000354606E021462846099AFFF7DFFF681CE7
:1028C00085B25D45F6DB601C84B25445F0DBBDE8A3
:1028D000F08F000008B5034800880090BDF80000A4
:1028E00008BD00000008006C10B50446204600F04A
:1028F00011FD0520FFF717FAFFF7ECFF10BD0000F0
:102900002DE9F0470446BE2000F004FD052000F04C
:10291000F5FC2046FDF7D7FF07464FF066320C4B1B
:10292000FDF7F0FE0546FDF7FAFF1FFA80F948466D
:1029300000F0E4FC012000F0E1FCFF2000F0DEFCF0
:10294000002000F0DBFC002000F0D8FCBDE8F087A0
:1029500066660440F0B5054600240027BA48807931
:1029600001280BD1B848808846F60401884205D07A
:10297000B548808841F66311884208D1B248807911
:10298000F0B9B148808841F66311884218D1082D0A
:1029900015D2DFE805F00406080A0C0E1012062511
:1029A0000DE007250BE0042509E0052507E00125DA
:1029B00005E0002503E0032501E0022500BF00BF7C
:1029C000A148808849F2413188421DD09E488088C4
:1029D00049F28641884217D09B48808846F6040118
:1029E000884211D09848808845F2103188420BD037
:1029F0009548808845F21051884205D092488088D9
:102A000041F6631188427DD1082D1CD2DFE805F024
:102A10000406090C0F12151800BF14E044F08004DE
:102A200011E044F040040EE044F0C0040BE044F038
:102A3000200408E044F0600405E044F0A00402E053
:102A400044F0E00400BF00BF7F48808845F2105189
:102A5000884202D14FF4585700E036277A488088E0
:102A600045F2103188420DD07748808845F21051E8
:102A7000884207D07448808841F66311884201D0AB
:102A800044F008047048808846F60401884201D169
:102A900044F002042146384600F052FC6A4880881F
:102AA00041F6631188421DD004F0200068B16648E9
:102AB000008865494988884214DA63480688408856
:102AC00061490880084646800CE05F4800885E49FE
:102AD0004988884206DD5C48068840885A49088053
:102AE000084646805848808845F21051884254D1A3
:102AF0005549488900F00EFC002000F0FFFB5249C8
:102B0000498900E078E0491C88B200F003FC00200D
:102B100000F0F4FB4C494989891C88B200F0FAFBAB
:102B200049490988491EC1F30F2000F0E7FB4649D7
:102B30004989C91C88B200F0EDFB43490978491E58
:102B4000C8B200F0DBFB4049888900F0E3FB0020BD
:102B500000F0D4FB3C498989491C88B200F0DAFBBB
:102B6000002000F0CBFB38498989891C88B200F02D
:102B7000D1FB35494988491EC1F30F2000F0BEFB47
:102B800031498989C91C88B200F0C4FB2E49897873
:102B9000491EC8B200F0B2FB55E02B49488900F04D
:102BA000B9FB002000F0AAFB002000F0A7FB26499B
:102BB0000988491EC1F30F2000F0A0FB22490978C3
:102BC000491EC8B200F09AFB1F49888900F0A2FB99
:102BD000002000F093FB002000F090FB1A49498888
:102BE000491EC1F30F2000F089FB17498978491E5F
:102BF000C8B200F083FB26E0082D1CD2DFE805F008
:102C000004070A0D0F12151844F0300413E044F0C5
:102C1000100410E044F020040DE000BF0BE044F08D
:102C2000380408E044F0280405E044F0180402E009
:102C300044F0080400BF00BF032744F48054214639
:102C4000384600F07DFBF0BDC206002030B50446DA
:102C50000D468148808849F24131884205D07E483E
:102C6000808845F21031884214D17B49488900F0B0
:102C700051FB201200F042FBE0B200F03FFB76492E
:102C8000888900F047FB281200F038FBE8B200F01A
:102C900035FBE0E07048808849F2864188422ED1B9
:102CA0006D49488900F036FB201200F027FBE0B2A6
:102CB00000F024FB68490988491EC1F30F2000F089
:102CC0001DFB65490978491EC8B200F017FB62492F
:102CD000888900F01FFB281200F010FBE8B200F01A
:102CE0000DFB5D494988491EC1F30F2000F006FB2A
:102CF00059498978491EC8B200F000FBABE056483C
:102D0000808846F6040188421DD153488079012805
:102D100004D151480088401E001B84B24E494889A6
:102D200000F0F8FA201200F0E9FAE0B200F0E6FA5A
:102D30004949888900F0EEFA281200F0DFFAE8B27B
:102D400000F0DCFA87E04448808841F6631188424D
:102D500047D141488079A8B93F480088401E001BF0
:102D600084B23D49488900F0D5FA002000F0C6FA47
:102D7000002000F0C3FA201200F0C0FAE0B200F028
:102D8000BDFA16E03449488900F0C4FA201200F078
:102D9000B5FAE0B200F0B2FA2F490988491EC1F332
:102DA0000F2000F0ABFA2C490978491EC8B200F098
:102DB000A5FA2949888900F0ADFA281200F09EFA98
:102DC000E8B200F09BFA24494988491EC1F30F205C
:102DD00000F094FA20498978491EC8B200F08EFAB2
:102DE00039E01D48808845F21051884220D11A49A7
:102DF000488900F08FFA201200F080FA16494989BC
:102E0000491C88B200F086FAE0B200F077FA124965
:102E1000888900F07FFA281200F070FA0E4989893B
:102E2000491C88B200F076FAE8B200F067FA12E0C6
:102E300009488079012804D107480088401E001BFA
:102E400084B205494889214600F07AFA0249888906
:102E5000294600F075FA30BDC20600202DE9FF4F6B
:102E600081B080460E46DDE90E74B3462046E31776
:102E700004EB5373DB1021464FEAE47C04EB5C7CEB
:102E80004FEAEC0CA4EBCC0CBCF1000F02D04FF0DD
:102E9000010C01E04FF0000C6344224604EBD27CAD
:102EA0004FEA6C0C03FB0CF3DBB20093A7F120009C
:102EB000C7B2002555E00C2C07D107EB47002B4982
:102EC00001EB800010F8059014E0102C05D1284883
:102ED00000EB071010F805900CE0182C07D107EB59
:102EE000C700244901EB800010F8059002E005B00E
:102EF000BDE8F08F4FF0000A2DE009F0800028B106
:102F000031464046049AFFF7B9FC06E0109820B914
:102F100031464046039AFFF7B1FC4FEA49604FEA59
:102F20001069701C86B214484088B04200DCDEE7AD
:102F3000A6EB0B00A0420AD15E4608F101001FFA81
:102F400080F80D480088404500DCD0E706E00AF133
:102F5000010000F0FF0ABAF1080FCEDB00BF681CC9
:102F6000C5B200988542A6DB00BFC0E778490508D6
:102F7000EC4D0508DC530508C20600202DE9F84F8A
:102F800004460F46154698460A9E4FF00009CA4669
:102F9000A3460020009000BF20E04FF0000917E09A
:102FA0007078317840EA0120009039462046009A36
:102FB000FFF764FC601C84B20BEB0500A04202DC4E
:102FC0005C46781C87B2B61C09F101001FFA80F933
:102FD000A945E5DB0AF101001FFA80FAC245DCDBF6
:102FE000BDE8F88F2DE9FF4F84B080468946DDE9C2
:102FF000117A08F0FF0003900698404480B20690D2
:103000000798484480B2079065E19AF80000A0282C
:1030100070DD0698804505DBDDF80C8009EB0700C4
:103020001FFA80F90798814500DB59E10C2F5DD12B
:10303000002558E005EB850000EBC500AA4911F812
:1030400010009AF8001088424BD105EB850000EB88
:10305000C500A54901EB400040789AF8011088426C
:103060003FD100243AE005EB850000EBC5009E4906
:1030700001EB4000801C6100491C415C05EB8500B0
:1030800000EBC500984A02EB4000801C10F81400C9
:1030900041EA002B00261DE00BFA06F000F4004088
:1030A00050B109EB040291B208EB060290B28F4ACC
:1030B0001288FFF7E3FB0BE0139848B909EB040211
:1030C00091B208EB060290B2894A1288FFF7D6FB4C
:1030D000701CC6B2BE42DFDB601CC4B2BC42C2DBA5
:1030E00003E0681C85B2322DA4DBC9E0102F56D155
:1030F000002551E0CBE005EB05107E4911F81000EA
:103100009AF80010884245D105EB0510794901EB8A
:10311000400040789AF8011088423BD1002436E004
:1031200005EB0510734901EB4000801C6100491C50
:10313000415C05EB05106F4A02EB4000801C10F863
:10314000140041EA002B00261DE00BFA06F000F403
:10315000004050B109EB040291B208EB060290B2B4
:10316000624A1288FFF78AFB0BE0139848B909EB13
:10317000040291B208EB060290B25D4A1288FFF792
:103180007DFB701CC6B2BE42DFDB601CC4B2BC4219
:10319000C6DB03E0681C85B2322DACDB70E0182F73
:1031A0006ED1002569E005EB850000EB4510524922
:1031B00011F810009AF8001088425CD105EB8500E8
:1031C00000EB45104C4901EB400040789AF80110A3
:1031D000884250D100244BE005EB850000EB451000
:1031E000454901EB4000801C04EB4401405C0204B3
:1031F00005EB850000EB45103F4901EB4000801CCA
:1032000004EB4401491C405C42EA002105EB8500C7
:1032100000EB4510384A02EB4000801C04EB4402EE
:10322000921C805C41EA000B00261DE00BFA06F0C0
:1032300000F4000050B109EB040291B208EB060261
:1032400090B22A4A1288FFF719FB0BE0139848B98D
:1032500009EB040291B208EB060290B2244A1288EC
:10326000FFF70CFB701CC6B2BE42DFDB601CC4B2B1
:10327000BC42B1DB03E0681C85B2322D93DB00BF9A
:1032800008EB07001FFA80F80AF1020A23E006980B
:10329000804505DBDDF80C8009EB07001FFA80F99B
:1032A0000798814500DB1BE09AF800101398CDE9E0
:1032B000001702900D4803880D4802884946404691
:1032C000FFF7CCFD384607EBD07108EB61011FFA20
:1032D00081F80AF1010A9AF8000000287FF495AEFF
:1032E00000BF08B0BDE8F08F386105086800002015
:1032F0006A0000204C660508F06C050801B5BDF8B1
:1033000000000090BDF800000149088008BD0000E1
:103310000008006C01B5BDF800000090BDF8000089
:103320000149088008BD0000FE07006C02480089C2
:103330000249088070470000C2060020FE07006CAA
:10334000024A1080921C118070470000FE07006C3A
:1033500008B50121402000F0C7F90020009010209E
:103360008DF803003C20ADF8000003208DF802002A
:1033700069460A48FEF794FF04210848FFF726F83B
:1033800008210648FFF722F810210448FFF71EF82D
:1033900020210248FFF71AF808BD0000001801407C
:1033A00000B585B00121102000F09EF90121C8046C
:1033B00000F08AF94FF48060ADF8100003208DF81A
:1033C000120018208DF8130004A91448FEF768FFB6
:1033D0004FF40060ADF8100004208DF8130004A92C
:1033E0000E48FEF75DFF4FF4165000900020ADF838
:1033F0000C00ADF804000C20ADF80A000020ADF878
:103400000600ADF808006946054804F09BF8012164
:10341000034804F02EF805B000BD00000010014084
:10342000004C004000BFFEE77047704770B505468E
:103430000C467E2003F0FEFF052003F0FBFF422038
:1034400003F0F8FF284603F0F5FF204603F0F2FFF3
:1034500085F0470080EA0406304603F0EBFFEF20DA
:1034600003F0E8FF70BD2DE9F0410446002C04DABA
:1034700018210020FFF7DAFF6442142C05DAE1B2CC
:103480000020FFF7D3FFBDE8F081642094FBF0F04B
:10349000C7B2642094FBF0F100FB11400A2190FBBD
:1034A000F1F0C5B20A2094FBF0F100FB1140C6B266
:1034B0003FB139460020FFF7B9FF14210020FFF784
:1034C000B5FF3DB129460020FFF7B0FF0A210020DB
:1034D000FFF7ACFF46B11DB900210846FFF7A6FF74
:1034E00031460020FFF7A2FF00BFCCE770B50021F6
:1034F0000620FFF79BFF04210846FFF797FF0321F3
:103500000220FFF793FF1B48FDF748F8C5B2294694
:103510000220FFF78BFF02210846FFF787FF1548BF
:103520000A30FDF73BF8C5B229460220FFF77EFFBF
:10353000002402210420FFF779FF0E481430FDF724
:103540002DF804462046FFF78EFF01210846FFF7BD
:103550006DFF03210420FFF769FF06481E30FDF7C9
:103560001DF804462046FFF77EFF01210846FFF7BD
:103570005DFF70BD7805002070B500210620FFF7C3
:1035800055FF05210420FFF751FF03210220FFF71B
:103590004DFF1B48FDF702F8C5B229460220FFF790
:1035A00045FF02210846FFF741FF15480A30FCF7A6
:1035B000F5FFC5B229460220FFF738FF002402219B
:1035C0000420FFF733FF0E481430FCF7E7FF0446F2
:1035D0002046FFF748FF01210846FFF727FF032198
:1035E0000420FFF723FF06481E30FCF7D7FF0446F0
:1035F0002046FFF738FF01210846FFF717FF70BD8F
:103600000406002070B500210620FFF70FFF0621F9
:103610000420FFF70BFF03210220FFF707FF1B48E1
:10362000FCF7BCFFC5B229460220FFF7FFFE0221CE
:103630000846FFF7FBFE15480A30FCF7AFFFC5B29E
:1036400029460220FFF7F2FE002402210420FFF7A2
:10365000EDFE0E481430FCF7A1FF04462046FFF7AC
:1036600002FF01210846FFF7E1FE03210420FFF7D6
:10367000DDFE06481E30FCF791FF04462046FFF7AA
:10368000F2FE01210846FFF7D1FE70BD9006002032
:1036900001460020034A506820F44040084350602F
:1036A000704700000010024029B1064A52690243E7
:1036B000044B5A6104E0034A52698243014B5A6148
:1036C000704700000010024029B1064AD269024347
:1036D000044BDA6104E0034AD2698243014BDA61A8
:1036E000704700000010024029B1064A9269024367
:1036F000044B9A6104E0034A92698243014B9A6148
:10370000704700000010024030B500210022002464
:1037100000232D4D6D6805F00C0121B1042905D061
:10372000082923D105E0294D056022E0274D0560D9
:103730001FE0254D6D6805F47012234D6D6805F48A
:103740008034022505EB92421CB9214D554305609A
:103750000BE01D4D6D6805F400351DB11C4D554342
:10376000056002E0194D5543056002E0174D056004
:1037700000BF00BF144D6D6805F0F0010909154D3B
:103780006B5C0568DD4045600F4D6D6805F4E061D8
:10379000090A104D6B5C4568DD4085600A4D6D6817
:1037A00005F46051C90A0B4D6B5C4568DD40C5608E
:1037B000054D6D6805F44041890B074D6B5CC5688C
:1037C000B5FBF3F5056130BD0010024000127A0030
:1037D00000093D000000002010000020704710B5D7
:1037E00000F002F810BD00000CB500200190009020
:1037F0003348006840F480303149086000BF3048E9
:10380000006800F4003000900198401C019000987E
:1038100018B90198B0F5A06FF1D12948006800F4FB
:10382000003010B10120009001E0002000900098CD
:10383000012843D12348006840F010002149086066
:103840000846006820F0030008600846006840F061
:10385000020008601A4840681949486008464068F4
:1038600048600846406840F4806048600846406808
:1038700020F47C1048600846406840F4E810486036
:103880000846006840F08070086000BF0C4800687F
:1038900000F000700028F9D00948406820F00300CB
:1038A000074948600846406840F00200486000BF91
:1038B0000348406800F00C000828F9D10CBD000056
:1038C00000100240002002400A480068401C0949DC
:1038D000086009480068401C0749086007480068FC
:1038E000401C0649086006480068401C04490860FE
:1038F0007047000014000020180000201C00002069
:103900002000002010B51348006840F00100114964
:10391000086008464068104908400E49486008465B
:1039200000680E4908400B4908600846006820F40A
:10393000802008600846406820F4FE0048604FF48C
:103940001F008860FFF74BFF4FF0006004490860DC
:1039500010BD0000001002400000FFF8FFFFF6FE5F
:1039600008ED00E000B59FB000201E900121080284
:10397000FFF79AFE01214FF4B470FFF7B5FE012066
:10398000ADF8740010208DF8770003208DF87600D4
:103990001DA9FE48FEF784FC4CF23370ADF87400AC
:1039A00018208DF8770003208DF876001DA9F848BF
:1039B000FEF776FC4FF68070ADF8740018208DF895
:1039C000770003208DF876001DA9F248FEF768FC09
:1039D00041F20100ADF8740018208DF87700032043
:1039E0008DF876001DA9EC48FEF75AFC01200790DF
:1039F000002008900F20099000200A900B900C9056
:103A00000D900090019003200290002003900490FC
:103A10000590069006200E9000200F901090102028
:103A200011900020129014901390159016904FF45E
:103A300080501790002018904FF48040199000207B
:103A40001A9007A81B90CDF870D00EA8FEF732FA96
:103A500001210620FEF714FA3220FEF70AF90121AF
:103A60000020FFF76DFC3220FEF703F90020FEF77F
:103A70003BFFCA49888008468088FF280FDB08463C
:103A800080884FF6FF71884209D0C4488088B0F51D
:103A9000134F04D0C1488088B0F5144F7ED1D32095
:103AA000FFF738FCFEF716FFBC498880FEF712FFCF
:103AB000BA498880FEF70EFFB8498880084680889A
:103AC0004FF6FF7101EA0020B4498880FEF702FF3B
:103AD000B24989880843B14988800846808849F2FC
:103AE000413188425AD0AD48808849F286418842A7
:103AF000F8D0BF20FFF70EFCFEF7ECFEA749888048
:103B0000FEF7E8FEA5498880FEF7E4FEA349888019
:103B1000FEF7E0FEA1498880084680884FF6FF71D5
:103B200001EA00209D498880FEF7D4FE9B498988E0
:103B300008439A4988800846808846F604018842EE
:103B40007AD0D420FFF7E6FBFEF7C4FE93498880C5
:103B5000FEF7C0FE91498880FEF7BCFE8F49888041
:103B6000084680884FF6FF7101EA00208B49888063
:103B7000FEF7B0FE8949898808438849888008464D
:103B8000808845F21031884256D04FF45A40FFF7F2
:103B9000C1FBFEF79FFE8149888000E04CE04FF4B6
:103BA0005B40FFF7B7FBFEF795FE7C49888008462F
:103BB00080884FF6FF7101EA0020784988804FF431
:103BC0005C40FFF7A7FBFEF785FE74498988084330
:103BD0007249888008468088B0F5004F02D145F2CE
:103BE000105088806D48808845F21051884223D05B
:103BF000A120FFF78FFBFEF76DFE68498880FEF776
:103C000069FE66498880084680884FF6FF7101EAA0
:103C1000002062498880FEF75DFE6049898808437C
:103C20005E4988800846808845F26171884203D1E8
:103C300041F66310594988805848808849F24131DB
:103C4000884211D05548808845F2103188420BD007
:103C50005248808845F21051884205D04F488088EC
:103C600041F6631188421DD14D48006820F00F00D5
:103C70004FF02041C1F81C010846D0F81C0120F487
:103C80007060C1F81C010846D0F81C0140F0030028
:103C9000C1F81C010846D0F81C0140F40070C1F8BE
:103CA0001C0128E03D48808846F60401884205D082
:103CB0003A4880884CF2055188421CD13848006847
:103CC00020F00F004FF02041C1F81C010846D0F849
:103CD0001C0120F47060C1F81C010846D0F81C01DA
:103CE00040F00A00C1F81C010846D0F81C0140F45D
:103CF0004060C1F81C012948808849F2413188425E
:103D00007ED1CF20FFF706FB0020FFF7F7FAC12096
:103D1000FFF7F4FA3020FFF7F1FAED20FFF7FAFA97
:103D20006420FFF7EBFA0320FFF7E8FA1220FFF711
:103D3000E5FA8120FFF7E2FAE820FFF7EBFA8520A9
:103D4000FFF7DCFA1020FFF7D9FA7A20FFF7D6FA4E
:103D5000CB20FFF7DFFA3920FFF7D0FA2C20FFF74E
:103D6000CDFA0020FFF7CAFA3420FFF7C7FA022085
:103D7000FFF7C4FAF720FFF7CDFA2020FFF7BEFACD
:103D8000EA20FFF7C7FA00200CE00000000C014019
:103D9000001401400018014000200140C20600202C
:103DA0001C0100A0FFF7AAFA0020FFF7A7FAC02025
:103DB000FFF7B0FA1B20FFF7A1FAC120FFF7AAFA1C
:103DC0000120FFF79BFAC520FFF7A4FA3020FFF788
:103DD00095FA3020FFF792FAC720FFF79BFAB72039
:103DE000FFF78CFA3620FFF795FA4820FFF786FA9E
:103DF0003A20FFF78FFA5520FFF780FAB12000E054
:103E0000A5E0FFF787FA0020FFF778FA1A20FFF7FE
:103E100075FAB620FFF77EFA0A20FFF76FFAA220A4
:103E2000FFF76CFAF220FFF775FA0020FFF766FA49
:103E30002620FFF76FFA0120FFF760FAE020FFF776
:103E400069FA0F20FFF75AFA2A20FFF757FA2820BD
:103E5000FFF754FA0820FFF751FA0E20FFF74EFA49
:103E60000820FFF74BFA5420FFF748FAA920FFF784
:103E700045FA4320FFF742FA0A20FFF73FFA0F20E6
:103E8000FFF73CFA0020FFF739FA0020FFF736FA77
:103E90000020FFF733FA0020FFF730FAE120FFF7A8
:103EA00039FA0020FFF72AFA1520FFF727FA172022
:103EB000FFF724FA0720FFF721FA1120FFF71EFA77
:103EC0000620FFF71BFA2B20FFF718FA5620FFF702
:103ED00015FA3C20FFF712FA0520FFF70FFA102021
:103EE000FFF70CFA0F20FFF709FA3F20FFF706FA59
:103EF0003F20FFF703FA0F20FFF700FA2B20FFF710
:103F000009FA0020FFF7FAF90020FFF7F7F901207E
:103F1000FFF7F4F93F20FFF7F1F92A20FFF7FAF94C
:103F20000020FFF7EBF90020FFF7E8F90020FFF78A
:103F3000E5F9EF20FFF7E2F91120FFF7EBF9782020
:103F4000FDF797FE2920FFF7E5F903F0E9B9FE48F0
:103F5000808849F2864188427ED1F220FFF7DAF963
:103F60001820FFF7CBF9A320FFF7C8F91220FFF7BD
:103F7000C5F90220FFF7C2F9B220FFF7BFF91220FE
:103F8000FFF7BCF9FF20FFF7B9F91020FFF7B6F9EA
:103F90000020FFF7B3F9F820FFF7BCF92120FFF765
:103FA000ADF90420FFF7AAF9F920FFF7B3F90020D3
:103FB000FFF7A4F90820FFF7A1F93620FFF7AAF9C7
:103FC0000820FFF79BF93A20FFF7A4F90520FFF737
:103FD00095F9B420FFF79EF90120FFF78FF9B6207D
:103FE000FFF798F90220FFF789F92220FFF786F9F9
:103FF000C120FFF78FF94120FFF780F9C520FFF7B7
:1040000089F90020FFF77AF90720FFF777F9E02018
:10401000FFF780F90F20FFF771F91F20FFF76EF906
:104020001C20FFF76BF90C20FFF768F90F20FFF752
:1040300065F90820FFF762F94820FFF75FF998203B
:10404000FFF75CF93720FFF759F90A20FFF756F917
:104050001320FFF753F900E045E00420FFF74EF985
:104060001120FFF74BF90D20FFF748F90020FFF76B
:1040700045F9E120FFF74EF90F20FFF73FF9322015
:10408000FFF73CF92E20FFF739F90B20FFF736F93F
:104090000D20FFF733F90520FFF730F94720FFF730
:1040A0002DF97520FFF72AF93720FFF727F90620A9
:1040B000FFF724F91020FFF721F90320FFF71EF97D
:1040C0002420FFF71BF92020FFF718F90020FFF745
:1040D00015F91120FFF71EF97820FDF7CAFD2920F8
:1040E000FFF718F931E79848808846F604018842BE
:1040F0007ED11120FFF70EF91420FDF7BAFDD02074
:10410000FFF708F90720FFF7F9F84220FFF7F6F864
:104110001D20FFF7F3F8D120FFF7FCF80020FFF790
:10412000EDF81A20FFF7EAF80920FFF7E7F8D220A8
:10413000FFF7F0F80120FFF7E1F82220FFF7DEF8A3
:10414000C020FFF7E7F81020FFF7D8F83B20FFF773
:10415000D5F80020FFF7D2F80220FFF7CFF81120A2
:10416000FFF7CCF8C520FFF7D5F80320FFF7C6F816
:10417000C820FFF7CFF80020FFF7C0F82520FFF791
:10418000BDF82120FFF7BAF80520FFF7B7F80020A7
:10419000FFF7B4F80A20FFF7B1F86520FFF7AEF893
:1041A0002520FFF7ABF87720FFF7A8F85020FFF79E
:1041B000A5F80F20FFF7A2F80020FFF79FF8F820DE
:1041C000FFF7A8F80120FFF799F8FE20FFF7A2F803
:1041D0000020FFF793F80220FFF790F82020FFF768
:1041E00099F83620FFF796F80820FFF787F800E0E7
:1041F0002AE03A20FFF78EF85520FFF77FF82B20B2
:10420000FFF788F80020FFF779F80020FFF776F82D
:104210000120FFF773F83F20FFF770F82A20FFF71F
:1042200079F80020FFF76AF80020FFF767F801200F
:10423000FFF764F8DF20FFF761F87820FDF719FD3C
:104240002920FFF767F880E63F48808845F2103163
:10425000884240F07C87ED20FFF75CF80120FFF7F3
:104260004DF8FE20FFF74AF8EE20FFF753F8DE2066
:10427000FFF744F82120FFF741F8F120FFF74AF853
:104280000120FFF73BF8DF20FFF744F81020FFF78D
:1042900035F8C420FFF73EF88F20FFF72FF8C6202F
:1042A000FFF738F80020FFF729F8E220FFF726F89B
:1042B000E220FFF723F8E220FFF720F8BF20FFF706
:1042C00029F8AA20FFF71AF8B020FFF723F80D20ED
:1042D000FFF714F80020FFF711F80D20FFF70EF894
:1042E0000020FFF70BF81120FFF708F80020FFF778
:1042F00005F81920FFF702F80020FEF7FFFF212044
:10430000FEF7FCFF0020FEF7F9FF2D20FEF7F6FF79
:104310000020FEF7F3FF3D20FEF7F0FF0020FEF740
:10432000EDFF5D20FEF7EAFF0020FEF7E7FF5D20CE
:10433000FEF7E4FF0020FEF7E1FFB120FEF7EAFF01
:104340008020FEF7DBFF01E0C20600200020FEF720
:10435000D5FF8B20FEF7D2FF0020FEF7CFFF96207F
:10436000FEF7CCFF0020FEF7C9FFB220FEF7D2FF18
:104370000020FEF7C3FF0020FEF7C0FF0220FEF77B
:10438000BDFF0020FEF7BAFF0320FEF7B7FF0020B5
:10439000FEF7B4FFB320FEF7BDFF0020FEF7AEFF2F
:1043A0000020FEF7ABFF0020FEF7A8FF0020FEF77D
:1043B000A5FF0020FEF7A2FF0020FEF79FFF0020D0
:1043C000FEF79CFF0020FEF799FF0020FEF796FF06
:1043D0000020FEF793FF0020FEF790FF0020FEF77D
:1043E0008DFF0020FEF78AFF0020FEF787FF0020E8
:1043F000FEF784FF0020FEF781FF0020FEF77EFF1E
:104400000020FEF77BFF0020FEF778FF0020FEF77C
:1044100075FF0020FEF772FF0020FEF76FFF0020FF
:10442000FEF76CFF0020FEF769FFB420FEF772FF75
:104430008B20FEF763FF0020FEF760FF9620FEF75B
:104440005DFF0020FEF75AFFA120FEF757FF002076
:10445000FEF754FFB520FEF75DFF0220FEF74EFF8A
:104460000020FEF74BFF0320FEF748FF0020FEF779
:1044700045FF0420FEF742FF0020FEF73FFFB62075
:10448000FEF748FF0020FEF739FF0020FEF736FF59
:10449000B720FEF73FFF0020FEF730FF0020FEF7B9
:1044A0002DFF3F20FEF72AFF0020FEF727FF5E20AA
:1044B000FEF724FF0020FEF721FF6420FEF71EFF19
:1044C0000020FEF71BFF8C20FEF718FF0020FEF7F0
:1044D00015FFAC20FEF712FF0020FEF70FFFDC20D7
:1044E000FEF70CFF0020FEF709FF7020FEF706FF25
:1044F0000020FEF703FF9020FEF700FF0020FEF7EC
:10450000FDFEEB20FEF7FAFE0020FEF7F7FEDC20B2
:10451000FEF7F4FE0020FEF7F1FEB820FEF7FAFEEB
:104520000020FEF7EBFE0020FEF7E8FE0020FEF77D
:10453000E5FE0020FEF7E2FE0020FEF7DFFE002091
:10454000FEF7DCFE0020FEF7D9FE0020FEF7D6FEC7
:10455000BA20FEF7DFFE2420FEF7D0FE0020FEF793
:10456000CDFE0020FEF7CAFE0020FEF7C7FEC120E8
:10457000FEF7D0FE2020FEF7C1FE0020FEF7BEFEB3
:104580005420FEF7BBFE0020FEF7B8FEFF20FEF72A
:10459000B5FE0020FEF7B2FEC220FEF7BBFE0A20E9
:1045A000FEF7ACFE0020FEF7A9FE0420FEF7A6FEF3
:1045B0000020FEF7A3FEC320FEF7ACFE3C20FEF772
:1045C0009DFE0020FEF79AFE3A20FEF797FE00209F
:1045D000FEF794FE3920FEF791FE0020FEF78EFED6
:1045E0003720FEF78BFE0020FEF788FE3C20FEF70A
:1045F00085FE0020FEF782FE3620FEF77FFE0020BB
:10460000FEF77CFE3220FEF779FE0020FEF776FEF4
:104610002F20FEF773FE0020FEF770FE2C20FEF721
:104620006DFE0020FEF76AFE2920FEF767FE0020DF
:10463000FEF764FE2620FEF761FE0020FEF75EFE18
:104640002420FEF75BFE0020FEF758FE2420FEF734
:1046500055FE0020FEF752FE2320FEF74FFE0020FD
:10466000FEF74CFE3C20FEF749FE0020FEF746FE1A
:104670003620FEF743FE0020FEF740FE3220FEF714
:104680003DFE0020FEF73AFE2F20FEF737FE002009
:10469000FEF734FE2C20FEF731FE0020FEF72EFE42
:1046A0002920FEF72BFE0020FEF728FE2620FEF72D
:1046B00025FE0020FEF722FE2420FEF71FFE00202C
:1046C000FEF71CFE2420FEF719FE0020FEF716FE62
:1046D0002320FEF713FE0020FEF710FEC420FEF795
:1046E00019FE6220FEF70AFE0020FEF707FE0520F5
:1046F000FEF704FE0020FEF701FE8420FEF7FEFD1B
:104700000020FEF7FBFDF020FEF7F8FD0020FEF78D
:10471000F5FD1820FEF7F2FD0020FEF7EFFDA420C6
:10472000FEF7ECFD0020FEF7E9FD1820FEF7E6FDA0
:104730000020FEF7E3FD5020FEF7E0FD0020FEF72D
:10474000DDFD0C20FEF7DAFD0020FEF7D7FD172077
:10475000FEF7D4FD0020FEF7D1FD9520FEF7CEFD3B
:104760000020FEF7CBFDF320FEF7C8FD0020FEF78A
:10477000C5FDE620FEF7C2FD0020FEF7BFFDC52007
:10478000FEF7C8FD3220FEF7B9FD0020FEF7B6FDAA
:104790004420FEF7B3FD0020FEF7B0FD6520FEF7D4
:1047A000ADFD0020FEF7AAFD7620FEF7A7FD002054
:1047B000FEF7A4FD8820FEF7A1FD0020FEF79EFD78
:1047C000C620FEF7A7FD2020FEF798FD0020FEF78B
:1047D00095FD1720FEF792FD0020FEF78FFD0120CA
:1047E000FEF78CFD0020FEF789FDC720FEF792FD45
:1047F0000020FEF783FD0020FEF780FD0020FEF77D
:104800007DFD0020FEF77AFDC820FEF783FD002025
:10481000FEF774FD0020FEF771FD0020FEF76EFD2F
:104820000020FEF76BFDC920FEF774FD0020FEF7A7
:1048300065FD0020FEF762FD0020FEF75FFD002011
:10484000FEF75CFD0020FEF759FD0020FEF756FD47
:104850000020FEF753FD0020FEF750FD0020FEF77C
:104860004DFD0020FEF74AFD0020FEF747FD002029
:10487000FEF744FD0020FEF741FD0020FEF73EFD5F
:104880000020FEF73BFD0020FEF738FDE020FEF79C
:1048900041FD1620FEF732FD0020FEF72FFD1C2003
:1048A000FEF72CFD0020FEF729FD2120FEF726FD56
:1048B0000020FEF723FD3620FEF720FD0020FEF746
:1048C0001DFD4620FEF71AFD0020FEF717FD5220C1
:1048D000FEF714FD0020FEF711FD6420FEF70EFD2B
:1048E0000020FEF70BFD7A20FEF708FD0020FEF702
:1048F00005FD8B20FEF702FD0020FEF7FFFC99204E
:10490000FEF7FCFC0020FEF7F9FCA820FEF7F6FC01
:104910000020FEF7F3FCB920FEF7F0FC0020FEF7C4
:10492000EDFCC420FEF7EAFC0020FEF7E7FCCA20FD
:10493000FEF7E4FC0020FEF7E1FCD220FEF7DEFCEF
:104940000020FEF7DBFCD920FEF7D8FC0020FEF7A4
:10495000D5FCE020FEF7D2FC0020FEF7CFFCF320D0
:10496000FEF7CCFC0020FEF7C9FCE120FEF7D2FCEC
:104970001620FEF7C3FC0020FEF7C0FC1C20FEF74B
:10498000BDFC0020FEF7BAFC2220FEF7B7FC002099
:10499000FEF7B4FC3620FEF7B1FC0020FEF7AEFCBB
:1049A0004520FEF7ABFC0020FEF7A8FC5220FEF7E6
:1049B000A5FC0020FEF7A2FC6420FEF79FFC00206F
:1049C000FEF79CFC7A20FEF799FC0020FEF796FC8F
:1049D0008B20FEF793FC0020FEF790FC9920FEF759
:1049E0008DFC0020FEF78AFCA820FEF787FC002043
:1049F000FEF784FCB920FEF781FC0020FEF77EFC68
:104A0000C420FEF77BFC0020FEF778FCCA20FEF7EE
:104A100075FC0020FEF772FCD220FEF76FFC002030
:104A2000FEF76CFCD820FEF769FC0020FEF766FC60
:104A3000E020FEF763FC0020FEF760FCF320FEF7A9
:104A40005DFC0020FEF75AFCE220FEF763FC052027
:104A5000FEF754FC0020FEF751FC0B20FEF74EFC45
:104A60000020FEF74BFC1B20FEF748FC0020FEF761
:104A700045FC3420FEF742FC0020FEF73FFC4420BA
:104A8000FEF73CFC0020FEF739FC4F20FEF736FC19
:104A90000020FEF733FC6120FEF730FC0020FEF71B
:104AA0002DFC7920FEF72AFC0020FEF727FC882049
:104AB000FEF724FC0020FEF721FC9720FEF71EFCE9
:104AC0000020FEF71BFCA620FEF718FC0020FEF7D6
:104AD00015FCB720FEF712FC0020FEF70FFCC220E9
:104AE000FEF70CFC0020FEF709FCC720FEF706FCD1
:104AF0000020FEF703FCD120FEF700FC0020FEF7AB
:104B0000FDFBD620FEF7FAFB0020FEF7F7FBDD20C9
:104B1000FEF7F4FB0020FEF7F1FBF320FEF7EEFBBF
:104B20000020FEF7EBFBE320FEF7F4FB0520FEF789
:104B3000E5FB0020FEF7E2FB0A20FEF7DFFB00208A
:104B4000FEF7DCFB1C20FEF7D9FB0020FEF7D6FBAE
:104B50003320FEF7D3FB0020FEF7D0FB4420FEF706
:104B6000CDFB0020FEF7CAFB5020FEF7C7FB00205C
:104B7000FEF7C4FB6220FEF7C1FB0020FEF7BEFB80
:104B80007820FEF7BBFB0020FEF7B8FB8820FEF77D
:104B9000B5FB0020FEF7B2FB9720FEF7AFFB00202D
:104BA000FEF7ACFBA620FEF7A9FB0020FEF7A6FB54
:104BB000B720FEF7A3FB0020FEF7A0FBC220FEF704
:104BC0009DFB0020FEF79AFBC720FEF797FB002015
:104BD000FEF794FBD120FEF791FB0020FEF78EFB41
:104BE000D520FEF78BFB0020FEF788FBDD20FEF7CB
:104BF00085FB0020FEF782FBF320FEF77FFB002001
:104C0000FEF77CFBE420FEF785FB0120FEF776FB38
:104C10000020FEF773FB0120FEF770FB0020FEF77B
:104C20006DFB0220FEF76AFB0020FEF767FB2A20DF
:104C3000FEF764FB0020FEF761FB3C20FEF75EFB05
:104C40000020FEF75BFB4B20FEF758FB0020FEF731
:104C500055FB5D20FEF752FB0020FEF74FFB742052
:104C6000FEF74CFB0020FEF749FB8420FEF746FBD5
:104C70000020FEF743FB9320FEF740FB0020FEF7E9
:104C80003DFBA220FEF73AFB0020FEF737FBB320E6
:104C9000FEF734FB0020FEF731FBBE20FEF72EFBB3
:104CA0000020FEF72BFBC420FEF728FB0020FEF7B8
:104CB00025FBCD20FEF722FB0020FEF71FFBD320B3
:104CC000FEF71CFB0020FEF719FBDD20FEF716FBAC
:104CD0000020FEF713FBF320FEF710FB0020FEF789
:104CE0000DFBE520FEF716FB0020FEF707FB00207A
:104CF000FEF704FB0020FEF701FB0020FEF7FEFAA2
:104D00000220FEF7FBFA0020FEF7F8FA2920FEF752
:104D1000F5FA0020FEF7F2FA3C20FEF7EFFA002049
:104D2000FEF7ECFA4B20FEF7E9FA0020FEF7E6FA70
:104D30005D20FEF7E3FA0020FEF7E0FA7420FEF7AC
:104D4000DDFA0020FEF7DAFA8420FEF7D7FA002019
:104D5000FEF7D4FA9320FEF7D1FA0020FEF7CEFA40
:104D6000A220FEF7CBFA0020FEF7C8FAB320FEF728
:104D7000C5FA0020FEF7C2FABE20FEF7BFFA0020F7
:104D8000FEF7BCFAC420FEF7B9FA0020FEF7B6FA27
:104D9000CD20FEF7B3FA0020FEF7B0FAD320FEF7DD
:104DA000ADFA0020FEF7AAFADC20FEF7A7FA0020F1
:104DB000FEF7A4FAF320FEF7A1FA0020FEF79EFA10
:104DC000E620FEF7A7FA1120FEF798FA0020FEF77A
:104DD00095FA3420FEF792FA0020FEF78FFA56205B
:104DE000FEF78CFA0020FEF789FA7620FEF786FAA5
:104DF0000020FEF783FA7720FEF780FA0020FEF706
:104E00007DFA6620FEF77AFA0020FEF777FA88200E
:104E1000FEF774FA0020FEF771FA9920FEF76EFA99
:104E20000020FEF76BFABB20FEF768FA0020FEF7C1
:104E300065FA9920FEF762FA0020FEF75FFA662015
:104E4000FEF75CFA0020FEF759FA5520FEF756FAF5
:104E50000020FEF753FA5520FEF750FA0020FEF727
:104E60004DFA4520FEF74AFA0020FEF747FA4320A4
:104E7000FEF744FA0020FEF741FA4420FEF73EFA1E
:104E80000020FEF73BFAE720FEF744FA3220FEF757
:104E900035FA0020FEF732FA5520FEF72FFA0020EF
:104EA000FEF72CFA7620FEF729FA0020FEF726FA04
:104EB0006620FEF723FA0020FEF720FA6720FEF7AF
:104EC0001DFA0020FEF71AFA6720FEF717FA0020F5
:104ED000FEF714FA8720FEF711FA0020FEF70EFA0B
:104EE0009920FEF70BFA0020FEF708FABB20FEF728
:104EF00005FA0020FEF702FA9920FEF7FFF90020DC
:104F0000FEF7FCF97720FEF7F9F90020FEF7F6F935
:104F10004420FEF7F3F90020FEF7F0F95620FEF7E3
:104F2000EDF90020FEF7EAF92320FEF7E7F900206B
:104F3000FEF7E4F93320FEF7E1F90020FEF7DEF991
:104F40004520FEF7DBF90020FEF7D8F9E820FEF750
:104F5000E1F90020FEF7D2F90020FEF7CFF9992001
:104F6000FEF7CCF90020FEF7C9F98720FEF7C6F955
:104F70000020FEF7C3F98820FEF7C0F90020FEF7F5
:104F8000BDF97720FEF7BAF90020FEF7B7F96620E1
:104F9000FEF7B4F90020FEF7B1F98820FEF7AEF96C
:104FA0000020FEF7ABF9AA20FEF7A8F90020FEF7D3
:104FB000A5F9BB20FEF7A2F90020FEF79FF9992082
:104FC000FEF79CF90020FEF799F96620FEF796F9A6
:104FD0000020FEF793F95520FEF790F90020FEF728
:104FE0008DF95520FEF78AF90020FEF787F9442055
:104FF000FEF784F90020FEF781F94420FEF77EF9E0
:105000000020FEF77BF95520FEF778F90020FEF727
:1050100075F9E920FEF77EF9AA20FEF76FF9002066
:10502000FEF76CF90020FEF769F90020FEF766F93B
:105030000020FEF76FF9AA20FEF760F9CF20FEF7F7
:1050400069F90020FEF75AF90020FEF757F9002011
:10505000FEF754F90020FEF751F90020FEF74EF953
:105060000020FEF74BF90020FEF748F90020FEF77C
:1050700045F90020FEF742F90020FEF73FF9002035
:10508000FEF73CF90020FEF739F90020FEF736F96B
:105090000020FEF733F90020FEF730F90020FEF77C
:1050A0002DF90020FEF72AF9F020FEF733F9002051
:1050B000FEF724F95020FEF721F90020FEF71EF933
:1050C0000020FEF71BF90020FEF718F9F320FEF789
:1050D00021F90020FEF712F9F920FEF71BF906204E
:1050E000FEF70CF91020FEF709F92920FEF706F962
:1050F0000020FEF703F93A20FEF70CF95520FEF7E1
:10510000FDF81120FEF706F96420FCF7B2FD292016
:10511000FEF700F93520FEF7FDF80020FEF7EEF867
:105120005120FEF7F7F8FF20FEF7E8F85320FEF7CE
:10513000F1F82C20FEF7E2F85520FEF7EBF882207C
:10514000FEF7DCF82C20FEF7E5F802F0E9B8FE489F
:10515000808845F2105188427ED155214FF470402D
:10516000FEF7EEF8AA214FF20100FEF7E9F852210E
:105170004FF20200FEF7E4F808214FF20300FEF7B9
:10518000DFF801214FF20400FEF7DAF80D214FF4A9
:105190003040FEF7D5F80D214BF20100FEF7D0F8B4
:1051A0000D214BF20200FEF7CBF834214FF43640CC
:1051B000FEF7C6F834214BF20160FEF7C1F8342146
:1051C0004BF20260FEF7BCF80D214FF43140FEF7C0
:1051D000B7F80D214BF20110FEF7B2F80D214BF29A
:1051E0000210FEF7ADF834214FF43740FEF7A8F86F
:1051F00034214BF20170FEF7A3F834214BF2027018
:10520000FEF79EF800214FF43240FEF799F8002196
:105210004BF20120FEF794F800214BF20220FEF73A
:105220008FF824214FF43840FEF78AF824214BF6FA
:105230000100FEF785F824214BF60200FEF780F806
:1052400001214FF43F40FEF77BF80F214FF433402C
:10525000FEF776F80F2100E0FEE34BF20130FEF797
:105260006FF80F214BF20230FEF76AF834214FF449
:105270003940FEF765F834214BF60110FEF760F86F
:1052800034214BF60210FEF75BF808214FF435404D
:10529000FEF756F808214BF20150FEF751F80821AD
:1052A0004BF20250FEF74CF803214FF44240FEF758
:1052B00047F824214FF43A40FEF742F824214BF6F8
:1052C0000120FEF73DF824214BF60220FEF738F8C6
:1052D00000214FF43C40FEF733F878214BF60140B3
:1052E000FEF72EF800214BF60240FEF729F80021C8
:1052F0004FF43D40FEF724F878214BF60150FEF7BD
:105300001FF800214BF60250FEF71AF800214FF467
:105310003E40FEF715F864214BF60160FEF710F8E9
:1053200000214FF45140FEF70BF833214DF20110EC
:10533000FEF706F800214DF20210FEF701F83421C5
:105340004DF20310FDF7FCFF00214DF20410FDF7B4
:10535000F7FF3A214DF20510FDF7F2FF00214DF263
:105360000610FDF7EDFF4A214DF20710FDF7E8FFAB
:1053700000214DF20810FDF7E3FF5C214DF209100A
:10538000FDF7DEFF00214DF20A10FDF7D9FF812164
:105390004DF20B10FDF7D4FF00214DF20C10FDF77C
:1053A000CFFFA6214DF20D10FDF7CAFF00214DF2EF
:1053B0000E10FDF7C5FFE5214DF20F10FDF7C0FF00
:1053C00001214DF21010FDF7BBFF13214DF211101A
:1053D000FDF7B6FF01214DF21210FDF7B1FF542188
:1053E0004DF21310FDF7ACFF01214DF21410FDF743
:1053F000A7FF82214DF21510FDF7A2FF01214DF20A
:105400001610FDF79DFFCA214DF21710FDF798FF0A
:1054100002214DF21810FDF793FF00214DF21910F3
:10542000FDF78EFF02214DF21A10FDF789FF0121D1
:105430004DF21B10FDF784FF02214DF21C10FDF709
:105440007FFF34214DF21D10FDF77AFF02214DF24E
:105450001E10FDF775FF67214DF21F10FDF770FF5D
:1054600002214DF22010FDF76BFF84214DF2211037
:10547000FDF766FF02214DF22210FDF761FFA42126
:105480004DF22310FDF75CFF02214DF22410FDF7D1
:1054900057FFB7214DF22510FDF752FF02214DF2C3
:1054A0002610FDF74DFFCF214DF22710FDF748FFE5
:1054B00002214DF22810FDF743FFDE214DF22910A5
:1054C000FDF73EFF02214DF22A10FDF739FFF221D0
:1054D0004DF22B10FDF734FF02214DF22C10FDF799
:1054E0002FFFFE214DF22D10FDF72AFF03214DF273
:1054F0002E10FDF725FF10214DF22F10FDF720FF94
:1055000003214DF23010FDF71BFF33214DF2311016
:10551000FDF716FF03214DF23210FDF711FF6D214B
:105520004DF23310FDF70CFF00214FF45240FDF710
:1055300007FF33214DF20120FDF702FF00214DF25C
:105540000220FDF7FDFE01E0C206002034214DF2ED
:105550000320FDF7F5FE00214DF20420FDF7F0FEDB
:105560003A214DF20520FDF7EBFE00214DF2062019
:10557000FDF7E6FE4A214DF20720FDF7E1FE00218E
:105580004DF20820FDF7DCFE5C214DF20920FDF70D
:10559000D7FE00214DF20A20FDF7D2FE81214DF207
:1055A0000B20FDF7CDFE00214DF20C20FDF7C8FECB
:1055B000A6214DF20D20FDF7C3FE00214DF20E2075
:1055C000FDF7BEFEE5214DF20F20FDF7B9FE0121EA
:1055D0004DF21020FDF7B4FE13214DF21120FDF71E
:1055E000AFFE01214DF21220FDF7AAFE54214DF22B
:1055F0001320FDF7A5FE01214DF21420FDF7A0FEBA
:1056000082214DF21520FDF79BFE01214DF216205F
:10561000FDF796FECA214DF21720FDF791FE0221FB
:105620004DF21820FDF78CFE00214DF21920FDF7F8
:1056300087FE02214DF21A20FDF782FE01214DF274
:105640001B20FDF77DFE02214DF21C20FDF778FEA8
:1056500034214DF21D20FDF773FE02214DF21E2074
:10566000FDF76EFE67214DF21F20FDF769FE022156
:105670004DF22020FDF764FE84214DF22120FDF73C
:105680005FFE02214DF22220FDF75AFEA4214DF2C9
:105690002320FDF755FE02214DF22420FDF750FE98
:1056A000B7214DF22520FDF74BFE02214DF22620B9
:1056B000FDF746FECF214DF22720FDF741FE0221E6
:1056C0004DF22820FDF73CFEDE214DF22920FDF7AA
:1056D00037FE02214DF22A20FDF732FEF2214DF273
:1056E0002B20FDF72DFE02214DF22C20FDF728FE88
:1056F000FE214DF22D20FDF723FE03214DF22E2039
:10570000FDF71EFE10214DF22F20FDF719FE03219B
:105710004DF23020FDF714FE33214DF23120FDF71C
:105720000FFE03214DF23220FDF70AFE6D214DF2EE
:105730003320FDF705FE00214FF45340FDF700FE36
:1057400033214DF20130FDF7FBFD00214DF2023017
:10575000FDF7F6FD34214DF20330FDF7F1FD002198
:105760004DF20430FDF7ECFD3A214DF20530FDF726
:10577000E7FD00214DF20630FDF7E2FD4A214DF232
:105780000730FDF7DDFD00214DF20830FDF7D8FDB3
:105790005C214DF20930FDF7D3FD00214DF20A30B6
:1057A000FDF7CEFD81214DF20B30FDF7C9FD002143
:1057B0004DF20C30FDF7C4FDA6214DF20D30FDF782
:1057C000BFFD00214DF20E30FDF7BAFDE5214DF28F
:1057D0000F30FDF7B5FD01214DF21030FDF7B0FDA2
:1057E00013214DF21130FDF7ABFD01214DF21230C6
:1057F000FDF7A6FD54214DF21330FDF7A1FD012167
:105800004DF21430FDF79CFD82214DF21530FDF76D
:1058100097FD01214DF21630FDF792FDCA214DF2A0
:105820001730FDF78DFD02214DF21830FDF788FD90
:1058300000214DF21930FDF783FD02214DF21A309F
:10584000FDF77EFD01214DF21B30FDF779FD0221B0
:105850004DF21C30FDF774FD34214DF21D30FDF783
:105860006FFD02214DF21E30FDF76AFD67214DF2FA
:105870001F30FDF765FD02214DF22030FDF760FD80
:1058800084214DF22130FDF75BFD02214DF22230E3
:10589000FDF756FDA4214DF22330FDF751FD022105
:1058A0004DF22430FDF74CFDB7214DF22530FDF7C8
:1058B00047FD02214DF22630FDF742FDCF214DF28A
:1058C0002730FDF73DFD02214DF22830FDF738FD70
:1058D000DE214DF22930FDF733FD02214DF22A3051
:1058E000FDF72EFDF2214DF22B30FDF729FD0221AF
:1058F0004DF22C30FDF724FDFE214DF22D30FDF749
:105900001FFD03214DF22E30FDF71AFD10214DF23F
:105910002F30FDF715FD03214DF23030FDF710FD5E
:1059200033214DF23130FDF70BFD03214DF23230C2
:10593000FDF706FD6D214DF23330FDF701FD00212D
:105940004FF45440FDF7FCFC33214DF20140FDF7CC
:10595000F7FC00214DF20240FDF7F2FC34214DF23C
:105960000340FDF7EDFC00214DF20440FDF7E8FC9B
:105970003A214DF20540FDF7E3FC00214DF20640CF
:10598000FDF7DEFC4A214DF20740FDF7D9FC00216E
:105990004DF20840FDF7D4FC5C214DF20940FDF7C3
:1059A000CFFC00214DF20A40FDF7CAFC81214DF2E7
:1059B0000B40FDF7C5FC00214DF20C40FDF7C0FC8B
:1059C000A6214DF20D40FDF7BBFC00214DF20E402B
:1059D000FDF7B6FCE5214DF20F40FDF7B1FC0121CA
:1059E0004DF21040FDF7ACFC13214DF21140FDF7D4
:1059F000A7FC01214DF21240FDF7A2FC54214DF20B
:105A00001340FDF79DFC01214DF21440FDF798FC79
:105A100082214DF21540FDF793FC01214DF2164015
:105A2000FDF78EFCCA214DF21740FDF789FC0221DB
:105A30004DF21840FDF784FC00214DF21940FDF7AE
:105A40007FFC02214DF21A40FDF77AFC01214DF254
:105A50001B40FDF775FC00E004E302214DF21C4001
:105A6000FDF76EFC34214DF21D40FDF769FC02216B
:105A70004DF21E40FDF764FC67214DF21F40FDF71B
:105A80005FFC02214DF22040FDF75AFC84214DF2CB
:105A90002140FDF755FC02214DF22240FDF750FC5C
:105AA000A4214DF22340FDF74BFC02214DF224408E
:105AB000FDF746FCB7214DF22540FDF741FC0221E0
:105AC0004DF22640FDF73CFCCF214DF22740FDF77B
:105AD00037FC02214DF22840FDF732FCDE214DF269
