:020000040800F2
:100000008020002045010008B11C00084D0F0008A9
:10001000AD1C0008C1070008815A0008000000005C
:10002000000000000000000000000000C91D0008E2
:10003000C507000800000000B31C0008B51E00083A
:100040005F0100085F0100085F0100085F01000810
:100050005F0100085F0100085F0100085F01000800
:100060005F0100085F0100085F0100085F010008F0
:100070005F0100085F0100085F0100085F010008E0
:100080005F0100085F0100085F0100085F010008D0
:100090005F0100085F0100085F0100085F010008C0
:1000A0005F0100085F0100085F0100085F010008B0
:1000B0005F0100085F0100085F0100085F010008A0
:1000C0005F0100085F0100085F0100085F01000890
:1000D0005F010008215900085F0100085F01000866
:1000E0005F0100085F0100085F0100085F01000870
:1000F0005F0100085F0100085F0100085F01000860
:100100005F0100085F0100085F0100085F0100084F
:100110005F0100085F0100085F0100085F0100083F
:100120005F0100085F0100085F0100085F0100082F
:10013000DFF80CD000F032FB00480047C56400082F
:10014000802000200648804706480047FEE7FEE77B
:10015000FEE7FEE7FEE7FEE7FEE7FEE7FEE7FEE777
:10016000E11E0008310100082DE9FE4F804681EABA
:100170000300C00F0C46009021F0004123F0004521
:10018000B8EB0200A94105D24046214690461C46E4
:100190000B46024623F00040104347D0270DC7F31B
:1001A0000A00C3F30A510290401A019040286BDA0A
:1001B000C3F3130040F4801B0098924620B1002343
:1001C000D2EB030A63EB0B0B01985946C0F14002D6
:1001D000504600F0EDF906460D4650465946019A44
:1001E00000F005FA10EB08006141002487EA115283
:1001F00084EAE7731A4340D0009A62B3019A012A55
:100200004FEA075215DC001B61EB02014FF0004280
:1002100002EA0752CDE90042001C41F58011324646
:100220002B4600F03CFA03B0BDE8F08F4046214673
:10023000F9E7001B61EB0201001C41F58013001877
:100240005B412018A2F5001747EB030140EAD57087
:10025000B6196D4111E06D084FEA360645EAC075E2
:100260004FEA0752001B61EB0201001C41F58011AF
:1002700049084FEA30000019514132462B4603B07D
:10028000BDE8F04F00F0FCB90098012240000023C7
:10029000D0EB020263EBE073009821464FEAE07472
:1002A000B8EB000061EB0401E9E783F000435BE792
:1002B00081F0004158E72DE9FE4F81EA030404F084
:1002C000004421F0004100944FF0000B23F0004364
:1002D00050EA01045ED052EA03045BD0C3F30A542F
:1002E000C1F30A552C44A4F2F3340194A0FB025448
:1002F000C1F3130141F48011C3F3130343F48013DA
:1003000001FB024400FB034E840A970A44EA81542D
:1003100047EA8357A4FB076802958D0A05FB07850A
:100320004FEA932C04FB0C542705029D4FEA065814
:1003300047EA1637B5EB08056EEB070C870E920EF1
:1003400047EA811742EA8312A7FB0201B6EB0B01D1
:1003500064EB00042B0D43EA0C335E1844EB1C5095
:10036000DA465146E7FB0201C5F313044FEA0B33AB
:1003700043EA14534FEA0432019C43EA0603A4F112
:100380000C040294009CCDE900B400F088F903B09D
:10039000BDE8F08F00200146F9E72DE9F04D81EA34
:1003A000030404F0004B21F0004514464FF0000A0E
:1003B00023F0004150EA050220D054EA01021DD08A
:1003C000C5F30A570246C5F31303C1F31300C1F383
:1003D0000A5640F4801543F48013A7EB0608101B5F
:1003E000D64608F2FD3873EB050002D308F1010888
:1003F00001E092185B41B8F1000F03DA00200146DA
:10040000BDE8F08D00204FF48011064684460EE0D2
:10041000171B73EB050705D3121B63EB050306439C
:100420004CEA010C49084FEA300092185B4150EA4F
:100430000107EDD152EA030012D082EA040083EAF8
:100440000501084305D0101BAB4106D20122002351
:1004500006E000224FF0004302E06FF0010253106B
:100460001AEB06004CEB085110EB0A0041EB0B01B4
:10047000BDE8F04D00F004B90EB540F233410291F1
:100480000021CDE900110A460B4600F008F903B03F
:1004900000BDC1F30A5210B5C1F3130140F2FF339E
:1004A00041F480119A4201DA002010BD40F233433A
:1004B0009A42A2F2334203DC524200F088F810BDA7
:1004C000904010BD00F0004230F000400AD0C10D55
:1004D00001F56071C0F3160042EA0151C2084007FD
:1004E0001143704700200146704701F0004330B4CB
:1004F00021F0004150EA010206D00A0DA2F5607217
:10050000C1F31301002A02DC30BC00207047440F05
:1005100044EAC104C100E01830BC00EBC25000F056
:1005200078B830B50B46014600202022012409E0AE
:1005300021FA02F59D4205D303FA02F5491B04FA9C
:1005400002F52844151EA2F10102F1DC30BD2DE9AF
:10055000F05F0546002092469B4688460646814647
:1005600040241BE0284641464746224600F02FF82B
:1005700053465A46C01A914110D311461846224696
:1005800000F016F82D1A67EB01084F4622460120AD
:10059000002100F00DF817EB00094E41201EA4F1D8
:1005A0000104DFDC484631462A464346BDE8F09F59
:1005B000202A04DB203A00FA02F100207047914023
:1005C000C2F1200320FA03F3194390407047202A18
:1005D00004DB203A21FA02F00021704721FA02F3ED
:1005E000D040C2F120029140084319467047202AAA
:1005F00006DBCB17203A41FA02F043EAE07306E04B
:1006000041FA02F3D040C2F120029140084319465A
:1006100070470029A8BF7047401C490008BF20F060
:100620000100704710B4B0FA80FC00FA0CF050EAF8
:10063000010404BF10BC704749B1CCF1200421FA79
:1006400004F411FA0CF118BF012121430843A3EB74
:100650000C01CB1D4FEA00614FEA102042BF002081
:1006600010BC704700EBC35010440029A4BF10BC5D
:100670007047401C490008BF20F0010010BC7047C3
:1006800010B5141E73F1000408DA401C41F100019A
:1006900092185B411A4301D120F0010010BD2DE9F1
:1006A000F04D92469B4611B1B1FA81F202E0B0FAE8
:1006B00080F220329046FFF77BFF04460F4640EA67
:1006C0000A0041EA0B0153465A46084313D011462B
:1006D00053EA010019D0C8F140025046FFF777FFF6
:1006E00005460E46504659464246FFF761FF08430D
:1006F00005D0012004E020463946BDE8F08D0020F9
:10070000054346EAE0762C4337430A986305E40A3A
:10071000A0EB08000022FD0A44EA47540A3002D543
:1007200000200146E9E7010510196941DDE90845A6
:1007300000196941BDE8F04DA2E7C1F30A52C1F3C7
:10074000130140F2FF3341F480119A4202DA002093
:100750000146704740F233439A42A2F2334202DC30
:100760005242FFF734BFFFF723BF000030B5041E2D
:1007700071F1000404DB4FF00044404264EB0101DE
:10078000141E73F1000405DB1C464FF00043524277
:1007900063EB0403994208BF904230BD064C074DFD
:1007A00006E0E06840F0010394E807009847103441
:1007B000AC42F6D3FFF7C0FCE497000804980008A9
:1007C00000BFFEE7704770B54FF47A7300FB03F18A
:1007D000002247E000BF00BF00BF00BF00BF00BF56
:1007E00000BF00BF00BF00BF00BF00BF00BF00BF11
:1007F00000BF00BF00BF00BF00BF00BF00BF00BF01
:1008000000BF00BF00BF00BF00BF00BF00BF00BFF0
:1008100000BF00BF00BF00BF00BF00BF00BF00BFE0
:1008200000BF00BF00BF00BF00BF00BF00BF00BFD0
:1008300000BF00BF00BF00BF00BF00BF00BF00BFC0
:1008400000BF00BF00BF00BF00BF00BF00BF00BFB0
:1008500000BF00BF00BF00BF00BF00BF00BF00BFA0
:1008600000BF00BF13460C46491E62F1000200267D
:10087000744073401C43ADD170BD47E000BF00BF62
:1008800000BF00BF00BF00BF00BF00BF00BF00BF70
:1008900000BF00BF00BF00BF00BF00BF00BF00BF60
:1008A00000BF00BF00BF00BF00BF00BF00BF00BF50
:1008B00000BF00BF00BF00BF00BF00BF00BF00BF40
:1008C00000BF00BF00BF00BF00BF00BF00BF00BF30
:1008D00000BF00BF00BF00BF00BF00BF00BF00BF20
:1008E00000BF00BF00BF00BF00BF00BF00BF00BF10
:1008F00000BF00BF00BF00BF00BF00BF00BF00BF00
:1009000000BF00BF00BF00BF00BF00BF011EA0F1BD
:100910000100B3D17047000038B504460121080238
:1009200001F0D8F9002000904FF40060ADF800000D
:1009300003208DF802001CB914208DF8030002E09A
:1009400004208DF803006946014800F0EFF938BD36
:100950000020014051B18200A2F1C042126842F071
:1009600001038200A2F1C042136009E08200A2F1FB
:10097000C0421268034B1A408300A3F1C0431A60BF
:1009800070470000FEFF0F00D0E901121143C2685A
:100990001143026911434269114382691143C269DB
:1009A0001143026A1143426A1143826A1143C26AC7
:1009B0001143026B114302689200A2F1C042116020
:1009C000816808290BD101688900A1F1C04109683B
:1009D00041F0400201688900A1F1C0410A60416B09
:1009E0000968426B526841EA0211426B926841EA1F
:1009F0000221426B928941EA0241426B128A41EA2A
:100A00000251426B127D41EA0261426B92691143CD
:100A10000268521C9200A2F1C0421160C16AB1F595
:100A2000804F1BD1816B0968826B526841EA0211C9
:100A3000826B926841EA0221826B128A41EA02517A
:100A4000826B127D41EA0261826B926911430268F6
:100A50009200A2F1C042C2F8041107E06FF07042A8
:100A600001688900A1F1C041C1F80421704700006C
:100A70002DE9FF5F0020039000248146FFF74CFF23
:100A80004FF40061984800F0E5F91420FFF79BFE51
:100A90004FF40061944800F0DFF90120FFF73CFFBC
:100AA0000DE009F1010000F0FF090120FFF7E5FE6C
:100AB000B9F1640F03DD012004B0BDE8F09F4FF4ED
:100AC0000061894800F0BDF90028EAD04FF0000924
:100AD0000BE009F1010000F0FF090120FFF7CDFE56
:100AE000B9F1640F01DD0220E6E74FF400617E48B2
:100AF00000F0A7F90128ECD04FF000090BE009F154
:100B0000010000F0FF090120FFF7B7FEB9F1640F03
:100B100001DD0320D0E74FF40061734800F091F944
:100B20000028ECD000246FE04FF000090BE009F141
:100B3000010000F0FF090120FFF79FFEB9F1640FEB
:100B400001DD0420B8E74FF40061674800F079F94F
:100B50000128ECD04FF000090BE009F1010000F092
:100B6000FF090120FFF789FEB9F1640F01DD0520BF
:100B7000A2E74FF400615C4800F063F90028ECD074
:100B80001E20FFF77AFE4FF40061574800F059F934
:100B9000C0B9E21704EB5272D210544B9A5C214652
:100BA000E31704EB5373DB10A4EBC303C3F1070596
:100BB0000123AB409A432046E31704EB5373DB1049
:100BC0004A4DEA544FF40061474800F03AF90128D1
:100BD00018D1E21704EB5272D210444B9A5C2146B2
:100BE000E31704EB5373DB10A4EBC303C3F1070556
:100BF0000123AB401A432046E31704EB5373DB1089
:100C00003A4DEA54601CC4B2282C8DDB374800787A
:100C10003649497808443549897808443349C978C0
:100C20000844C0B20390314801790398814258D1F9
:100C30002E494878FFF720FC00222D4BCDE900011A
:100C4000FFF7ABFB05460E4628490878FFF714FC72
:100C500007462A463346FFF787FA8246FFF745FCE8
:100C6000244908602149C878FFF706FC074600229E
:100C70001F4BFFF792FB05460E461C498878FFF78D
:100C8000FBFB82462A463346FFF76EFACDE90001A8
:100C9000FFF72BFC1849086008460068FFF712FCB4
:100CA00005460E4613480068FFF70CFC07463A4617
:100CB0000B4612A0CDE9005604F06AFF0B4883787A
:100CC000027814A1184804F073FF0020164910227E
:100CD0001346CDE900210290962228210A2000F037
:100CE00007FE0020E8E60000002001403000002060
:100CF00000002440280000202C00002048756D3A98
:100D0000252E3166202054656D3A252E31660D0A58
:100D100000000000CEC2B6C83A25642020CAAAB698
:100D2000C83A25640D0A0000400000202DE9F0417A
:100D3000024600250026002000230024002791F809
:100D400003C00CF00F0591F803C00CF0100CBCF1BF
:100D5000000F03D091F802C04CEA050591F800C0DD
:100D6000BCF1000F31D0146800202BE04FF0010CD3
:100D70000CFA00F3B1F800C00CEA03069E4220D141
:100D800083004FF00F0C0CFA03F7BC4305FA03FC89
:100D90004CEA040491F803C0BCF1280F06D14FF0CF
:100DA000010C0CFA00FCC2F814C00AE091F803C070
:100DB000BCF1480F05D14FF0010C0CFA00FCC2F851
:100DC00010C0401C0828D1D31460B1F800C0BCF199
:100DD000FF0F34DD546800202EE000F1080C4FF0C6
:100DE000010808FA0CF3B1F800C00CEA03069E42B1
:100DF00021D183004FF00F0C0CFA03F7BC4305FA26
:100E000003FC4CEA040491F803C0BCF1280F05D19F
:100E100000F1080C08FA0CF8C2F8148091F803C02D
:100E2000BCF1480F07D100F1080C4FF0010808FA97
:100E30000CF8C2F81080401C0828CED35460BDE8DE
:100E4000F0810246002093680B400BB1012000E0C6
:100E500000207047416170470161704710B5012162
:100E60003448FFF7EEFF012805D133480088401CC5
:100E7000314908805CE010213048FFF7E2FF28B9D3
:100E80002F480088401C2E49088051E020212B4823
:100E9000FFF7D7FF28B92B480088401C2949088054
:100EA00046E040212548FFF7CCFF28B926480088B6
:100EB000401C254908803BE01F48008802280ADDC5
:100EC00000201D4908801E4908801E4908801E49CF
:100ED0000880012010BD1A48008802280ADD002081
:100EE0001549088016490880164908801649088067
:100EF0000220EFE71348008802280ADD00200E498F
:100F000008800F4908800F4908800F490880032096
:100F1000E0E70D48008802280ADD00200649088025
:100F20000749088007490880074908800420D1E75D
:100F30000020CFE700080140200000200010014001
:100F400022000020240000202600002000BFFEE731
:100F500008B50121142000F0BDFE002000900420FF
:100F60008DF803007020ADF8000003208DF802001A
:100F700069460548FFF7DAFE0120ADF80000694632
:100F80000248FFF7D3FE08BD0010014000080140F1
:100F900070B5044600261748058840884543154823
:100FA000808846F60401884216D1124880790128CB
:100FB00012D100200F4988712A2048812B20888176
:100FC0000021084600F0FCFA01200A4988712B2014
:100FD00048812A20888103E00021084600F0F0FAC9
:100FE00000F02AFE002602E003480480761CAE4290
:100FF000FAD370BD720000200008006C10B50446E2
:10100000002C73D179498871F02008804FF4A070CA
:1010100048800846808849F24131884211D073489F
:10102000808849F2864188420BD07048808846F615
:101030000401884205D06D48808845F2103188420D
:1010400020D12C20694908812A2048812B208881C1
:101050000846808846F6040188420BD063488088A1
:1010600045F21031884205D06048808849F28641B7
:10107000884206D14FF4A0705C4908804FF4F070AC
:101080004880AEE05948808845F21051884210D11E
:101090004FF43050554908814FF4285048814FF49F
:1010A0002C5088814FF4F07008804FF448704880CD
:1010B00097E04E48808841F6631188420DD12C207C
:1010C0004A4908812B2048812A2088814FF4F070FA
:1010D00008804FF44870488083E02220434908810B
:1010E00020204881212088817BE0FFE701203F49C3
:1010F00088714FF4A0700880F020488008468088EE
:1011000049F2413188420BD03848808849F2864103
:10111000884205D03548808845F21031884207D191
:101120002C20324908812A2048812B2088813FE0E9
:101130002E48808846F60401884207D12C202B498E
:1011400008812B2048812A20888131E02748808827
:1011500045F21051884210D14FF430502349088194
:101160004FF4285048814FF42C5088814FF4487038
:1011700008804FF4F07048801AE01C48808841F6DF
:10118000631188420DD12C20184908812A204881FA
:101190002B2088814FF4487008804FF4F07048800D
:1011A00006E02220114908812120488120208881E1
:1011B0000E48808846F6040188420BD00B48808890
:1011C00045F21031884205D00848808849F28641AE
:1011D000884206D14FF4F070044908804FF4A070A3
:1011E0004880002000F070F810BD00007200002060
:1011F00070B505460E4614463146284600F0E0F923
:1012000000F01AFD0148048070BD00000008006C69
:101210002DE9F04F06460F4690469946C346CA460A
:101220003C460CE0354606E021462846099AFFF781
:10123000DFFF681C85B25D45F6DB601C84B2544557
:10124000F0DBBDE8F08F000008B50348008800908F
:10125000BDF8000008BD00000008006C10B5044691
:10126000204600F0DDFC0520FFF707FBFFF7ECFF51
:1012700010BD00002DE9F0470446BE2000F0D0FC70
:10128000052000F0C1FC2046FFF7F6F807464FF0B6
:1012900066320C4BFFF70FF80546FFF7FAF81FFA16
:1012A00080F9484600F0B0FC012000F0ADFCFF20C2
:1012B00000F0AAFC002000F0A7FC002000F0A4FC35
:1012C000BDE8F08766660440F0B5054600240027B7
:1012D000BA48807901280BD1B848808846F60401C5
:1012E000884205D0B548808841F66311884208D10C
:1012F000B2488079F0B9B148808841F663118842DC
:1013000018D1082D15D2DFE805F00406080A0C0EE6
:10131000101206250DE007250BE0042509E0052540
:1013200007E0012505E0002503E0032501E0022593
:1013300000BF00BFA148808849F2413188421DD0DA
:101340009E48808849F28641884217D09B48808811
:1013500046F60401884211D09848808845F2103141
:1013600088420BD09548808845F21051884205D0BC
:101370009248808841F6631188427DD1082D1CD2A5
:10138000DFE805F00406090C0F12151800BF14E081
:1013900044F0800411E044F040040EE044F0C00446
:1013A0000BE044F0200408E044F0600405E044F061
:1013B000A00402E044F0E00400BF00BF7F48808842
:1013C00045F21051884202D14FF4585700E03627B9
:1013D0007A48808845F2103188420DD0774880885D
:1013E00045F21051884207D07448808841F6631155
:1013F000884201D044F008047048808846F6040111
:10140000884201D144F002042146384600F01EFC17
:101410006A48808841F6631188421DD004F020009C
:1014200068B16648008865494988884214DA63488B
:101430000688408861490880084646800CE05F487D
:1014400000885E494988884206DD5C4806884088F5
:101450005A490880084646805848808845F210510D
:10146000884254D15549488900F0DAFB002000F049
:10147000CBFB5249498900E078E0491C88B200F072
:10148000CFFB002000F0C0FB4C494989891C88B281
:1014900000F0C6FB49490988491EC1F30F2000F03E
:1014A000B3FB46494989C91C88B200F0B9FB4349DE
:1014B0000978491EC8B200F0A7FB4049888900F0AE
:1014C000AFFB002000F0A0FB3C498989491C88B291
:1014D00000F0A6FB002000F097FB38498989891CA1
:1014E00088B200F09DFB35494988491EC1F30F20A1
:1014F00000F08AFB31498989C91C88B200F090FB51
:101500002E498978491EC8B200F07EFB55E02B4970
:10151000488900F085FB002000F076FB002000F0F9
:1015200073FB26490988491EC1F30F2000F06CFBAC
:1015300022490978491EC8B200F066FB1F49888914
:1015400000F06EFB002000F05FFB002000F05CFB71
:101550001A494988491EC1F30F2000F055FB17496D
:101560008978491EC8B200F04FFB26E0082D1CD236
:10157000DFE805F004070A0D0F12151844F03004D7
:1015800013E044F0100410E044F020040DE000BF2C
:101590000BE044F0380408E044F0280405E044F08F
:1015A000180402E044F0080400BF00BF032744F41D
:1015B00080542146384600F049FBF0BD72000020FF
:1015C00030B504460D468148808849F24131884251
:1015D00005D07E48808845F21031884214D17B497D
:1015E000488900F01DFB201200F00EFBE0B200F075
:1015F0000BFB7649888900F013FB281200F004FBEE
:10160000E8B200F001FBE0E07048808849F28641D2
:1016100088422ED16D49488900F002FB201200F06B
:10162000F3FAE0B200F0F0FA68490988491EC1F304
:101630000F2000F0E9FA65490978491EC8B200F0A8
:10164000E3FA6249888900F0EBFA281200F0DCFA2C
:10165000E8B200F0D9FA5D494988491EC1F30F206C
:1016600000F0D2FA59498978491EC8B200F0CCFA84
:10167000ABE05648808846F6040188421DD15348A5
:101680008079012804D151480088401E001B84B293
:101690004E49488900F0C4FA201200F0B5FAE0B2D1
:1016A00000F0B2FA4949888900F0BAFA281200F02D
:1016B000ABFAE8B200F0A8FA87E04448808841F627
:1016C0006311884247D141488079A8B93F480088D2
:1016D000401E001B84B23D49488900F0A1FA002059
:1016E00000F092FA002000F08FFA201200F08CFA3D
:1016F000E0B200F089FA16E03449488900F090FA27
:10170000201200F081FAE0B200F07EFA2F49098839
:10171000491EC1F30F2000F077FA2C490978491EC1
:10172000C8B200F071FA2949888900F079FA2812C4
:1017300000F06AFAE8B200F067FA24494988491EC5
:10174000C1F30F2000F060FA20498978491EC8B221
:1017500000F05AFA39E01D48808845F2105188425D
:1017600020D11A49488900F05BFA201200F04CFAA7
:1017700016494989491C88B200F052FAE0B200F0DB
:1017800043FA1249888900F04BFA281200F03CFA1B
:101790000E498989491C88B200F042FAE8B200F08B
:1017A00033FA12E009488079012804D107480088FB
:1017B000401E001B84B205494889214600F046FAC4
:1017C00002498889294600F041FA30BD72000020A4
:1017D0002DE9FF4F81B080460E46DDE90E74B34619
:1017E0002046E31704EB5373DB1021464FEAE47CF9
:1017F00004EB5C7C4FEAEC0CA4EBCC0CBCF1000FCE
:1018000002D04FF0010C01E04FF0000C634422467F
:1018100004EBD27C4FEA6C0C03FB0CF3DBB20093BD
:10182000A7F12000C7B2002555E00C2C07D107EB2B
:1018300047002B4901EB800010F8059014E0102CB4
:1018400005D1284800EB071010F805900CE0182C83
:1018500007D107EBC700244901EB800010F8059081
:1018600002E005B0BDE8F08F4FF0000A2DE009F06E
:10187000800028B131464046049AFFF7B9FC06E0E3
:10188000109820B931464046039AFFF7B1FC4FEA61
:1018900049604FEA1069701C86B214484088B04213
:1018A00000DCDEE7A6EB0B00A0420AD15E4608F1A1
:1018B00001001FFA80F80D480088404500DCD0E7A1
:1018C00006E00AF1010000F0FF0ABAF1080FCEDBD2
:1018D00000BF681CC5B200988542A6DB00BFC0E708
:1018E000F86500086C6A00085C700008720000204F
:1018F0002DE9FF4F84B080468946DDE9117A08F072
:10190000FF0003900698404480B206900798484430
:1019100080B2079065E19AF80000A02870DD069873
:10192000804505DBDDF80C8009EB07001FFA80F924
:101930000798814500DB59E10C2F5DD1002558E067
:1019400005EB850000EBC500AA4911F810009AF8D4
:10195000001088424BD105EB850000EBC500A5497E
:1019600001EB400040789AF8011088423FD10024F2
:101970003AE005EB850000EBC5009E4901EB400015
:10198000801C6100491C415C05EB850000EBC50033
:10199000984A02EB4000801C10F8140041EA002B2A
:1019A00000261DE00BFA06F000F4004050B109EBF0
:1019B000040291B208EB060290B28F4A1288FFF738
:1019C00017FC0BE0139848B909EB040291B208EB3D
:1019D000060290B2894A1288FFF70AFC701CC6B250
:1019E000BE42DFDB601CC4B2BC42C2DB03E0681C49
:1019F00085B2322DA4DBC9E0102F56D1002551E06D
:101A0000CBE005EB05107E4911F810009AF80010A4
:101A1000884245D105EB0510794901EB400040783B
:101A20009AF8011088423BD1002436E005EB0510FE
:101A3000734901EB4000801C6100491C415C05EBCF
:101A400005106F4A02EB4000801C10F8140041EAB8
:101A5000002B00261DE00BFA06F000F4004050B108
:101A600009EB040291B208EB060290B2624A1288B6
:101A7000FFF7BEFB0BE0139848B909EB040291B2E3
:101A800008EB060290B25D4A1288FFF7B1FB701CAA
:101A9000C6B2BE42DFDB601CC4B2BC42C6DB03E0A0
:101AA000681C85B2322DACDB70E0182F6ED100259A
:101AB00069E005EB850000EB4510524911F8100074
:101AC0009AF8001088425CD105EB850000EB4510C8
:101AD0004C4901EB400040789AF80110884250D1FF
:101AE00000244BE005EB850000EB4510454901EB78
:101AF0004000801C04EB4401405C020405EB8500BF
:101B000000EB45103F4901EB4000801C04EB440111
:101B1000491C405C42EA002105EB850000EB4510C2
:101B2000384A02EB4000801C04EB4402921C805CAB
:101B300041EA000B00261DE00BFA06F000F400005D
:101B400050B109EB040291B208EB060290B22A4AA6
:101B50001288FFF74DFB0BE0139848B909EB04021C
:101B600091B208EB060290B2244A1288FFF740FBBC
:101B7000701CC6B2BE42DFDB601CC4B2BC42B1DB2B
:101B800003E0681C85B2322D93DB00BF08EB070031
:101B90001FFA80F80AF1020A23E00698804505DB67
:101BA000DDF80C8009EB07001FFA80F907988145E2
:101BB00000DB1BE09AF800101398CDE900170290A3
:101BC0000D4803880D48028849464046FFF700FE4D
:101BD000384607EBD07108EB61011FFA81F80AF172
:101BE000010A9AF8000000287FF495AE00BF08B003
:101BF000BDE8F08FB87D00083600002038000020D6
:101C0000CC8200087089000801B5BDF80000009082
:101C1000BDF800000149088008BD00000008006C04
:101C200001B5BDF800000090BDF800000149088032
:101C300008BD0000FE07006C0248008902490880C8
:101C40007047000072000020FE07006C024A1080FE
:101C5000921C118070470000FE07006C08B501213E
:101C6000402000F037F80020009010208DF803008D
:101C70003C20ADF8000003208DF8020069460A48B8
:101C8000FFF754F804210848FFF7E6F80821064852
:101C9000FFF7E2F810210448FFF7DEF820210248A0
:101CA000FFF7DAF808BD00000018014000BFFEE7AA
:101CB0007047704729B1064A52690243044B5A6182
:101CC00004E0034A52698243014B5A6170470000A5
:101CD0000010024029B1064A92690243044B9A61FE
:101CE00004E0034A92698243014B9A617047000005
:101CF0000010024030B500210022002400232D4DA9
:101D00006D6805F00C0121B1042905D0082923D103
:101D100005E0294D056022E0274D05601FE0254DB7
:101D20006D6805F47012234D6D6805F4803402254A
:101D300005EB92421CB9214D554305600BE01D4D4A
:101D40006D6805F400351DB11C4D5543056002E07A
:101D5000194D5543056002E0174D056000BF00BFF7
:101D6000144D6D6805F0F0010909154D6B5C0568AF
:101D7000DD4045600F4D6D6805F4E061090A104DC6
:101D80006B5C4568DD4085600A4D6D6805F4605107
:101D9000C90A0B4D6B5C4568DD40C560054D6D683B
:101DA00005F44041890B074D6B5CC568B5FBF3F545
:101DB000056130BD0010024000127A0000093D00AC
:101DC0000000002010000020704710B500F002F85D
:101DD00010BD00000CB50020019000903348006851
:101DE00040F480303149086000BF3048006800F49A
:101DF000003000900198401C0190009818B901989B
:101E0000B0F5A06FF1D12948006800F4003010B19E
:101E10000120009001E0002000900098012843D1AB
:101E20002348006840F01000214908600846006817
:101E300020F0030008600846006840F002000860D7
:101E40001A48406819494860084640684860084692
:101E5000406840F4806048600846406820F47C1088
:101E600048600846406840F4E8104860084600684A
:101E700040F08070086000BF0C48006800F00070FF
:101E80000028F9D00948406820F00300074948605D
:101E90000846406840F00200486000BF03484068C0
:101EA00000F00C000828F9D10CBD00000010024021
:101EB0000020024007480068401C064908600648A8
:101EC0000068401C0449086004480068401C03493D
:101ED0000860704714000020180000201C0000203B
:101EE00010B51348006840F0010011490860084629
:101EF0004068104908400E494860084600680E498D
:101F000008400B4908600846006820F480200860FB
:101F10000846406820F4FE0048604FF41F008860C7
:101F2000FFF753FF4FF000600449086010BD000048
:101F3000001002400000FFF8FFFFF6FE08ED00E091
:101F400000B59FB000201E9001210802FFF7B2FEED
:101F500001214FF4B470FFF7BDFE0120ADF874000D
:101F600010208DF8770003208DF876001DA9FE481B
:101F7000FEF7DCFE4CF23370ADF8740018208DF8DB
:101F8000770003208DF876001DA9F848FEF7CEFEF5
:101F90004FF68070ADF8740018208DF8770003209C
:101FA0008DF876001DA9F248FEF7C0FE41F201004F
:101FB000ADF8740018208DF8770003208DF87600B6
:101FC0001DA9EC48FEF7B2FE012007900020089002
:101FD0000F20099000200A900B900C900D9000901B
:101FE0000190032002900020039004900590069039
:101FF00006200E9000200F901090102011900020CD
:10200000129014901390159016904FF480501790E2
:10201000002018904FF48040199000201A9007A8D3
:102020001B90CDF870D00EA8FEF7AEFC0121062063
:10203000FEF790FC3220FEF7C6FB01210020FFF7DF
:1020400005FE3220FEF7BFFB0020FFF707F9CA4963
:10205000888008468088FF280FDB084680884FF676
:10206000FF71884209D0C4488088B0F5134F04D06E
:10207000C1488088B0F5144F7ED1D320FFF7D0FD42
:10208000FFF7E2F8BC498880FFF7DEF8BA4988809C
:10209000FFF7DAF8B8498880084680884FF6FF7164
:1020A00001EA0020B4498880FFF7CEF8B249898858
:1020B0000843B14988800846808849F24131884206
:1020C0005AD0AD48808849F286418842F8D0BF2076
:1020D000FFF7A6FDFFF7B8F8A7498880FFF7B4F827
:1020E000A5498880FFF7B0F8A3498880FFF7ACF8CE
:1020F000A1498880084680884FF6FF7101EA0020D8
:102100009D498880FFF7A0F89B49898808439A4930
:1021100088800846808846F6040188427AD0D42018
:10212000FFF77EFDFFF790F893498880FFF78CF862
:1021300091498880FFF788F88F4988800846808811
:102140004FF6FF7101EA00208B498880FFF77CF889
:10215000894989880843884988800846808845F2EB
:102160001031884256D04FF45A40FFF759FDFFF71F
:102170006BF88149888000E04CE04FF45B40FFF74A
:102180004FFDFFF761F87C498880084680884FF64C
:10219000FF7101EA0020784988804FF45C40FFF726
:1021A0003FFDFFF751F874498988084372498880D8
:1021B00008468088B0F5004F02D145F21050888063
:1021C0006D48808845F21051884223D0A120FFF746
:1021D00027FDFFF739F868498880FFF735F8664929
:1021E0008880084680884FF6FF7101EA0020624926
:1021F0008880FFF729F86049898808435E4988800C
:102200000846808845F26171884203D141F6631027
:10221000594988805848808849F24131884211D014
:102220005548808845F2103188420BD0524880884A
:1022300045F21051884205D04F48808841F663111D
:1022400088421DD14D48006820F00F004FF020411A
:10225000C1F81C010846D0F81C0120F47060C1F8D8
:102260001C010846D0F81C0140F00300C1F81C0115
:102270000846D0F81C0140F40070C1F81C0128E0A9
:102280003D48808846F60401884205D03A48808857
:102290004CF2055188421CD13848006820F00F00EC
:1022A0004FF02041C1F81C010846D0F81C0120F471
:1022B0007060C1F81C010846D0F81C0140F00A000B
:1022C000C1F81C010846D0F81C0140F44060C1F878
:1022D0001C012948808849F2413188427ED1CF20B3
:1022E000FFF79EFC0020FFF78FFCC120FFF78CFC5E
:1022F0003020FFF789FCED20FFF792FC6420FFF708
:1023000083FC0320FFF780FC1220FFF77DFC812077
:10231000FFF77AFCE820FFF783FC8520FFF774FCC9
:102320001020FFF771FC7A20FFF76EFCCB20FFF73F
:1023300077FC3920FFF768FC2C20FFF765FC0020B4
:10234000FFF762FC3420FFF75FFC0220FFF75CFC24
:10235000F720FFF765FC2020FFF756FCEA20FFF787
:102360005FFC00200CE00000000C01400014014064
:102370000018014000200140720000201C0100A054
:10238000FFF742FC0020FFF73FFCC020FFF748FCAE
:102390001B20FFF739FCC120FFF742FC0120FFF7AB
:1023A00033FCC520FFF73CFC3020FFF72DFC30202C
:1023B000FFF72AFCC720FFF733FCB720FFF724FC08
:1023C0003620FFF72DFC4820FFF71EFC3A20FFF7D0
:1023D00027FC5520FFF718FCB12000E0A5E0FFF72F
:1023E0001FFC0020FFF710FC1A20FFF70DFCB620A1
:1023F000FFF716FC0A20FFF707FCA220FFF704FCFA
:10240000F220FFF70DFC0020FFF7FEFB2620FFF770
:1024100007FC0120FFF7F8FBE020FFF701FC0F208D
:10242000FFF7F2FB2A20FFF7EFFB2820FFF7ECFB7A
:102430000820FFF7E9FB0E20FFF7E6FB0820FFF777
:10244000E3FB5420FFF7E0FBA920FFF7DDFB43206F
:10245000FFF7DAFB0A20FFF7D7FB0F20FFF7D4FBCB
:102460000020FFF7D1FB0020FFF7CEFB0020FFF795
:10247000CBFB0020FFF7C8FBE120FFF7D1FB0020DA
:10248000FFF7C2FB1520FFF7BFFB1720FFF7BCFBD0
:102490000720FFF7B9FB1120FFF7B6FB0620FFF777
:1024A000B3FB2B20FFF7B0FB5620FFF7ADFB3C2022
:1024B000FFF7AAFB0520FFF7A7FB1020FFF7A4FBFF
:1024C0000F20FFF7A1FB3F20FFF79EFB3F20FFF708
:1024D0009BFB0F20FFF798FB2B20FFF7A1FB0020B1
:1024E000FFF792FB0020FFF78FFB0120FFF78CFB2B
:1024F0003F20FFF789FB2A20FFF792FB0020FFF720
:1025000083FB0020FFF780FB0020FFF77DFBEF201F
:10251000FFF77AFB1120FFF783FB7820FEF753F9D2
:102520002920FFF77DFB03F0E9B9FE48808849F2D6
:10253000864188427ED1F220FFF772FB1820FFF718
:1025400063FBA320FFF760FB1220FFF75DFB022077
:10255000FFF75AFBB220FFF757FB1220FFF754FB9F
:10256000FF20FFF751FB1020FFF74EFB0020FFF785
:102570004BFBF820FFF754FB2120FFF745FB04201D
:10258000FFF742FBF920FFF74BFB0020FFF73CFB76
:102590000820FFF739FB3620FFF742FB0820FFF742
:1025A00033FB3A20FFF73CFB0520FFF72DFBB4205F
:1025B000FFF736FB0120FFF727FBB620FFF730FBC4
:1025C0000220FFF721FB2220FFF71EFBC120FFF7AF
:1025D00027FB4120FFF718FBC520FFF721FB002058
:1025E000FFF712FB0720FFF70FFBE020FFF718FBB8
:1025F0000F20FFF709FB1F20FFF706FB1C20FFF74A
:1026000003FB0C20FFF700FB0F20FFF7FDFA08206B
:10261000FFF7FAFA4820FFF7F7FA9820FFF7F4FAE5
:102620003720FFF7F1FA0A20FFF7EEFA1320FFF741
:10263000EBFA00E045E00420FFF7E6FA1120FFF78F
:10264000E3FA0D20FFF7E0FA0020FFF7DDFAE120C2
:10265000FFF7E6FA0F20FFF7D7FA3220FFF7D4FA98
:102660002E20FFF7D1FA0B20FFF7CEFA0D20FFF74F
:10267000CBFA0520FFF7C8FA4720FFF7C5FA752007
:10268000FFF7C2FA3720FFF7BFFA0620FFF7BCFAC0
:102690001020FFF7B9FA0320FFF7B6FA2420FFF75E
:1026A000B3FA2020FFF7B0FA0020FFF7ADFA1120AF
:1026B000FFF7B6FA7820FEF786F82920FFF7B0FA80
:1026C00031E79848808846F6040188427ED111207F
:1026D000FFF7A6FA1420FEF776F8D020FFF7A0FA4D
:1026E0000720FFF791FA4220FFF78EFA1D20FFF72F
:1026F0008BFAD120FFF794FA0020FFF785FA1A2011
:10270000FFF782FA0920FFF77FFAD220FFF788FA55
:102710000120FFF779FA2220FFF776FAC020FFF7B1
:102720007FFA1020FFF770FA3B20FFF76DFA0020C8
:10273000FFF76AFA0220FFF767FA1120FFF764FA41
:10274000C520FFF76DFA0320FFF75EFAC820FFF7F8
:1027500067FA0020FFF758FA2520FFF755FA2120E5
:10276000FFF752FA0520FFF74FFA0020FFF74CFA67
:102770000A20FFF749FA6520FFF746FA2520FFF700
:1027800043FA7720FFF740FA5020FFF73DFA0F2079
:10279000FFF73AFA0020FFF737FAF820FFF740FA80
:1027A0000120FFF731FAFE20FFF73AFA0020FFF789
:1027B0002BFA0220FFF728FA2020FFF731FA362003
:1027C000FFF72EFA0820FFF71FFA00E02AE03A2070
:1027D000FFF726FA5520FFF717FA2B20FFF720FA0C
:1027E0000020FFF711FA0020FFF70EFA0120FFF793
:1027F0000BFA3F20FFF708FA2A20FFF711FA002012
:10280000FFF702FA0020FFF7FFF90120FFF7FCF9BC
:10281000DF20FFF7F9F97820FDF7D5FF2920FFF732
:10282000FFF980E63F48808845F21031884240F049
:102830007C87ED20FFF7F4F90120FFF7E5F9FE2092
:10284000FFF7E2F9EE20FFF7EBF9DE20FFF7DCF906
:102850002120FFF7D9F9F120FFF7E2F90120FFF776
:10286000D3F9DF20FFF7DCF91020FFF7CDF9C42002
:10287000FFF7D6F98F20FFF7C7F9C620FFF7D0F989
:102880000020FFF7C1F9E220FFF7BEF9E220FFF7D1
:10289000BBF9E220FFF7B8F9BF20FFF7C1F9AA2082
:1028A000FFF7B2F9B020FFF7BBF90D20FFF7ACF945
:1028B0000020FFF7A9F90D20FFF7A6F90020FFF788
:1028C000A3F91120FFF7A0F90020FFF79DF91920C7
:1028D000FFF79AF90020FFF797F92120FFF794F905
:1028E0000020FFF791F92D20FFF78EF90020FFF768
:1028F0008BF93D20FFF788F90020FFF785F95D206F
:10290000FFF782F90020FFF77FF95D20FFF77CF9E0
:102910000020FFF779F9B120FFF782F98020FFF757
:1029200073F901E0720000200020FFF76DF98B20A1
:10293000FFF76AF90020FFF767F99620FFF764F9BF
:102940000020FFF761F9B220FFF76AF90020FFF7D6
:102950005BF90020FFF758F90220FFF755F9002036
:10296000FFF752F90320FFF74FF90020FFF74CF96A
:10297000B320FFF755F90020FFF746F90020FFF7D5
:1029800043F90020FFF740F90020FFF73DF9002050
:10299000FFF73AF90020FFF737F90020FFF734F985
:1029A0000020FFF731F90020FFF72EF90020FFF794
:1029B0002BF90020FFF728F90020FFF725F9002068
:1029C000FFF722F90020FFF71FF90020FFF71CF99D
:1029D0000020FFF719F90020FFF716F90020FFF794
:1029E00013F90020FFF710F90020FFF70DF9002080
:1029F000FFF70AF90020FFF707F90020FFF704F9B5
:102A00000020FFF701F9B420FFF70AF98B20FFF748
:102A1000FBF80020FFF7F8F89620FFF7F5F8002004
:102A2000FFF7F2F8A120FFF7EFF80020FFF7ECF82E
:102A3000B520FFF7F5F80220FFF7E6F80020FFF7D2
:102A4000E3F80320FFF7E0F80020FFF7DDF80420AB
:102A5000FFF7DAF80020FFF7D7F8B620FFF7E0F825
:102A60000020FFF7D1F80020FFF7CEF8B720FFF7DE
:102A7000D7F80020FFF7C8F80020FFF7C5F83F207F
:102A8000FFF7C2F80020FFF7BFF85E20FFF7BCF8A1
:102A90000020FFF7B9F86420FFF7B6F80020FFF731
:102AA000B3F88C20FFF7B0F80020FFF7ADF8AC20AA
:102AB000FFF7AAF80020FFF7A7F8DC20FFF7A4F83B
:102AC0000020FFF7A1F87020FFF79EF80020FFF725
:102AD0009BF89020FFF798F80020FFF795F8EB207F
:102AE000FFF792F80020FFF78FF8DC20FFF78CF853
:102AF0000020FFF789F8B820FFF792F80020FFF7D1
:102B000083F80020FFF780F80020FFF77DF8002011
:102B1000FFF77AF80020FFF777F80020FFF774F846
:102B20000020FFF771F80020FFF76EF8BA20FFF7DA
:102B300077F82420FFF768F80020FFF765F80020F9
:102B4000FFF762F80020FFF75FF8C120FFF768F891
:102B50002020FFF759F80020FFF756F85420FFF720
:102B600053F80020FFF750F8FF20FFF74DF8002042
:102B7000FFF74AF8C220FFF753F80A20FFF744F89E
:102B80000020FFF741F80420FFF73EF80020FFF790
:102B90003BF8C320FFF744F83C20FFF735F800204E
:102BA000FFF732F83A20FFF72FF80020FFF72CF854
:102BB0003920FFF729F80020FFF726F83720FFF724
:102BC00023F80020FFF720F83C20FFF71DF8002035
:102BD000FFF71AF83620FFF717F80020FFF714F870
:102BE0003220FFF711F80020FFF70EF82F20FFF733
:102BF0000BF80020FFF708F82C20FFF705F800205D
:102C0000FFF702F82920FEF7FFFF0020FEF7FCFF88
:102C10002620FEF7F9FF0020FEF7F6FF2420FEF73E
:102C2000F3FF0020FEF7F0FF2420FEF7EDFF002069
:102C3000FEF7EAFF2320FEF7E7FF0020FEF7E4FFA0
:102C40003C20FEF7E1FF0020FEF7DEFF3620FEF716
:102C5000DBFF0020FEF7D8FF3220FEF7D5FF002073
:102C6000FEF7D2FF2F20FEF7CFFF0020FEF7CCFFAC
:102C70002C20FEF7C9FF0020FEF7C6FF2920FEF733
:102C8000C3FF0020FEF7C0FF2620FEF7BDFF002097
:102C9000FEF7BAFF2420FEF7B7FF0020FEF7B4FFCF
:102CA0002420FEF7B1FF0020FEF7AEFF2320FEF741
:102CB000ABFF0020FEF7A8FFC420FEF7B1FF6220A3
:102CC000FEF7A2FF0020FEF79FFF0520FEF79CFF06
:102CD0000020FEF799FF8420FEF796FF0020FEF704
:102CE00093FFF020FEF790FF0020FEF78DFF1820E5
:102CF000FEF78AFF0020FEF787FFA420FEF784FF7F
:102D00000020FEF781FF1820FEF77EFF0020FEF76F
:102D10007BFF5020FEF778FF0020FEF775FF0C20A8
:102D2000FEF772FF0020FEF76FFF1720FEF76CFF23
:102D30000020FEF769FF9520FEF766FF0020FEF7F2
:102D400063FFF320FEF760FF0020FEF75DFFE62043
:102D5000FEF75AFF0020FEF757FFC520FEF760FF81
:102D60003220FEF751FF0020FEF74EFF4420FEF711
:102D70004BFF0020FEF748FF6520FEF745FF0020CF
:102D8000FEF742FF7620FEF73FFF0020FEF73CFFF4
:102D90008820FEF739FF0020FEF736FFC620FEF739
:102DA0003FFF2020FEF730FF0020FEF72DFF172009
:102DB000FEF72AFF0020FEF727FF0120FEF724FF81
:102DC0000020FEF721FFC720FEF72AFF0020FEF7B4
:102DD0001BFF0020FEF718FF0020FEF715FF002064
:102DE000FEF712FFC820FEF71BFF0020FEF70CFFC6
:102DF0000020FEF709FF0020FEF706FF0020FEF787
:102E000003FFC920FEF70CFF0020FEF7FDFE0020A7
:102E1000FEF7FAFE0020FEF7F7FE0020FEF7F4FEB4
:102E20000020FEF7F1FE0020FEF7EEFE0020FEF788
:102E3000EBFE0020FEF7E8FE0020FEF7E5FE002096
:102E4000FEF7E2FE0020FEF7DFFE0020FEF7DCFECC
:102E50000020FEF7D9FE0020FEF7D6FE0020FEF788
:102E6000D3FE0020FEF7D0FEE020FEF7D9FE1620AC
:102E7000FEF7CAFE0020FEF7C7FE1C20FEF7C4FEC8
:102E80000020FEF7C1FE2120FEF7BEFE0020FEF767
:102E9000BBFE3620FEF7B8FE0020FEF7B5FE46204A
:102EA000FEF7B2FE0020FEF7AFFE5220FEF7ACFEAA
:102EB0000020FEF7A9FE6420FEF7A6FE0020FEF724
:102EC000A3FE7A20FEF7A0FE0020FEF79DFE8B20D9
:102ED000FEF79AFE0020FEF797FE9920FEF794FE7B
:102EE0000020FEF791FEA820FEF78EFE0020FEF7E0
:102EF0008BFEB920FEF788FE0020FEF785FEC42079
:102F0000FEF782FE0020FEF77FFECA20FEF77CFE61
:102F10000020FEF779FED220FEF776FE0020FEF7B5
:102F200073FED920FEF770FE0020FEF76DFEE02054
:102F3000FEF76AFE0020FEF767FEF320FEF764FE50
:102F40000020FEF761FEE120FEF76AFE1620FEF784
:102F50005BFE0020FEF758FE1C20FEF755FE002009
:102F6000FEF752FE2220FEF74FFE0020FEF74CFE39
:102F70003620FEF749FE0020FEF746FE4520FEF70C
:102F800043FE0020FEF740FE5220FEF73DFE0020EB
:102F9000FEF73AFE6420FEF737FE0020FEF734FE0F
:102FA0007A20FEF731FE0020FEF72EFE8B20FEF782
:102FB0002BFE0020FEF728FE9920FEF725FE0020BC
:102FC000FEF722FEA820FEF71FFE0020FEF71CFEE3
:102FD000B920FEF719FE0020FEF716FEC420FEF70A
:102FE00013FE0020FEF710FECA20FEF70DFE0020A3
:102FF000FEF70AFED220FEF707FE0020FEF704FED1
:10300000D820FEF701FE0020FEF7FEFDE020FEF7CF
:10301000FBFD0020FEF7F8FDF320FEF7F5FD002094
:10302000FEF7F2FDE220FEF7FBFD0520FEF7ECFDCA
:103030000020FEF7E9FD0B20FEF7E6FD0020FEF77D
:10304000E3FD1B20FEF7E0FD0020FEF7DDFD342050
:10305000FEF7DAFD0020FEF7D7FD4420FEF7D4FD91
:103060000020FEF7D1FD4F20FEF7CEFD0020FEF739
:10307000CBFD6120FEF7C8FD0020FEF7C5FD7920DD
:10308000FEF7C2FD0020FEF7BFFD8820FEF7BCFD65
:103090000020FEF7B9FD9720FEF7B6FD0020FEF7F1
:1030A000B3FDA620FEF7B0FD0020FEF7ADFDB72072
:1030B000FEF7AAFD0020FEF7A7FDC220FEF7A4FD43
:1030C0000020FEF7A1FDC720FEF79EFD0020FEF7C1
:1030D0009BFDD120FEF798FD0020FEF795FDD62040
:1030E000FEF792FD0020FEF78FFDDD20FEF78CFD40
:1030F0000020FEF789FDF320FEF786FD0020FEF795
:1031000083FDE320FEF78CFD0520FEF77DFD00200A
:10311000FEF77AFD0A20FEF777FD0020FEF774FD2A
:103120001C20FEF771FD0020FEF76EFD3320FEF738
:103130006BFD0020FEF768FD4420FEF765FD0020D2
:10314000FEF762FD5020FEF75FFD0020FEF75CFDFC
:103150006220FEF759FD0020FEF756FD7820FEF7AD
:1031600053FD0020FEF750FD8820FEF74DFD0020A6
:10317000FEF74AFD9720FEF747FD0020FEF744FDCD
:10318000A620FEF741FD0020FEF73EFDB720FEF72A
:103190003BFD0020FEF738FDC220FEF735FD002084
:1031A000FEF732FDC720FEF72FFD0020FEF72CFDB5
:1031B000D120FEF729FD0020FEF726FDD520FEF7E1
:1031C00023FD0020FEF720FDDD20FEF71DFD002081
:1031D000FEF71AFDF320FEF717FD0020FEF714FDA1
:1031E000E420FEF71DFD0120FEF70EFD0020FEF796
:1031F0000BFD0120FEF708FD0020FEF705FD022073
:10320000FEF702FD0020FEF7FFFC2A20FEF7FCFC83
:103210000020FEF7F9FC3C20FEF7F6FC0020FEF74C
:10322000F3FC4B20FEF7F0FC0020FEF7EDFC5D20E8
:10323000FEF7EAFC0020FEF7E7FC7420FEF7E4FC52
:103240000020FEF7E1FC8420FEF7DEFC0020FEF704
:10325000DBFC9320FEF7D8FC0020FEF7D5FCA22073
:10326000FEF7D2FC0020FEF7CFFCB320FEF7CCFC2B
:103270000020FEF7C9FCBE20FEF7C6FC0020FEF7CA
:10328000C3FCC420FEF7C0FC0020FEF7BDFCCD202F
:10329000FEF7BAFC0020FEF7B7FCD320FEF7B4FC23
:1032A0000020FEF7B1FCDD20FEF7AEFC0020FEF7AB
:1032B000ABFCF320FEF7A8FC0020FEF7A5FCE52000
:1032C000FEF7AEFC0020FEF79FFC0020FEF79CFC02
:1032D0000020FEF799FC0020FEF796FC0220FEF786
:1032E00093FC0020FEF790FC2920FEF78DFC0020C7
:1032F000FEF78AFC3C20FEF787FC0020FEF784FCEA
:103300004B20FEF781FC0020FEF77EFC5D20FEF7DF
:103310007BFC0020FEF778FC7420FEF775FC002093
:10332000FEF772FC8420FEF76FFC0020FEF76CFCB9
:103330009320FEF769FC0020FEF766FCA220FEF752
:1033400063FC0020FEF760FCB320FEF75DFC00206C
:10335000FEF75AFCBE20FEF757FC0020FEF754FC97
:10336000C420FEF751FC0020FEF74EFCCD20FEF7F6
:103370004BFC0020FEF748FCD320FEF745FC002064
:10338000FEF742FCDC20FEF73FFC0020FEF73CFC91
:10339000F320FEF739FC0020FEF736FCE620FEF7AE
:1033A0003FFC1120FEF730FC0020FEF72DFC3420FE
:1033B000FEF72AFC0020FEF727FC5620FEF724FC2F
:1033C0000020FEF721FC7620FEF71EFC0020FEF711
:1033D0001BFC7720FEF718FC0020FEF715FC66208A
:1033E000FEF712FC0020FEF70FFC8820FEF70CFC15
:1033F0000020FEF709FC9920FEF706FC0020FEF7EE
:1034000003FCBB20FEF700FC0020FEF7FDFB99202B
:10341000FEF7FAFB0020FEF7F7FB6620FEF7F4FB51
:103420000020FEF7F1FB5520FEF7EEFB0020FEF733
:10343000EBFB5520FEF7E8FB0020FEF7E5FB4520FF
:10344000FEF7E2FB0020FEF7DFFB4320FEF7DCFB8C
:103450000020FEF7D9FB4420FEF7D6FB0020FEF744
:10346000D3FBE720FEF7DCFB3220FEF7CDFB00208C
:10347000FEF7CAFB5520FEF7C7FB0020FEF7C4FB92
:103480007620FEF7C1FB0020FEF7BEFB6620FEF7AC
:10349000BBFB0020FEF7B8FB6720FEF7B5FB002062
:1034A000FEF7B2FB6720FEF7AFFB0020FEF7ACFB98
:1034B0008720FEF7A9FB0020FEF7A6FB9920FEF768
:1034C000A3FB0020FEF7A0FBBB20FEF79DFB002026
:1034D000FEF79AFB9920FEF797FB0020FEF794FB7E
:1034E0007720FEF791FB0020FEF78EFB4420FEF7CD
:1034F0008BFB0020FEF788FB5620FEF785FB0020A3
:10350000FEF782FB2320FEF77FFB0020FEF77CFB0B
:103510003320FEF779FB0020FEF776FB4520FEF70F
:1035200073FB0020FEF770FBE820FEF779FB00201C
:10353000FEF76AFB0020FEF767FB9920FEF764FBAD
:103540000020FEF761FB8720FEF75EFB0020FEF700
:103550005BFB8820FEF758FB0020FEF755FB772029
:10356000FEF752FB0020FEF74FFB6620FEF74CFBF8
:103570000020FEF749FB8820FEF746FB0020FEF7FF
:1035800043FBAA20FEF740FB0020FEF73DFBBB20DB
:10359000FEF73AFB0020FEF737FB9920FEF734FBDD
:1035A0000020FEF731FB6620FEF72EFB0020FEF721
:1035B0002BFB5520FEF728FB0020FEF725FB5520AE
:1035C000FEF722FB0020FEF71FFB4420FEF71CFB4A
:1035D0000020FEF719FB4420FEF716FB0020FEF743
:1035E00013FB5520FEF710FB0020FEF70DFBE92032
:1035F000FEF716FBAA20FEF707FB0020FEF704FBF0
:103600000020FEF701FB0020FEF7FEFA0020FEF787
:1036100007FBAA20FEF7F8FACF20FEF701FB0020F7
:10362000FEF7F2FA0020FEF7EFFA0020FEF7ECFAC0
:103630000020FEF7E9FA0020FEF7E6FA0020FEF788
:10364000E3FA0020FEF7E0FA0020FEF7DDFA0020A2
:10365000FEF7DAFA0020FEF7D7FA0020FEF7D4FAD8
:103660000020FEF7D1FA0020FEF7CEFA0020FEF788
:10367000CBFA0020FEF7C8FA0020FEF7C5FA0020BA
:10368000FEF7C2FAF020FEF7CBFA0020FEF7BCFAF4
:103690005020FEF7B9FA0020FEF7B6FA0020FEF738
:1036A000B3FA0020FEF7B0FAF320FEF7B9FA0020D3
:1036B000FEF7AAFAF920FEF7B3FA0620FEF7A4FAFD
:1036C0001020FEF7A1FA2920FEF79EFA0020FEF74F
:1036D0009BFA3A20FEF7A4FA5520FEF795FA11203E
:1036E000FEF79EFA6420FDF76EF82920FEF798FA9F
:1036F0003520FEF795FA0020FEF786FA5120FEF7F6
:103700008FFAFF20FEF780FA5320FEF789FA2C206B
:10371000FEF77AFA5520FEF783FA8220FEF774FA54
:103720002C20FEF77DFA02F0E9B8FE48808845F2C9
:10373000105188427ED155214FF47040FEF786FA31
:10374000AA214FF20100FEF781FA52214FF2020046
:10375000FEF77CFA08214FF20300FEF777FA012109
:103760004FF20400FEF772FA0D214FF43040FEF7DD
:103770006DFA0D214BF20100FEF768FA0D214BF2B4
:103780000200FEF763FA34214FF43640FEF75EFA8A
:1037900034214BF20160FEF759FA34214BF20260FA
:1037A000FEF754FA0D214FF43140FEF74FFA0D2188
:1037B0004BF20110FEF74AFA0D214BF20210FEF710
:1037C00045FA34214FF43740FEF740FA34214BF2EA
:1037D0000170FEF73BFA34214BF20270FEF736FA25
:1037E00000214FF43240FEF731FA00214BF2012064
:1037F000FEF72CFA00214BF20220FEF727FA2421D3
:103800004FF43840FEF722FA24214BF60100FEF770
:103810001DFA24214BF60200FEF718FA01214FF49D
:103820003F40FEF713FA0F214FF43340FEF70EFA34
:103830000F2100E0FEE34BF20130FEF707FA0F2103
:103840004BF20230FEF702FA34214FF43940FEF712
:10385000FDF934214BF60110FEF7F8F934214BF64F
:103860000210FEF7F3F908214FF43540FEF7EEF9A8
:1038700008214BF20150FEF7E9F908214BF2025002
:10388000FEF7E4F903214FF44240FEF7DFF924216B
:103890004FF43A40FEF7DAF924214BF60120FEF707
:1038A000D5F924214BF60220FEF7D0F900214FF480
:1038B0003C40FEF7CBF978214BF60140FEF7C6F904
:1038C00000214BF60240FEF7C1F900214FF43D40C4
:1038D000FEF7BCF978214BF60150FEF7B7F900214D
:1038E0004BF60250FEF7B2F900214FF43E40FEF7CE
:1038F000ADF964214BF60160FEF7A8F900214FF401
:103900005140FEF7A3F933214DF20110FEF79EF965
:1039100000214DF20210FEF799F934214DF2031007
:10392000FEF794F900214DF20410FEF78FF93A21C9
:103930004DF20510FEF78AF900214DF20610FEF750
:1039400085F94A214DF20710FEF780F900214DF26A
:103950000810FEF77BF95C214DF20910FEF776F9AD
:1039600000214DF20A10FEF771F981214DF20B1082
:10397000FEF76CF900214DF20C10FEF767F9A62155
:103980004DF20D10FEF762F900214DF20E10FEF718
:103990005DF9E5214DF20F10FEF758F901214DF2C6
:1039A0001010FEF753F913214DF21110FEF74EF9E6
:1039B00001214DF21210FEF749F954214DF2131076
:1039C000FEF744F901214DF21410FEF73FF9822170
:1039D0004DF21510FEF73AF901214DF21610FEF7DF
:1039E00035F9CA214DF21710FEF730F902214DF2D8
:1039F0001810FEF72BF900214DF21910FEF726F9E9
:103A000002214DF21A10FEF721F901214DF21B108F
:103A1000FEF71CF902214DF21C10FEF717F93421B4
:103A20004DF21D10FEF712F902214DF21E10FEF7A5
:103A30000DF967214DF21F10FEF708F902214DF232
:103A40002010FEF703F984214DF22110FEF7FEF855
:103A500002214DF22210FEF7F9F8A4214DF22310B5
:103A6000FEF7F4F802214DF22410FEF7EFF8B7212B
:103A70004DF22510FEF7EAF802214DF22610FEF76E
:103A8000E5F8CF214DF22710FEF7E0F802214DF2C4
:103A90002810FEF7DBF8DE214DF22910FEF7D6F8EC
:103AA00002214DF22A10FEF7D1F8F2214DF22B102F
:103AB000FEF7CCF802214DF22C10FEF7C7F8FE21DC
:103AC0004DF22D10FEF7C2F803214DF22E10FEF735
:103AD000BDF810214DF22F10FEF7B8F803214DF27A
:103AE0003010FEF7B3F833214DF23110FEF7AEF887
:103AF00003214DF23210FEF7A9F86D214DF233107B
:103B0000FEF7A4F800214FF45240FEF79FF833214E
:103B10004DF20120FEF79AF800214DF20220FEF747
:103B200095F801E07200002034214DF20320FEF7E9
:103B30008DF800214DF20420FEF788F83A214DF26D
:103B40000520FEF783F800214DF20620FEF77EF8EF
:103B50004A214DF20720FEF779F800214DF20820A6
:103B6000FEF774F85C214DF20920FEF76FF8002192
:103B70004DF20A20FEF76AF881214DF20B20FEF784
:103B800065F800214DF20C20FEF760F8A6214DF2F9
:103B90000D20FEF75BF800214DF20E20FEF756F8DF
:103BA000E5214DF20F20FEF751F801214DF21020D2
:103BB000FEF74CF813214DF21120FEF747F80121D2
:103BC0004DF21220FEF742F854214DF21320FEF779
:103BD0003DF801214DF21420FEF738F882214DF214
:103BE0001520FEF733F801214DF21620FEF72EF8CE
:103BF000CA214DF21720FEF729F802214DF21820B4
:103C0000FEF724F800214DF21920FEF71FF80221DB
:103C10004DF21A20FEF71AF801214DF21B20FEF793
:103C200015F802214DF21C20FEF710F834214DF258
:103C30001D20FEF70BF802214DF21E20FEF706F8BC
:103C400067214DF21F20FEF701F802214DF22020DE
:103C5000FDF7FCFF84214DF22120FDF7F7FF022143
:103C60004DF22220FDF7F2FFA4214DF22320FDF7B3
:103C7000EDFF02214DF22420FDF7E8FFB7214DF2C0
:103C80002520FDF7E3FF02214DF22620FDF7DEFFA0
:103C9000CF214DF22720FDF7D9FF02214DF2282038
:103CA000FDF7D4FFDE214DF22920FDF7CFFF0221E1
:103CB0004DF22A20FDF7CAFFF2214DF22B20FDF72D
:103CC000C5FF02214DF22C20FDF7C0FFFE214DF271
:103CD0002D20FDF7BBFF03214DF22E20FDF7B6FF8F
:103CE00010214DF22F20FDF7B1FF03214DF23020BE
:103CF000FDF7ACFF33214DF23120FDF7A7FF032183
:103D00004DF23220FDF7A2FF6D214DF23320FDF779
:103D10009DFF00214FF45340FDF798FF33214DF2F2
:103D20000130FDF793FF00214DF20230FDF78EFFC9
:103D300034214DF20330FDF789FF00214DF20430AC
:103D4000FDF784FF3A214DF20530FDF77FFF00219A
:103D50004DF20630FDF77AFF4A214DF20730FDF7AC
:103D600075FF00214DF20830FDF770FF5C214DF228
:103D70000930FDF76BFF00214DF20A30FDF766FFB9
:103D800081214DF20B30FDF761FF00214DF20C3027
:103D9000FDF75CFFA6214DF20D30FDF757FF002126
:103DA0004DF20E30FDF752FFE5214DF20F30FDF7D9
:103DB0004DFF01214DF21030FDF748FF13214DF268
:103DC0001130FDF743FF01214DF21230FDF73EFFA8
:103DD00054214DF21330FDF739FF01214DF214301B
:103DE000FDF734FF82214DF21530FDF72FFF012141
:103DF0004DF21630FDF72AFFCA214DF21730FDF7BC
:103E000025FF02214DF21830FDF720FF00214DF271
:103E10001930FDF71BFF02214DF21A30FDF716FF96
:103E200001214DF21B30FDF711FF02214DF21C3034
:103E3000FDF70CFF34214DF21D30FDF707FF022185
:103E40004DF21E30FDF702FF67214DF21F30FDF7E6
:103E5000FDFE02214DF22030FDF7F8FE84214DF2E7
:103E60002130FDF7F3FE02214DF22230FDF7EEFE88
:103E7000A4214DF22330FDF7E9FE02214DF224305A
:103E8000FDF7E4FEB7214DF22530FDF7DFFE0221FC
:103E90004DF22630FDF7DAFECF214DF22730FDF747
:103EA000D5FE02214DF22830FDF7D0FEDE214DF285
:103EB0002930FDF7CBFE02214DF22A30FDF7C6FE78
:103EC000F2214DF22B30FDF7C1FE02214DF22C30D4
:103ED000FDF7BCFEFE214DF22D30FDF7B7FE0321AC
:103EE0004DF22E30FDF7B2FE10214DF22F30FDF7CE
:103EF000ADFE03214DF23030FDF7A8FE33214DF227
:103F00003130FDF7A3FE03214DF23230FDF79EFE66
:103F10006D214DF23330FDF799FE00214FF45440EE
:103F2000FDF794FE33214DF20140FDF78FFE002195
:103F30004DF20240FDF78AFE34214DF20340FDF7B9
:103F400085FE00214DF20440FDF780FE3A214DF23E
:103F50000540FDF77BFE00214DF20640FDF776FEA1
:103F60004A214DF20740FDF771FE00214DF2084055
:103F7000FDF76CFE5C214DF20940FDF767FE002164
:103F80004DF20A40FDF762FE81214DF20B40FDF734
:103F90005DFE00214DF20C40FDF758FEA6214DF2CA
:103FA0000D40FDF753FE00214DF20E40FDF74EFE91
:103FB000E5214DF20F40FDF749FE01214DF2104081
:103FC000FDF744FE13214DF21140FDF73FFE0121A4
:103FD0004DF21240FDF73AFE54214DF21340FDF729
:103FE00035FE01214DF21440FDF730FE82214DF2E5
:103FF0001540FDF72BFE01214DF21640FDF726FE80
:10400000CA214DF21740FDF721FE02214DF2184062
:10401000FDF71CFE00214DF21940FDF717FE0221AD
:104020004DF21A40FDF712FE01214DF21B40FDF743
:104030000DFE00E004E302214DF21C40FDF706FEF8
:1040400034214DF21D40FDF701FE02214DF21E40CC
:10405000FDF7FCFD67214DF21F40FDF7F7FD022142
:104060004DF22040FDF7F2FD84214DF22140FDF795
:10407000EDFD02214DF22240FDF7E8FDA4214DF2B5
:104080002340FDF7E3FD02214DF22440FDF7DEFD64
:10409000B7214DF22540FDF7D9FD02214DF2264012
:1040A000FDF7D4FDCF214DF22740FDF7CFFD0221D2
:1040B0004DF22840FDF7CAFDDE214DF22940FDF703
:1040C000C5FD02214DF22A40FDF7C0FDF2214DF25F
:1040D0002B40FDF7BBFD02214DF22C40FDF7B6FD54
:1040E000FE214DF22D40FDF7B1FD03214DF22E4092
:1040F000FDF7ACFD10214DF22F40FDF7A7FD032188
:104100004DF23040FDF7A2FD33214DF23140FDF775
:104110009DFD03214DF23240FDF798FD6D214DF2DA
:104120003340FDF793FD00214FF45540FDF78EFD20
:1041300033214DF20150FDF789FD00214DF202506F
:10414000FDF784FD34214DF20350FDF77FFD002182
:104150004DF20450FDF77AFD3A214DF20550FDF77E
:1041600075FD00214DF20650FDF770FD4A214DF21C
:104170000750FDF76BFD00214DF20850FDF766FD7D
:104180005C214DF20950FDF761FD00214DF20A500E
:10419000FDF75CFD81214DF20B50FDF757FD00212D
:1041A0004DF20C50FDF752FDA6214DF20D50FDF7DA
:1041B0004DFD00214DF20E50FDF748FDE5214DF279
:1041C0000F50FDF743FD01214DF21050FDF73EFD6C
:1041D00013214DF21150FDF739FD01214DF212501E
:1041E000FDF734FD54214DF21350FDF72FFD012151
:1041F0004DF21450FDF72AFD82214DF21550FDF7C6
:1042000025FD01214DF21650FDF720FDCA214DF28A
:104210001750FDF71BFD02214DF21850FDF716FD5A
:1042200000214DF21950FDF711FD02214DF21A50F7
:10423000FDF70CFD01214DF21B50FDF707FD02219A
:104240004DF21C50FDF702FD34214DF21D50FDF7DB
:10425000FDFC02214DF21E50FDF7F8FC67214DF2E6
:104260001F50FDF7F3FC02214DF22050FDF7EEFC4C
:1042700084214DF22150FDF7E9FC02214DF222503C
:10428000FDF7E4FCA4214DF22350FDF7DFFC0221F1
:104290004DF22450FDF7DAFCB7214DF22550FDF721
:1042A000D5FC02214DF22650FDF7D0FCCF214DF276
:1042B0002750FDF7CBFC02214DF22850FDF7C6FC3C
:1042C000DE214DF22950FDF7C1FC02214DF22A50AA
:1042D000FDF7BCFCF2214DF22B50FDF7B7FC02219B
:1042E0004DF22C50FDF7B2FCFE214DF22D50FDF7A2
:1042F000ADFC03214DF22E50FDF7A8FC10214DF22C
:104300002F50FDF7A3FC03214DF23050FDF79EFC2A
:1043100033214DF23150FDF799FC03214DF232501B
:10432000FDF794FC6D214DF23350FDF78FFC002119
:104330004FF45640FDF78AFC33214DF20160FDF742
:1043400085FC00214DF20260FDF780FC34214DF226
:104350000360FDF77BFC00214DF20460FDF776FC65
:104360003A214DF20560FDF771FC00214DF2066027
:10437000FDF76CFC4A214DF20760FDF767FC002158
:104380004DF20860FDF762FC5C214DF20960FDF71B
:104390005DFC00214DF20A60FDF758FC81214DF2D1
:1043A0000B60FDF753FC00214DF20C60FDF74EFC55
:1043B000A6214DF20D60FDF749FC00214DF20E6083
:1043C000FDF744FCE5214DF20F60FDF73FFC0121B4
:1043D0004DF21060FDF73AFC13214DF21160FDF72C
:1043E00035FC01214DF21260FDF730FC54214DF2F5
:1043F0001360FDF72BFC01214DF21460FDF726FC44
:1044000082214DF21560FDF721FC01214DF216606D
:10441000FDF71CFCCA214DF21760FDF717FC0221C5
:104420004DF21860FDF712FC00214DF21960FDF706
:104430000DFC02214DF21A60FDF708FC01214DF23E
:104440001B60FDF703FC02214DF21C60FDF7FEFB33
:1044500034214DF21D60FDF7F9FB02214DF21E6083
:10446000FDF7F4FB67214DF21F60FDF7EFFB022122
:104470004DF22060FDF7EAFB84214DF22160FDF74B
:10448000E5FB02214DF22260FDF7E0FBA4214DF295
:104490002360FDF7DBFB02214DF22460FDF7D6FB24
:1044A000B7214DF22560FDF7D1FB02214DF22660C8
:1044B000FDF7CCFBCF214DF22760FDF7C7FB0221B2
:1044C0004DF22860FDF7C2FBDE214DF22960FDF7B9
:1044D000BDFB02214DF22A60FDF7B8FBF2214DF23F
:1044E0002B60FDF7B3FB02214DF22C60FDF7AEFB14
:1044F000FE214DF22D60FDF7A9FB03214DF22E6048
:10450000FDF7A4FB10214DF22F60FDF79FFB032167
:104510004DF23060FDF79AFB33214DF23160FDF72B
:1045200095FB03214DF23260FDF790FB6D214DF2BA
:104530003360FDF78BFB55214FF47040FDF786FB90
:10454000AA214FF20100FDF781FB52214FF2020038
:10455000FDF77CFB08214FF20300FDF777FB0021FC
:104560004FF20400FDF772FBCC214FF43140FDF710
:104570006DFB00214BF20110FDF768FB05214FF4A4
:104580003640FDF763FB70214FF43740FDF75EFBCB
:1045900070214BF20170FDF759FB01214FF43840B7
:1045A000FDF754FB03214BF60100FDF74FFB032100
:1045B0004BF60200FDF74AFB03214BF60300FDF723
:1045C00045FB02214FF43C40FDF740FB00214BF638
:1045D0000140FDF73BFB00214BF60240FDF736FBA7
:1045E000D0214FF44940FDF731FB02214CF6011078
:1045F000FDF72CFB50214CF60210FDF727FB502154
:104600004CF60310FDF722FB50214CF60410FDF789
:104610001DFB00214FF45450FDF718FB55214FF4BA
:104620006850FDF713FB4FF48850FDF7F9FA782036
:10463000FCF723F94FF42450FDF7F2FA01F05EB9CC
:10464000FE48808849F2253188427DD147F6F00145
:10465000E520FDF7FBFA4FF480710120FDF7F6FA33
:104660004FF4E0610220FDF7F1FA41F2300103203E
:10467000FDF7ECFA00210420FDF7E8FA40F20221F0
:104680000820FDF7E3FA00210920FDF7DFFA0021F9
:104690000A20FDF7DBFA00210C20FDF7D7FA0021F4
:1046A0000D20FDF7D3FA00210F20FDF7CFFA0021EE
:1046B0001020FDF7CBFA07211120FDF7C7FA0021E2
:1046C0001220FDF7C3FA00211320FDF7BFFA0021E5
:1046D0000720FDF7BBFA41F290611020FDF7B6FA12
:1046E00040F227211120FDF7B1FA9D211220FDF79C
:1046F000ADFA4FF4C8511320FDF7A8FA252129205F
:10470000FDF7A4FA0D212B20FDF7A0FA0721302098
:10471000FDF79CFA40F203313120FDF797FA0321AF
:104720003220FDF793FA40F206213520FDF78EFA8C
:1047300008213620FDF78AFA40F206413720FDF7BE
:1047400085FA4FF4417100E058E03820FDF77EFA19
:1047500007213920FDF77AFA40F202613C20FDF78B
:1047600075FA08213D20FDF771FA00215020FDF770
:104770006DFAEF215120FDF769FA00215220FDF773
:1047800065FA40F23F115320FDF760FA4FF42741DC
:104790006020FDF75BFA01216120FDF757FA002147
:1047A0006A20FDF753FA00218020FDF74FFA00211F
:1047B0008120FDF74BFA00218220FDF747FA002106
:1047C0008320FDF743FA00218420FDF73FFA002102
:1047D0008520FDF73BFA10219020FDF737FA4FF4C2
:1047E000C0619220FDF732FA40F233110720FDF745
:1047F0002DFA22210020FDF729FA1FE78F48808833
:1048000049F2283188427DD141F28F01EC20FDF739
:104810001DFA41F23421EF20FDF718FA4FF48071B0
:104820000120FDF713FA4FF4E0610220FDF70EFAC4
:1048300041F230010320FDF709FA00210420FDF7C1
:1048400005FA40F202210820FDF700FA00210920B4
:10485000FDF7FCF900210A20FDF7F8F901210C20F1
:10486000FDF7F4F900210D20FDF7F0F900210F20EC
:10487000FDF7ECF900211020FDF7E8F907211120E0
:10488000FDF7E4F900211220FDF7E0F900211320E3
:10489000FDF7DCF901210720FDF7D8F93220FBF7FD
:1048A00092FF41F290411020FDF7D0F940F227210C
:1048B0001120FDF7CBF93220FBF785FF8A2112206A
:1048C000FDF7C4F93220FBF77EFF4FF4D0511320DF
:1048D000FDF7BCF906212920FDF7B8F90D212B20A1
:1048E000FDF7B4F93220FBF76EFF00212020FDF721
:1048F000ADF900212120FDF7A9F93220FBF763FF74
:10490000002100E075E03020FDF7A0F940F20461DD
:104910003120FDF79BF940F205313220FDF796F981
:1049200000213520FDF792F940F609413620FDF7C8
:104930008DF94FF401713720FDF788F940F201310C
:104940003820FDF783F940F207713920FDF77EF931
:1049500000213C20FDF77AF940F60A213D20FDF7C1
:1049600075F93220FBF72FFF00215020FDF76EF97B
:10497000EF215120FDF76AF900215220FDF766F979
:1049800040F23F115320FDF761F94FF427416020B9
:10499000FDF75CF901216120FDF758F900216A203B
:1049A000FDF754F900218020FDF750F90021812006
:1049B000FDF74CF900218220FDF748F90021832002
:1049C000FDF744F900218420FDF740F900218520FE
:1049D000FDF73CF910219020FDF738F94FF4C06144
:1049E0009220FDF733F940F233110720FDF72EF93D
:1049F00024E61248808849F2203188427ED1002185
:104A00000846FDF723F94FF480710120FDF71EF9E8
:104A10004FF4E0610220FDF719F941F23001032063
:104A2000FDF714F900210420FDF710F940F20221EE
:104A30000820FDF70BF90021092001E07200002099
:104A4000FDF704F900210A20FDF700F901210C20EF
:104A5000FDF7FCF800210D20FDF7F8F800210F20EC
:104A6000FDF7F4F83220FBF7AEFE40F2011107200B
:104A7000FDF7ECF83220FBF7A6FE4FF4865110202C
:104A8000FDF7E4F807211120FDF7E0F84FF48871F5
:104A90001220FDF7DBF84FF430611320FDF7D6F854
:104AA00000212920FDF7D2F844F210012B20FDF758
:104AB000CDF800215020FDF7C9F8EF215120FDF776
:104AC000C5F800215220FDF7C1F840F23F115320F4
:104AD000FDF7BCF84FF41C516020FDF7B7F8012139
:104AE0006120FDF7B3F800216A20FDF7AFF800213F
:104AF0008020FDF7ABF80021812000E030E0FDF7D9
:104B0000A5F800218220FDF7A1F800218320FDF700
:104B10009DF800218420FDF799F800218520FDF7FC
:104B200095F810219020FDF791F800219220FDF7D3
:104B30008DF801219320FDF789F84FF488719520B5
:104B4000FDF784F800219720FDF780F800219820D8
:104B5000FDF77CF840F273110720FDF777F86DE55B
:104B6000FE48808849F2313188427DD141F21401FA
:104B7000E720FDF76BF84FF480710120FDF766F830
:104B80004FF400710220FDF761F841F23801032073
:104B9000FDF75CF840F202210820FDF757F80021EC
:104BA0000920FDF753F800210A20FDF74FF80021F6
:104BB0000C20FDF74BF800210D20FDF747F80021F0
:104BC0000F20FDF743F800211020FDF73FF80721E3
:104BD0001120FDF73BF800211220FDF737F80021E6
:104BE0001320FDF733F8C820FBF7EDFD41F290618B
:104BF0001020FDF72BF840F227211120FDF726F8B1
:104C00003220FBF7E0FD0C211220FDF71FF83220C7
:104C1000FBF7D9FD4FF400611320FDF717F81121C0
:104C20002920FDF713F80B212B20FDF70FF8322078
:104C3000FBF7C9FD00212020FDF708F840F23F11E5
:104C40002120FDF703F800213020FCF7FFFF4FF48F
:104C500083713120FCF7FAFF00213220FCF7F6FFC8
:104C60004FF40171352000E064E0FCF7EFFF41F202
:104C70000A613620FCF7EAFF40F207713720FCF7A3
:104C8000E5FF4FF483713820FCF7E0FF40F2077135
:104C90003920FCF7DBFF40F202413C20FCF7D6FF55
:104CA00040F60F413D20FCF7D1FF00215020FCF7DA
:104CB000CDFFEF215120FCF7C9FF00215220FCF766
:104CC000C5FF40F23F115320FCF7C0FF4FF41C51C9
:104CD0006020FCF7BBFF01216120FCF7B7FF00213A
:104CE0006A20FCF7B3FF00218020FCF7AFFF002112
:104CF0008120FCF7ABFF00218220FCF7A7FF0021F9
:104D00008320FCF7A3FF00218420FCF79FFF0021F4
:104D10008520FCF79BFF10219020FCF797FF4FF4B4
:104D2000C0619220FCF792FF40F233110720FCF79C
:104D30008DFF83E48948808845F2084188427DD10F
:104D40004FF480710120FCF781FF4FF4E0610220F5
:104D5000FCF77CFF41F230010320FCF777FF0021D4
:104D60000420FCF773FF40F207210820FCF76EFFD8
:104D700000210920FCF76AFF00210A20FCF766FFEA
:104D800000210C20FCF762FF00210D20FCF75EFFE4
:104D900000210F20FCF75AFF1420FBF714FD41F20D
:104DA000B0611020FCF752FF01211120FCF74EFFEB
:104DB00001211720FCF74AFF4FF49C711220FCF7E9
:104DC00045FF4FF400611320FCF740FF0921292023
:104DD000FCF73CFF09212A20FCF738FF0021A42022
:104DE000FCF734FF00215020FCF730FFEF21512069
:104DF000FCF72CFF00215220FCF728FF40F23F1166
:104E00005320FCF723FF4FF41C516020FCF71EFFDA
:104E100001216120FCF71AFF00216A20FCF716FF30
:104E200000218020FCF712FF00218120FCF70EFFFB
:104E300000218220FCF70AFF002100E024E083200B
:104E4000FCF704FF00218420FCF700FF00218520EF
:104E5000FCF7FCFE13219020FCF7F8FE00219220C5
:104E6000FCF7F4FE03219320FCF7F0FE4FF4887169
:104E70009520FCF7EBFE40F273110720FCF7E6FEED
:104E80003220FBF7A0FCB8E43448808841F2055199
:104E900088427DD100210720FCF7D8FE3220FBF7A5
:104EA00092FC4FF48E711220FCF7D0FE0121A42059
:104EB000FCF7CCFE0F210820FCF7C8FE08210A20D1
:104EC000FCF7C4FE08210D20FCF7C0FE40F207717C
:104ED0003020FCF7BBFE07213120FCF7B7FE40F283
:104EE00003613220FCF7B2FE4FF4E0613320FCF79F
:104EF000ADFE40F202213420FCF7A8FE022135204D
:104F0000FCF7A4FE41F60F713620FCF79FFE40F23D
:104F100007713720FCF79AFE00213820FCF796FE37
:104F200000213920FCF792FE40F207713A20FCF78D
:104F30008DFE00213B20FCF789FE07213C20FCF779
:104F400085FE00213D20FCF781FE3220FBF73BFC73
:104F500001210720FCF77AFE012101E07200002008
:104F60001720FCF773FE3220FBF72DFC4FF4BD51E8
:104F70001020FCF76BFE40F217211120FCF766FEB3
:104F80004FF48F711220FCF761FE4FF4706100E066
:104F900098E01320FCF75AFE00212A20FCF756FE69
:104FA0000A212920FCF752FE4FF49F711220FCF7D2
:104FB0004DFE00215020FCF749FEEF215120FCF767
:104FC00045FE00215220FCF741FE40F23F115320E4
:104FD000FCF73CFE4FF41C516020FCF737FE01212A
:104FE0006120FCF733FE00216A20FCF72FFE002130
:104FF0008020FCF72BFE00218120FCF727FE0021FA
:105000008220FCF723FE00218320FCF71FFE0021F5
:105010008420FCF71BFE00218520FCF717FE1321DE
:105020009020FCF713FE4FF440719220FCF70EFE27
:1050300005219320FCF70AFE00219520FCF706FECF
:1050400000219720FCF702FE00219820FCF7FEFDCE
:105050004FF480710120FCF7F9FD4FF4E06102206C
:10506000FCF7F4FD41F238010320FCF7EFFD0021CD
:105070000420FCF7EBFD00210C20FCF7E7FD0021EC
:105080000F20FCF7E3FD00212020FCF7DFFD0021CD
:105090002120FCF7DBFD21210720FCF7D7FD1420A0
:1050A000FBF791FB61210720FCF7D0FD1420FBF7F3
:1050B0008AFB40F273110720FCF7C8FD1420FBF7B0
:1050C00082FB95E4FE4880884BF2055188427CD1F2
:1050D00000210846FCF7BAFD00210846FCF7B6FDA2
:1050E00000210846FCF7B2FD00210846FCF7AEFDA2
:1050F0000121A420FCF7AAFD1420FBF764FB4FF468
:105100001C516020FCF7A2FD40F202210820FCF7B0
:105110009DFD4FF405713020FCF798FD43F21571A9
:105120003120FCF793FD40F204613220FCF78EFD44
:1051300040F616613320FCF789FD42F2112134203C
:10514000FCF784FD4FF4A8513520FCF77FFD48F2B1
:1051500007513620FCF77AFD41F207413720FCF772
:1051600075FD41F203413820FCF770FD2021392004
:10517000FCF76CFD1A219020FCF768FD002110203F
:10518000FCF764FD07211120FCF760FD00211220CF
:10519000FCF75CFD00211320FCF758FD1420FBF701
:1051A00012FB4FF4E6611020FCF750FD40F237117E
:1051B0001120FCF74BFD1420FBF705FB4FF4DC71CD
:1051C0001220FCF743FD142000E085E0FBF7FBFA1A
:1051D0004FF470611320FCF739FD80212A20FCF781
:1051E00035FD48212920FCF731FD1420FBF7EBFAAF
:1051F0004FF480710120FCF729FD4FF4E06102209B
:10520000FCF724FD41F238010320FCF71FFD40F2BA
:1052100002210820FCF71AFD00210A20FCF716FDE8
:1052200000210C20FCF712FD00210D20FCF70EFDE3
:1052300030210E20FCF70AFD00215020FCF706FD6E
:10524000EF215120FCF702FD00215220FCF7FEFC6B
:1052500040F23F115320FCF7F9FC4FF41C51602041
:10526000FCF7F4FC01216120FCF7F0FC00216A202E
:10527000FCF7ECFC11219020FCF7E8FC4FF4C06136
:105280009220FCF7E3FC40F202419320FCF7DEFCA5
:1052900002219420FCF7DAFC1420FBF794FA012198
:1052A0000720FCF7D3FC1420FBF78DFA61210720BF
:1052B000FCF7CCFC40F273110720FCF7C7FC00217F
:1052C0002020FCF7C3FC00212120FCF7BFFC222199
:1052D0000020FCF7BBFC11E3794880884CF20551B3
:1052E00088427CD100210846FCF7B0FC002108462A
:1052F000FCF7ACFC1420FBF766FA00210846FCF72B
:10530000A5FC00210846FCF7A1FC00210846FCF79B
:105310009DFC00210846FCF799FC0121A420FCF724
:1053200095FC1420FBF74FFA4FF41C516020FCF75A
:105330008DFC40F606010820FCF788FC40F2037162
:105340003020FCF783FC01213120FCF77FFC042195
:105350003220FCF77BFC4FF481713320FCF776FCA4
:105360004FF440713420FCF771FC40F203113520FA
:10537000FCF76CFC1F213620FCF768FC40F203713F
:105380003720FCF763FC01213820FCF75FFC042187
:105390003920FCF75BFC15219020FCF757FC4FF4FB
:1053A00082611020FCF752FC40F247211120FCF7EB
:1053B0004DFC4FF4DE711220FCF748FC4FF46061A5
:1053C0001320FCF743FC7820FBF7FDF94FF48071C4
:1053D0000120FCF73BFC4FF40071022000E052E09A
:1053E000FCF734FC41F230010320FCF72FFC0821CC
:1053F0000A20FCF72BFC00210C20FCF727FC2021C5
:105400000E20FCF723FC00210F20FCF71FFC0021DD
:105410002020FCF71BFC00212120FCF717FC3D217C
:105420002A20FCF713FC1420FBF7CDF92D212920AD
:10543000FCF70CFC00215020FCF708FC4DF2EF01BA
:105440005120FCF703FC00215220FCF7FFFB40F247
:105450003F115320FCF7FAFB00216120FCF7F6FB1B
:1054600000216A20FCF7F2FB4FF440719220FCF718
:10547000EDFB05219320FCF7E9FB4FF48071072039
:10548000FCF7E4FB3AE20E48808844F2315188424E
:105490007ED101210020FCF7D9FB0A20FBF793F90C
:1054A00041F228611020FCF7D1FB0E211220FCF7FD
:1054B000CDFB40F639211320FCF7C8FB0A2001E0A0
:1054C00072000020FBF77FF940211120FCF7BEFBA2
:1054D00050211520FCF7BAFB0A20FBF774F91E21B6
:1054E0001220FCF7B3FB0A20FBF76DF94FF4B15122
:1054F0001020FCF7ABFB42F639211320FCF7A6FB8A
:105500000A20FBF760F94FF480710120FCF79EFB45
:105510004FF440710220FCF799FB41F2380103205F
:10552000FCF794FB40F202210820FCF78FFB0821D6
:105530000A20FCF78BFB00213020FCF787FB40F2B0
:1055400002413120FCF782FB4FF483713220FCF7DB
:105550007DFB40F203513320FCF778FB4FF482715E
:105560003420FCF773FB40F201313520FCF76EFB71
:1055700040F207713620FCF769FB40F20531372015
:10558000FCF764FB4FF402713820FCF75FFB00E08E
:105590003EE040F60B713920FCF758FB0221412018
:1055A000FCF754FB4FF41C516020FCF74FFB01212A
:1055B0006120FCF74BFB4FF404719020FCF746FB95
:1055C0004FF485719220FCF741FB04219320FCF7F6
:1055D0003DFB4FF48071A020FCF738FB0121072030
:1055E000FCF734FB21210720FCF730FB23210720A7
:1055F000FCF72CFB33210720FCF728FB40F233118A
:105600000720FCF723FB0021A020FCF71FFB75E11E
:10561000C148808844F2355188427CD13021152020
:10562000FCF714FB10219A20FCF710FB202111201D
:10563000FCF70CFB43F228411020FCF707FB02218A
:105640001220FCF703FB41F238011320FCF7FEFAAD
:105650002820FBF7B8F812210846FCF7F7FA2820B3
:10566000FBF7B1F843F220411020FCF7EFFA43F2C8
:1056700038011320FCF7EAFA4620FBF7A4F80021D2
:105680003020FCF7E3FA40F202413120FCF7DEFA69
:1056900040F207313220FCF7D9FA4FF44171332040
:1056A000FCF7D4FA04213420FCF7D0FA40F201418F
:1056B0003520FCF7CBFA40F207713620FCF7C6FA2A
:1056C00040F205313720FCF7C1FA4FF4C2613820AF
:1056D000FCF7BCFA4FF4C2613920FCF7B7FA4FF47B
:1056E00080710120FCF7B2FA4FF440710220FCF700
:1056F000ADFA41F230010320FCF7A8FA40F60801A8
:105700000820FCF7A3FA08210A20FCF79FFA4FF4BF
:105710001C51602000E033E0FCF798FA0121612081
:10572000FCF794FA4FF49F719020FCF78FFA4FF436
:1057300080719220FCF78AFA4FF480719320FCF775
:1057400085FA4FF44051A020FCF780FA1021A320E5
:10575000FCF77CFA01210720FCF778FA21210720C9
:10576000FCF774FA23210720FCF770FA3321072095
:10577000FCF76CFA40F233110720FCF767FABDE042
:105780006548808841F663118842F8D1E220FCF731
:1057900047FA1D20FCF738FA0220FCF735FA0420FE
:1057A000FCF732FA6420FBF768F8E020FCF738FADF
:1057B0000120FCF729FA0A20FBF705F8E020FCF7A6
:1057C0002FFA0320FCF720FA0C20FAF7FCFF012047
:1057D000FCF726FA0A20FAF7F6FFE620FCF720FA93
:1057E0002F20FCF711FAFF20FCF70EFAFF20FCF740
:1057F0000BFAB020FCF714FA2020FCF705FA002081
:10580000FCF702FA0120FCF7FFF940F23F10FCF729
:10581000FBF90120FCF7F8F940F2DF10FCF7F4F98E
:105820000020FCF7F1F9B420FCF7FAF90220FCF7AC
:10583000EBF940F23F20FCF7E7F90020FCF7E4F930
:105840002E20FCF7E1F90020FCF7DEF90020FCF740
:10585000DBF90020FCF7D8F90020FCF7D5F9B620D9
:10586000FCF7DEF90220FCF7CFF94FF40370FCF7E8
:10587000CBF90020FCF7C8F91720FCF7C5F9152073
:10588000FCF7C2F90020FCF7BFF90020FCF7BCF9D7
:10589000F020FCF7C5F90320FCF7B6F92920FCF746
:1058A000BFF9D020FCF7BCF90020FCF7ADF9BE2011
:1058B000FCF7B6F90520FCF7A7F9FE20FCF7A4F9E0
:1058C0000120FCF7A1F90020FCF79EF90020FCF76D
:1058D0009BF90020FCF798F9B820FCF7A1F9032008
:1058E000FCF792F90120FCF78FF9BA20FCF798F940
:1058F0000120FCF789F96420FBF7BCFC0020FBF7D2
:105900007DFB01210548FBF7A7FA4FF6FF70FBF777
:105910003FFB1FB000BD000072000020000C0140E2
:10592000704721B1828942F40052828104E0828969
:105930004DF6FF731A408281704702460020B1F590
:10594000007F00D100BF13880B400BB1012000E0A5
:1059500000207047F0B503460024002600250020F3
:1059600040F66A17B94200D100BF1846C1F342148D
:1059700001F01F06012707FA06F5012C01D10C30B2
:1059800004E0022C01D1103000E014301AB1076895
:105990002F43076002E00768AF430760F0BD0000D7
:1059A0002DE9F04786B005460E460024A24600BF0A
:1059B000A1460027B08900B100BF2F462C8A4CF6C3
:1059C000FF700440F08804432C82AC894EF6F3103B
:1059D0000440B08831890843718908430443AC818D
:1059E000AC8A4FF6FF400440B0890443AC8201A862
:1059F000FCF780F91F48874202D1DDF810A001E0D2
:105A0000DDF80CA0A88900F4004040B10AEBCA0000
:105A100000EB0A1031684900B0FBF1F807E00AEB2F
:105A2000CA0000EB0A1031688900B0FBF1F864206D
:105A3000B8FBF0F004012009642101FB1089A8895A
:105A400000F4004040B1322000EBC900B0FBF1F09F
:105A500000F00700044308E0322000EB0910642145
:105A6000B0FBF1F000F00F0004432C8106B0BDE85C
:105A7000F087000000380140C1F3080282807047BF
:105A800000BFFEE710B586B001210420FCF722F923
:105A900001218803FCF71EF90020059018208DF8DD
:105AA00017004FF40070ADF8140003208DF81600B5
:105AB00005A92B48FBF73AF94FF48060ADF81400C4
:105AC00004208DF8170005A92548FBF72FF90020C1
:105AD00001900290039004904FF4E1300190002077
