:020000040800F2
:100000006025002045010008BD2400086D16000889
:10001000B9240008430A00087965000800000000C0
:100020000000000000000000000000003127000870
:10003000150D000800000000BF2400081D2800085E
:100040005F0100085F0100085F0100085F01000810
:100050005F0100085F0100085F0100085F01000800
:100060005F0100085F0100085F0100085F010008F0
:100070005F0100085F0100085F0100085F010008E0
:100080005F0100085F0100085F0100085F010008D0
:100090005F0100085F0100085F0100085F010008C0
:1000A0005F0100085F0100085F0100085F010008B0
:1000B0005F0100085F0100085F0100085F010008A0
:1000C0005F0100085F0100085F0100085F01000890
:1000D0005F010008996200085F0100089D62000846
:1000E0005F0100085F0100085F0100085F01000870
:1000F0005F0100085F0100085F0100085F01000860
:100100005F0100085F0100085F0100085F0100084F
:100110005F0100085F0100085F0100085F0100083F
:100120005F0100085F0100085F0100085F0100082F
:10013000DFF80CD000F05CFB00480047E96F0008D6
:10014000602500200648804706480047FEE7FEE796
:10015000FEE7FEE7FEE7FEE7FEE7FEE7FEE7FEE777
:100160005928000831010008D2B201E000F8012B43
:10017000491EFBD270470022F6E710B513460A4627
:1001800004461946FFF7F0FF204610BD30B505467E
:100190002A460B4612F8010B13F8014B08B1A04296
:1001A000F8D01CB1002802D06D1CF1E7284630BD04
:1001B000421C10F8011B0029FBD1801A70472DE961
:1001C000FE4F804681EA0300C00F0C46009021F0EC
:1001D000004123F00045B8EB0200A94105D240469A
:1001E000214690461C460B46024623F00040104331
:1001F00047D0270DC7F30A00C3F30A510290401AF3
:10020000019040286BDAC3F3130040F4801B009880
:10021000924620B10023D2EB030A63EB0B0B01984B
:100220005946C0F14002504600F0EDF906460D4631
:1002300050465946019A00F005FA10EB080061415A
:10024000002487EA115284EAE7731A4340D0009AE7
:1002500062B3019A012A4FEA075215DC001B61EBD9
:1002600002014FF0004202EA0752CDE90042001CB1
:1002700041F5801132462B4600F03CFA03B0BDE850
:10028000F08F40462146F9E7001B61EB0201001C9C
:1002900041F5801300185B412018A2F5001747EBC9
:1002A000030140EAD570B6196D4111E06D084FEABF
:1002B000360645EAC0754FEA0752001B61EB0201A2
:1002C000001C41F5801149084FEA300000195141E6
:1002D00032462B4603B0BDE8F04F00F0FCB9009861
:1002E000012240000023D0EB020263EBE073009890
:1002F00021464FEAE074B8EB000061EB0401E9E746
:1003000083F000435BE781F0004158E72DE9FE4FA1
:1003100081EA030404F0004421F0004100944FF00E
:10032000000B23F0004350EA01045ED052EA0304BC
:100330005BD0C3F30A54C1F30A552C44A4F2F3343E
:100340000194A0FB0254C1F3130141F48011C3F3E3
:10035000130343F4801301FB024400FB034E840AA1
:10036000970A44EA815447EA8357A4FB0768029539
:100370008D0A05FB07854FEA932C04FB0C542705D7
:10038000029D4FEA065847EA1637B5EB08056EEBB3
:10039000070C870E920E47EA811742EA8312A7FBE9
:1003A0000201B6EB0B0164EB00042B0D43EA0C33A6
:1003B0005E1844EB1C50DA465146E7FB0201C5F3D8
:1003C00013044FEA0B3343EA14534FEA0432019CFF
:1003D00043EA0603A4F10C040294009CCDE900B4A6
:1003E00000F088F903B0BDE8F08F00200146F9E77E
:1003F0002DE9F04D81EA030404F0004B21F00045A3
:1004000014464FF0000A23F0004150EA050220D0C4
:1004100054EA01021DD0C5F30A570246C5F313037F
:10042000C1F31300C1F30A5640F4801543F480135E
:10043000A7EB0608101BD64608F2FD3873EB050043
:1004400002D308F1010801E092185B41B8F1000FF6
:1004500003DA00200146BDE8F08D00204FF4801142
:10046000064684460EE0171B73EB050705D3121BE7
:1004700063EB050306434CEA010C49084FEA3000E0
:1004800092185B4150EA0107EDD152EA030012D005
:1004900082EA040083EA0501084305D0101BAB4142
:1004A00006D20122002306E000224FF0004302E0C2
:1004B0006FF0010253101AEB06004CEB085110EBE1
:1004C0000A0041EB0B01BDE8F04D00F004B90EB598
:1004D00040F2334102910021CDE900110A460B465A
:1004E00000F008F903B000BDC1F30A5210B5C1F322
:1004F000130140F2FF3341F480119A4201DA0020E7
:1005000010BD40F233439A42A2F2334203DC52421E
:1005100000F088F810BD904010BD00F0004230F0AF
:1005200000400AD0C10D01F56071C0F3160042EA27
:100530000151C2084007114370470020014670472F
:1005400001F0004330B421F0004150EA010206D02E
:100550000A0DA2F56072C1F31301002A02DC30BC5F
:1005600000207047440F44EAC104C100E01830BCC9
:1005700000EBC25000F078B830B50B4601460020C1
:100580002022012409E021FA02F59D4205D303FA55
:1005900002F5491B04FA02F52844151EA2F10102D6
:1005A000F1DC30BD2DE9F05F0546002092469B4608
:1005B00088460646814640241BE028464146474679
:1005C000224600F02FF853465A46C01A914110D3E4
:1005D00011461846224600F016F82D1A67EB01085E
:1005E0004F4622460120002100F00DF817EB0009CC
:1005F0004E41201EA4F10104DFDC484631462A4664
:100600004346BDE8F09F202A04DB203A00FA02F1BD
:10061000002070479140C2F1200320FA03F31943F0
:1006200090407047202A04DB203A21FA02F0002192
:10063000704721FA02F3D040C2F1200291400843F2
:1006400019467047202A06DBCB17203A41FA02F000
:1006500043EAE07306E041FA02F3D040C2F120021F
:1006600091400843194670470029A8BF7047401CB5
:10067000490008BF20F00100704710B4B0FA80FCB8
:1006800000FA0CF050EA010404BF10BC704749B1F5
:10069000CCF1200421FA04F411FA0CF118BF012165
:1006A00021430843A3EB0C01CB1D4FEA00614FEA45
:1006B000102042BF002010BC704700EBC350104414
:1006C0000029A4BF10BC7047401C490008BF20F09F
:1006D000010010BC704710B5141E73F1000408DA55
:1006E000401C41F1000192185B411A4301D120F0F6
:1006F000010010BD2DE9F04D92469B4611B1B1FAB3
:1007000081F202E0B0FA80F220329046FFF77BFFE0
:1007100004460F4640EA0A0041EA0B0153465A4696
:10072000084313D0114653EA010019D0C8F1400222
:100730005046FFF777FF05460E465046594642465B
:10074000FFF761FF084305D0012004E02046394649
:10075000BDE8F08D0020054346EAE0762C433743A0
:100760000A986305E40AA0EB08000022FD0A44EAA7
:1007700047540A3002D500200146E9E70105101967
:100780006941DDE9084500196941BDE8F04DA2E77E
:10079000C1F30A52C1F3130140F2FF3341F4801157
:1007A0009A4202DA00200146704740F233439A42EF
:1007B000A2F2334202DC5242FFF734BFFFF723BFFD
:1007C00030B5041E71F1000404DB4FF000444042D8
:1007D00064EB0101141E73F1000405DB1C464FF0AD
:1007E0000043524263EB0403994208BF904230BD7C
:1007F000064C074D06E0E06840F0010394E807006E
:1008000098471034AC42F6D3FFF796FCA4050308D2
:10081000C405030821B1826842F00102826003E04E
:10082000826822F0010282607047000000B587B044
:100830004FF4004001F0D6FE01214FF4057001F0A5
:10084000FDFE00208DF81B002220ADF818000320CB
:100850008DF81A0006A91A4800F074FD0220ADF8C0
:10086000180006A9174800F06DFD00208DF809005A
:1008700004904FF4602003900020019001208DF837
:10088000140000208DF8080001A90F4800F040F87E
:1008900001210D48FFF7BEFF0B4800F0BDF800BF77
:1008A000094800F02AF80028FAD1074800F0C4F8F7
:1008B00000BF054800F00AF80028FAD107B000BDD3
:1008C00000080140001001400024014001460020C2
:1008D0008A6802F004020AB1012000E0002070479B
:1008E0000146C86C80B270470246002013680B4076
:1008F0000BB1012000E000207047014600208A680B
:1009000002F008020AB1012000E000207047000058
:1009100030B502460020002350680F4C20400D796E
:100920000C6844EA05242043506090680B4C20403A
:10093000D1E902542C434D7944EA450420439060A8
:10094000D06A20F470000C7C641EE4B2234340EAB9
:100950000350D06230BD0000FFFEF0FFFDF7F1FF55
:10096000F0B504460D4600200021092D11DDE06898
:10097000A5F10A0606EB4607072606FA07F18843A3
:10098000A5F10A0606EB460603FA06F10843E06005
:100990000CE0206905EB4507072606FA07F18843B6
:1009A00005EB450603FA06F108432061072A0FDA32
:1009B000606B561E06EB86071F2606FA07F1884372
:1009C000561E06EB860605FA06F10843606322E030
:1009D0000D2A0FDA206BD61F06EB86071F2606FAB4
:1009E00007F18843D61F06EB860605FA06F1084391
:1009F000206310E0E06AA2F10D0606EB86071F26D1
:100A000006FA07F18843A2F10D0606EB860605FA01
:100A100006F10843E062F0BD816841F008018160A1
:100A2000704721B1826842F4A002826003E08268CC
:100A300022F4A00282607047816841F00401816065
:100A4000704700BFFEE7000030B5C1B004460D4658
:100A50004FF4807101A8FFF78EFB00F057FA0223D4
:100A60004FF4FA721CA11DA000F01CFA28B11CA0C2
:100A700005F020FE012041B030BD1DA005F01AFE9A
:100A800002234FF4FA7214A11DA000F00BFA20B15A
:100A90001EA005F00FFE0220EDE722A005F00AFEE1
:100AA0002B46224625A101A805F014FE022342F29E
:100AB000107209A101A800F0F5F920B124A005F0F9
:100AC000F9FD0320D7E727A005F0F4FD2AA005F0E3
:100AD000F1FD0020CFE700004F4B00004154000023
:100AE000415420B2E2CAD4CAA7B0DC0D0A0000000B
:100AF000415420B2E2CAD4B3C9B9A60D0A0000001D
:100B000041542B43574D4F44453D310041542B43F5
:100B1000574D4F444520C9E8D6C3CAA7B0DC0D0ADB
:100B20000000000041542B43574D4F444520C9E875
:100B3000D6C3B3C9B9A60D0A0000000041542B4327
:100B4000574A41503D222573222C22257322000052
:100B500041542B43574A415020C9E8D6C3CAA7B0D5
:100B6000DC0D0A0041542B43574A415020C9E8D6B6
:100B7000C3B3C9B9A60D0A00C1ACBDD3C8C8B5E39B
:100B8000B3C9B9A60D0A000030B5C1B004460D4680
:100B90004FF4807101A8FFF7EEFA022341F2883288
:100BA00022A123A000F07EF901280DD123A005F099
:100BB00081FD2AA12CA0FFF747FF28B12CA005F04A
:100BC00079FD012041B030BD2B4622462EA101A85F
:100BD00005F080FD02234FF4FA6214A101A800F091
:100BE00061F9012804D12FA005F064FD0220E9E796
:100BF00002234FF4FA720DA130A000F053F901283E
:100C000004D132A005F056FD0320DBE702234FF4A8
:100C1000FA7235A135A000F045F9012804D136A0BB
:100C200005F048FD0420CDE70020CBE74F4B000046
:100C300041542B43574A41503F000000CEB4BCEC16
:100C4000B2E2B5BDC1ACBDD3C8C8B5E30D0AD6D8B4
:100C5000C1ACD6D02E2E2E0D0A0000003132333416
:100C60003536373900000000616C6F654A756E00DB
:100C7000CEB4BCECB2E2B5BDC8C8B5E3A3ACCDCB35
:100C8000B3F60D0A0000000041542B434950535461
:100C90004152543D22544350222C222573222C25AC
:100CA00064000000C1ACBDD3B7FECEF1C6F7CAA741
:100CB000B0DCA3ACCDCBB3F60D0A000041542B43FE
:100CC00049504D4F44453D3100000000BFAAC6F4D5
:100CD000CDB8B4ABC4A3CABDCAA7B0DCA3ACCDCB5E
:100CE000B3F60D0A000000003E00000041542B4303
:100CF000495053454E440000BDF8C8EBCDB8B4ABE5
:100D0000C4A3CABDCAA7B0DCA3ACCDCBB3F60D0A51
:100D100000000000704770B54FF47A7300FB03F1D8
:100D2000002247E000BF00BF00BF00BF00BF00BF00
:100D300000BF00BF00BF00BF00BF00BF00BF00BFBB
:100D400000BF00BF00BF00BF00BF00BF00BF00BFAB
:100D500000BF00BF00BF00BF00BF00BF00BF00BF9B
:100D600000BF00BF00BF00BF00BF00BF00BF00BF8B
:100D700000BF00BF00BF00BF00BF00BF00BF00BF7B
:100D800000BF00BF00BF00BF00BF00BF00BF00BF6B
:100D900000BF00BF00BF00BF00BF00BF00BF00BF5B
:100DA00000BF00BF00BF00BF00BF00BF00BF00BF4B
:100DB00000BF00BF13460C46491E62F10002002628
:100DC000744073401C43ADD170BD47E000BF00BF0D
:100DD00000BF00BF00BF00BF00BF00BF00BF00BF1B
:100DE00000BF00BF00BF00BF00BF00BF00BF00BF0B
:100DF00000BF00BF00BF00BF00BF00BF00BF00BFFB
:100E000000BF00BF00BF00BF00BF00BF00BF00BFEA
:100E100000BF00BF00BF00BF00BF00BF00BF00BFDA
:100E200000BF00BF00BF00BF00BF00BF00BF00BFCA
:100E300000BF00BF00BF00BF00BF00BF00BF00BFBA
:100E400000BF00BF00BF00BF00BF00BF00BF00BFAA
:100E500000BF00BF00BF00BF00BF00BF011EA0F168
:100E60000100B3D17047000038B5044601210802E3
:100E700001F0E4FB002000904FF40060ADF80000AA
:100E800003208DF802001CB914208DF8030002E045
:100E900004208DF803006946014800F053FA38BD7C
:100EA000002001402DE9F04104460D4617461E463C
:100EB0002046FFF77DF9804600201249A1F808047A
:100EC0004FF481610F48FFF756F900BF3CB11FFA9C
:100ED00088F1204605F02AFA0BA005F049FA5DB129
:100EE0003A462946074800F0AAF828B100200549EB
:100EF000A1F80804BDE8F081701EC0B2061EE5D15D
:100F00000120F7E7420100200D0A000010B504A0FF
:100F100005F02EFA4FF4FA70FFF7FDFE10BD000049
:100F20002B2B2B0051B18200A2F1C042126842F07B
:100F300001038200A2F1C042136009E08200A2F125
:100F4000C0421268034B1A408300A3F1C0431A60E9
:100F500070470000FEFF0F00D0E901121143C26884
:100F60001143026911434269114382691143C26905
:100F70001143026A1143426A1143826A1143C26AF1
:100F80001143026B114302689200A2F1C04211604A
:100F9000816808290BD101688900A1F1C041096865
:100FA00041F0400201688900A1F1C0410A60416B33
:100FB0000968426B526841EA0211426B926841EA49
:100FC0000221426B928941EA0241426B128A41EA54
:100FD0000251426B127D41EA0261426B92691143F8
:100FE0000268521C9200A2F1C0421160C16AB1F5C0
:100FF000804F1BD1816B0968826B526841EA0211F4
:10100000826B926841EA0221826B128A41EA0251A4
:10101000826B127D41EA0261826B92691143026820
:101020009200A2F1C042C2F8041107E06FF07042D2
:1010300001688900A1F1C041C1F80421704770B571
:1010400005460E46144602E00120FFF764FE201E0E
:10105000A4F1010405D031462846FFF797F800288F
:10106000F2D031462846FFF791F870BD2DE9FF5FB9
:101070000020039000248146FFF7F6FE4FF4006144
:10108000A04800F0F3F91420FFF745FE4FF400618B
:101090009C4800F0EDF90120FFF7E6FE0DE009F1B4
:1010A000010000F0FF090120FFF78FFEB9F1640F86
:1010B00003DD012004B0BDE8F09F4FF400619148CA
:1010C00000F0CBF90028EAD04FF000090BE009F15D
:1010D000010000F0FF090120FFF777FEB9F1640F6E
:1010E00001DD0220E6E74FF40061864800F0B5F923
:1010F0000128ECD04FF000090BE009F1010000F0ED
:10110000FF090120FFF761FEB9F1640F01DD032043
:10111000D0E74FF400617B4800F09FF90028ECD045
:1011200000246FE04FF000090BE009F1010000F02E
:10113000FF090120FFF749FEB9F1640F01DD04202A
:10114000B8E74FF400616F4800F087F90128ECD050
:101150004FF000090BE009F1010000F0FF09012048
:10116000FFF733FEB9F1640F01DD0520A2E74FF46C
:101170000061644800F071F90028ECD01E20FFF7F0
:1011800024FE4FF400615F4800F067F9C0B9E21730
:1011900004EB5272D2105C4B9A5C2146E31704EBCD
:1011A0005373DB10A4EBC303C3F107050123AB406A
:1011B0009A432046E31704EB5373DB10524DEA5475
:1011C0004FF400614F4800F048F9012818D1E217A8
:1011D00004EB5272D2104C4B9A5C2146E31704EB9D
:1011E0005373DB10A4EBC303C3F107050123AB402A
:1011F0001A432046E31704EB5373DB10424DEA54C5
:10120000601CC4B2282C8DDB3F4800783E494978E9
:1012100008443D49897808443B49C9780844C0B22C
:101220000390394801790398814269D13649487859
:10123000FFF74DF90022354BCDE90001FFF7D8F853
:1012400005460E4630490878FFF741F907462A4619
:101250003346FEF7B4FF8246FFF772F92C49086067
:101260002949C878FFF733F907460022274BFFF7D3
:10127000BFF805460E4624498878FFF728F98246CC
:101280002A463346FEF79BFFCDE90001FFF758F9E8
:101290002049086008460068FFF73FF905460E46FA
:1012A0001B480068FFF739F907463A460B461AA073
:1012B000CDE9005605F0FEF9134882781CA11E48BE
:1012C00005F008FA00201C4910221346CDE9002140
:1012D0000290962228210F2000F0CEFE0A480278C4
:1012E00016A1154805F0F6F90020134910221346FF
:1012F000CDE90021029096223C210F2000F0BCFE97
:101300000020D7E6002001403400002000002440E7
:101310002C0000203000002048756D3A252E3166E3
:10132000202054656D3A252E31660D0A000000001C
:10133000CEC2B6C83A256400AC000020CAAAB6C81E
:101340003A2564002DE9F0410246002500260020E0
:1013500000230024002791F803C00CF00F0591F83A
:1013600003C00CF0100CBCF1000F03D091F802C0C8
:101370004CEA050591F800C0BCF1000F31D01468AB
:1013800000202BE04FF0010C0CFA00F3B1F800C084
:101390000CEA03069E4220D183004FF00F0C0CFA9A
:1013A00003F7BC4305FA03FC4CEA040491F803C0BC
:1013B000BCF1280F06D14FF0010C0CFA00FCC2F86A
:1013C00014C00AE091F803C0BCF1480F05D14FF0FA
:1013D000010C0CFA00FCC2F810C0401C0828D1D344
:1013E0001460B1F800C0BCF1FF0F34DD5468002078
:1013F0002EE000F1080C4FF0010808FA0CF3B1F8E8
:1014000000C00CEA03069E4221D183004FF00F0C6E
:101410000CFA03F7BC4305FA03FC4CEA040491F808
:1014200003C0BCF1280F05D100F1080C08FA0CF834
:10143000C2F8148091F803C0BCF1480F07D100F145
:10144000080C4FF0010808FA0CF8C2F81080401C94
:101450000828CED35460BDE8F0810246002093688E
:101460000B400BB1012000E0002070474161704744
:101470000161704710B501213448FFF7EEFF0128E4
:1014800005D133480088401C314908805CE01021B8
:101490003048FFF7E2FF28B92F480088401C2E494A
:1014A000088051E020212B48FFF7D7FF28B92B48AF
:1014B0000088401C2949088046E040212548FFF764
:1014C000CCFF28B926480088401C254908803BE00D
:1014D0001F48008802280ADD00201D4908801E4997
:1014E00008801E4908801E490880012010BD1A4846
:1014F000008802280ADD0020154908801649088066
:1015000016490880164908800220EFE71348008832
:1015100002280ADD00200E4908800F4908800F4983
:1015200008800F4908800320E0E70D480088022862
:101530000ADD00200649088007490880074908801D
:10154000074908800420D1E70020CFE700080140C8
:101550002400002000100140260000202800002068
:101560002A0000200EB50523012219461648FFF770
:10157000F7F901211448FFF754FA00BF022112487D
:10158000FFF7B2F90028F9D00F48FFF7A9F90F4982
:101590000880084601880EA005F08CF80B480288E8
:1015A0000EA1104805F096F800200E4910221346AF
:1015B000CDE900210290962264210F2000F05CFD0D
:1015C000024800880EBD0000002401403A000020BF
:1015D000B9E2D5D53A25640D0A000000B9E2D5D5A7
:1015E0003A256400DE0000200EB5052301220B2100
:1015F0001648FFF7B5F901211448FFF712FA00BFAA
:1016000002211248FFF770F90028F9D00F48FFF7C0
:1016100067F90F494880084641880EA005F04AF84E
:101620000B4842880EA1104805F054F800200E49DE
:1016300010221346CDE900210290962250210F205E
:1016400000F01AFD024840880EBD00000024014051
:101650003A000020D1CCCEED3A25640D0A000000FE
:10166000D1CCCEED3A256400DE00002000BFFEE7BD
:1016700008B50121142000F0E1FF002000900420B3
:101680008DF803007020ADF8000003208DF80200F3
:1016900069460548FFF756FE0120ADF8000069468F
:1016A0000248FFF74FFE08BD00100140000801404E
:1016B00070B50446002617480588408845431548FC
:1016C000808846F60401884216D1124880790128A4
:1016D00012D100200F4988712A2048812B2088814F
:1016E0000021084600F0FCFA01200A4988712B20ED
:1016F00048812A20888103E00021084600F0F0FAA2
:1017000000F05EFE002602E003480480761CAE4234
:10171000FAD370BD4E0500200008006C10B50446D9
:10172000002C73D179498871F02008804FF4A070A3
:1017300048800846808849F24131884211D0734878
:10174000808849F2864188420BD07048808846F6EE
:101750000401884205D06D48808845F210318842E6
:1017600020D12C20694908812A2048812B2088819A
:101770000846808846F6040188420BD0634880887A
:1017800045F21031884205D06048808849F2864190
:10179000884206D14FF4A0705C4908804FF4F07085
:1017A0004880AEE05948808845F21051884210D1F7
:1017B0004FF43050554908814FF4285048814FF478
:1017C0002C5088814FF4F07008804FF448704880A6
:1017D00097E04E48808841F6631188420DD12C2055
:1017E0004A4908812B2048812A2088814FF4F070D3
:1017F00008804FF44870488083E0222043490881E4
:1018000020204881212088817BE0FFE701203F499B
:1018100088714FF4A0700880F020488008468088C6
:1018200049F2413188420BD03848808849F28641DC
:10183000884205D03548808845F21031884207D16A
:101840002C20324908812A2048812B2088813FE0C2
:101850002E48808846F60401884207D12C202B4967
:1018600008812B2048812A20888131E02748808800
:1018700045F21051884210D14FF43050234908816D
:101880004FF4285048814FF42C5088814FF4487011
:1018900008804FF4F07048801AE01C48808841F6B8
:1018A000631188420DD12C20184908812A204881D3
:1018B0002B2088814FF4487008804FF4F0704880E6
:1018C00006E02220114908812120488120208881BA
:1018D0000E48808846F6040188420BD00B48808869
:1018E00045F21031884205D00848808849F2864187
:1018F000884206D14FF4F070044908804FF4A0707C
:101900004880002000F070F810BD00004E05002057
:1019100070B505460E4614463146284600F0E0F9FB
:1019200000F04EFD0148048070BD00000008006C0E
:101930002DE9F04F06460F4690469946C346CA46E3
:101940003C460CE0354606E021462846099AFFF75A
:10195000DFFF681C85B25D45F6DB601C84B2544530
:10196000F0DBBDE8F08F000008B503480088009068
:10197000BDF8000008BD00000008006C10B504466A
:10198000204600F011FD0520FFF71FFAFFF7ECFFDE
:1019900010BD00002DE9F0470446BE2000F004FD14
:1019A000052000F0F5FC2046FEF791FD07464FF0BC
:1019B00066320C4BFEF7AAFC0546FEF795FD1FFAB2
:1019C00080F9484600F0E4FC012000F0E1FCFF2033
:1019D00000F0DEFC002000F0DBFC002000F0D8FC72
:1019E000BDE8F08766660440F0B505460024002790
:1019F000BA48807901280BD1B848808846F604019E
:101A0000884205D0B548808841F66311884208D1E4
:101A1000B2488079F0B9B148808841F663118842B4
:101A200018D1082D15D2DFE805F00406080A0C0EBF
:101A3000101206250DE007250BE0042509E0052519
:101A400007E0012505E0002503E0032501E002256C
:101A500000BF00BFA148808849F2413188421DD0B3
:101A60009E48808849F28641884217D09B488088EA
:101A700046F60401884211D09848808845F210311A
:101A800088420BD09548808845F21051884205D095
:101A90009248808841F6631188427DD1082D1CD27E
:101AA000DFE805F00406090C0F12151800BF14E05A
:101AB00044F0800411E044F040040EE044F0C0041F
:101AC0000BE044F0200408E044F0600405E044F03A
:101AD000A00402E044F0E00400BF00BF7F4880881B
:101AE00045F21051884202D14FF4585700E0362792
:101AF0007A48808845F2103188420DD07748808836
:101B000045F21051884207D07448808841F663112D
:101B1000884201D044F008047048808846F60401E9
:101B2000884201D144F002042146384600F052FCBC
:101B30006A48808841F6631188421DD004F0200075
:101B400068B16648008865494988884214DA634864
:101B50000688408861490880084646800CE05F4856
:101B600000885E494988884206DD5C4806884088CE
:101B70005A490880084646805848808845F21051E6
:101B8000884254D15549488900F00EFC002000F0ED
:101B9000FFFB5249498900E078E0491C88B200F017
:101BA00003FC002000F0F4FB4C494989891C88B2F1
:101BB00000F0FAFB49490988491EC1F30F2000F0E3
:101BC000E7FB46494989C91C88B200F0EDFB43494F
:101BD0000978491EC8B200F0DBFB4049888900F053
:101BE000E3FB002000F0D4FB3C498989491C88B202
:101BF00000F0DAFB002000F0CBFB38498989891C12
:101C000088B200F0D1FB35494988491EC1F30F2045
:101C100000F0BEFB31498989C91C88B200F0C4FBC1
:101C20002E498978491EC8B200F0B2FB55E02B4915
:101C3000488900F0B9FB002000F0AAFB002000F06A
:101C4000A7FB26490988491EC1F30F2000F0A0FB1D
:101C500022490978491EC8B200F09AFB1F498889B9
:101C600000F0A2FB002000F093FB002000F090FBAE
:101C70001A494988491EC1F30F2000F089FB174912
:101C80008978491EC8B200F083FB26E0082D1CD2DB
:101C9000DFE805F004070A0D0F12151844F03004B0
:101CA00013E044F0100410E044F020040DE000BF05
:101CB0000BE044F0380408E044F0280405E044F068
:101CC000180402E044F0080400BF00BF032744F4F6
:101CD00080542146384600F07DFBF0BD4E050020C3
:101CE00030B504460D468148808849F2413188422A
:101CF00005D07E48808845F21031884214D17B4956
:101D0000488900F051FB201200F042FBE0B200F0E5
:101D10003FFB7649888900F047FB281200F038FB2A
:101D2000E8B200F035FBE0E07048808849F2864177
:101D300088422ED16D49488900F036FB201200F010
:101D400027FBE0B200F024FB68490988491EC1F373
:101D50000F2000F01DFB65490978491EC8B200F04C
:101D600017FB6249888900F01FFB281200F010FB66
:101D7000E8B200F00DFB5D494988491EC1F30F2010
:101D800000F006FB59498978491EC8B200F000FBF3
:101D9000ABE05648808846F6040188421DD153487E
:101DA0008079012804D151480088401E001B84B26C
:101DB0004E49488900F0F8FA201200F0E9FAE0B242
:101DC00000F0E6FA4949888900F0EEFA281200F09E
:101DD000DFFAE8B200F0DCFA87E04448808841F698
:101DE0006311884247D141488079A8B93F480088AB
:101DF000401E001B84B23D49488900F0D5FA0020FE
:101E000000F0C6FA002000F0C3FA201200F0C0FA79
:101E1000E0B200F0BDFA16E03449488900F0C4FA97
:101E2000201200F0B5FAE0B200F0B2FA2F490988AA
:101E3000491EC1F30F2000F0ABFA2C490978491E66
:101E4000C8B200F0A5FA2949888900F0ADFA281235
:101E500000F09EFAE8B200F09BFA24494988491E36
:101E6000C1F30F2000F094FA20498978491EC8B2C6
:101E700000F08EFA39E01D48808845F21051884202
:101E800020D11A49488900F08FFA201200F080FA18
:101E900016494989491C88B200F086FAE0B200F080
:101EA00077FA1249888900F07FFA281200F070FA58
:101EB0000E498989491C88B200F076FAE8B200F030
:101EC00067FA12E009488079012804D107480088A0
:101ED000401E001B84B205494889214600F07AFA69
:101EE00002498889294600F075FA30BD4E05002068
:101EF0002DE9FF4F81B080460E46DDE90E74B346F2
:101F00002046E31704EB5373DB1021464FEAE47CD1
:101F100004EB5C7C4FEAEC0CA4EBCC0CBCF1000FA6
:101F200002D04FF0010C01E04FF0000C6344224658
:101F300004EBD27C4FEA6C0C03FB0CF3DBB2009396
:101F4000A7F12000C7B2002555E00C2C07D107EB04
:101F500047002B4901EB800010F8059014E0102C8D
:101F600005D1284800EB071010F805900CE0182C5C
:101F700007D107EBC700244901EB800010F805905A
:101F800002E005B0BDE8F08F4FF0000A2DE009F047
:101F9000800028B131464046049AFFF7B9FC06E0BC
:101FA000109820B931464046039AFFF7B1FC4FEA3A
:101FB00049604FEA1069701C86B214484088B042EC
:101FC00000DCDEE7A6EB0B00A0420AD15E4608F17A
:101FD00001001FFA80F80D480088404500DCD0E77A
:101FE00006E00AF1010000F0FF0ABAF1080FCEDBAB
:101FF00000BF681CC5B200988542A6DB00BFC0E7E1
:10200000B8D302082CD802081CDE02084E050020B6
:102010002DE9F84F04460F46154698460A9E4FF0A4
:102020000009CA46A3460020009000BF20E04FF000
:10203000000917E07078317840EA012000903946B5
:102040002046009AFFF764FC601C84B20BEB05008D
:10205000A04202DC5C46781C87B2B61C09F1010084
:102060001FFA80F9A945E5DB0AF101001FFA80FAA1
:10207000C245DCDBBDE8F88F2DE9FF4F84B0804618
:102080008946DDE9117A08F0FF0003900698404484
:1020900080B206900798484480B2079065E19AF8AC
:1020A0000000A02870DD0698804505DBDDF80C8077
:1020B00009EB07001FFA80F90798814500DB59E119
:1020C0000C2F5DD1002558E005EB850000EBC50025
:1020D000AA4911F810009AF8001088424BD105EB7C
:1020E000850000EBC500A54901EB400040789AF857
:1020F000011088423FD100243AE005EB850000EB57
:10210000C5009E4901EB4000801C6100491C415CF8
:1021100005EB850000EBC500984A02EB4000801CEF
:1021200010F8140041EA002B00261DE00BFA06F01F
:1021300000F4004050B109EB040291B208EB060232
:1021400090B28F4A1288FFF7E3FB0BE0139848B96F
:1021500009EB040291B208EB060290B2894A128898
:10216000FFF7D6FB701CC6B2BE42DFDB601CC4B2F8
:10217000BC42C2DB03E0681C85B2322DA4DBC9E09F
:10218000102F56D1002551E0CBE005EB05107E491C
:1021900011F810009AF80010884245D105EB05109F
:1021A000794901EB400040789AF8011088423BD110
:1021B000002436E005EB0510734901EB4000801C5C
:1021C0006100491C415C05EB05106F4A02EB4000C1
:1021D000801C10F8140041EA002B00261DE00BFAC9
:1021E00006F000F4004050B109EB040291B208EB94
:1021F000060290B2624A1288FFF78AFB0BE013983E
:1022000048B909EB040291B208EB060290B25D4AAC
:102210001288FFF77DFB701CC6B2BE42DFDB601C7C
:10222000C4B2BC42C6DB03E0681C85B2322DACDB15
:1022300070E0182F6ED1002569E005EB850000EBFA
:102240004510524911F810009AF8001088425CD1EC
:1022500005EB850000EB45104C4901EB4000407850
:102260009AF80110884250D100244BE005EB85001C
:1022700000EB4510454901EB4000801C04EB440194
:10228000405C020405EB850000EB45103F4901EB83
:102290004000801C04EB4401491C405C42EA0021E0
:1022A00005EB850000EB4510384A02EB4000801C2E
:1022B00004EB4402921C805C41EA000B00261DE006
:1022C0000BFA06F000F4000050B109EB040291B2E1
:1022D00008EB060290B22A4A1288FFF719FB0BE0BE
:1022E000139848B909EB040291B208EB060290B2C8
:1022F000244A1288FFF70CFB701CC6B2BE42DFDB1B
:10230000601CC4B2BC42B1DB03E0681C85B2322D54
:1023100093DB00BF08EB07001FFA80F80AF1020AFE
:1023200023E00698804505DBDDF80C8009EB07000B
:102330001FFA80F90798814500DB1BE09AF800102E
:102340001398CDE9001702900D4803880D480288C4
:1023500049464046FFF7CCFD384607EBD07108EB05
:1023600061011FFA81F80AF1010A9AF800000028B9
:102370007FF495AE00BF08B0BDE8F08F78EB02089F
:102380003E000020400000208CF0020830F70208D8
:1023900001B5BDF800000090BDF8000001490880BB
:1023A00008BD00000008006C01B5BDF800000090F9
:1023B000BDF800000149088008BD0000FE07006C60
:1023C0000248008902490880704700004E0500203D
:1023D000FE07006C024A1080921C118070470000BA
:1023E000FE07006C08B50121402000F027F900200D
:1023F000009010208DF803003C20ADF80000032071
:102400008DF8020069460A48FEF79CFF042108483F
:10241000FFF72EF808210648FFF72AF81021044894
:10242000FFF726F820210248FFF722F808BD000038
:102430000018014000B585B00121102000F0FEF821
:102440000121C80400F0EAF84FF48060ADF81000F4
:1024500003208DF8120018208DF8130004A91448E9
:10246000FEF770FF4FF40060ADF8100004208DF807
:10247000130004A90E48FEF765FF4FF416500090B4
:102480000020ADF80C00ADF804000C20ADF80A00F7
:102490000020ADF80600ADF808006946054803F0D5
:1024A000FBFF0121034803F08EFF05B000BD0000D3
:1024B00000100140004C004000BFFEE7704770472D
:1024C00070B505460C467E2003F05EFF052003F044
:1024D0005BFF422003F058FF284603F055FF2046DB
:1024E00003F052FF85F0470080EA0406304603F00F
:1024F0004BFFEF2003F048FF70BD000010B507212F
:102500000120FFF7DDFF144800884FF47A7190FB3B
:10251000F1F4204600F022F811210020FFF7D0FF4F
:102520000D480088642190FBF1F00A2190FBF1F244
:1025300001FB120018B900210846FFF7C1FF064849
:1025400000884FF47A7190FBF1F201FB12042046EF
:1025500000F004F810BD00003A0000202DE9F04121
:102560000446002C04DA18210020FFF7A9FF64427A
:10257000142C05DAE1B20020FFF7A2FFBDE8F081DC
:10258000642094FBF0F0C7B2642094FBF0F100FBF0
:1025900011400A2190FBF1F0C5B20A2094FBF0F142
:1025A00000FB1140C6B23FB139460020FFF788FF5B
:1025B00014210020FFF784FF3DB129460020FFF7DA
:1025C0007FFF0A210020FFF77BFF46B11DB90021E4
:1025D0000846FFF775FF31460020FFF771FF00BF87
:1025E000CCE7000001460020034A506820F4404038
:1025F00008435060704700000010024029B1064AAD
:1026000052690243044B5A6104E0034A526982430F
:10261000014B5A61704700000010024029B1064A80
:10262000D2690243044BDA6104E0034AD26982436F
:10263000014BDA61704700000010024029B1064AE0
:1026400092690243044B9A6104E0034A926982430F
:10265000014B9A61704700000010024030B5002124
:102660000022002400232D4D6D6805F00C0121B1DE
:10267000042905D0082923D105E0294D056022E071
:10268000274D05601FE0254D6D6805F47012234D40
:102690006D6805F48034022505EB92421CB9214D8A
:1026A000554305600BE01D4D6D6805F400351DB107
:1026B0001C4D5543056002E0194D5543056002E08D
:1026C000174D056000BF00BF144D6D6805F0F001A7
:1026D0000909154D6B5C0568DD4045600F4D6D685F
:1026E00005F4E061090A104D6B5C4568DD408560CA
:1026F0000A4D6D6805F46051C90A0B4D6B5C456865
:10270000DD40C560054D6D6805F44041890B074DFE
:102710006B5CC568B5FBF3F5056130BD0010024088
:1027200000127A0000093D00000000201000002087
:10273000704710B500F002F810BD00000CB5002085
:10274000019000903348006840F4803031490860BF
:1027500000BF3048006800F4003000900198401C31
:102760000190009818B90198B0F5A06FF1D12948EF
:10277000006800F4003010B10120009001E000205A
:1027800000900098012843D12348006840F01000D1
:10279000214908600846006820F0030008600846E8
:1027A000006840F0020008601A4840681949486013
:1027B0000846406848600846406840F480604860C9
:1027C0000846406820F47C1048600846406840F4A1
:1027D000E81048600846006840F08070086000BF5C
:1027E0000C48006800F000700028F9D009484068E3
:1027F00020F00300074948600846406840F00200A6
:10280000486000BF0348406800F00C000828F9D178
:102810000CBD000000100240002002400A48006881
:10282000401C0949086009480068401C07490860C5
:1028300007480068401C0649086006480068401CBC
:1028400004490860704700001400002018000020B0
:102850001C0000202000002010B51348006840F044
:1028600001001149086008464068104908400E49B7
:102870004860084600680E4908400B490860084651
:10288000006820F4802008600846406820F4FE00BC
:1028900048604FF41F008860FFF74BFF4FF0006067
:1028A0000449086010BD0000001002400000FFF85D
:1028B000FFFFF6FE08ED00E000B59FB000201E907F
:1028C00001210802FFF79AFE01214FF4B470FFF7CF
:1028D000B5FE0120ADF8740010208DF877000320BC
:1028E0008DF876001DA9FE48FEF72CFD4CF23370E2
:1028F000ADF8740018208DF8770003208DF876006D
:102900001DA9F848FEF71EFD4FF68070ADF8740063
:1029100018208DF8770003208DF876001DA9F24865
:10292000FEF710FD41F20100ADF8740018208DF89B
:10293000770003208DF876001DA9EC48FEF702FD14
:1029400001200790002008900F20099000200A9095
:102950000B900C900D9000900190032002900020AD
:10296000039004900590069006200E9000200F9092
:102970001090102011900020129014901390159038
:1029800016904FF480501790002018904FF480401C
:10299000199000201A9007A81B90CDF870D00EA8AF
:1029A000FEF7DAFA01210620FEF7BCFA3220FEF724
:1029B000B2F901210020FFF70DFD3220FEF7ABF93F
:1029C0000020FEF7DBFFCA49888008468088FF2880
:1029D0000FDB084680884FF6FF71884209D0C44853
:1029E0008088B0F5134F04D0C1488088B0F5144FEB
:1029F0007ED1D320FFF7D8FCFEF7B6FFBC49888014
:102A0000FEF7B2FFBA498880FEF7AEFFB84988806A
:102A1000084680884FF6FF7101EA0020B44988809B
:102A2000FEF7A2FFB24989880843B1498880084669
:102A3000808849F2413188425AD0AD48808849F2B5
:102A400086418842F8D0BF20FFF7AEFCFEF78CFF2E
:102A5000A7498880FEF788FFA5498880FEF784FF94
:102A6000A3498880FEF780FFA149888008468088B6
:102A70004FF6FF7101EA00209D498880FEF774FF40
:102A80009B49898808439A4988800846808846F689
:102A9000040188427AD0D420FFF786FCFEF764FF59
:102AA00093498880FEF760FF91498880FEF75CFFBC
:102AB0008F498880084680884FF6FF7101EA002020
:102AC0008B498880FEF750FF8949898808438849E7
:102AD00088800846808845F21031884256D04FF4ED
:102AE0005A40FFF761FCFEF73FFF8149888000E014
:102AF0004CE04FF45B40FFF757FCFEF735FF7C4995
:102B00008880084680884FF6FF7101EA00207849E6
:102B100088804FF45C40FFF747FCFEF725FF7449BF
:102B2000898808437249888008468088B0F5004F3C
:102B300002D145F2105088806D48808845F21051CE
:102B4000884223D0A120FFF72FFCFEF70DFF684934
:102B50008880FEF709FF66498880084680884FF61E
:102B6000FF7101EA002062498880FEF7FDFE60499E
:102B7000898808435E4988800846808845F26171EB
:102B8000884203D141F663105949888058488088AB
:102B900049F24131884211D05548808845F21031C0
:102BA00088420BD05248808845F21051884205D0A7
:102BB0004F48808841F6631188421DD14D48006816
:102BC00020F00F004FF02041C1F81C010846D0F85A
:102BD0001C0120F47060C1F81C010846D0F81C01EB
:102BE00040F00300C1F81C010846D0F81C0140F475
:102BF0000070C1F81C0128E03D48808846F60401B9
:102C0000884205D03A4880884CF2055188421CD150
:102C10003848006820F00F004FF02041C1F81C0137
:102C20000846D0F81C0120F47060C1F81C01084669
:102C3000D0F81C0140F00A00C1F81C010846D0F889
:102C40001C0140F44060C1F81C012948808849F209
:102C5000413188427ED1CF20FFF7A6FB0020FFF74D
:102C600097FBC120FFF794FB3020FFF791FBED208D
:102C7000FFF79AFB6420FFF78BFB0320FFF788FB2D
:102C80001220FFF785FB8120FFF782FBE820FFF78A
:102C90008BFB8520FFF77CFB1020FFF779FB7A2068
:102CA000FFF776FBCB20FFF77FFB3920FFF770FBA8
:102CB0002C20FFF76DFB0020FFF76AFB3420FFF7A5
:102CC00067FB0220FFF764FBF720FFF76DFB202076
:102CD000FFF75EFBEA20FFF767FB00200CE0000037
:102CE000000C014000140140001801400020014088
:102CF0004E0500201C0100A0FFF74AFB0020FFF753
:102D000047FBC020FFF750FB1B20FFF741FBC12012
:102D1000FFF74AFB0120FFF73BFBC520FFF744FB11
:102D20003020FFF735FB3020FFF732FBC720FFF7DD
:102D30003BFBB720FFF72CFB3620FFF735FB482085
:102D4000FFF726FB3A20FFF72FFB5520FFF720FB6C
:102D5000B12000E0A5E0FFF727FB0020FFF718FBFC
:102D60001A20FFF715FBB620FFF71EFB0A20FFF71E
:102D70000FFBA220FFF70CFBF220FFF715FB002052
:102D8000FFF706FB2620FFF70FFB0120FFF700FBF4
:102D9000E020FFF709FB0F20FFF7FAFA2A20FFF7E0
:102DA000F7FA2820FFF7F4FA0820FFF7F1FA0E20CF
:102DB000FFF7EEFA0820FFF7EBFA5420FFF7E8FAE6
:102DC000A920FFF7E5FA4320FFF7E2FA0A20FFF710
:102DD000DFFA0F20FFF7DCFA0020FFF7D9FA002016
:102DE000FFF7D6FA0020FFF7D3FA0020FFF7D0FA5A
:102DF000E120FFF7D9FA0020FFF7CAFA1520FFF704
:102E0000C7FA1720FFF7C4FA0720FFF7C1FA11200D
:102E1000FFF7BEFA0620FFF7BBFA2B20FFF7B8FA40
:102E20005620FFF7B5FA3C20FFF7B2FA0520FFF76E
:102E3000AFFA1020FFF7ACFA0F20FFF7A9FA3F20F6
:102E4000FFF7A6FA3F20FFF7A3FA0F20FFF7A0FA3B
:102E50002B20FFF7A9FA0020FFF79AFA0020FFF7CE
:102E600097FA0120FFF794FA3F20FFF791FA2A2002
:102E7000FFF79AFA0020FFF78BFA0020FFF788FA95
:102E80000020FFF785FAEF20FFF782FA1120FFF705
:102E90008BFA7820FDF73FFF2920FFF785FA03F032
:102EA000E9B9FE48808849F2864188427ED1F22005
:102EB000FFF77AFA1820FFF76BFAA320FFF768FAFA
:102EC0001220FFF765FA0220FFF762FAB220FFF73F
:102ED0005FFA1220FFF75CFAFF20FFF759FA102083
:102EE000FFF756FA0020FFF753FAF820FFF75CFAD5
:102EF0002120FFF74DFA0420FFF74AFAF920FFF7E7
:102F000053FA0020FFF744FA0820FFF741FA362071
:102F1000FFF74AFA0820FFF73BFA3A20FFF744FA96
:102F20000520FFF735FAB420FFF73EFA0120FFF73E
:102F30002FFAB620FFF738FA0220FFF729FA2220ED
:102F4000FFF726FAC120FFF72FFA4120FFF720FAFA
:102F5000C520FFF729FA0020FFF71AFA0720FFF72C
:102F600017FAE020FFF720FA0F20FFF711FA1F20D1
:102F7000FFF70EFA1C20FFF70BFA0C20FFF708FAF8
:102F80000F20FFF705FA0820FFF702FA4820FFF7A5
:102F9000FFF99820FFF7FCF93720FFF7F9F90A202D
:102FA000FFF7F6F91320FFF7F3F900E045E00420FE
:102FB000FFF7EEF91120FFF7EBF90D20FFF7E8F925
:102FC0000020FFF7E5F9E120FFF7EEF90F20FFF70A
:102FD000DFF93220FFF7DCF92E20FFF7D9F90B20BB
:102FE000FFF7D6F90D20FFF7D3F90520FFF7D0F949
:102FF0004720FFF7CDF97520FFF7CAF93720FFF713
:10300000C7F90620FFF7C4F91020FFF7C1F9032024
:10301000FFF7BEF92420FFF7BBF92020FFF7B8F92E
:103020000020FFF7B5F91120FFF7BEF97820FDF772
:1030300072FE2920FFF7B8F931E79848808846F6F4
:10304000040188427ED11120FFF7AEF91420FDF76C
:1030500062FED020FFF7A8F90720FFF799F9422078
:10306000FFF796F91D20FFF793F9D120FFF79CF9A0
:103070000020FFF78DF91A20FFF78AF90920FFF7E2
:1030800087F9D220FFF790F90120FFF781F922207C
:10309000FFF77EF9C020FFF787F91020FFF778F9D6
:1030A0003B20FFF775F90020FFF772F90220FFF7C8
:1030B0006FF91120FFF76CF9C520FFF775F90320B0
:1030C000FFF766F9C820FFF76FF90020FFF760F9F6
:1030D0002520FFF75DF92120FFF75AF90520FFF7BA
:1030E00057F90020FFF754F90A20FFF751F965203E
:1030F000FFF74EF92520FFF74BF97720FFF748F946
:103100005020FFF745F90F20FFF742F90020FFF7A5
:103110003FF9F820FFF748F90120FFF739F9FE20C1
:10312000FFF742F90020FFF733F90220FFF730F9EB
:103130002020FFF739F93620FFF736F90820FFF78E
:1031400027F900E02AE03A20FFF72EF95520FFF793
:103150001FF92B20FFF728F90020FFF719F90020AD
:10316000FFF716F90120FFF713F93F20FFF710F9D9
:103170002A20FFF719F90020FFF70AF90020FFF7CE
:1031800007F90120FFF704F9DF20FFF701F97820A4
:10319000FDF7C1FD2920FFF707F980E63F48808849
:1031A00045F21031884240F07C87ED20FFF7FCF8B3
:1031B0000120FFF7EDF8FE20FFF7EAF8EE20FFF719
:1031C000F3F8DE20FFF7E4F82120FFF7E1F8F12023
:1031D000FFF7EAF80120FFF7DBF8DF20FFF7E4F85C
:1031E0001020FFF7D5F8C420FFF7DEF88F20FFF797
:1031F000CFF8C620FFF7D8F80020FFF7C9F8E22083
:10320000FFF7C6F8E220FFF7C3F8E220FFF7C0F8A7
:10321000BF20FFF7C9F8AA20FFF7BAF8B020FFF7E0
:10322000C3F80D20FFF7B4F80020FFF7B1F80D2028
:10323000FFF7AEF80020FFF7ABF81120FFF7A8F872
:103240000020FFF7A5F81920FFF7A2F80020FFF7EC
:103250009FF82120FFF79CF80020FFF799F82D2018
:10326000FFF796F80020FFF793F83D20FFF790F85E
:103270000020FFF78DF85D20FFF78AF80020FFF7A8
:1032800087F85D20FFF784F80020FFF781F8B12070
:10329000FFF78AF88020FFF77BF801E04E05002059
:1032A0000020FFF775F88B20FFF772F80020FFF77A
:1032B0006FF89620FFF76CF80020FFF769F8B2204E
:1032C000FFF772F80020FFF763F80020FFF760F8BF
:1032D0000220FFF75DF80020FFF75AF80320FFF700
:1032E00057F80020FFF754F8B320FFF75DF80020EF
:1032F000FFF74EF80020FFF74BF80020FFF748F8E3
:103300000020FFF745F80020FFF742F80020FFF704
:103310003FF80020FFF73CF80020FFF739F80020C5
:10332000FFF736F80020FFF733F80020FFF730F8FA
:103330000020FFF72DF80020FFF72AF80020FFF704
:1033400027F80020FFF724F80020FFF721F80020DD
:10335000FFF71EF80020FFF71BF80020FFF718F812
:103360000020FFF715F80020FFF712F80020FFF704
:103370000FF80020FFF70CF80020FFF709F8B42041
:10338000FFF712F88B20FFF703F80020FFF700F893
:103390009620FEF7FDFF0020FEF7FAFFA120FEF7C2
:1033A000F7FF0020FEF7F4FFB520FEF7FDFF022037
:1033B000FEF7EEFF0020FEF7EBFF0320FEF7E8FF2D
:1033C0000020FEF7E5FF0420FEF7E2FF0020FEF7F5
:1033D000DFFFB620FEF7E8FF0020FEF7D9FF002050
:1033E000FEF7D6FFB720FEF7DFFF0020FEF7D0FF85
:1033F0000020FEF7CDFF3F20FEF7CAFF0020FEF7BA
:10340000C7FF5E20FEF7C4FF0020FEF7C1FF642067
:10341000FEF7BEFF0020FEF7BBFF8C20FEF7B8FFD3
:103420000020FEF7B5FFAC20FEF7B2FF0020FEF74C
:10343000AFFFDC20FEF7ACFF0020FEF7A9FF7020F5
:10344000FEF7A6FF0020FEF7A3FF9020FEF7A0FFE7
:103450000020FEF79DFFEB20FEF79AFF0020FEF70D
:1034600097FFDC20FEF794FF0020FEF791FFB820C5
:10347000FEF79AFF0020FEF78BFF0020FEF788FF83
:103480000020FEF785FF0020FEF782FF0020FEF7F8
:103490007FFF0020FEF77CFF0020FEF779FF002071
:1034A000FEF776FFBA20FEF77FFF2420FEF770FFBD
:1034B0000020FEF76DFF0020FEF76AFF0020FEF7F8
:1034C00067FFC120FEF770FF2020FEF761FF00209C
:1034D000FEF75EFF5420FEF75BFF0020FEF758FF6B
:1034E000FF20FEF755FF0020FEF752FFC220FEF737
:1034F0005BFF0A20FEF74CFF0020FEF749FF042087
:10350000FEF746FF0020FEF743FFC320FEF74CFF07
:103510003C20FEF73DFF0020FEF73AFF3A20FEF781
:1035200037FF0020FEF734FF3920FEF731FF00207F
:10353000FEF72EFF3720FEF72BFF0020FEF728FFB7
:103540003C20FEF725FF0020FEF722FF3620FEF785
:103550001FFF0020FEF71CFF3220FEF719FF00209E
:10356000FEF716FF2F20FEF713FF0020FEF710FFD7
:103570002C20FEF70DFF0020FEF70AFF2920FEF7A2
:1035800007FF0020FEF704FF2620FEF701FF0020C2
:10359000FEF7FEFE2420FEF7FBFE0020FEF7F8FEFD
:1035A0002420FEF7F5FE0020FEF7F2FE2320FEF7B2
:1035B000EFFE0020FEF7ECFE3C20FEF7E9FE0020C7
:1035C000FEF7E6FE3620FEF7E3FE0020FEF7E0FE03
:1035D0003220FEF7DDFE0020FEF7DAFE2F20FEF798
:1035E000D7FE0020FEF7D4FE2C20FEF7D1FE0020EF
:1035F000FEF7CEFE2920FEF7CBFE0020FEF7C8FE28
:103600002620FEF7C5FE0020FEF7C2FE2420FEF7AE
:10361000BFFE0020FEF7BCFE2420FEF7B9FE00200E
:10362000FEF7B6FE2320FEF7B3FE0020FEF7B0FE45
:10363000C420FEF7B9FE6220FEF7AAFE0020FEF7C6
:10364000A7FE0520FEF7A4FE0020FEF7A1FE8420C1
:10365000FEF79EFE0020FEF79BFEF020FEF798FE90
:103660000020FEF795FE1820FEF792FE0020FEF7E0
:103670008FFEA420FEF78CFE0020FEF789FE1820A6
:10368000FEF786FE0020FEF783FE5020FEF780FE48
:103690000020FEF77DFE0C20FEF77AFE0020FEF7EC
:1036A00077FE1720FEF774FE0020FEF771FE9520CE
:1036B000FEF76EFE0020FEF76BFEF320FEF768FEBD
:1036C0000020FEF765FEE620FEF762FE0020FEF712
:1036D0005FFEC520FEF768FE3220FEF759FE00208F
:1036E000FEF756FE4420FEF753FE0020FEF750FE84
:1036F0006520FEF74DFE0020FEF74AFE7620FEF71D
:1037000047FE0020FEF744FE8820FEF741FE002021
:10371000FEF73EFEC620FEF747FE2020FEF738FEED
:103720000020FEF735FE1720FEF732FE0020FEF7E0
:103730002FFE0120FEF72CFE0020FEF729FEC720F9
:10374000FEF732FE0020FEF723FE0020FEF720FEEB
:103750000020FEF71DFE0020FEF71AFEC820FEF72F
:1037600023FE0020FEF714FE0020FEF711FE0020CD
:10377000FEF70EFE0020FEF70BFEC920FEF714FE3A
:103780000020FEF705FE0020FEF702FE0020FEF7F7
:10379000FFFD0020FEF7FCFD0020FEF7F9FD0020F4
:1037A000FEF7F6FD0020FEF7F3FD0020FEF7F0FD2A
:1037B0000020FEF7EDFD0020FEF7EAFD0020FEF7F9
:1037C000E7FD0020FEF7E4FD0020FEF7E1FD00200C
:1037D000FEF7DEFD0020FEF7DBFD0020FEF7D8FD42
:1037E000E020FEF7E1FD1620FEF7D2FD0020FEF7F7
:1037F000CFFD1C20FEF7CCFD0020FEF7C9FD2120E7
:10380000FEF7C6FD0020FEF7C3FD3620FEF7C0FD23
:103810000020FEF7BDFD4620FEF7BAFD0020FEF7B2
:10382000B7FD5220FEF7B4FD0020FEF7B1FD642085
:10383000FEF7AEFD0020FEF7ABFD7A20FEF7A8FDF7
:103840000020FEF7A5FD8B20FEF7A2FD0020FEF76D
:103850009FFD9920FEF79CFD0020FEF799FDA82012
:10386000FEF796FD0020FEF793FDB920FEF790FDD0
:103870000020FEF78DFDC420FEF78AFD0020FEF734
:1038800087FDCA20FEF784FD0020FEF781FDD220CF
:10389000FEF77EFD0020FEF77BFDD920FEF778FDC8
:1038A0000020FEF775FDE020FEF772FD0020FEF718
:1038B0006FFDF320FEF76CFD0020FEF769FDE120AF
:1038C000FEF772FD1620FEF763FD0020FEF760FD97
:1038D0001C20FEF75DFD0020FEF75AFD2220FEF7BA
:1038E00057FD0020FEF754FD3620FEF751FD002065
:1038F000FEF74EFD4520FEF74BFD0020FEF748FD8C
:103900005220FEF745FD0020FEF742FD6420FEF741
:103910003FFD0020FEF73CFD7A20FEF739FD002038
:10392000FEF736FD8B20FEF733FD0020FEF730FD5D
:103930009920FEF72DFD0020FEF72AFDA820FEF7B6
:1039400027FD0020FEF724FDB920FEF721FD002011
:10395000FEF71EFDC420FEF71BFD0020FEF718FD3C
:10396000CA20FEF715FD0020FEF712FDD220FEF75B
:103970000FFD0020FEF70CFDD820FEF709FD00200A
:10398000FEF706FDE020FEF703FD0020FEF700FD38
:10399000F320FEF7FDFC0020FEF7FAFCE220FEF724
:1039A00003FD0520FEF7F4FC0020FEF7F1FC0B20E0
:1039B000FEF7EEFC0020FEF7EBFC1B20FEF7E8FC18
:1039C0000020FEF7E5FC3420FEF7E2FC0020FEF7C5
:1039D000DFFC4420FEF7DCFC0020FEF7D9FC4F2082
:1039E000FEF7D6FC0020FEF7D3FC6120FEF7D0FCEA
:1039F0000020FEF7CDFC7920FEF7CAFC0020FEF780
:103A0000C7FC8820FEF7C4FC0020FEF7C1FC97200D
:103A1000FEF7BEFC0020FEF7BBFCA620FEF7B8FCBC
:103A20000020FEF7B5FCB720FEF7B2FC0020FEF741
:103A3000AFFCC220FEF7ACFC0020FEF7A9FCC720BB
:103A4000FEF7A6FC0020FEF7A3FCD120FEF7A0FCA9
:103A50000020FEF79DFCD620FEF79AFC0020FEF722
:103A600097FCDD20FEF794FC0020FEF791FCF3208C
:103A7000FEF78EFC0020FEF78BFCE320FEF794FCA3
:103A80000520FEF785FC0020FEF782FC0A20FEF7E9
:103A90007FFC0020FEF77CFC1C20FEF779FC002058
:103AA000FEF776FC3320FEF773FC0020FEF770FC77
:103AB0004420FEF76DFC0020FEF76AFC5020FEF764
:103AC00067FC0020FEF764FC6220FEF761FC00202A
:103AD000FEF75EFC7820FEF75BFC0020FEF758FC4A
:103AE0008820FEF755FC0020FEF752FC9720FEF7D9
:103AF0004FFC0020FEF74CFCA620FEF749FC0020FE
:103B0000FEF746FCB720FEF743FC0020FEF740FC22
:103B1000C220FEF73DFC0020FEF73AFCC720FEF76E
:103B200037FC0020FEF734FCD120FEF731FC0020EA
:103B3000FEF72EFCD520FEF72BFC0020FEF728FC1C
:103B4000DD20FEF725FC0020FEF722FCF320FEF727
:103B50001FFC0020FEF71CFCE420FEF725FC0120E2
:103B6000FEF716FC0020FEF713FC0120FEF710FC08
:103B70000020FEF70DFC0220FEF70AFC0020FEF7F5
:103B800007FC2A20FEF704FC0020FEF701FC3C2085
:103B9000FEF7FEFB0020FEF7FBFB4B20FEF7F8FBD9
:103BA0000020FEF7F5FB5D20FEF7F2FB0020FEF79C
:103BB000EFFB7420FEF7ECFB0020FEF7E9FB84200E
:103BC000FEF7E6FB0020FEF7E3FB9320FEF7E0FBA9
:103BD0000020FEF7DDFBA220FEF7DAFB0020FEF757
:103BE000D7FBB320FEF7D4FB0020FEF7D1FBBE20AD
:103BF000FEF7CEFB0020FEF7CBFBC420FEF7C8FB90
:103C00000020FEF7C5FBCD20FEF7C2FB0020FEF72B
:103C1000BFFBD320FEF7BCFB0020FEF7B9FBDD2085
:103C2000FEF7B6FB0020FEF7B3FBF320FEF7B0FB78
:103C30000020FEF7ADFBE520FEF7B6FB0020FEF707
:103C4000A7FB0020FEF7A4FB0020FEF7A1FB00204D
:103C5000FEF79EFB0220FEF79BFB0020FEF798FB81
:103C60002920FEF795FB0020FEF792FB3C20FEF793
:103C70008FFB0020FEF78CFB4B20FEF789FB00201A
:103C8000FEF786FB5D20FEF783FB0020FEF780FB3E
:103C90007420FEF77DFB0020FEF77AFB8420FEF700
:103CA00077FB0020FEF774FB9320FEF771FB0020EA
:103CB000FEF76EFBA220FEF76BFB0020FEF768FB11
:103CC000B320FEF765FB0020FEF762FBBE20FEF787
:103CD0005FFB0020FEF75CFBC420FEF759FB0020D1
:103CE000FEF756FBCD20FEF753FB0020FEF750FBFE
:103CF000D320FEF74DFB0020FEF74AFBDC20FEF749
:103D000047FB0020FEF744FBF320FEF741FB0020B9
:103D1000FEF73EFBE620FEF747FB1120FEF738FBDF
:103D20000020FEF735FB3420FEF732FB0020FEF7C3
:103D30002FFB5620FEF72CFB0020FEF729FB7620F8
:103D4000FEF726FB0020FEF723FB7720FEF720FB83
:103D50000020FEF71DFB6620FEF71AFB0020FEF791
:103D600017FB8820FEF714FB0020FEF711FB9920BB
:103D7000FEF70EFB0020FEF70BFBBB20FEF708FB57
:103D80000020FEF705FB9920FEF702FB0020FEF75E
:103D9000FFFA6620FEF7FCFA0020FEF7F9FA55203C
:103DA000FEF7F6FA0020FEF7F3FA5520FEF7F0FAD8
:103DB0000020FEF7EDFA4520FEF7EAFA0020FEF7B4
:103DC000E7FA4320FEF7E4FA0020FEF7E1FA442088
:103DD000FEF7DEFA0020FEF7DBFAE720FEF7E4FA52
:103DE0003220FEF7D5FA0020FEF7D2FA5520FEF772
:103DF000CFFA0020FEF7CCFA7620FEF7C9FA0020B1
:103E0000FEF7C6FA6620FEF7C3FA0020FEF7C0FAF6
:103E10006720FEF7BDFA0020FEF7BAFA6720FEF72A
:103E2000B7FA0020FEF7B4FA8720FEF7B1FA0020B7
:103E3000FEF7AEFA9920FEF7ABFA0020FEF7A8FADB
:103E4000BB20FEF7A5FA0020FEF7A2FA9920FEF7A4
:103E50009FFA0020FEF79CFA7720FEF799FA0020DF
:103E6000FEF796FA4420FEF793FA0020FEF790FA48
:103E70005620FEF78DFA0020FEF78AFA2320FEF77F
:103E800087FA0020FEF784FA3320FEF781FA00203B
:103E9000FEF77EFA4520FEF77BFA0020FEF778FA5F
:103EA000E820FEF781FA0020FEF772FA0020FEF704
:103EB0006FFA9920FEF76CFA0020FEF769FA872066
:103EC000FEF766FA0020FEF763FA8820FEF760FA34
:103ED0000020FEF75DFA7720FEF75AFA0020FEF781
:103EE00057FA6620FEF754FA0020FEF751FA8820B0
:103EF000FEF74EFA0020FEF74BFAAA20FEF748FA2A
:103F00000020FEF745FABB20FEF742FA0020FEF73C
:103F10003FFA9920FEF73CFA0020FEF739FA6620B6
:103F2000FEF736FA0020FEF733FA5520FEF730FA96
:103F30000020FEF72DFA5520FEF72AFA0020FEF7A2
:103F400027FA4420FEF724FA0020FEF721FA442045
:103F5000FEF71EFA0020FEF71BFA5520FEF718FAAE
:103F60000020FEF715FAE920FEF71EFAAA20FEF758
:103F70000FFA0020FEF70CFA0020FEF709FA0020E5
:103F8000FEF706FA0020FEF70FFAAA20FEF700FA65
:103F9000CF20FEF709FA0020FEF7FAF90020FEF71D
:103FA000F7F90020FEF7F4F90020FEF7F1F9002000
:103FB000FEF7EEF90020FEF7EBF90020FEF7E8F936
:103FC0000020FEF7E5F90020FEF7E2F90020FEF7F9
:103FD000DFF90020FEF7DCF90020FEF7D9F9002018
:103FE000FEF7D6F90020FEF7D3F90020FEF7D0F94E
:103FF0000020FEF7CDF90020FEF7CAF9F020FEF709
:10400000D3F90020FEF7C4F95020FEF7C1F90020D3
:10401000FEF7BEF90020FEF7BBF90020FEF7B8F965
:10402000F320FEF7C1F90020FEF7B2F9F920FEF700
:10403000BBF90620FEF7ACF91020FEF7A9F92920FC
:10404000FEF7A6F90020FEF7A3F93A20FEF7ACF937
:104050005520FEF79DF91120FEF7A6F96420FCF724
:104060005AFE2920FEF7A0F93520FEF79DF9002021
:10407000FEF78EF95120FEF797F9FF20FEF788F939
:104080005320FEF791F92C20FEF782F95520FEF718
:104090008BF98220FEF77CF92C20FEF785F902F0DF
:1040A000E9B8FE48808845F2105188427ED15521FA
:1040B0004FF47040FEF78EF9AA214FF20100FEF78F
:1040C00089F952214FF20200FEF784F908214FF2DC
:1040D0000300FEF77FF901214FF20400FEF77AF9A1
:1040E0000D214FF43040FEF775F90D214BF2010020
:1040F000FEF770F90D214BF20200FEF76BF9342147
:104100004FF43640FEF766F934214BF20160FEF7BA
:1041100061F934214BF20260FEF75CF90D214FF496
:104120003140FEF757F90D214BF20110FEF752F91D
:104130000D214BF20210FEF74DF934214FF43740B8
:10414000FEF748F934214BF20170FEF743F93421B0
:104150004BF20270FEF73EF900214FF43240FEF7B9
:1041600039F900214BF20120FEF734F900214BF21E
:104170000220FEF72FF924214FF43840FEF72AF9E8
:1041800024214BF60100FEF725F924214BF602000D
:10419000FEF720F901214FF43F40FEF71BF90F21F4
:1041A0004FF43340FEF716F90F2100E0FEE34BF227
:1041B0000130FEF70FF90F214BF20230FEF70AF93A
:1041C00034214FF43940FEF705F934214BF6011044
:1041D000FEF700F934214BF60210FEF7FBF8082138
:1041E0004FF43540FEF7F6F808214BF20150FEF788
:1041F000F1F808214BF20250FEF7ECF803214FF4DE
:104200004240FEF7E7F824214FF43A40FEF7E2F887
:1042100024214BF60120FEF7DDF824214BF6022085
:10422000FEF7D8F800214FF43C40FEF7D3F8782190
:104230004BF60140FEF7CEF800214BF60240FEF7A8
:10424000C9F800214FF43D40FEF7C4F878214BF641
:104250000150FEF7BFF800214BF60250FEF7BAF806
:1042600000214FF43E40FEF7B5F864214BF60160A3
:10427000FEF7B0F800214FF45140FEF7ABF83321C0
:104280004DF20110FEF7A6F800214DF20210FEF7E4
:10429000A1F834214DF20310FEF79CF800214DF2F5
:1042A0000410FEF797F83A214DF20510FEF792F848
:1042B00000214DF20610FEF78DF84A214DF207104D
:1042C000FEF788F800214DF20810FEF783F85C2114
:1042D0004DF20910FEF77EF800214DF20A10FEF7AC
:1042E00079F881214DF20B10FEF774F800214DF2A0
:1042F0000C10FEF76FF8A6214DF20D10FEF76AF8CC
:1043000000214DF20E10FEF765F8E5214DF20F1079
:10431000FEF760F801214DF21010FEF75BF8132153
:104320004DF21110FEF756F801214DF21210FEF772
:1043300051F854214DF21310FEF74CF801214DF2C3
:104340001410FEF747F882214DF21510FEF742F8DF
:1043500001214DF21610FEF73DF8CA214DF217105B
:10436000FEF738F802214DF21810FEF733F800215D
:104370004DF21910FEF72EF802214DF21A10FEF739
:1043800029F801214DF21B10FEF724F802214DF20D
:104390001C10FEF71FF834214DF21D10FEF71AF81D
:1043A00002214DF21E10FEF715F867214DF21F1085
:1043B000FEF710F802214DF22010FEF70BF88421D1
:1043C0004DF22110FEF706F802214DF22210FEF701
:1043D00001F8A4214DF22310FDF7FCFF02214DF25C
:1043E0002410FDF7F7FFB7214DF22510FDF7F2FF7E
:1043F00002214DF22610FDF7EDFFCF214DF22710DF
:10440000FDF7E8FF02214DF22810FDF7E3FFDE2162
:104410004DF22910FDF7DEFF02214DF22A10FDF7C3
:10442000D9FFF2214DF22B10FDF7D4FF02214DF2FE
:104430002C10FDF7CFFFFE214DF22D10FDF7CAFF26
:1044400003214DF22E10FDF7C5FF10214DF22F1064
:10445000FDF7C0FF03214DF23010FDF7BBFF332104
:104460004DF23110FDF7B6FF03214DF23210FDF78A
:10447000B1FF6D214DF23310FDF7ACFF00214FF479
:104480005240FDF7A7FF33214DF20120FDF7A2FFB7
:1044900000214DF20220FDF79DFF01E04E050020B6
:1044A00034214DF20320FDF795FF00214DF2042049
:1044B000FDF790FF3A214DF20520FDF78BFF00211B
:1044C0004DF20620FDF786FF4A214DF20720FDF749
:1044D00081FF00214DF20820FDF77CFF5C214DF2A9
:1044E0000920FDF777FF00214DF20A20FDF772FF4A
:1044F00081214DF20B20FDF76DFF00214DF20C20C4
:10450000FDF768FFA6214DF20D20FDF763FF0021A6
:104510004DF20E20FDF75EFFE5214DF20F20FDF775
:1045200059FF01214DF21020FDF754FF13214DF2E8
:104530001120FDF74FFF01214DF21220FDF74AFF38
:1045400054214DF21320FDF745FF01214DF21420B7
:10455000FDF740FF82214DF21520FDF73BFF0121C1
:104560004DF21620FDF736FFCA214DF21720FDF758
:1045700031FF02214DF21820FDF72CFF00214DF2F2
:104580001920FDF727FF02214DF21A20FDF722FF27
:1045900001214DF21B20FDF71DFF02214DF21C20D1
:1045A000FDF718FF34214DF21D20FDF713FF022106
:1045B0004DF21E20FDF70EFF67214DF21F20FDF783
:1045C00009FF02214DF22020FDF704FF84214DF266
:1045D0002120FDF7FFFE02214DF22220FDF7FAFE19
:1045E000A4214DF22320FDF7F5FE02214DF22420F7
:1045F000FDF7F0FEB7214DF22520FDF7EBFE02217D
:104600004DF22620FDF7E6FECF214DF22720FDF7E3
:10461000E1FE02214DF22820FDF7DCFEDE214DF205
:104620002920FDF7D7FE02214DF22A20FDF7D2FE08
:10463000F2214DF22B20FDF7CDFE02214DF22C2070
:10464000FDF7C8FEFE214DF22D20FDF7C3FE03212C
:104650004DF22E20FDF7BEFE10214DF22F20FDF76A
:10466000B9FE03214DF23020FDF7B4FE33214DF2A7
:104670003120FDF7AFFE03214DF23220FDF7AAFEF7
:104680006D214DF23320FDF7A5FE00214FF453407C
:10469000FDF7A0FE33214DF20130FDF79BFE002116
:1046A0004DF20230FDF796FE34214DF20330FDF756
:1046B00091FE00214DF20430FDF78CFE3A214DF2BF
:1046C0000530FDF787FE00214DF20630FDF782FE32
:1046D0004A214DF20730FDF77DFE00214DF20830F2
:1046E000FDF778FE5C214DF20930FDF773FE0021E5
:1046F0004DF20A30FDF76EFE81214DF20B30FDF7D1
:1047000069FE00214DF20C30FDF764FEA6214DF24A
:104710000D30FDF75FFE00214DF20E30FDF75AFE21
:10472000E5214DF20F30FDF755FE01214DF210301D
:10473000FDF750FE13214DF21130FDF74BFE012124
:104740004DF21230FDF746FE54214DF21330FDF7C5
:1047500041FE01214DF21430FDF73CFE82214DF265
:104760001530FDF737FE01214DF21630FDF732FE10
:10477000CA214DF21730FDF72DFE02214DF21830FF
:10478000FDF728FE00214DF21930FDF723FE02212E
:104790004DF21A30FDF71EFE01214DF21B30FDF7E0
:1047A00019FE02214DF21C30FDF714FE34214DF2AA
:1047B0001D30FDF70FFE02214DF21E30FDF70AFEFF
:1047C00067214DF21F30FDF705FE02214DF220302A
:1047D000FDF700FE84214DF22130FDF7FBFD0221A3
:1047E0004DF22230FDF7F6FDA4214DF22330FDF706
:1047F000F1FD02214DF22430FDF7ECFDB7214DF221
:104800002530FDF7E7FD02214DF22630FDF7E2FDF0
:10481000CF214DF22730FDF7DDFD02214DF228308A
:10482000FDF7D8FDDE214DF22930FDF7D3FD022141
:104830004DF22A30FDF7CEFDF2214DF22B30FDF77F
:10484000C9FD02214DF22C30FDF7C4FDFE214DF2D1
:104850002D30FDF7BFFD03214DF22E30FDF7BAFDDF
:1048600010214DF22F30FDF7B5FD03214DF2303010
:10487000FDF7B0FD33214DF23130FDF7ABFD0321E3
:104880004DF23230FDF7A6FD6D214DF23330FDF7CC
:10489000A1FD00214FF45440FDF79CFD33214DF262
:1048A0000140FDF797FD00214DF20240FDF792FD1A
:1048B00034214DF20340FDF78DFD00214DF20440FF
:1048C000FDF788FD3A214DF20540FDF783FD0021FB
:1048D0004DF20640FDF77EFD4A214DF20740FDF7FF
:1048E00079FD00214DF20840FDF774FD5C214DF289
:1048F0000940FDF76FFD00214DF20A40FDF76AFD0A
:1049000081214DF20B40FDF765FD00214DF20C4079
:10491000FDF760FDA6214DF20D40FDF75BFD002186
:104920004DF20E40FDF756FDE5214DF20F40FDF72B
:1049300051FD01214DF21040FDF74CFD13214DF2C8
:104940001140FDF747FD01214DF21240FDF742FDF8
:1049500054214DF21340FDF73DFD01214DF214406D
:10496000FDF738FD82214DF21540FDF733FD0121A1
:104970004DF21640FDF72EFDCA214DF21740FDF70E
:1049800029FD02214DF21840FDF724FD00214DF2D2
:104990001940FDF71FFD02214DF21A40FDF71AFDE7
:1049A00001214DF21B40FDF715FD00E004E302215B
:1049B0004DF21C40FDF70EFD34214DF21D40FDF778
:1049C00009FD02214DF21E40FDF704FD67214DF265
:1049D0001F40FDF7FFFC02214DF22040FDF7FAFCDD
:1049E00084214DF22140FDF7F5FC02214DF22240D9
:1049F000FDF7F0FCA4214DF22340FDF7EBFC022172
:104A00004DF22440FDF7E6FCB7214DF22540FDF7BD
:104A1000E1FC02214DF22640FDF7DCFCCF214DF2F6
:104A20002740FDF7D7FC02214DF22840FDF7D2FCCC
:104A3000DE214DF22940FDF7CDFC02214DF22A4046
:104A4000FDF7C8FCF2214DF22B40FDF7C3FC02211B
:104A50004DF22C40FDF7BEFCFE214DF22D40FDF73E
:104A6000B9FC03214DF22E40FDF7B4FC10214DF2AC
:104A70002F40FDF7AFFC03214DF23040FDF7AAFCBB
:104A800033214DF23140FDF7A5FC03214DF23240B8
:104A9000FDF7A0FC6D214DF23340FDF79BFC00219A
:104AA0004FF45540FDF796FC33214DF20150FDF7D0
:104AB00091FC00214DF20250FDF78CFC34214DF2A7
:104AC0000350FDF787FC00214DF20450FDF782FCF6
:104AD0003A214DF20550FDF77DFC00214DF20650C4
:104AE000FDF778FC4A214DF20750FDF773FC0021D9
:104AF0004DF20850FDF76EFC5C214DF20950FDF7B8
:104B000069FC00214DF20A50FDF764FC81214DF251
:104B10000B50FDF75FFC00214DF20C50FDF75AFCE5
:104B2000A6214DF20D50FDF755FC00214DF20E501F
:104B3000FDF750FCE5214DF20F50FDF74BFC012134
:104B40004DF21050FDF746FC13214DF21150FDF7C8
:104B500041FC01214DF21250FDF73CFC54214DF275
:104B60001350FDF737FC01214DF21450FDF732FCD4
:104B700082214DF21550FDF72DFC01214DF216500A
:104B8000FDF728FCCA214DF21750FDF723FC022146
:104B90004DF21850FDF71EFC00214DF21950FDF7A3
:104BA00019FC02214DF21A50FDF714FC01214DF2BF
:104BB0001B50FDF70FFC02214DF21C50FDF70AFCC3
:104BC00034214DF21D50FDF705FC02214DF21E501F
:104BD000FDF700FC67214DF21F50FDF7FBFB0221A2
:104BE0004DF22050FDF7F6FB84214DF22150FDF7E8
:104BF000F1FB02214DF22250FDF7ECFBA4214DF216
:104C00002350FDF7E7FB02214DF22450FDF7E2FBB4
:104C1000B7214DF22550FDF7DDFB02214DF2265064
:104C2000FDF7D8FBCF214DF22750FDF7D3FB022132
:104C30004DF22850FDF7CEFBDE214DF22950FDF755
:104C4000C9FB02214DF22A50FDF7C4FBF2214DF2BF
:104C50002B50FDF7BFFB02214DF22C50FDF7BAFBA4
:104C6000FE214DF22D50FDF7B5FB03214DF22E50E4
:104C7000FDF7B0FB10214DF22F50FDF7ABFB0321E8
:104C80004DF23050FDF7A6FB33214DF23150FDF7C8
:104C9000A1FB03214DF23250FDF79CFB6D214DF23B
:104CA0003350FDF797FB00214FF45640FDF792FB80
:104CB00033214DF20160FDF78DFB00214DF20260C2
:104CC000FDF788FB34214DF20360FDF783FB0021E3
:104CD0004DF20460FDF77EFB3A214DF20560FDF7D1
:104CE00079FB00214DF20660FDF774FB4A214DF27D
:104CF0000760FDF76FFB00214DF20860FDF76AFBCE
:104D00005C214DF20960FDF765FB00214DF20A6060
:104D1000FDF760FB81214DF20B60FDF75BFB00218D
:104D20004DF20C60FDF756FBA6214DF20D60FDF72C
:104D300051FB00214DF20E60FDF74CFBE5214DF2D9
:104D40000F60FDF747FB01214DF21060FDF742FBBC
:104D500013214DF21160FDF73DFB01214DF2126070
:104D6000FDF738FB54214DF21360FDF733FB0121B1
:104D70004DF21460FDF72EFB82214DF21560FDF718
:104D800029FB01214DF21660FDF724FBCA214DF2EB
:104D90001760FDF71FFB02214DF21860FDF71AFBAB
:104DA00000214DF21960FDF715FB02214DF21A604A
:104DB000FDF710FB01214DF21B60FDF70BFB0221FB
:104DC0004DF21C60FDF706FB34214DF21D60FDF72E
:104DD00001FB02214DF21E60FDF7FCFA67214DF246
:104DE0001F60FDF7F7FA02214DF22060FDF7F2FA9D
:104DF00084214DF22160FDF7EDFA02214DF222608F
:104E0000FDF7E8FAA4214DF22360FDF7E3FA022151
:104E10004DF22460FDF7DEFAB7214DF22560FDF773
:104E2000D9FA02214DF22660FDF7D4FACF214DF2D6
:104E30002760FDF7CFFA02214DF22860FDF7CAFA8C
:104E4000DE214DF22960FDF7C5FA02214DF22A60FC
:104E5000FDF7C0FAF2214DF22B60FDF7BBFA0221FB
:104E60004DF22C60FDF7B6FAFE214DF22D60FDF7F4
:104E7000B1FA03214DF22E60FDF7ACFA10214DF28C
:104E80002F60FDF7A7FA03214DF23060FDF7A2FA7B
:104E900033214DF23160FDF79DFA03214DF232606E
:104EA000FDF798FA6D214DF23360FDF793FA552125
:104EB0004FF47040FDF78EFAAA214FF20100FDF782
:104EC00089FA52214FF20200FDF784FA08214FF2CD
:104ED0000300FDF77FFA00214FF20400FDF77AFA94
:104EE000CC214FF43140FDF775FA00214BF201104F
:104EF000FDF770FA05214FF43640FDF76BFA70218B
:104F00004FF43740FDF766FA70214BF20170FDF760
:104F100061FA01214FF43840FDF75CFA03214BF6AA
:104F20000100FDF757FA03214BF60200FDF752FA94
:104F300003214BF60300FDF74DFA02214FF43C40EC
:104F4000FDF748FA00214BF60140FDF743FA002136
:104F50004BF60240FDF73EFAD0214FF44940FDF7F1
:104F600039FA02214CF60110FDF734FA50214CF6C3
:104F70000210FDF72FFA50214CF60310FDF72AFA24
:104F800050214CF60410FDF725FA00214FF454503F
:104F9000FDF720FA55214FF46850FDF71BFA4FF446
:104FA0008850FDF701FA7820FBF70FFF4FF42450EB
:104FB000FDF7FAF901F05EB9FE48808849F2253123
:104FC00088427DD147F6F001E520FDF703FA4FF462
:104FD00080710120FDF7FEF94FF4E0610220FDF73A
:104FE000F9F941F230010320FDF7F4F90021042022
:104FF000FDF7F0F940F202210820FDF7EBF900215E
:105000000920FDF7E7F900210A20FDF7E3F9002167
:105010000C20FDF7DFF900210D20FDF7DBF9002161
:105020000F20FDF7D7F900211020FDF7D3F9072154
:105030001120FDF7CFF900211220FDF7CBF9002157
:105040001320FDF7C7F900210720FDF7C3F941F24E
:1050500090611020FDF7BEF940F227211120FDF7E5
:10506000B9F99D211220FDF7B5F94FF4C85113206D
:10507000FDF7B0F925212920FDF7ACF90D212B20F2
:10508000FDF7A8F907213020FDF7A4F940F203311C
:105090003120FDF79FF903213220FDF79BF940F203
:1050A00006213520FDF796F908213620FDF792F903
:1050B00040F206413720FDF78DF94FF4417100E0D1
:1050C00058E03820FDF786F907213920FDF782F9ED
:1050D00040F202613C20FDF77DF908213D20FDF7FB
:1050E00079F900215020FDF775F9EF215120FDF7E6
:1050F00071F900215220FDF76DF940F23F11532064
:10510000FDF768F94FF427416020FDF763F90121AD
:105110006120FDF75FF900216A20FDF75BF90021AE
:105120008020FDF757F900218120FDF753F9002178
:105130008220FDF74FF900218320FDF74BF9002174
:105140008420FDF747F900218520FDF743F9102160
:105150009020FDF73FF94FF4C0619220FDF73AF936
:1051600040F233110720FDF735F922210020FDF729
:1051700031F91FE78F48808849F2283188427DD174
:1051800041F28F01EC20FDF725F941F23421EF20A7
:10519000FDF720F94FF480710120FDF71BF94FF462
:1051A000E0610220FDF716F941F230010320FDF71E
:1051B00011F900210420FDF70DF940F20221082029
:1051C000FDF708F900210920FDF704F900210A2064
:1051D000FDF700F901210C20FDF7FCF800210D205E
:1051E000FDF7F8F800210F20FDF7F4F8002110205A
:1051F000FDF7F0F807211120FDF7ECF8002112204F
:10520000FDF7E8F800211320FDF7E4F8012107205D
:10521000FDF7E0F83220FBF77EFD41F290411020CF
:10522000FDF7D8F840F227211120FDF7D3F83220FE
:10523000FBF771FD8A211220FDF7CCF83220FBF735
:105240006AFD4FF4D0511320FDF7C4F80621292040
:10525000FDF7C0F80D212B20FDF7BCF83220FBF73D
:105260005AFD00212020FDF7B5F800212120FDF78F
:10527000B1F83220FBF74FFD002100E075E030204F
:10528000FDF7A8F840F204613120FDF7A3F840F2E1
:1052900005313220FDF79EF800213520FDF79AF800
:1052A00040F609413620FDF795F84FF4017137209B
:1052B000FDF790F840F201313820FDF78BF840F20D
:1052C00007713920FDF786F800213C20FDF782F8B0
:1052D00040F60A213D20FDF77DF83220FBF71BFD4B
:1052E00000215020FDF776F8EF215120FDF772F8EC
:1052F00000215220FDF76EF840F23F115320FDF7D8
:1053000069F84FF427416020FDF764F8012161201E
:10531000FDF760F800216A20FDF75CF8002180208D
:10532000FDF758F800218120FDF754F80021822074
:10533000FDF750F800218320FDF74CF80021842070
:10534000FDF748F800218520FDF744F81021902052
:10535000FDF740F84FF4C0619220FDF73BF840F2B2
:1053600033110720FDF736F824E61248808849F209
:10537000203188427ED100210846FDF72BF84FF4FA
:1053800080710120FDF726F84FF4E0610220FDF75F
:1053900021F841F230010320FDF71CF80021042020
:1053A000FDF718F840F202210820FDF713F800215C
:1053B000092001E04E050020FDF70CF800210A202D
:1053C000FDF708F801210C20FDF704F800210D205D
:1053D000FDF700F800210F20FCF7FCFF3220FBF75F
:1053E0009AFC40F201110720FCF7F4FF3220FBF792
:1053F00092FC4FF486511020FCF7ECFF072111209E
:10540000FCF7E8FF4FF488711220FCF7E3FF4FF43C
:1054100030611320FCF7DEFF00212920FCF7DAFFC2
:1054200044F210012B20FCF7D5FF00215020FCF79F
:10543000D1FFEF215120FCF7CDFF00215220FCF7D6
:10544000C9FF40F23F115320FCF7C4FF4FF41C5139
:105450006020FCF7BFFF01216120FCF7BBFF0021AA
:105460006A20FCF7B7FF00218020FCF7B3FF002182
:10547000812000E030E0FCF7ADFF00218220FCF746
:10548000A9FF00218320FCF7A5FF00218420FCF761
:10549000A1FF00218520FCF79DFF10219020FCF743
:1054A00099FF00219220FCF795FF01219320FCF742
:1054B00091FF4FF488719520FCF78CFF0021972015
:1054C000FCF788FF00219820FCF784FF40F273115D
:1054D0000720FCF77FFF6DE5FE48808849F23131F7
:1054E00088427DD141F21401E720FCF773FF4FF4AD
:1054F00080710120FCF76EFF4FF400710220FCF771
:1055000069FF41F238010320FCF764FF40F20221F9
:105510000820FCF75FFF00210920FCF75BFF00215A
:105520000A20FCF757FF00210C20FCF753FF002155
:105530000D20FCF74FFF00210F20FCF74BFF00214F
:105540001020FCF747FF07211120FCF743FF002143
:105550001220FCF73FFF00211320FCF73BFFC8207F
:10556000FBF7D9FB41F290611020FCF733FF40F2CA
:1055700027211120FCF72EFF3220FBF7CCFB0C215A
:105580001220FCF727FF3220FBF7C5FB4FF4006128
:105590001320FCF71FFF11212920FCF71BFF0B2113
:1055A0002B20FCF717FF3220FBF7B5FB0021202052
:1055B000FCF710FF40F23F112120FCF70BFF002108
:1055C0003020FCF707FF4FF483713120FCF702FF16
:1055D00000213220FCF7FEFE4FF40171352000E07F
:1055E00064E0FCF7F7FE41F20A613620FCF7F2FEB8
:1055F00040F207713720FCF7EDFE4FF4837138203D
:10560000FCF7E8FE40F207713920FCF7E3FE40F2B8
:1056100002413C20FCF7DEFE40F60F413D20FCF746
:10562000D9FE00215020FCF7D5FEEF215120FCF7D8
:10563000D1FE00215220FCF7CDFE40F23F11532055
:10564000FCF7C8FE4FF41C516020FCF7C3FE01219B
:105650006120FCF7BFFE00216A20FCF7BBFE0021A1
:105660008020FCF7B7FE00218120FCF7B3FE00216B
:105670008220FCF7AFFE00218320FCF7ABFE002167
:105680008420FCF7A7FE00218520FCF7A3FE102153
:105690009020FCF79FFE4FF4C0619220FCF79AFE29
:1056A00040F233110720FCF795FE83E48948808897
:1056B00045F2084188427DD14FF480710120FCF70A
:1056C00089FE4FF4E0610220FCF784FE41F23001D4
:1056D0000320FCF77FFE00210420FCF77BFE40F254
:1056E00007210820FCF776FE00210920FCF772FE56
:1056F00000210A20FCF76EFE00210C20FCF76AFE58
:1057000000210D20FCF766FE00210F20FCF762FE51
:105710001420FBF700FB41F2B0611020FCF75AFEA9
:1057200001211120FCF756FE01211720FCF752FE43
:105730004FF49C711220FCF74DFE4FF400611320D2
:10574000FCF748FE09212920FCF744FE09212A2004
:10575000FCF740FE0021A420FCF73CFE0021502075
:10576000FCF738FEEF215120FCF734FE00215220D7
:10577000FCF730FE40F23F115320FCF72BFE4FF4B4
:105780001C516020FCF726FE01216120FCF722FE5F
:1057900000216A20FCF71EFE00218020FCF71AFE83
:1057A00000218120FCF716FE00218220FCF712FE6A
:1057B000002100E024E08320FCF70CFE002184207F
:1057C000FCF708FE00218520FCF704FE1321902041
:1057D000FCF700FE00219220FCF7FCFD0321932042
:1057E000FCF7F8FD4FF488719520FCF7F3FD40F2CB
:1057F00073110720FCF7EEFD3220FBF78CFAB8E4BA
:105800003448808841F2055188427DD1002107202B
:10581000FCF7E0FD3220FBF77EFA4FF48E71122088
:10582000FCF7D8FD0121A420FCF7D4FD0F210820AE
:10583000FCF7D0FD08210A20FCF7CCFD08210D2043
:10584000FCF7C8FD40F207713020FCF7C3FD0721CB
:105850003120FCF7BFFD40F203613220FCF7BAFDB6
:105860004FF4E0613320FCF7B5FD40F20221342013
:10587000FCF7B0FD02213520FCF7ACFD41F60F71BD
:105880003620FCF7A7FD40F207713720FCF7A2FD98
:1058900000213820FCF79EFD00213920FCF79AFDFD
:1058A00040F207713A20FCF795FD00213B20FCF700
:1058B00091FD07213C20FCF78DFD00213D20FCF7E8
:1058C00089FD3220FBF727FA01210720FCF782FD32
:1058D000012101E04E0500201720FCF77BFD32205E
:1058E000FBF719FA4FF4BD511020FCF773FD40F29D
:1058F00017211120FCF76EFD4FF48F711220FCF779
:1059000069FD4FF4706100E098E01320FCF762FD40
:1059100000212A20FCF75EFD0A212920FCF75AFD10
:105920004FF49F711220FCF755FD00215020FCF729
:1059300051FDEF215120FCF74DFD00215220FCF7D5
:1059400049FD40F23F115320FCF744FD4FF41C5138
:105950006020FCF73FFD01216120FCF73BFD0021A9
:105960006A20FCF737FD00218020FCF733FD002181
:105970008120FCF72FFD00218220FCF72BFD002168
:105980008320FCF727FD00218420FCF723FD002164
:105990008520FCF71FFD13219020FCF71BFD4FF421
:1059A00040719220FCF716FD05219320FCF712FDB3
:1059B00000219520FCF70EFD00219720FCF70AFD41
:1059C00000219820FCF706FD4FF480710120FCF7C0
:1059D00001FD4FF4E0610220FCF7FCFC41F23801CC
:1059E0000320FCF7F7FC00210420FCF7F3FC002166
:1059F0000C20FCF7EFFC00210F20FCF7EBFC002152
:105A00002020FCF7E7FC00212120FCF7E3FC21210A
:105A10000720FCF7DFFC1420FBF77DF9612107204C
:105A2000FCF7D8FC1420FBF776F940F2731107203D
:105A3000FCF7D0FC1420FBF76EF995E4FE48808853
:105A40004BF2055188427CD100210846FCF7C2FC8C
:105A500000210846FCF7BEFC00210846FCF7BAFC12
:105A600000210846FCF7B6FC0121A420FCF7B2FC9B
:105A70001420FBF750F94FF41C516020FCF7AAFCEE
:105A800040F202210820FCF7A5FC4FF405713020FC
:105A9000FCF7A0FC43F215713120FCF79BFC40F2AF
:105AA00004613220FCF796FC40F616613320FCF7C7
:105AB00091FC42F211213420FCF78CFC4FF4A851E8
:105AC0003520FCF787FC48F207513620FCF782FCB2
:105AD00041F207413720FCF77DFC41F203413820B9
